{
	"contracts/FundMe.sol": {
		"FundMe": {
			"abi": [
				{
					"inputs": [],
					"name": "Fund",
					"outputs": [],
					"stateMutability": "payable",
					"type": "function"
				},
				{
					"inputs": [],
					"name": "Withdraw",
					"outputs": [],
					"stateMutability": "nonpayable",
					"type": "function"
				},
				{
					"inputs": [
						{
							"internalType": "address",
							"name": "",
							"type": "address"
						}
					],
					"name": "addreddToAmountFeed",
					"outputs": [
						{
							"internalType": "uint256",
							"name": "",
							"type": "uint256"
						}
					],
					"stateMutability": "view",
					"type": "function"
				},
				{
					"inputs": [
						{
							"internalType": "uint256",
							"name": "",
							"type": "uint256"
						}
					],
					"name": "fundersList",
					"outputs": [
						{
							"internalType": "address",
							"name": "",
							"type": "address"
						}
					],
					"stateMutability": "view",
					"type": "function"
				},
				{
					"inputs": [],
					"name": "minimumFund",
					"outputs": [
						{
							"internalType": "uint256",
							"name": "",
							"type": "uint256"
						}
					],
					"stateMutability": "view",
					"type": "function"
				}
			],
			"devdoc": {
				"kind": "dev",
				"methods": {},
				"version": 1
			},
			"evm": {
				"assembly": "    /* \"contracts/FundMe.sol\":94:1099  contract FundMe{... */\n  mstore(0x40, 0x80)\n    /* \"contracts/FundMe.sol\":188:197  50 * 1e18 */\n  0x02b5e3af16b1880000\n    /* \"contracts/FundMe.sol\":159:197  uint256 public minimumFund = 50 * 1e18 */\n  0x00\n  sstore\n    /* \"contracts/FundMe.sol\":94:1099  contract FundMe{... */\n  callvalue\n  dup1\n  iszero\n  tag_1\n  jumpi\n  0x00\n  dup1\n  revert\ntag_1:\n  pop\n  dataSize(sub_0)\n  dup1\n  dataOffset(sub_0)\n  0x00\n  codecopy\n  0x00\n  return\nstop\n\nsub_0: assembly {\n        /* \"contracts/FundMe.sol\":94:1099  contract FundMe{... */\n      mstore(0x40, 0x80)\n      jumpi(tag_1, lt(calldatasize, 0x04))\n      shr(0xe0, calldataload(0x00))\n      dup1\n      0x47ff62c6\n      eq\n      tag_2\n      jumpi\n      dup1\n      0x520fcd61\n      eq\n      tag_3\n      jumpi\n      dup1\n      0x57ea89b6\n      eq\n      tag_4\n      jumpi\n      dup1\n      0x66b30f06\n      eq\n      tag_5\n      jumpi\n      dup1\n      0x6ce1417e\n      eq\n      tag_6\n      jumpi\n    tag_1:\n      0x00\n      dup1\n      revert\n        /* \"contracts/FundMe.sol\":204:232  address[] public fundersList */\n    tag_2:\n      callvalue\n      dup1\n      iszero\n      tag_7\n      jumpi\n      0x00\n      dup1\n      revert\n    tag_7:\n      pop\n      tag_8\n      0x04\n      dup1\n      calldatasize\n      sub\n      dup2\n      add\n      swap1\n      tag_9\n      swap2\n      swap1\n      tag_10\n      jump\t// in\n    tag_9:\n      tag_11\n      jump\t// in\n    tag_8:\n      mload(0x40)\n      tag_12\n      swap2\n      swap1\n      tag_13\n      jump\t// in\n    tag_12:\n      mload(0x40)\n      dup1\n      swap2\n      sub\n      swap1\n      return\n        /* \"contracts/FundMe.sol\":239:293  mapping(address => uint256) public addreddToAmountFeed */\n    tag_3:\n      callvalue\n      dup1\n      iszero\n      tag_14\n      jumpi\n      0x00\n      dup1\n      revert\n    tag_14:\n      pop\n      tag_15\n      0x04\n      dup1\n      calldatasize\n      sub\n      dup2\n      add\n      swap1\n      tag_16\n      swap2\n      swap1\n      tag_17\n      jump\t// in\n    tag_16:\n      tag_18\n      jump\t// in\n    tag_15:\n      mload(0x40)\n      tag_19\n      swap2\n      swap1\n      tag_20\n      jump\t// in\n    tag_19:\n      mload(0x40)\n      dup1\n      swap2\n      sub\n      swap1\n      return\n        /* \"contracts/FundMe.sol\":527:1096  function Withdraw() public{... */\n    tag_4:\n      callvalue\n      dup1\n      iszero\n      tag_21\n      jumpi\n      0x00\n      dup1\n      revert\n    tag_21:\n      pop\n      tag_22\n      tag_23\n      jump\t// in\n    tag_22:\n      stop\n        /* \"contracts/FundMe.sol\":159:197  uint256 public minimumFund = 50 * 1e18 */\n    tag_5:\n      callvalue\n      dup1\n      iszero\n      tag_24\n      jumpi\n      0x00\n      dup1\n      revert\n    tag_24:\n      pop\n      tag_25\n      tag_26\n      jump\t// in\n    tag_25:\n      mload(0x40)\n      tag_27\n      swap2\n      swap1\n      tag_20\n      jump\t// in\n    tag_27:\n      mload(0x40)\n      dup1\n      swap2\n      sub\n      swap1\n      return\n        /* \"contracts/FundMe.sol\":302:519  function Fund() public payable{... */\n    tag_6:\n      tag_28\n      tag_29\n      jump\t// in\n    tag_28:\n      stop\n        /* \"contracts/FundMe.sol\":204:232  address[] public fundersList */\n    tag_11:\n      0x01\n      dup2\n      dup2\n      sload\n      dup2\n      lt\n      tag_30\n      jumpi\n      0x00\n      dup1\n      revert\n    tag_30:\n      swap1\n      0x00\n      mstore\n      keccak256(0x00, 0x20)\n      add\n      0x00\n      swap2\n      pop\n      sload\n      swap1\n      0x0100\n      exp\n      swap1\n      div\n      0xffffffffffffffffffffffffffffffffffffffff\n      and\n      dup2\n      jump\t// out\n        /* \"contracts/FundMe.sol\":239:293  mapping(address => uint256) public addreddToAmountFeed */\n    tag_18:\n      mstore(0x20, 0x02)\n      dup1\n      0x00\n      mstore\n      keccak256(0x00, 0x40)\n      0x00\n      swap2\n      pop\n      swap1\n      pop\n      sload\n      dup2\n      jump\t// out\n        /* \"contracts/FundMe.sol\":527:1096  function Withdraw() public{... */\n    tag_23:\n        /* \"contracts/FundMe.sol\":568:577  uint256 i */\n      0x00\n        /* \"contracts/FundMe.sol\":564:674  for(uint256 i =0; i<fundersList.length; i++){... */\n    tag_33:\n        /* \"contracts/FundMe.sol\":584:595  fundersList */\n      0x01\n        /* \"contracts/FundMe.sol\":584:602  fundersList.length */\n      dup1\n      sload\n      swap1\n      pop\n        /* \"contracts/FundMe.sol\":582:583  i */\n      dup2\n        /* \"contracts/FundMe.sol\":582:602  i<fundersList.length */\n      lt\n        /* \"contracts/FundMe.sol\":564:674  for(uint256 i =0; i<fundersList.length; i++){... */\n      iszero\n      tag_34\n      jumpi\n        /* \"contracts/FundMe.sol\":661:662  0 */\n      0x00\n        /* \"contracts/FundMe.sol\":623:642  addreddToAmountFeed */\n      0x02\n        /* \"contracts/FundMe.sol\":623:658  addreddToAmountFeed[fundersList[i]] */\n      0x00\n        /* \"contracts/FundMe.sol\":643:654  fundersList */\n      0x01\n        /* \"contracts/FundMe.sol\":655:656  i */\n      dup5\n        /* \"contracts/FundMe.sol\":643:657  fundersList[i] */\n      dup2\n      sload\n      dup2\n      lt\n      tag_36\n      jumpi\n      tag_37\n      tag_38\n      jump\t// in\n    tag_37:\n    tag_36:\n      swap1\n      0x00\n      mstore\n      keccak256(0x00, 0x20)\n      add\n      0x00\n      swap1\n      sload\n      swap1\n      0x0100\n      exp\n      swap1\n      div\n      0xffffffffffffffffffffffffffffffffffffffff\n      and\n        /* \"contracts/FundMe.sol\":623:658  addreddToAmountFeed[fundersList[i]] */\n      0xffffffffffffffffffffffffffffffffffffffff\n      and\n      0xffffffffffffffffffffffffffffffffffffffff\n      and\n      dup2\n      mstore\n      0x20\n      add\n      swap1\n      dup2\n      mstore\n      0x20\n      add\n      0x00\n      keccak256\n        /* \"contracts/FundMe.sol\":623:662  addreddToAmountFeed[fundersList[i]] = 0 */\n      dup2\n      swap1\n      sstore\n      pop\n        /* \"contracts/FundMe.sol\":604:607  i++ */\n      dup1\n      dup1\n      tag_40\n      swap1\n      tag_41\n      jump\t// in\n    tag_40:\n      swap2\n      pop\n      pop\n        /* \"contracts/FundMe.sol\":564:674  for(uint256 i =0; i<fundersList.length; i++){... */\n      jump(tag_33)\n    tag_34:\n      pop\n        /* \"contracts/FundMe.sol\":712:713  0 */\n      0x00\n        /* \"contracts/FundMe.sol\":698:714  new address[](0) */\n      0xffffffffffffffff\n      dup2\n      gt\n      iszero\n      tag_42\n      jumpi\n      tag_43\n      tag_44\n      jump\t// in\n    tag_43:\n    tag_42:\n      mload(0x40)\n      swap1\n      dup1\n      dup3\n      mstore\n      dup1\n      0x20\n      mul\n      0x20\n      add\n      dup3\n      add\n      0x40\n      mstore\n      dup1\n      iszero\n      tag_45\n      jumpi\n      dup2\n      0x20\n      add\n      0x20\n      dup3\n      mul\n      dup1\n      calldatasize\n      dup4\n      calldatacopy\n      dup1\n      dup3\n      add\n      swap2\n      pop\n      pop\n      swap1\n      pop\n    tag_45:\n      pop\n        /* \"contracts/FundMe.sol\":684:695  fundersList */\n      0x01\n        /* \"contracts/FundMe.sol\":684:714  fundersList = new address[](0) */\n      swap1\n      dup1\n      mload\n      swap1\n      0x20\n      add\n      swap1\n      tag_46\n      swap3\n      swap2\n      swap1\n      tag_47\n      jump\t// in\n    tag_46:\n      pop\n        /* \"contracts/FundMe.sol\":755:765  msg.sender */\n      caller\n        /* \"contracts/FundMe.sol\":747:775  payable(msg.sender).transfer */\n      0xffffffffffffffffffffffffffffffffffffffff\n      and\n        /* \"contracts/FundMe.sol\":747:798  payable(msg.sender).transfer(address(this).balance) */\n      0x08fc\n        /* \"contracts/FundMe.sol\":776:797  address(this).balance */\n      selfbalance\n        /* \"contracts/FundMe.sol\":747:798  payable(msg.sender).transfer(address(this).balance) */\n      swap1\n      dup2\n      iszero\n      mul\n      swap1\n      mload(0x40)\n      0x00\n      mload(0x40)\n      dup1\n      dup4\n      sub\n      dup2\n      dup6\n      dup9\n      dup9\n      call\n      swap4\n      pop\n      pop\n      pop\n      pop\n      iszero\n      dup1\n      iszero\n      tag_49\n      jumpi\n      returndatasize\n      0x00\n      dup1\n      returndatacopy\n      revert(0x00, returndatasize)\n    tag_49:\n      pop\n        /* \"contracts/FundMe.sol\":825:839  bool isSuccess */\n      0x00\n        /* \"contracts/FundMe.sol\":850:860  msg.sender */\n      caller\n        /* \"contracts/FundMe.sol\":842:866  payable(msg.sender).send */\n      0xffffffffffffffffffffffffffffffffffffffff\n      and\n        /* \"contracts/FundMe.sol\":842:889  payable(msg.sender).send(address(this).balance) */\n      0x08fc\n        /* \"contracts/FundMe.sol\":867:888  address(this).balance */\n      selfbalance\n        /* \"contracts/FundMe.sol\":842:889  payable(msg.sender).send(address(this).balance) */\n      swap1\n      dup2\n      iszero\n      mul\n      swap1\n      mload(0x40)\n      0x00\n      mload(0x40)\n      dup1\n      dup4\n      sub\n      dup2\n      dup6\n      dup9\n      dup9\n      call\n      swap4\n      pop\n      pop\n      pop\n      pop\n        /* \"contracts/FundMe.sol\":825:889  bool isSuccess = payable(msg.sender).send(address(this).balance) */\n      swap1\n      pop\n        /* \"contracts/FundMe.sol\":908:917  isSuccess */\n      dup1\n        /* \"contracts/FundMe.sol\":900:933  require(isSuccess, \"send Failed\") */\n      tag_51\n      jumpi\n      mload(0x40)\n      0x08c379a000000000000000000000000000000000000000000000000000000000\n      dup2\n      mstore\n      0x04\n      add\n      tag_52\n      swap1\n      tag_53\n      jump\t// in\n    tag_52:\n      mload(0x40)\n      dup1\n      swap2\n      sub\n      swap1\n      revert\n    tag_51:\n        /* \"contracts/FundMe.sol\":961:977  bool callSuccess */\n      0x00\n        /* \"contracts/FundMe.sol\":990:1000  msg.sender */\n      caller\n        /* \"contracts/FundMe.sol\":982:1006  payable(msg.sender).call */\n      0xffffffffffffffffffffffffffffffffffffffff\n      and\n        /* \"contracts/FundMe.sol\":1014:1035  address(this).balance */\n      selfbalance\n        /* \"contracts/FundMe.sol\":982:1040  payable(msg.sender).call{value: address(this).balance}(\"\") */\n      mload(0x40)\n      tag_54\n      swap1\n      tag_55\n      jump\t// in\n    tag_54:\n      0x00\n      mload(0x40)\n      dup1\n      dup4\n      sub\n      dup2\n      dup6\n      dup8\n      gas\n      call\n      swap3\n      pop\n      pop\n      pop\n      returndatasize\n      dup1\n      0x00\n      dup2\n      eq\n      tag_58\n      jumpi\n      mload(0x40)\n      swap2\n      pop\n      and(add(returndatasize, 0x3f), not(0x1f))\n      dup3\n      add\n      0x40\n      mstore\n      returndatasize\n      dup3\n      mstore\n      returndatasize\n      0x00\n      0x20\n      dup5\n      add\n      returndatacopy\n      jump(tag_57)\n    tag_58:\n      0x60\n      swap2\n      pop\n    tag_57:\n      pop\n        /* \"contracts/FundMe.sol\":960:1040  (bool callSuccess,) = payable(msg.sender).call{value: address(this).balance}(\"\") */\n      pop\n      swap1\n      pop\n        /* \"contracts/FundMe.sol\":1059:1070  callSuccess */\n      dup1\n        /* \"contracts/FundMe.sol\":1051:1086  require(callSuccess, \"call Failed\") */\n      tag_59\n      jumpi\n      mload(0x40)\n      0x08c379a000000000000000000000000000000000000000000000000000000000\n      dup2\n      mstore\n      0x04\n      add\n      tag_60\n      swap1\n      tag_61\n      jump\t// in\n    tag_60:\n      mload(0x40)\n      dup1\n      swap2\n      sub\n      swap1\n      revert\n    tag_59:\n        /* \"contracts/FundMe.sol\":553:1096  {... */\n      pop\n      pop\n        /* \"contracts/FundMe.sol\":527:1096  function Withdraw() public{... */\n      jump\t// out\n        /* \"contracts/FundMe.sol\":159:197  uint256 public minimumFund = 50 * 1e18 */\n    tag_26:\n      sload(0x00)\n      dup2\n      jump\t// out\n        /* \"contracts/FundMe.sol\":302:519  function Fund() public payable{... */\n    tag_29:\n        /* \"contracts/FundMe.sol\":384:395  minimumFund */\n      sload(0x00)\n        /* \"contracts/FundMe.sol\":351:380  msg.value.GetConversionRate() */\n      tag_63\n        /* \"contracts/FundMe.sol\":351:360  msg.value */\n      callvalue\n        /* \"contracts/FundMe.sol\":351:378  msg.value.GetConversionRate */\n      tag_64\n        /* \"contracts/FundMe.sol\":351:380  msg.value.GetConversionRate() */\n      jump\t// in\n    tag_63:\n        /* \"contracts/FundMe.sol\":351:395  msg.value.GetConversionRate() >= minimumFund */\n      lt\n      iszero\n        /* \"contracts/FundMe.sol\":343:418  require(msg.value.GetConversionRate() >= minimumFund, \"Didn't send enough\") */\n      tag_65\n      jumpi\n      mload(0x40)\n      0x08c379a000000000000000000000000000000000000000000000000000000000\n      dup2\n      mstore\n      0x04\n      add\n      tag_66\n      swap1\n      tag_67\n      jump\t// in\n    tag_66:\n      mload(0x40)\n      dup1\n      swap2\n      sub\n      swap1\n      revert\n    tag_65:\n        /* \"contracts/FundMe.sol\":429:440  fundersList */\n      0x01\n        /* \"contracts/FundMe.sol\":446:456  msg.sender */\n      caller\n        /* \"contracts/FundMe.sol\":429:457  fundersList.push(msg.sender) */\n      swap1\n      dup1\n      0x01\n      dup2\n      sload\n      add\n      dup1\n      dup3\n      sstore\n      dup1\n      swap2\n      pop\n      pop\n      0x01\n      swap1\n      sub\n      swap1\n      0x00\n      mstore\n      keccak256(0x00, 0x20)\n      add\n      0x00\n      swap1\n      swap2\n      swap1\n      swap2\n      swap1\n      swap2\n      0x0100\n      exp\n      dup2\n      sload\n      dup2\n      0xffffffffffffffffffffffffffffffffffffffff\n      mul\n      not\n      and\n      swap1\n      dup4\n      0xffffffffffffffffffffffffffffffffffffffff\n      and\n      mul\n      or\n      swap1\n      sstore\n      pop\n        /* \"contracts/FundMe.sol\":502:511  msg.value */\n      callvalue\n        /* \"contracts/FundMe.sol\":468:487  addreddToAmountFeed */\n      0x02\n        /* \"contracts/FundMe.sol\":468:499  addreddToAmountFeed[msg.sender] */\n      0x00\n        /* \"contracts/FundMe.sol\":488:498  msg.sender */\n      caller\n        /* \"contracts/FundMe.sol\":468:499  addreddToAmountFeed[msg.sender] */\n      0xffffffffffffffffffffffffffffffffffffffff\n      and\n      0xffffffffffffffffffffffffffffffffffffffff\n      and\n      dup2\n      mstore\n      0x20\n      add\n      swap1\n      dup2\n      mstore\n      0x20\n      add\n      0x00\n      keccak256\n        /* \"contracts/FundMe.sol\":468:511  addreddToAmountFeed[msg.sender] = msg.value */\n      dup2\n      swap1\n      sstore\n      pop\n        /* \"contracts/FundMe.sol\":302:519  function Fund() public payable{... */\n      jump\t// out\n        /* \"contracts/PriceConverter.sol\":661:886  function GetConversionRate(uint256 _etherAmount) internal view returns(uint256){... */\n    tag_64:\n        /* \"contracts/PriceConverter.sol\":732:739  uint256 */\n      0x00\n        /* \"contracts/PriceConverter.sol\":751:767  uint256 ethPrice */\n      dup1\n        /* \"contracts/PriceConverter.sol\":770:780  GetPrice() */\n      tag_70\n        /* \"contracts/PriceConverter.sol\":770:778  GetPrice */\n      tag_71\n        /* \"contracts/PriceConverter.sol\":770:780  GetPrice() */\n      jump\t// in\n    tag_70:\n        /* \"contracts/PriceConverter.sol\":751:780  uint256 ethPrice = GetPrice() */\n      swap1\n      pop\n        /* \"contracts/PriceConverter.sol\":791:813  uint256 ethAmountInUsd */\n      0x00\n        /* \"contracts/PriceConverter.sol\":842:846  1e18 */\n      0x0de0b6b3a7640000\n        /* \"contracts/PriceConverter.sol\":828:840  _etherAmount */\n      dup5\n        /* \"contracts/PriceConverter.sol\":817:825  ethPrice */\n      dup4\n        /* \"contracts/PriceConverter.sol\":817:840  ethPrice * _etherAmount */\n      tag_72\n      swap2\n      swap1\n      tag_73\n      jump\t// in\n    tag_72:\n        /* \"contracts/PriceConverter.sol\":816:846  (ethPrice * _etherAmount)/1e18 */\n      tag_74\n      swap2\n      swap1\n      tag_75\n      jump\t// in\n    tag_74:\n        /* \"contracts/PriceConverter.sol\":791:846  uint256 ethAmountInUsd = (ethPrice * _etherAmount)/1e18 */\n      swap1\n      pop\n        /* \"contracts/PriceConverter.sol\":864:878  ethAmountInUsd */\n      dup1\n        /* \"contracts/PriceConverter.sol\":857:878  return ethAmountInUsd */\n      swap3\n      pop\n      pop\n      pop\n        /* \"contracts/PriceConverter.sol\":661:886  function GetConversionRate(uint256 _etherAmount) internal view returns(uint256){... */\n      swap2\n      swap1\n      pop\n      jump\t// out\n        /* \"contracts/PriceConverter.sol\":170:438  function GetPrice() internal view returns(uint256){... */\n    tag_71:\n        /* \"contracts/PriceConverter.sol\":212:219  uint256 */\n      0x00\n        /* \"contracts/PriceConverter.sol\":231:262  AggregatorV3Interface priceFeed */\n      dup1\n        /* \"contracts/PriceConverter.sol\":287:329  0x8A753747A1Fa494EC906cE90E9f37563A8AF630e */\n      0x8a753747a1fa494ec906ce90e9f37563a8af630e\n        /* \"contracts/PriceConverter.sol\":231:330  AggregatorV3Interface priceFeed = AggregatorV3Interface(0x8A753747A1Fa494EC906cE90E9f37563A8AF630e) */\n      swap1\n      pop\n        /* \"contracts/PriceConverter.sol\":344:356  int256 price */\n      0x00\n        /* \"contracts/PriceConverter.sol\":363:372  priceFeed */\n      dup2\n        /* \"contracts/PriceConverter.sol\":363:388  priceFeed.latestRoundData */\n      0xffffffffffffffffffffffffffffffffffffffff\n      and\n      0xfeaf968c\n        /* \"contracts/PriceConverter.sol\":363:390  priceFeed.latestRoundData() */\n      mload(0x40)\n      dup2\n      0xffffffff\n      and\n      0xe0\n      shl\n      dup2\n      mstore\n      0x04\n      add\n      0xa0\n      mload(0x40)\n      dup1\n      dup4\n      sub\n      dup2\n      dup7\n      gas\n      staticcall\n      iszero\n      dup1\n      iszero\n      tag_78\n      jumpi\n      returndatasize\n      0x00\n      dup1\n      returndatacopy\n      revert(0x00, returndatasize)\n    tag_78:\n      pop\n      pop\n      pop\n      pop\n      mload(0x40)\n      returndatasize\n      not(0x1f)\n      0x1f\n      dup3\n      add\n      and\n      dup3\n      add\n      dup1\n      0x40\n      mstore\n      pop\n      dup2\n      add\n      swap1\n      tag_79\n      swap2\n      swap1\n      tag_80\n      jump\t// in\n    tag_79:\n        /* \"contracts/PriceConverter.sol\":342:390  (,int256 price,,,) = priceFeed.latestRoundData() */\n      pop\n      pop\n      pop\n      swap2\n      pop\n      pop\n        /* \"contracts/PriceConverter.sol\":425:429  1e10 */\n      0x02540be400\n        /* \"contracts/PriceConverter.sol\":417:422  price */\n      dup2\n        /* \"contracts/PriceConverter.sol\":417:429  price * 1e10 */\n      tag_81\n      swap2\n      swap1\n      tag_82\n      jump\t// in\n    tag_81:\n        /* \"contracts/PriceConverter.sol\":402:430  return uint256(price * 1e10) */\n      swap3\n      pop\n      pop\n      pop\n        /* \"contracts/PriceConverter.sol\":170:438  function GetPrice() internal view returns(uint256){... */\n      swap1\n      jump\t// out\n    tag_47:\n      dup3\n      dup1\n      sload\n      dup3\n      dup3\n      sstore\n      swap1\n      0x00\n      mstore\n      keccak256(0x00, 0x20)\n      swap1\n      dup2\n      add\n      swap3\n      dup3\n      iszero\n      tag_83\n      jumpi\n      swap2\n      0x20\n      mul\n      dup3\n      add\n    tag_84:\n      dup3\n      dup2\n      gt\n      iszero\n      tag_85\n      jumpi\n      dup3\n      mload\n      dup3\n      exp(0x0100, 0x00)\n      dup2\n      sload\n      dup2\n      0xffffffffffffffffffffffffffffffffffffffff\n      mul\n      not\n      and\n      swap1\n      dup4\n      0xffffffffffffffffffffffffffffffffffffffff\n      and\n      mul\n      or\n      swap1\n      sstore\n      pop\n      swap2\n      0x20\n      add\n      swap2\n      swap1\n      0x01\n      add\n      swap1\n      jump(tag_84)\n    tag_85:\n    tag_83:\n      pop\n      swap1\n      pop\n      tag_86\n      swap2\n      swap1\n      tag_87\n      jump\t// in\n    tag_86:\n      pop\n      swap1\n      jump\t// out\n    tag_87:\n    tag_88:\n      dup1\n      dup3\n      gt\n      iszero\n      tag_89\n      jumpi\n      0x00\n      dup2\n      0x00\n      swap1\n      sstore\n      pop\n      0x01\n      add\n      jump(tag_88)\n    tag_89:\n      pop\n      swap1\n      jump\t// out\n        /* \"#utility.yul\":88:205   */\n    tag_91:\n        /* \"#utility.yul\":197:198   */\n      0x00\n        /* \"#utility.yul\":194:195   */\n      dup1\n        /* \"#utility.yul\":187:199   */\n      revert\n        /* \"#utility.yul\":334:411   */\n    tag_93:\n        /* \"#utility.yul\":371:378   */\n      0x00\n        /* \"#utility.yul\":400:405   */\n      dup2\n        /* \"#utility.yul\":389:405   */\n      swap1\n      pop\n        /* \"#utility.yul\":334:411   */\n      swap2\n      swap1\n      pop\n      jump\t// out\n        /* \"#utility.yul\":417:539   */\n    tag_94:\n        /* \"#utility.yul\":490:514   */\n      tag_127\n        /* \"#utility.yul\":508:513   */\n      dup2\n        /* \"#utility.yul\":490:514   */\n      tag_93\n      jump\t// in\n    tag_127:\n        /* \"#utility.yul\":483:488   */\n      dup2\n        /* \"#utility.yul\":480:515   */\n      eq\n        /* \"#utility.yul\":470:533   */\n      tag_128\n      jumpi\n        /* \"#utility.yul\":529:530   */\n      0x00\n        /* \"#utility.yul\":526:527   */\n      dup1\n        /* \"#utility.yul\":519:531   */\n      revert\n        /* \"#utility.yul\":470:533   */\n    tag_128:\n        /* \"#utility.yul\":417:539   */\n      pop\n      jump\t// out\n        /* \"#utility.yul\":545:684   */\n    tag_95:\n        /* \"#utility.yul\":591:596   */\n      0x00\n        /* \"#utility.yul\":629:635   */\n      dup2\n        /* \"#utility.yul\":616:636   */\n      calldataload\n        /* \"#utility.yul\":607:636   */\n      swap1\n      pop\n        /* \"#utility.yul\":645:678   */\n      tag_130\n        /* \"#utility.yul\":672:677   */\n      dup2\n        /* \"#utility.yul\":645:678   */\n      tag_94\n      jump\t// in\n    tag_130:\n        /* \"#utility.yul\":545:684   */\n      swap3\n      swap2\n      pop\n      pop\n      jump\t// out\n        /* \"#utility.yul\":690:1019   */\n    tag_10:\n        /* \"#utility.yul\":749:755   */\n      0x00\n        /* \"#utility.yul\":798:800   */\n      0x20\n        /* \"#utility.yul\":786:795   */\n      dup3\n        /* \"#utility.yul\":777:784   */\n      dup5\n        /* \"#utility.yul\":773:796   */\n      sub\n        /* \"#utility.yul\":769:801   */\n      slt\n        /* \"#utility.yul\":766:885   */\n      iszero\n      tag_132\n      jumpi\n        /* \"#utility.yul\":804:883   */\n      tag_133\n      tag_91\n      jump\t// in\n    tag_133:\n        /* \"#utility.yul\":766:885   */\n    tag_132:\n        /* \"#utility.yul\":924:925   */\n      0x00\n        /* \"#utility.yul\":949:1002   */\n      tag_134\n        /* \"#utility.yul\":994:1001   */\n      dup5\n        /* \"#utility.yul\":985:991   */\n      dup3\n        /* \"#utility.yul\":974:983   */\n      dup6\n        /* \"#utility.yul\":970:992   */\n      add\n        /* \"#utility.yul\":949:1002   */\n      tag_95\n      jump\t// in\n    tag_134:\n        /* \"#utility.yul\":939:1002   */\n      swap2\n      pop\n        /* \"#utility.yul\":895:1012   */\n      pop\n        /* \"#utility.yul\":690:1019   */\n      swap3\n      swap2\n      pop\n      pop\n      jump\t// out\n        /* \"#utility.yul\":1025:1151   */\n    tag_96:\n        /* \"#utility.yul\":1062:1069   */\n      0x00\n        /* \"#utility.yul\":1102:1144   */\n      0xffffffffffffffffffffffffffffffffffffffff\n        /* \"#utility.yul\":1095:1100   */\n      dup3\n        /* \"#utility.yul\":1091:1145   */\n      and\n        /* \"#utility.yul\":1080:1145   */\n      swap1\n      pop\n        /* \"#utility.yul\":1025:1151   */\n      swap2\n      swap1\n      pop\n      jump\t// out\n        /* \"#utility.yul\":1157:1253   */\n    tag_97:\n        /* \"#utility.yul\":1194:1201   */\n      0x00\n        /* \"#utility.yul\":1223:1247   */\n      tag_137\n        /* \"#utility.yul\":1241:1246   */\n      dup3\n        /* \"#utility.yul\":1223:1247   */\n      tag_96\n      jump\t// in\n    tag_137:\n        /* \"#utility.yul\":1212:1247   */\n      swap1\n      pop\n        /* \"#utility.yul\":1157:1253   */\n      swap2\n      swap1\n      pop\n      jump\t// out\n        /* \"#utility.yul\":1259:1377   */\n    tag_98:\n        /* \"#utility.yul\":1346:1370   */\n      tag_139\n        /* \"#utility.yul\":1364:1369   */\n      dup2\n        /* \"#utility.yul\":1346:1370   */\n      tag_97\n      jump\t// in\n    tag_139:\n        /* \"#utility.yul\":1341:1344   */\n      dup3\n        /* \"#utility.yul\":1334:1371   */\n      mstore\n        /* \"#utility.yul\":1259:1377   */\n      pop\n      pop\n      jump\t// out\n        /* \"#utility.yul\":1383:1605   */\n    tag_13:\n        /* \"#utility.yul\":1476:1480   */\n      0x00\n        /* \"#utility.yul\":1514:1516   */\n      0x20\n        /* \"#utility.yul\":1503:1512   */\n      dup3\n        /* \"#utility.yul\":1499:1517   */\n      add\n        /* \"#utility.yul\":1491:1517   */\n      swap1\n      pop\n        /* \"#utility.yul\":1527:1598   */\n      tag_141\n        /* \"#utility.yul\":1595:1596   */\n      0x00\n        /* \"#utility.yul\":1584:1593   */\n      dup4\n        /* \"#utility.yul\":1580:1597   */\n      add\n        /* \"#utility.yul\":1571:1577   */\n      dup5\n        /* \"#utility.yul\":1527:1598   */\n      tag_98\n      jump\t// in\n    tag_141:\n        /* \"#utility.yul\":1383:1605   */\n      swap3\n      swap2\n      pop\n      pop\n      jump\t// out\n        /* \"#utility.yul\":1611:1733   */\n    tag_99:\n        /* \"#utility.yul\":1684:1708   */\n      tag_143\n        /* \"#utility.yul\":1702:1707   */\n      dup2\n        /* \"#utility.yul\":1684:1708   */\n      tag_97\n      jump\t// in\n    tag_143:\n        /* \"#utility.yul\":1677:1682   */\n      dup2\n        /* \"#utility.yul\":1674:1709   */\n      eq\n        /* \"#utility.yul\":1664:1727   */\n      tag_144\n      jumpi\n        /* \"#utility.yul\":1723:1724   */\n      0x00\n        /* \"#utility.yul\":1720:1721   */\n      dup1\n        /* \"#utility.yul\":1713:1725   */\n      revert\n        /* \"#utility.yul\":1664:1727   */\n    tag_144:\n        /* \"#utility.yul\":1611:1733   */\n      pop\n      jump\t// out\n        /* \"#utility.yul\":1739:1878   */\n    tag_100:\n        /* \"#utility.yul\":1785:1790   */\n      0x00\n        /* \"#utility.yul\":1823:1829   */\n      dup2\n        /* \"#utility.yul\":1810:1830   */\n      calldataload\n        /* \"#utility.yul\":1801:1830   */\n      swap1\n      pop\n        /* \"#utility.yul\":1839:1872   */\n      tag_146\n        /* \"#utility.yul\":1866:1871   */\n      dup2\n        /* \"#utility.yul\":1839:1872   */\n      tag_99\n      jump\t// in\n    tag_146:\n        /* \"#utility.yul\":1739:1878   */\n      swap3\n      swap2\n      pop\n      pop\n      jump\t// out\n        /* \"#utility.yul\":1884:2213   */\n    tag_17:\n        /* \"#utility.yul\":1943:1949   */\n      0x00\n        /* \"#utility.yul\":1992:1994   */\n      0x20\n        /* \"#utility.yul\":1980:1989   */\n      dup3\n        /* \"#utility.yul\":1971:1978   */\n      dup5\n        /* \"#utility.yul\":1967:1990   */\n      sub\n        /* \"#utility.yul\":1963:1995   */\n      slt\n        /* \"#utility.yul\":1960:2079   */\n      iszero\n      tag_148\n      jumpi\n        /* \"#utility.yul\":1998:2077   */\n      tag_149\n      tag_91\n      jump\t// in\n    tag_149:\n        /* \"#utility.yul\":1960:2079   */\n    tag_148:\n        /* \"#utility.yul\":2118:2119   */\n      0x00\n        /* \"#utility.yul\":2143:2196   */\n      tag_150\n        /* \"#utility.yul\":2188:2195   */\n      dup5\n        /* \"#utility.yul\":2179:2185   */\n      dup3\n        /* \"#utility.yul\":2168:2177   */\n      dup6\n        /* \"#utility.yul\":2164:2186   */\n      add\n        /* \"#utility.yul\":2143:2196   */\n      tag_100\n      jump\t// in\n    tag_150:\n        /* \"#utility.yul\":2133:2196   */\n      swap2\n      pop\n        /* \"#utility.yul\":2089:2206   */\n      pop\n        /* \"#utility.yul\":1884:2213   */\n      swap3\n      swap2\n      pop\n      pop\n      jump\t// out\n        /* \"#utility.yul\":2219:2337   */\n    tag_101:\n        /* \"#utility.yul\":2306:2330   */\n      tag_152\n        /* \"#utility.yul\":2324:2329   */\n      dup2\n        /* \"#utility.yul\":2306:2330   */\n      tag_93\n      jump\t// in\n    tag_152:\n        /* \"#utility.yul\":2301:2304   */\n      dup3\n        /* \"#utility.yul\":2294:2331   */\n      mstore\n        /* \"#utility.yul\":2219:2337   */\n      pop\n      pop\n      jump\t// out\n        /* \"#utility.yul\":2343:2565   */\n    tag_20:\n        /* \"#utility.yul\":2436:2440   */\n      0x00\n        /* \"#utility.yul\":2474:2476   */\n      0x20\n        /* \"#utility.yul\":2463:2472   */\n      dup3\n        /* \"#utility.yul\":2459:2477   */\n      add\n        /* \"#utility.yul\":2451:2477   */\n      swap1\n      pop\n        /* \"#utility.yul\":2487:2558   */\n      tag_154\n        /* \"#utility.yul\":2555:2556   */\n      0x00\n        /* \"#utility.yul\":2544:2553   */\n      dup4\n        /* \"#utility.yul\":2540:2557   */\n      add\n        /* \"#utility.yul\":2531:2537   */\n      dup5\n        /* \"#utility.yul\":2487:2558   */\n      tag_101\n      jump\t// in\n    tag_154:\n        /* \"#utility.yul\":2343:2565   */\n      swap3\n      swap2\n      pop\n      pop\n      jump\t// out\n        /* \"#utility.yul\":2571:2751   */\n    tag_38:\n        /* \"#utility.yul\":2619:2696   */\n      0x4e487b7100000000000000000000000000000000000000000000000000000000\n        /* \"#utility.yul\":2616:2617   */\n      0x00\n        /* \"#utility.yul\":2609:2697   */\n      mstore\n        /* \"#utility.yul\":2716:2720   */\n      0x32\n        /* \"#utility.yul\":2713:2714   */\n      0x04\n        /* \"#utility.yul\":2706:2721   */\n      mstore\n        /* \"#utility.yul\":2740:2744   */\n      0x24\n        /* \"#utility.yul\":2737:2738   */\n      0x00\n        /* \"#utility.yul\":2730:2745   */\n      revert\n        /* \"#utility.yul\":2757:2937   */\n    tag_102:\n        /* \"#utility.yul\":2805:2882   */\n      0x4e487b7100000000000000000000000000000000000000000000000000000000\n        /* \"#utility.yul\":2802:2803   */\n      0x00\n        /* \"#utility.yul\":2795:2883   */\n      mstore\n        /* \"#utility.yul\":2902:2906   */\n      0x11\n        /* \"#utility.yul\":2899:2900   */\n      0x04\n        /* \"#utility.yul\":2892:2907   */\n      mstore\n        /* \"#utility.yul\":2926:2930   */\n      0x24\n        /* \"#utility.yul\":2923:2924   */\n      0x00\n        /* \"#utility.yul\":2916:2931   */\n      revert\n        /* \"#utility.yul\":2943:3176   */\n    tag_41:\n        /* \"#utility.yul\":2982:2985   */\n      0x00\n        /* \"#utility.yul\":3005:3029   */\n      tag_158\n        /* \"#utility.yul\":3023:3028   */\n      dup3\n        /* \"#utility.yul\":3005:3029   */\n      tag_93\n      jump\t// in\n    tag_158:\n        /* \"#utility.yul\":2996:3029   */\n      swap2\n      pop\n        /* \"#utility.yul\":3051:3117   */\n      0xffffffffffffffffffffffffffffffffffffffffffffffffffffffffffffffff\n        /* \"#utility.yul\":3044:3049   */\n      dup3\n        /* \"#utility.yul\":3041:3118   */\n      sub\n        /* \"#utility.yul\":3038:3141   */\n      tag_159\n      jumpi\n        /* \"#utility.yul\":3121:3139   */\n      tag_160\n      tag_102\n      jump\t// in\n    tag_160:\n        /* \"#utility.yul\":3038:3141   */\n    tag_159:\n        /* \"#utility.yul\":3168:3169   */\n      0x01\n        /* \"#utility.yul\":3161:3166   */\n      dup3\n        /* \"#utility.yul\":3157:3170   */\n      add\n        /* \"#utility.yul\":3150:3170   */\n      swap1\n      pop\n        /* \"#utility.yul\":2943:3176   */\n      swap2\n      swap1\n      pop\n      jump\t// out\n        /* \"#utility.yul\":3182:3362   */\n    tag_44:\n        /* \"#utility.yul\":3230:3307   */\n      0x4e487b7100000000000000000000000000000000000000000000000000000000\n        /* \"#utility.yul\":3227:3228   */\n      0x00\n        /* \"#utility.yul\":3220:3308   */\n      mstore\n        /* \"#utility.yul\":3327:3331   */\n      0x41\n        /* \"#utility.yul\":3324:3325   */\n      0x04\n        /* \"#utility.yul\":3317:3332   */\n      mstore\n        /* \"#utility.yul\":3351:3355   */\n      0x24\n        /* \"#utility.yul\":3348:3349   */\n      0x00\n        /* \"#utility.yul\":3341:3356   */\n      revert\n        /* \"#utility.yul\":3368:3537   */\n    tag_103:\n        /* \"#utility.yul\":3452:3463   */\n      0x00\n        /* \"#utility.yul\":3486:3492   */\n      dup3\n        /* \"#utility.yul\":3481:3484   */\n      dup3\n        /* \"#utility.yul\":3474:3493   */\n      mstore\n        /* \"#utility.yul\":3526:3530   */\n      0x20\n        /* \"#utility.yul\":3521:3524   */\n      dup3\n        /* \"#utility.yul\":3517:3531   */\n      add\n        /* \"#utility.yul\":3502:3531   */\n      swap1\n      pop\n        /* \"#utility.yul\":3368:3537   */\n      swap3\n      swap2\n      pop\n      pop\n      jump\t// out\n        /* \"#utility.yul\":3543:3704   */\n    tag_104:\n        /* \"#utility.yul\":3683:3696   */\n      0x73656e64204661696c6564000000000000000000000000000000000000000000\n        /* \"#utility.yul\":3679:3680   */\n      0x00\n        /* \"#utility.yul\":3671:3677   */\n      dup3\n        /* \"#utility.yul\":3667:3681   */\n      add\n        /* \"#utility.yul\":3660:3697   */\n      mstore\n        /* \"#utility.yul\":3543:3704   */\n      pop\n      jump\t// out\n        /* \"#utility.yul\":3710:4076   */\n    tag_105:\n        /* \"#utility.yul\":3852:3855   */\n      0x00\n        /* \"#utility.yul\":3873:3940   */\n      tag_165\n        /* \"#utility.yul\":3937:3939   */\n      0x0b\n        /* \"#utility.yul\":3932:3935   */\n      dup4\n        /* \"#utility.yul\":3873:3940   */\n      tag_103\n      jump\t// in\n    tag_165:\n        /* \"#utility.yul\":3866:3940   */\n      swap2\n      pop\n        /* \"#utility.yul\":3949:4042   */\n      tag_166\n        /* \"#utility.yul\":4038:4041   */\n      dup3\n        /* \"#utility.yul\":3949:4042   */\n      tag_104\n      jump\t// in\n    tag_166:\n        /* \"#utility.yul\":4067:4069   */\n      0x20\n        /* \"#utility.yul\":4062:4065   */\n      dup3\n        /* \"#utility.yul\":4058:4070   */\n      add\n        /* \"#utility.yul\":4051:4070   */\n      swap1\n      pop\n        /* \"#utility.yul\":3710:4076   */\n      swap2\n      swap1\n      pop\n      jump\t// out\n        /* \"#utility.yul\":4082:4501   */\n    tag_53:\n        /* \"#utility.yul\":4248:4252   */\n      0x00\n        /* \"#utility.yul\":4286:4288   */\n      0x20\n        /* \"#utility.yul\":4275:4284   */\n      dup3\n        /* \"#utility.yul\":4271:4289   */\n      add\n        /* \"#utility.yul\":4263:4289   */\n      swap1\n      pop\n        /* \"#utility.yul\":4335:4344   */\n      dup2\n        /* \"#utility.yul\":4329:4333   */\n      dup2\n        /* \"#utility.yul\":4325:4345   */\n      sub\n        /* \"#utility.yul\":4321:4322   */\n      0x00\n        /* \"#utility.yul\":4310:4319   */\n      dup4\n        /* \"#utility.yul\":4306:4323   */\n      add\n        /* \"#utility.yul\":4299:4346   */\n      mstore\n        /* \"#utility.yul\":4363:4494   */\n      tag_168\n        /* \"#utility.yul\":4489:4493   */\n      dup2\n        /* \"#utility.yul\":4363:4494   */\n      tag_105\n      jump\t// in\n    tag_168:\n        /* \"#utility.yul\":4355:4494   */\n      swap1\n      pop\n        /* \"#utility.yul\":4082:4501   */\n      swap2\n      swap1\n      pop\n      jump\t// out\n        /* \"#utility.yul\":4507:4654   */\n    tag_106:\n        /* \"#utility.yul\":4608:4619   */\n      0x00\n        /* \"#utility.yul\":4645:4648   */\n      dup2\n        /* \"#utility.yul\":4630:4648   */\n      swap1\n      pop\n        /* \"#utility.yul\":4507:4654   */\n      swap3\n      swap2\n      pop\n      pop\n      jump\t// out\n        /* \"#utility.yul\":4660:4774   */\n    tag_107:\n      pop\n      jump\t// out\n        /* \"#utility.yul\":4780:5178   */\n    tag_108:\n        /* \"#utility.yul\":4939:4942   */\n      0x00\n        /* \"#utility.yul\":4960:5043   */\n      tag_172\n        /* \"#utility.yul\":5041:5042   */\n      0x00\n        /* \"#utility.yul\":5036:5039   */\n      dup4\n        /* \"#utility.yul\":4960:5043   */\n      tag_106\n      jump\t// in\n    tag_172:\n        /* \"#utility.yul\":4953:5043   */\n      swap2\n      pop\n        /* \"#utility.yul\":5052:5145   */\n      tag_173\n        /* \"#utility.yul\":5141:5144   */\n      dup3\n        /* \"#utility.yul\":5052:5145   */\n      tag_107\n      jump\t// in\n    tag_173:\n        /* \"#utility.yul\":5170:5171   */\n      0x00\n        /* \"#utility.yul\":5165:5168   */\n      dup3\n        /* \"#utility.yul\":5161:5172   */\n      add\n        /* \"#utility.yul\":5154:5172   */\n      swap1\n      pop\n        /* \"#utility.yul\":4780:5178   */\n      swap2\n      swap1\n      pop\n      jump\t// out\n        /* \"#utility.yul\":5184:5563   */\n    tag_55:\n        /* \"#utility.yul\":5368:5371   */\n      0x00\n        /* \"#utility.yul\":5390:5537   */\n      tag_175\n        /* \"#utility.yul\":5533:5536   */\n      dup3\n        /* \"#utility.yul\":5390:5537   */\n      tag_108\n      jump\t// in\n    tag_175:\n        /* \"#utility.yul\":5383:5537   */\n      swap2\n      pop\n        /* \"#utility.yul\":5554:5557   */\n      dup2\n        /* \"#utility.yul\":5547:5557   */\n      swap1\n      pop\n        /* \"#utility.yul\":5184:5563   */\n      swap2\n      swap1\n      pop\n      jump\t// out\n        /* \"#utility.yul\":5569:5730   */\n    tag_109:\n        /* \"#utility.yul\":5709:5722   */\n      0x63616c6c204661696c6564000000000000000000000000000000000000000000\n        /* \"#utility.yul\":5705:5706   */\n      0x00\n        /* \"#utility.yul\":5697:5703   */\n      dup3\n        /* \"#utility.yul\":5693:5707   */\n      add\n        /* \"#utility.yul\":5686:5723   */\n      mstore\n        /* \"#utility.yul\":5569:5730   */\n      pop\n      jump\t// out\n        /* \"#utility.yul\":5736:6102   */\n    tag_110:\n        /* \"#utility.yul\":5878:5881   */\n      0x00\n        /* \"#utility.yul\":5899:5966   */\n      tag_178\n        /* \"#utility.yul\":5963:5965   */\n      0x0b\n        /* \"#utility.yul\":5958:5961   */\n      dup4\n        /* \"#utility.yul\":5899:5966   */\n      tag_103\n      jump\t// in\n    tag_178:\n        /* \"#utility.yul\":5892:5966   */\n      swap2\n      pop\n        /* \"#utility.yul\":5975:6068   */\n      tag_179\n        /* \"#utility.yul\":6064:6067   */\n      dup3\n        /* \"#utility.yul\":5975:6068   */\n      tag_109\n      jump\t// in\n    tag_179:\n        /* \"#utility.yul\":6093:6095   */\n      0x20\n        /* \"#utility.yul\":6088:6091   */\n      dup3\n        /* \"#utility.yul\":6084:6096   */\n      add\n        /* \"#utility.yul\":6077:6096   */\n      swap1\n      pop\n        /* \"#utility.yul\":5736:6102   */\n      swap2\n      swap1\n      pop\n      jump\t// out\n        /* \"#utility.yul\":6108:6527   */\n    tag_61:\n        /* \"#utility.yul\":6274:6278   */\n      0x00\n        /* \"#utility.yul\":6312:6314   */\n      0x20\n        /* \"#utility.yul\":6301:6310   */\n      dup3\n        /* \"#utility.yul\":6297:6315   */\n      add\n        /* \"#utility.yul\":6289:6315   */\n      swap1\n      pop\n        /* \"#utility.yul\":6361:6370   */\n      dup2\n        /* \"#utility.yul\":6355:6359   */\n      dup2\n        /* \"#utility.yul\":6351:6371   */\n      sub\n        /* \"#utility.yul\":6347:6348   */\n      0x00\n        /* \"#utility.yul\":6336:6345   */\n      dup4\n        /* \"#utility.yul\":6332:6349   */\n      add\n        /* \"#utility.yul\":6325:6372   */\n      mstore\n        /* \"#utility.yul\":6389:6520   */\n      tag_181\n        /* \"#utility.yul\":6515:6519   */\n      dup2\n        /* \"#utility.yul\":6389:6520   */\n      tag_110\n      jump\t// in\n    tag_181:\n        /* \"#utility.yul\":6381:6520   */\n      swap1\n      pop\n        /* \"#utility.yul\":6108:6527   */\n      swap2\n      swap1\n      pop\n      jump\t// out\n        /* \"#utility.yul\":6533:6701   */\n    tag_111:\n        /* \"#utility.yul\":6673:6693   */\n      0x4469646e27742073656e6420656e6f7567680000000000000000000000000000\n        /* \"#utility.yul\":6669:6670   */\n      0x00\n        /* \"#utility.yul\":6661:6667   */\n      dup3\n        /* \"#utility.yul\":6657:6671   */\n      add\n        /* \"#utility.yul\":6650:6694   */\n      mstore\n        /* \"#utility.yul\":6533:6701   */\n      pop\n      jump\t// out\n        /* \"#utility.yul\":6707:7073   */\n    tag_112:\n        /* \"#utility.yul\":6849:6852   */\n      0x00\n        /* \"#utility.yul\":6870:6937   */\n      tag_184\n        /* \"#utility.yul\":6934:6936   */\n      0x12\n        /* \"#utility.yul\":6929:6932   */\n      dup4\n        /* \"#utility.yul\":6870:6937   */\n      tag_103\n      jump\t// in\n    tag_184:\n        /* \"#utility.yul\":6863:6937   */\n      swap2\n      pop\n        /* \"#utility.yul\":6946:7039   */\n      tag_185\n        /* \"#utility.yul\":7035:7038   */\n      dup3\n        /* \"#utility.yul\":6946:7039   */\n      tag_111\n      jump\t// in\n    tag_185:\n        /* \"#utility.yul\":7064:7066   */\n      0x20\n        /* \"#utility.yul\":7059:7062   */\n      dup3\n        /* \"#utility.yul\":7055:7067   */\n      add\n        /* \"#utility.yul\":7048:7067   */\n      swap1\n      pop\n        /* \"#utility.yul\":6707:7073   */\n      swap2\n      swap1\n      pop\n      jump\t// out\n        /* \"#utility.yul\":7079:7498   */\n    tag_67:\n        /* \"#utility.yul\":7245:7249   */\n      0x00\n        /* \"#utility.yul\":7283:7285   */\n      0x20\n        /* \"#utility.yul\":7272:7281   */\n      dup3\n        /* \"#utility.yul\":7268:7286   */\n      add\n        /* \"#utility.yul\":7260:7286   */\n      swap1\n      pop\n        /* \"#utility.yul\":7332:7341   */\n      dup2\n        /* \"#utility.yul\":7326:7330   */\n      dup2\n        /* \"#utility.yul\":7322:7342   */\n      sub\n        /* \"#utility.yul\":7318:7319   */\n      0x00\n        /* \"#utility.yul\":7307:7316   */\n      dup4\n        /* \"#utility.yul\":7303:7320   */\n      add\n        /* \"#utility.yul\":7296:7343   */\n      mstore\n        /* \"#utility.yul\":7360:7491   */\n      tag_187\n        /* \"#utility.yul\":7486:7490   */\n      dup2\n        /* \"#utility.yul\":7360:7491   */\n      tag_112\n      jump\t// in\n    tag_187:\n        /* \"#utility.yul\":7352:7491   */\n      swap1\n      pop\n        /* \"#utility.yul\":7079:7498   */\n      swap2\n      swap1\n      pop\n      jump\t// out\n        /* \"#utility.yul\":7504:7852   */\n    tag_73:\n        /* \"#utility.yul\":7544:7551   */\n      0x00\n        /* \"#utility.yul\":7567:7587   */\n      tag_189\n        /* \"#utility.yul\":7585:7586   */\n      dup3\n        /* \"#utility.yul\":7567:7587   */\n      tag_93\n      jump\t// in\n    tag_189:\n        /* \"#utility.yul\":7562:7587   */\n      swap2\n      pop\n        /* \"#utility.yul\":7601:7621   */\n      tag_190\n        /* \"#utility.yul\":7619:7620   */\n      dup4\n        /* \"#utility.yul\":7601:7621   */\n      tag_93\n      jump\t// in\n    tag_190:\n        /* \"#utility.yul\":7596:7621   */\n      swap3\n      pop\n        /* \"#utility.yul\":7789:7790   */\n      dup2\n        /* \"#utility.yul\":7721:7787   */\n      0xffffffffffffffffffffffffffffffffffffffffffffffffffffffffffffffff\n        /* \"#utility.yul\":7717:7791   */\n      div\n        /* \"#utility.yul\":7714:7715   */\n      dup4\n        /* \"#utility.yul\":7711:7792   */\n      gt\n        /* \"#utility.yul\":7706:7707   */\n      dup3\n        /* \"#utility.yul\":7699:7708   */\n      iszero\n        /* \"#utility.yul\":7692:7709   */\n      iszero\n        /* \"#utility.yul\":7688:7793   */\n      and\n        /* \"#utility.yul\":7685:7816   */\n      iszero\n      tag_191\n      jumpi\n        /* \"#utility.yul\":7796:7814   */\n      tag_192\n      tag_102\n      jump\t// in\n    tag_192:\n        /* \"#utility.yul\":7685:7816   */\n    tag_191:\n        /* \"#utility.yul\":7844:7845   */\n      dup3\n        /* \"#utility.yul\":7841:7842   */\n      dup3\n        /* \"#utility.yul\":7837:7846   */\n      mul\n        /* \"#utility.yul\":7826:7846   */\n      swap1\n      pop\n        /* \"#utility.yul\":7504:7852   */\n      swap3\n      swap2\n      pop\n      pop\n      jump\t// out\n        /* \"#utility.yul\":7858:8038   */\n    tag_113:\n        /* \"#utility.yul\":7906:7983   */\n      0x4e487b7100000000000000000000000000000000000000000000000000000000\n        /* \"#utility.yul\":7903:7904   */\n      0x00\n        /* \"#utility.yul\":7896:7984   */\n      mstore\n        /* \"#utility.yul\":8003:8007   */\n      0x12\n        /* \"#utility.yul\":8000:8001   */\n      0x04\n        /* \"#utility.yul\":7993:8008   */\n      mstore\n        /* \"#utility.yul\":8027:8031   */\n      0x24\n        /* \"#utility.yul\":8024:8025   */\n      0x00\n        /* \"#utility.yul\":8017:8032   */\n      revert\n        /* \"#utility.yul\":8044:8229   */\n    tag_75:\n        /* \"#utility.yul\":8084:8085   */\n      0x00\n        /* \"#utility.yul\":8101:8121   */\n      tag_195\n        /* \"#utility.yul\":8119:8120   */\n      dup3\n        /* \"#utility.yul\":8101:8121   */\n      tag_93\n      jump\t// in\n    tag_195:\n        /* \"#utility.yul\":8096:8121   */\n      swap2\n      pop\n        /* \"#utility.yul\":8135:8155   */\n      tag_196\n        /* \"#utility.yul\":8153:8154   */\n      dup4\n        /* \"#utility.yul\":8135:8155   */\n      tag_93\n      jump\t// in\n    tag_196:\n        /* \"#utility.yul\":8130:8155   */\n      swap3\n      pop\n        /* \"#utility.yul\":8174:8175   */\n      dup3\n        /* \"#utility.yul\":8164:8199   */\n      tag_197\n      jumpi\n        /* \"#utility.yul\":8179:8197   */\n      tag_198\n      tag_113\n      jump\t// in\n    tag_198:\n        /* \"#utility.yul\":8164:8199   */\n    tag_197:\n        /* \"#utility.yul\":8221:8222   */\n      dup3\n        /* \"#utility.yul\":8218:8219   */\n      dup3\n        /* \"#utility.yul\":8214:8223   */\n      div\n        /* \"#utility.yul\":8209:8223   */\n      swap1\n      pop\n        /* \"#utility.yul\":8044:8229   */\n      swap3\n      swap2\n      pop\n      pop\n      jump\t// out\n        /* \"#utility.yul\":8235:8340   */\n    tag_114:\n        /* \"#utility.yul\":8271:8278   */\n      0x00\n        /* \"#utility.yul\":8311:8333   */\n      0xffffffffffffffffffff\n        /* \"#utility.yul\":8304:8309   */\n      dup3\n        /* \"#utility.yul\":8300:8334   */\n      and\n        /* \"#utility.yul\":8289:8334   */\n      swap1\n      pop\n        /* \"#utility.yul\":8235:8340   */\n      swap2\n      swap1\n      pop\n      jump\t// out\n        /* \"#utility.yul\":8346:8466   */\n    tag_115:\n        /* \"#utility.yul\":8418:8441   */\n      tag_201\n        /* \"#utility.yul\":8435:8440   */\n      dup2\n        /* \"#utility.yul\":8418:8441   */\n      tag_114\n      jump\t// in\n    tag_201:\n        /* \"#utility.yul\":8411:8416   */\n      dup2\n        /* \"#utility.yul\":8408:8442   */\n      eq\n        /* \"#utility.yul\":8398:8460   */\n      tag_202\n      jumpi\n        /* \"#utility.yul\":8456:8457   */\n      0x00\n        /* \"#utility.yul\":8453:8454   */\n      dup1\n        /* \"#utility.yul\":8446:8458   */\n      revert\n        /* \"#utility.yul\":8398:8460   */\n    tag_202:\n        /* \"#utility.yul\":8346:8466   */\n      pop\n      jump\t// out\n        /* \"#utility.yul\":8472:8613   */\n    tag_116:\n        /* \"#utility.yul\":8528:8533   */\n      0x00\n        /* \"#utility.yul\":8559:8565   */\n      dup2\n        /* \"#utility.yul\":8553:8566   */\n      mload\n        /* \"#utility.yul\":8544:8566   */\n      swap1\n      pop\n        /* \"#utility.yul\":8575:8607   */\n      tag_204\n        /* \"#utility.yul\":8601:8606   */\n      dup2\n        /* \"#utility.yul\":8575:8607   */\n      tag_115\n      jump\t// in\n    tag_204:\n        /* \"#utility.yul\":8472:8613   */\n      swap3\n      swap2\n      pop\n      pop\n      jump\t// out\n        /* \"#utility.yul\":8619:8695   */\n    tag_117:\n        /* \"#utility.yul\":8655:8662   */\n      0x00\n        /* \"#utility.yul\":8684:8689   */\n      dup2\n        /* \"#utility.yul\":8673:8689   */\n      swap1\n      pop\n        /* \"#utility.yul\":8619:8695   */\n      swap2\n      swap1\n      pop\n      jump\t// out\n        /* \"#utility.yul\":8701:8821   */\n    tag_118:\n        /* \"#utility.yul\":8773:8796   */\n      tag_207\n        /* \"#utility.yul\":8790:8795   */\n      dup2\n        /* \"#utility.yul\":8773:8796   */\n      tag_117\n      jump\t// in\n    tag_207:\n        /* \"#utility.yul\":8766:8771   */\n      dup2\n        /* \"#utility.yul\":8763:8797   */\n      eq\n        /* \"#utility.yul\":8753:8815   */\n      tag_208\n      jumpi\n        /* \"#utility.yul\":8811:8812   */\n      0x00\n        /* \"#utility.yul\":8808:8809   */\n      dup1\n        /* \"#utility.yul\":8801:8813   */\n      revert\n        /* \"#utility.yul\":8753:8815   */\n    tag_208:\n        /* \"#utility.yul\":8701:8821   */\n      pop\n      jump\t// out\n        /* \"#utility.yul\":8827:8968   */\n    tag_119:\n        /* \"#utility.yul\":8883:8888   */\n      0x00\n        /* \"#utility.yul\":8914:8920   */\n      dup2\n        /* \"#utility.yul\":8908:8921   */\n      mload\n        /* \"#utility.yul\":8899:8921   */\n      swap1\n      pop\n        /* \"#utility.yul\":8930:8962   */\n      tag_210\n        /* \"#utility.yul\":8956:8961   */\n      dup2\n        /* \"#utility.yul\":8930:8962   */\n      tag_118\n      jump\t// in\n    tag_210:\n        /* \"#utility.yul\":8827:8968   */\n      swap3\n      swap2\n      pop\n      pop\n      jump\t// out\n        /* \"#utility.yul\":8974:9117   */\n    tag_120:\n        /* \"#utility.yul\":9031:9036   */\n      0x00\n        /* \"#utility.yul\":9062:9068   */\n      dup2\n        /* \"#utility.yul\":9056:9069   */\n      mload\n        /* \"#utility.yul\":9047:9069   */\n      swap1\n      pop\n        /* \"#utility.yul\":9078:9111   */\n      tag_212\n        /* \"#utility.yul\":9105:9110   */\n      dup2\n        /* \"#utility.yul\":9078:9111   */\n      tag_94\n      jump\t// in\n    tag_212:\n        /* \"#utility.yul\":8974:9117   */\n      swap3\n      swap2\n      pop\n      pop\n      jump\t// out\n        /* \"#utility.yul\":9123:10094   */\n    tag_80:\n        /* \"#utility.yul\":9226:9232   */\n      0x00\n        /* \"#utility.yul\":9234:9240   */\n      dup1\n        /* \"#utility.yul\":9242:9248   */\n      0x00\n        /* \"#utility.yul\":9250:9256   */\n      dup1\n        /* \"#utility.yul\":9258:9264   */\n      0x00\n        /* \"#utility.yul\":9307:9310   */\n      0xa0\n        /* \"#utility.yul\":9295:9304   */\n      dup7\n        /* \"#utility.yul\":9286:9293   */\n      dup9\n        /* \"#utility.yul\":9282:9305   */\n      sub\n        /* \"#utility.yul\":9278:9311   */\n      slt\n        /* \"#utility.yul\":9275:9395   */\n      iszero\n      tag_214\n      jumpi\n        /* \"#utility.yul\":9314:9393   */\n      tag_215\n      tag_91\n      jump\t// in\n    tag_215:\n        /* \"#utility.yul\":9275:9395   */\n    tag_214:\n        /* \"#utility.yul\":9434:9435   */\n      0x00\n        /* \"#utility.yul\":9459:9522   */\n      tag_216\n        /* \"#utility.yul\":9514:9521   */\n      dup9\n        /* \"#utility.yul\":9505:9511   */\n      dup3\n        /* \"#utility.yul\":9494:9503   */\n      dup10\n        /* \"#utility.yul\":9490:9512   */\n      add\n        /* \"#utility.yul\":9459:9522   */\n      tag_116\n      jump\t// in\n    tag_216:\n        /* \"#utility.yul\":9449:9522   */\n      swap6\n      pop\n        /* \"#utility.yul\":9405:9532   */\n      pop\n        /* \"#utility.yul\":9571:9573   */\n      0x20\n        /* \"#utility.yul\":9597:9660   */\n      tag_217\n        /* \"#utility.yul\":9652:9659   */\n      dup9\n        /* \"#utility.yul\":9643:9649   */\n      dup3\n        /* \"#utility.yul\":9632:9641   */\n      dup10\n        /* \"#utility.yul\":9628:9650   */\n      add\n        /* \"#utility.yul\":9597:9660   */\n      tag_119\n      jump\t// in\n    tag_217:\n        /* \"#utility.yul\":9587:9660   */\n      swap5\n      pop\n        /* \"#utility.yul\":9542:9670   */\n      pop\n        /* \"#utility.yul\":9709:9711   */\n      0x40\n        /* \"#utility.yul\":9735:9799   */\n      tag_218\n        /* \"#utility.yul\":9791:9798   */\n      dup9\n        /* \"#utility.yul\":9782:9788   */\n      dup3\n        /* \"#utility.yul\":9771:9780   */\n      dup10\n        /* \"#utility.yul\":9767:9789   */\n      add\n        /* \"#utility.yul\":9735:9799   */\n      tag_120\n      jump\t// in\n    tag_218:\n        /* \"#utility.yul\":9725:9799   */\n      swap4\n      pop\n        /* \"#utility.yul\":9680:9809   */\n      pop\n        /* \"#utility.yul\":9848:9850   */\n      0x60\n        /* \"#utility.yul\":9874:9938   */\n      tag_219\n        /* \"#utility.yul\":9930:9937   */\n      dup9\n        /* \"#utility.yul\":9921:9927   */\n      dup3\n        /* \"#utility.yul\":9910:9919   */\n      dup10\n        /* \"#utility.yul\":9906:9928   */\n      add\n        /* \"#utility.yul\":9874:9938   */\n      tag_120\n      jump\t// in\n    tag_219:\n        /* \"#utility.yul\":9864:9938   */\n      swap3\n      pop\n        /* \"#utility.yul\":9819:9948   */\n      pop\n        /* \"#utility.yul\":9987:9990   */\n      0x80\n        /* \"#utility.yul\":10014:10077   */\n      tag_220\n        /* \"#utility.yul\":10069:10076   */\n      dup9\n        /* \"#utility.yul\":10060:10066   */\n      dup3\n        /* \"#utility.yul\":10049:10058   */\n      dup10\n        /* \"#utility.yul\":10045:10067   */\n      add\n        /* \"#utility.yul\":10014:10077   */\n      tag_116\n      jump\t// in\n    tag_220:\n        /* \"#utility.yul\":10004:10077   */\n      swap2\n      pop\n        /* \"#utility.yul\":9958:10087   */\n      pop\n        /* \"#utility.yul\":9123:10094   */\n      swap3\n      swap6\n      pop\n      swap3\n      swap6\n      swap1\n      swap4\n      pop\n      jump\t// out\n        /* \"#utility.yul\":10100:11091   */\n    tag_82:\n        /* \"#utility.yul\":10139:10146   */\n      0x00\n        /* \"#utility.yul\":10162:10181   */\n      tag_222\n        /* \"#utility.yul\":10179:10180   */\n      dup3\n        /* \"#utility.yul\":10162:10181   */\n      tag_117\n      jump\t// in\n    tag_222:\n        /* \"#utility.yul\":10157:10181   */\n      swap2\n      pop\n        /* \"#utility.yul\":10195:10214   */\n      tag_223\n        /* \"#utility.yul\":10212:10213   */\n      dup4\n        /* \"#utility.yul\":10195:10214   */\n      tag_117\n      jump\t// in\n    tag_223:\n        /* \"#utility.yul\":10190:10214   */\n      swap3\n      pop\n        /* \"#utility.yul\":10396:10397   */\n      dup3\n        /* \"#utility.yul\":10328:10394   */\n      0x7fffffffffffffffffffffffffffffffffffffffffffffffffffffffffffffff\n        /* \"#utility.yul\":10324:10398   */\n      div\n        /* \"#utility.yul\":10321:10322   */\n      dup3\n        /* \"#utility.yul\":10318:10399   */\n      gt\n        /* \"#utility.yul\":10313:10314   */\n      0x00\n        /* \"#utility.yul\":10310:10311   */\n      dup5\n        /* \"#utility.yul\":10306:10315   */\n      sgt\n        /* \"#utility.yul\":10302:10303   */\n      0x00\n        /* \"#utility.yul\":10299:10300   */\n      dup5\n        /* \"#utility.yul\":10295:10304   */\n      sgt\n        /* \"#utility.yul\":10291:10316   */\n      and\n        /* \"#utility.yul\":10287:10400   */\n      and\n        /* \"#utility.yul\":10284:10423   */\n      iszero\n      tag_224\n      jumpi\n        /* \"#utility.yul\":10403:10421   */\n      tag_225\n      tag_102\n      jump\t// in\n    tag_225:\n        /* \"#utility.yul\":10284:10423   */\n    tag_224:\n        /* \"#utility.yul\":10607:10608   */\n      dup2\n        /* \"#utility.yul\":10539:10605   */\n      0x8000000000000000000000000000000000000000000000000000000000000000\n        /* \"#utility.yul\":10534:10609   */\n      sdiv\n        /* \"#utility.yul\":10531:10532   */\n      dup4\n        /* \"#utility.yul\":10527:10610   */\n      slt\n        /* \"#utility.yul\":10522:10523   */\n      0x00\n        /* \"#utility.yul\":10519:10520   */\n      dup5\n        /* \"#utility.yul\":10515:10524   */\n      slt\n        /* \"#utility.yul\":10511:10512   */\n      0x00\n        /* \"#utility.yul\":10508:10509   */\n      dup5\n        /* \"#utility.yul\":10504:10513   */\n      sgt\n        /* \"#utility.yul\":10500:10525   */\n      and\n        /* \"#utility.yul\":10496:10611   */\n      and\n        /* \"#utility.yul\":10493:10634   */\n      iszero\n      tag_226\n      jumpi\n        /* \"#utility.yul\":10614:10632   */\n      tag_227\n      tag_102\n      jump\t// in\n    tag_227:\n        /* \"#utility.yul\":10493:10634   */\n    tag_226:\n        /* \"#utility.yul\":10818:10819   */\n      dup3\n        /* \"#utility.yul\":10750:10816   */\n      0x8000000000000000000000000000000000000000000000000000000000000000\n        /* \"#utility.yul\":10745:10820   */\n      sdiv\n        /* \"#utility.yul\":10742:10743   */\n      dup3\n        /* \"#utility.yul\":10738:10821   */\n      slt\n        /* \"#utility.yul\":10733:10734   */\n      0x00\n        /* \"#utility.yul\":10730:10731   */\n      dup5\n        /* \"#utility.yul\":10726:10735   */\n      sgt\n        /* \"#utility.yul\":10722:10723   */\n      0x00\n        /* \"#utility.yul\":10719:10720   */\n      dup5\n        /* \"#utility.yul\":10715:10724   */\n      slt\n        /* \"#utility.yul\":10711:10736   */\n      and\n        /* \"#utility.yul\":10707:10822   */\n      and\n        /* \"#utility.yul\":10704:10845   */\n      iszero\n      tag_228\n      jumpi\n        /* \"#utility.yul\":10825:10843   */\n      tag_229\n      tag_102\n      jump\t// in\n    tag_229:\n        /* \"#utility.yul\":10704:10845   */\n    tag_228:\n        /* \"#utility.yul\":11028:11029   */\n      dup3\n        /* \"#utility.yul\":10960:11026   */\n      0x7fffffffffffffffffffffffffffffffffffffffffffffffffffffffffffffff\n        /* \"#utility.yul\":10955:11030   */\n      sdiv\n        /* \"#utility.yul\":10952:10953   */\n      dup3\n        /* \"#utility.yul\":10948:11031   */\n      slt\n        /* \"#utility.yul\":10943:10944   */\n      0x00\n        /* \"#utility.yul\":10940:10941   */\n      dup5\n        /* \"#utility.yul\":10936:10945   */\n      slt\n        /* \"#utility.yul\":10932:10933   */\n      0x00\n        /* \"#utility.yul\":10929:10930   */\n      dup5\n        /* \"#utility.yul\":10925:10934   */\n      slt\n        /* \"#utility.yul\":10921:10946   */\n      and\n        /* \"#utility.yul\":10917:11032   */\n      and\n        /* \"#utility.yul\":10914:11055   */\n      iszero\n      tag_230\n      jumpi\n        /* \"#utility.yul\":11035:11053   */\n      tag_231\n      tag_102\n      jump\t// in\n    tag_231:\n        /* \"#utility.yul\":10914:11055   */\n    tag_230:\n        /* \"#utility.yul\":11083:11084   */\n      dup3\n        /* \"#utility.yul\":11080:11081   */\n      dup3\n        /* \"#utility.yul\":11076:11085   */\n      mul\n        /* \"#utility.yul\":11065:11085   */\n      swap1\n      pop\n        /* \"#utility.yul\":10100:11091   */\n      swap3\n      swap2\n      pop\n      pop\n      jump\t// out\n\n    auxdata: 0xa2646970667358221220db5e93b1c972e29e6c0091a12b293996a293309fae15308a8ec5d822fa29f8f164736f6c634300080e0033\n}\n",
				"bytecode": {
					"linkReferences": {},
					"object": "60806040526802b5e3af16b188000060005534801561001d57600080fd5b50610d2f8061002d6000396000f3fe60806040526004361061004a5760003560e01c806347ff62c61461004f578063520fcd611461008c57806357ea89b6146100c957806366b30f06146100e05780636ce1417e1461010b575b600080fd5b34801561005b57600080fd5b50610076600480360381019061007191906106a4565b610115565b6040516100839190610712565b60405180910390f35b34801561009857600080fd5b506100b360048036038101906100ae9190610759565b610154565b6040516100c09190610795565b60405180910390f35b3480156100d557600080fd5b506100de61016c565b005b3480156100ec57600080fd5b506100f56103e3565b6040516101029190610795565b60405180910390f35b6101136103e9565b005b6001818154811061012557600080fd5b906000526020600020016000915054906101000a900473ffffffffffffffffffffffffffffffffffffffff1681565b60026020528060005260406000206000915090505481565b60005b6001805490508110156102125760006002600060018481548110610196576101956107b0565b5b9060005260206000200160009054906101000a900473ffffffffffffffffffffffffffffffffffffffff1673ffffffffffffffffffffffffffffffffffffffff1673ffffffffffffffffffffffffffffffffffffffff16815260200190815260200160002081905550808061020a9061080e565b91505061016f565b50600067ffffffffffffffff81111561022e5761022d610856565b5b60405190808252806020026020018201604052801561025c5781602001602082028036833780820191505090505b50600190805190602001906102729291906105c2565b503373ffffffffffffffffffffffffffffffffffffffff166108fc479081150290604051600060405180830381858888f193505050501580156102b9573d6000803e3d6000fd5b5060003373ffffffffffffffffffffffffffffffffffffffff166108fc479081150290604051600060405180830381858888f19350505050905080610333576040517f08c379a000000000000000000000000000000000000000000000000000000000815260040161032a906108e2565b60405180910390fd5b60003373ffffffffffffffffffffffffffffffffffffffff164760405161035990610933565b60006040518083038185875af1925050503d8060008114610396576040519150601f19603f3d011682016040523d82523d6000602084013e61039b565b606091505b50509050806103df576040517f08c379a00000000000000000000000000000000000000000000000000000000081526004016103d690610994565b60405180910390fd5b5050565b60005481565b6000546103f5346104df565b1015610436576040517f08c379a000000000000000000000000000000000000000000000000000000000815260040161042d90610a00565b60405180910390fd5b6001339080600181540180825580915050600190039060005260206000200160009091909190916101000a81548173ffffffffffffffffffffffffffffffffffffffff021916908373ffffffffffffffffffffffffffffffffffffffff16021790555034600260003373ffffffffffffffffffffffffffffffffffffffff1673ffffffffffffffffffffffffffffffffffffffff16815260200190815260200160002081905550565b6000806104ea610519565b90506000670de0b6b3a764000084836105039190610a20565b61050d9190610aa9565b90508092505050919050565b600080738a753747a1fa494ec906ce90e9f37563a8af630e905060008173ffffffffffffffffffffffffffffffffffffffff1663feaf968c6040518163ffffffff1660e01b815260040160a060405180830381865afa158015610580573d6000803e3d6000fd5b505050506040513d601f19601f820116820180604052508101906105a49190610b67565b5050509150506402540be400816105bb9190610be2565b9250505090565b82805482825590600052602060002090810192821561063b579160200282015b8281111561063a5782518260006101000a81548173ffffffffffffffffffffffffffffffffffffffff021916908373ffffffffffffffffffffffffffffffffffffffff160217905550916020019190600101906105e2565b5b509050610648919061064c565b5090565b5b8082111561066557600081600090555060010161064d565b5090565b600080fd5b6000819050919050565b6106818161066e565b811461068c57600080fd5b50565b60008135905061069e81610678565b92915050565b6000602082840312156106ba576106b9610669565b5b60006106c88482850161068f565b91505092915050565b600073ffffffffffffffffffffffffffffffffffffffff82169050919050565b60006106fc826106d1565b9050919050565b61070c816106f1565b82525050565b60006020820190506107276000830184610703565b92915050565b610736816106f1565b811461074157600080fd5b50565b6000813590506107538161072d565b92915050565b60006020828403121561076f5761076e610669565b5b600061077d84828501610744565b91505092915050565b61078f8161066e565b82525050565b60006020820190506107aa6000830184610786565b92915050565b7f4e487b7100000000000000000000000000000000000000000000000000000000600052603260045260246000fd5b7f4e487b7100000000000000000000000000000000000000000000000000000000600052601160045260246000fd5b60006108198261066e565b91507fffffffffffffffffffffffffffffffffffffffffffffffffffffffffffffffff820361084b5761084a6107df565b5b600182019050919050565b7f4e487b7100000000000000000000000000000000000000000000000000000000600052604160045260246000fd5b600082825260208201905092915050565b7f73656e64204661696c6564000000000000000000000000000000000000000000600082015250565b60006108cc600b83610885565b91506108d782610896565b602082019050919050565b600060208201905081810360008301526108fb816108bf565b9050919050565b600081905092915050565b50565b600061091d600083610902565b91506109288261090d565b600082019050919050565b600061093e82610910565b9150819050919050565b7f63616c6c204661696c6564000000000000000000000000000000000000000000600082015250565b600061097e600b83610885565b915061098982610948565b602082019050919050565b600060208201905081810360008301526109ad81610971565b9050919050565b7f4469646e27742073656e6420656e6f7567680000000000000000000000000000600082015250565b60006109ea601283610885565b91506109f5826109b4565b602082019050919050565b60006020820190508181036000830152610a19816109dd565b9050919050565b6000610a2b8261066e565b9150610a368361066e565b9250817fffffffffffffffffffffffffffffffffffffffffffffffffffffffffffffffff0483118215151615610a6f57610a6e6107df565b5b828202905092915050565b7f4e487b7100000000000000000000000000000000000000000000000000000000600052601260045260246000fd5b6000610ab48261066e565b9150610abf8361066e565b925082610acf57610ace610a7a565b5b828204905092915050565b600069ffffffffffffffffffff82169050919050565b610af981610ada565b8114610b0457600080fd5b50565b600081519050610b1681610af0565b92915050565b6000819050919050565b610b2f81610b1c565b8114610b3a57600080fd5b50565b600081519050610b4c81610b26565b92915050565b600081519050610b6181610678565b92915050565b600080600080600060a08688031215610b8357610b82610669565b5b6000610b9188828901610b07565b9550506020610ba288828901610b3d565b9450506040610bb388828901610b52565b9350506060610bc488828901610b52565b9250506080610bd588828901610b07565b9150509295509295909350565b6000610bed82610b1c565b9150610bf883610b1c565b9250827f7fffffffffffffffffffffffffffffffffffffffffffffffffffffffffffffff0482116000841360008413161615610c3757610c366107df565b5b817f80000000000000000000000000000000000000000000000000000000000000000583126000841260008413161615610c7457610c736107df565b5b827f80000000000000000000000000000000000000000000000000000000000000000582126000841360008412161615610cb157610cb06107df565b5b827f7fffffffffffffffffffffffffffffffffffffffffffffffffffffffffffffff0582126000841260008412161615610cee57610ced6107df565b5b82820290509291505056fea2646970667358221220db5e93b1c972e29e6c0091a12b293996a293309fae15308a8ec5d822fa29f8f164736f6c634300080e0033",
					"opcodes": "PUSH1 0x80 PUSH1 0x40 MSTORE PUSH9 0x2B5E3AF16B1880000 PUSH1 0x0 SSTORE CALLVALUE DUP1 ISZERO PUSH2 0x1D JUMPI PUSH1 0x0 DUP1 REVERT JUMPDEST POP PUSH2 0xD2F DUP1 PUSH2 0x2D PUSH1 0x0 CODECOPY PUSH1 0x0 RETURN INVALID PUSH1 0x80 PUSH1 0x40 MSTORE PUSH1 0x4 CALLDATASIZE LT PUSH2 0x4A JUMPI PUSH1 0x0 CALLDATALOAD PUSH1 0xE0 SHR DUP1 PUSH4 0x47FF62C6 EQ PUSH2 0x4F JUMPI DUP1 PUSH4 0x520FCD61 EQ PUSH2 0x8C JUMPI DUP1 PUSH4 0x57EA89B6 EQ PUSH2 0xC9 JUMPI DUP1 PUSH4 0x66B30F06 EQ PUSH2 0xE0 JUMPI DUP1 PUSH4 0x6CE1417E EQ PUSH2 0x10B JUMPI JUMPDEST PUSH1 0x0 DUP1 REVERT JUMPDEST CALLVALUE DUP1 ISZERO PUSH2 0x5B JUMPI PUSH1 0x0 DUP1 REVERT JUMPDEST POP PUSH2 0x76 PUSH1 0x4 DUP1 CALLDATASIZE SUB DUP2 ADD SWAP1 PUSH2 0x71 SWAP2 SWAP1 PUSH2 0x6A4 JUMP JUMPDEST PUSH2 0x115 JUMP JUMPDEST PUSH1 0x40 MLOAD PUSH2 0x83 SWAP2 SWAP1 PUSH2 0x712 JUMP JUMPDEST PUSH1 0x40 MLOAD DUP1 SWAP2 SUB SWAP1 RETURN JUMPDEST CALLVALUE DUP1 ISZERO PUSH2 0x98 JUMPI PUSH1 0x0 DUP1 REVERT JUMPDEST POP PUSH2 0xB3 PUSH1 0x4 DUP1 CALLDATASIZE SUB DUP2 ADD SWAP1 PUSH2 0xAE SWAP2 SWAP1 PUSH2 0x759 JUMP JUMPDEST PUSH2 0x154 JUMP JUMPDEST PUSH1 0x40 MLOAD PUSH2 0xC0 SWAP2 SWAP1 PUSH2 0x795 JUMP JUMPDEST PUSH1 0x40 MLOAD DUP1 SWAP2 SUB SWAP1 RETURN JUMPDEST CALLVALUE DUP1 ISZERO PUSH2 0xD5 JUMPI PUSH1 0x0 DUP1 REVERT JUMPDEST POP PUSH2 0xDE PUSH2 0x16C JUMP JUMPDEST STOP JUMPDEST CALLVALUE DUP1 ISZERO PUSH2 0xEC JUMPI PUSH1 0x0 DUP1 REVERT JUMPDEST POP PUSH2 0xF5 PUSH2 0x3E3 JUMP JUMPDEST PUSH1 0x40 MLOAD PUSH2 0x102 SWAP2 SWAP1 PUSH2 0x795 JUMP JUMPDEST PUSH1 0x40 MLOAD DUP1 SWAP2 SUB SWAP1 RETURN JUMPDEST PUSH2 0x113 PUSH2 0x3E9 JUMP JUMPDEST STOP JUMPDEST PUSH1 0x1 DUP2 DUP2 SLOAD DUP2 LT PUSH2 0x125 JUMPI PUSH1 0x0 DUP1 REVERT JUMPDEST SWAP1 PUSH1 0x0 MSTORE PUSH1 0x20 PUSH1 0x0 KECCAK256 ADD PUSH1 0x0 SWAP2 POP SLOAD SWAP1 PUSH2 0x100 EXP SWAP1 DIV PUSH20 0xFFFFFFFFFFFFFFFFFFFFFFFFFFFFFFFFFFFFFFFF AND DUP2 JUMP JUMPDEST PUSH1 0x2 PUSH1 0x20 MSTORE DUP1 PUSH1 0x0 MSTORE PUSH1 0x40 PUSH1 0x0 KECCAK256 PUSH1 0x0 SWAP2 POP SWAP1 POP SLOAD DUP2 JUMP JUMPDEST PUSH1 0x0 JUMPDEST PUSH1 0x1 DUP1 SLOAD SWAP1 POP DUP2 LT ISZERO PUSH2 0x212 JUMPI PUSH1 0x0 PUSH1 0x2 PUSH1 0x0 PUSH1 0x1 DUP5 DUP2 SLOAD DUP2 LT PUSH2 0x196 JUMPI PUSH2 0x195 PUSH2 0x7B0 JUMP JUMPDEST JUMPDEST SWAP1 PUSH1 0x0 MSTORE PUSH1 0x20 PUSH1 0x0 KECCAK256 ADD PUSH1 0x0 SWAP1 SLOAD SWAP1 PUSH2 0x100 EXP SWAP1 DIV PUSH20 0xFFFFFFFFFFFFFFFFFFFFFFFFFFFFFFFFFFFFFFFF AND PUSH20 0xFFFFFFFFFFFFFFFFFFFFFFFFFFFFFFFFFFFFFFFF AND PUSH20 0xFFFFFFFFFFFFFFFFFFFFFFFFFFFFFFFFFFFFFFFF AND DUP2 MSTORE PUSH1 0x20 ADD SWAP1 DUP2 MSTORE PUSH1 0x20 ADD PUSH1 0x0 KECCAK256 DUP2 SWAP1 SSTORE POP DUP1 DUP1 PUSH2 0x20A SWAP1 PUSH2 0x80E JUMP JUMPDEST SWAP2 POP POP PUSH2 0x16F JUMP JUMPDEST POP PUSH1 0x0 PUSH8 0xFFFFFFFFFFFFFFFF DUP2 GT ISZERO PUSH2 0x22E JUMPI PUSH2 0x22D PUSH2 0x856 JUMP JUMPDEST JUMPDEST PUSH1 0x40 MLOAD SWAP1 DUP1 DUP3 MSTORE DUP1 PUSH1 0x20 MUL PUSH1 0x20 ADD DUP3 ADD PUSH1 0x40 MSTORE DUP1 ISZERO PUSH2 0x25C JUMPI DUP2 PUSH1 0x20 ADD PUSH1 0x20 DUP3 MUL DUP1 CALLDATASIZE DUP4 CALLDATACOPY DUP1 DUP3 ADD SWAP2 POP POP SWAP1 POP JUMPDEST POP PUSH1 0x1 SWAP1 DUP1 MLOAD SWAP1 PUSH1 0x20 ADD SWAP1 PUSH2 0x272 SWAP3 SWAP2 SWAP1 PUSH2 0x5C2 JUMP JUMPDEST POP CALLER PUSH20 0xFFFFFFFFFFFFFFFFFFFFFFFFFFFFFFFFFFFFFFFF AND PUSH2 0x8FC SELFBALANCE SWAP1 DUP2 ISZERO MUL SWAP1 PUSH1 0x40 MLOAD PUSH1 0x0 PUSH1 0x40 MLOAD DUP1 DUP4 SUB DUP2 DUP6 DUP9 DUP9 CALL SWAP4 POP POP POP POP ISZERO DUP1 ISZERO PUSH2 0x2B9 JUMPI RETURNDATASIZE PUSH1 0x0 DUP1 RETURNDATACOPY RETURNDATASIZE PUSH1 0x0 REVERT JUMPDEST POP PUSH1 0x0 CALLER PUSH20 0xFFFFFFFFFFFFFFFFFFFFFFFFFFFFFFFFFFFFFFFF AND PUSH2 0x8FC SELFBALANCE SWAP1 DUP2 ISZERO MUL SWAP1 PUSH1 0x40 MLOAD PUSH1 0x0 PUSH1 0x40 MLOAD DUP1 DUP4 SUB DUP2 DUP6 DUP9 DUP9 CALL SWAP4 POP POP POP POP SWAP1 POP DUP1 PUSH2 0x333 JUMPI PUSH1 0x40 MLOAD PUSH32 0x8C379A000000000000000000000000000000000000000000000000000000000 DUP2 MSTORE PUSH1 0x4 ADD PUSH2 0x32A SWAP1 PUSH2 0x8E2 JUMP JUMPDEST PUSH1 0x40 MLOAD DUP1 SWAP2 SUB SWAP1 REVERT JUMPDEST PUSH1 0x0 CALLER PUSH20 0xFFFFFFFFFFFFFFFFFFFFFFFFFFFFFFFFFFFFFFFF AND SELFBALANCE PUSH1 0x40 MLOAD PUSH2 0x359 SWAP1 PUSH2 0x933 JUMP JUMPDEST PUSH1 0x0 PUSH1 0x40 MLOAD DUP1 DUP4 SUB DUP2 DUP6 DUP8 GAS CALL SWAP3 POP POP POP RETURNDATASIZE DUP1 PUSH1 0x0 DUP2 EQ PUSH2 0x396 JUMPI PUSH1 0x40 MLOAD SWAP2 POP PUSH1 0x1F NOT PUSH1 0x3F RETURNDATASIZE ADD AND DUP3 ADD PUSH1 0x40 MSTORE RETURNDATASIZE DUP3 MSTORE RETURNDATASIZE PUSH1 0x0 PUSH1 0x20 DUP5 ADD RETURNDATACOPY PUSH2 0x39B JUMP JUMPDEST PUSH1 0x60 SWAP2 POP JUMPDEST POP POP SWAP1 POP DUP1 PUSH2 0x3DF JUMPI PUSH1 0x40 MLOAD PUSH32 0x8C379A000000000000000000000000000000000000000000000000000000000 DUP2 MSTORE PUSH1 0x4 ADD PUSH2 0x3D6 SWAP1 PUSH2 0x994 JUMP JUMPDEST PUSH1 0x40 MLOAD DUP1 SWAP2 SUB SWAP1 REVERT JUMPDEST POP POP JUMP JUMPDEST PUSH1 0x0 SLOAD DUP2 JUMP JUMPDEST PUSH1 0x0 SLOAD PUSH2 0x3F5 CALLVALUE PUSH2 0x4DF JUMP JUMPDEST LT ISZERO PUSH2 0x436 JUMPI PUSH1 0x40 MLOAD PUSH32 0x8C379A000000000000000000000000000000000000000000000000000000000 DUP2 MSTORE PUSH1 0x4 ADD PUSH2 0x42D SWAP1 PUSH2 0xA00 JUMP JUMPDEST PUSH1 0x40 MLOAD DUP1 SWAP2 SUB SWAP1 REVERT JUMPDEST PUSH1 0x1 CALLER SWAP1 DUP1 PUSH1 0x1 DUP2 SLOAD ADD DUP1 DUP3 SSTORE DUP1 SWAP2 POP POP PUSH1 0x1 SWAP1 SUB SWAP1 PUSH1 0x0 MSTORE PUSH1 0x20 PUSH1 0x0 KECCAK256 ADD PUSH1 0x0 SWAP1 SWAP2 SWAP1 SWAP2 SWAP1 SWAP2 PUSH2 0x100 EXP DUP2 SLOAD DUP2 PUSH20 0xFFFFFFFFFFFFFFFFFFFFFFFFFFFFFFFFFFFFFFFF MUL NOT AND SWAP1 DUP4 PUSH20 0xFFFFFFFFFFFFFFFFFFFFFFFFFFFFFFFFFFFFFFFF AND MUL OR SWAP1 SSTORE POP CALLVALUE PUSH1 0x2 PUSH1 0x0 CALLER PUSH20 0xFFFFFFFFFFFFFFFFFFFFFFFFFFFFFFFFFFFFFFFF AND PUSH20 0xFFFFFFFFFFFFFFFFFFFFFFFFFFFFFFFFFFFFFFFF AND DUP2 MSTORE PUSH1 0x20 ADD SWAP1 DUP2 MSTORE PUSH1 0x20 ADD PUSH1 0x0 KECCAK256 DUP2 SWAP1 SSTORE POP JUMP JUMPDEST PUSH1 0x0 DUP1 PUSH2 0x4EA PUSH2 0x519 JUMP JUMPDEST SWAP1 POP PUSH1 0x0 PUSH8 0xDE0B6B3A7640000 DUP5 DUP4 PUSH2 0x503 SWAP2 SWAP1 PUSH2 0xA20 JUMP JUMPDEST PUSH2 0x50D SWAP2 SWAP1 PUSH2 0xAA9 JUMP JUMPDEST SWAP1 POP DUP1 SWAP3 POP POP POP SWAP2 SWAP1 POP JUMP JUMPDEST PUSH1 0x0 DUP1 PUSH20 0x8A753747A1FA494EC906CE90E9F37563A8AF630E SWAP1 POP PUSH1 0x0 DUP2 PUSH20 0xFFFFFFFFFFFFFFFFFFFFFFFFFFFFFFFFFFFFFFFF AND PUSH4 0xFEAF968C PUSH1 0x40 MLOAD DUP2 PUSH4 0xFFFFFFFF AND PUSH1 0xE0 SHL DUP2 MSTORE PUSH1 0x4 ADD PUSH1 0xA0 PUSH1 0x40 MLOAD DUP1 DUP4 SUB DUP2 DUP7 GAS STATICCALL ISZERO DUP1 ISZERO PUSH2 0x580 JUMPI RETURNDATASIZE PUSH1 0x0 DUP1 RETURNDATACOPY RETURNDATASIZE PUSH1 0x0 REVERT JUMPDEST POP POP POP POP PUSH1 0x40 MLOAD RETURNDATASIZE PUSH1 0x1F NOT PUSH1 0x1F DUP3 ADD AND DUP3 ADD DUP1 PUSH1 0x40 MSTORE POP DUP2 ADD SWAP1 PUSH2 0x5A4 SWAP2 SWAP1 PUSH2 0xB67 JUMP JUMPDEST POP POP POP SWAP2 POP POP PUSH5 0x2540BE400 DUP2 PUSH2 0x5BB SWAP2 SWAP1 PUSH2 0xBE2 JUMP JUMPDEST SWAP3 POP POP POP SWAP1 JUMP JUMPDEST DUP3 DUP1 SLOAD DUP3 DUP3 SSTORE SWAP1 PUSH1 0x0 MSTORE PUSH1 0x20 PUSH1 0x0 KECCAK256 SWAP1 DUP2 ADD SWAP3 DUP3 ISZERO PUSH2 0x63B JUMPI SWAP2 PUSH1 0x20 MUL DUP3 ADD JUMPDEST DUP3 DUP2 GT ISZERO PUSH2 0x63A JUMPI DUP3 MLOAD DUP3 PUSH1 0x0 PUSH2 0x100 EXP DUP2 SLOAD DUP2 PUSH20 0xFFFFFFFFFFFFFFFFFFFFFFFFFFFFFFFFFFFFFFFF MUL NOT AND SWAP1 DUP4 PUSH20 0xFFFFFFFFFFFFFFFFFFFFFFFFFFFFFFFFFFFFFFFF AND MUL OR SWAP1 SSTORE POP SWAP2 PUSH1 0x20 ADD SWAP2 SWAP1 PUSH1 0x1 ADD SWAP1 PUSH2 0x5E2 JUMP JUMPDEST JUMPDEST POP SWAP1 POP PUSH2 0x648 SWAP2 SWAP1 PUSH2 0x64C JUMP JUMPDEST POP SWAP1 JUMP JUMPDEST JUMPDEST DUP1 DUP3 GT ISZERO PUSH2 0x665 JUMPI PUSH1 0x0 DUP2 PUSH1 0x0 SWAP1 SSTORE POP PUSH1 0x1 ADD PUSH2 0x64D JUMP JUMPDEST POP SWAP1 JUMP JUMPDEST PUSH1 0x0 DUP1 REVERT JUMPDEST PUSH1 0x0 DUP2 SWAP1 POP SWAP2 SWAP1 POP JUMP JUMPDEST PUSH2 0x681 DUP2 PUSH2 0x66E JUMP JUMPDEST DUP2 EQ PUSH2 0x68C JUMPI PUSH1 0x0 DUP1 REVERT JUMPDEST POP JUMP JUMPDEST PUSH1 0x0 DUP2 CALLDATALOAD SWAP1 POP PUSH2 0x69E DUP2 PUSH2 0x678 JUMP JUMPDEST SWAP3 SWAP2 POP POP JUMP JUMPDEST PUSH1 0x0 PUSH1 0x20 DUP3 DUP5 SUB SLT ISZERO PUSH2 0x6BA JUMPI PUSH2 0x6B9 PUSH2 0x669 JUMP JUMPDEST JUMPDEST PUSH1 0x0 PUSH2 0x6C8 DUP5 DUP3 DUP6 ADD PUSH2 0x68F JUMP JUMPDEST SWAP2 POP POP SWAP3 SWAP2 POP POP JUMP JUMPDEST PUSH1 0x0 PUSH20 0xFFFFFFFFFFFFFFFFFFFFFFFFFFFFFFFFFFFFFFFF DUP3 AND SWAP1 POP SWAP2 SWAP1 POP JUMP JUMPDEST PUSH1 0x0 PUSH2 0x6FC DUP3 PUSH2 0x6D1 JUMP JUMPDEST SWAP1 POP SWAP2 SWAP1 POP JUMP JUMPDEST PUSH2 0x70C DUP2 PUSH2 0x6F1 JUMP JUMPDEST DUP3 MSTORE POP POP JUMP JUMPDEST PUSH1 0x0 PUSH1 0x20 DUP3 ADD SWAP1 POP PUSH2 0x727 PUSH1 0x0 DUP4 ADD DUP5 PUSH2 0x703 JUMP JUMPDEST SWAP3 SWAP2 POP POP JUMP JUMPDEST PUSH2 0x736 DUP2 PUSH2 0x6F1 JUMP JUMPDEST DUP2 EQ PUSH2 0x741 JUMPI PUSH1 0x0 DUP1 REVERT JUMPDEST POP JUMP JUMPDEST PUSH1 0x0 DUP2 CALLDATALOAD SWAP1 POP PUSH2 0x753 DUP2 PUSH2 0x72D JUMP JUMPDEST SWAP3 SWAP2 POP POP JUMP JUMPDEST PUSH1 0x0 PUSH1 0x20 DUP3 DUP5 SUB SLT ISZERO PUSH2 0x76F JUMPI PUSH2 0x76E PUSH2 0x669 JUMP JUMPDEST JUMPDEST PUSH1 0x0 PUSH2 0x77D DUP5 DUP3 DUP6 ADD PUSH2 0x744 JUMP JUMPDEST SWAP2 POP POP SWAP3 SWAP2 POP POP JUMP JUMPDEST PUSH2 0x78F DUP2 PUSH2 0x66E JUMP JUMPDEST DUP3 MSTORE POP POP JUMP JUMPDEST PUSH1 0x0 PUSH1 0x20 DUP3 ADD SWAP1 POP PUSH2 0x7AA PUSH1 0x0 DUP4 ADD DUP5 PUSH2 0x786 JUMP JUMPDEST SWAP3 SWAP2 POP POP JUMP JUMPDEST PUSH32 0x4E487B7100000000000000000000000000000000000000000000000000000000 PUSH1 0x0 MSTORE PUSH1 0x32 PUSH1 0x4 MSTORE PUSH1 0x24 PUSH1 0x0 REVERT JUMPDEST PUSH32 0x4E487B7100000000000000000000000000000000000000000000000000000000 PUSH1 0x0 MSTORE PUSH1 0x11 PUSH1 0x4 MSTORE PUSH1 0x24 PUSH1 0x0 REVERT JUMPDEST PUSH1 0x0 PUSH2 0x819 DUP3 PUSH2 0x66E JUMP JUMPDEST SWAP2 POP PUSH32 0xFFFFFFFFFFFFFFFFFFFFFFFFFFFFFFFFFFFFFFFFFFFFFFFFFFFFFFFFFFFFFFFF DUP3 SUB PUSH2 0x84B JUMPI PUSH2 0x84A PUSH2 0x7DF JUMP JUMPDEST JUMPDEST PUSH1 0x1 DUP3 ADD SWAP1 POP SWAP2 SWAP1 POP JUMP JUMPDEST PUSH32 0x4E487B7100000000000000000000000000000000000000000000000000000000 PUSH1 0x0 MSTORE PUSH1 0x41 PUSH1 0x4 MSTORE PUSH1 0x24 PUSH1 0x0 REVERT JUMPDEST PUSH1 0x0 DUP3 DUP3 MSTORE PUSH1 0x20 DUP3 ADD SWAP1 POP SWAP3 SWAP2 POP POP JUMP JUMPDEST PUSH32 0x73656E64204661696C6564000000000000000000000000000000000000000000 PUSH1 0x0 DUP3 ADD MSTORE POP JUMP JUMPDEST PUSH1 0x0 PUSH2 0x8CC PUSH1 0xB DUP4 PUSH2 0x885 JUMP JUMPDEST SWAP2 POP PUSH2 0x8D7 DUP3 PUSH2 0x896 JUMP JUMPDEST PUSH1 0x20 DUP3 ADD SWAP1 POP SWAP2 SWAP1 POP JUMP JUMPDEST PUSH1 0x0 PUSH1 0x20 DUP3 ADD SWAP1 POP DUP2 DUP2 SUB PUSH1 0x0 DUP4 ADD MSTORE PUSH2 0x8FB DUP2 PUSH2 0x8BF JUMP JUMPDEST SWAP1 POP SWAP2 SWAP1 POP JUMP JUMPDEST PUSH1 0x0 DUP2 SWAP1 POP SWAP3 SWAP2 POP POP JUMP JUMPDEST POP JUMP JUMPDEST PUSH1 0x0 PUSH2 0x91D PUSH1 0x0 DUP4 PUSH2 0x902 JUMP JUMPDEST SWAP2 POP PUSH2 0x928 DUP3 PUSH2 0x90D JUMP JUMPDEST PUSH1 0x0 DUP3 ADD SWAP1 POP SWAP2 SWAP1 POP JUMP JUMPDEST PUSH1 0x0 PUSH2 0x93E DUP3 PUSH2 0x910 JUMP JUMPDEST SWAP2 POP DUP2 SWAP1 POP SWAP2 SWAP1 POP JUMP JUMPDEST PUSH32 0x63616C6C204661696C6564000000000000000000000000000000000000000000 PUSH1 0x0 DUP3 ADD MSTORE POP JUMP JUMPDEST PUSH1 0x0 PUSH2 0x97E PUSH1 0xB DUP4 PUSH2 0x885 JUMP JUMPDEST SWAP2 POP PUSH2 0x989 DUP3 PUSH2 0x948 JUMP JUMPDEST PUSH1 0x20 DUP3 ADD SWAP1 POP SWAP2 SWAP1 POP JUMP JUMPDEST PUSH1 0x0 PUSH1 0x20 DUP3 ADD SWAP1 POP DUP2 DUP2 SUB PUSH1 0x0 DUP4 ADD MSTORE PUSH2 0x9AD DUP2 PUSH2 0x971 JUMP JUMPDEST SWAP1 POP SWAP2 SWAP1 POP JUMP JUMPDEST PUSH32 0x4469646E27742073656E6420656E6F7567680000000000000000000000000000 PUSH1 0x0 DUP3 ADD MSTORE POP JUMP JUMPDEST PUSH1 0x0 PUSH2 0x9EA PUSH1 0x12 DUP4 PUSH2 0x885 JUMP JUMPDEST SWAP2 POP PUSH2 0x9F5 DUP3 PUSH2 0x9B4 JUMP JUMPDEST PUSH1 0x20 DUP3 ADD SWAP1 POP SWAP2 SWAP1 POP JUMP JUMPDEST PUSH1 0x0 PUSH1 0x20 DUP3 ADD SWAP1 POP DUP2 DUP2 SUB PUSH1 0x0 DUP4 ADD MSTORE PUSH2 0xA19 DUP2 PUSH2 0x9DD JUMP JUMPDEST SWAP1 POP SWAP2 SWAP1 POP JUMP JUMPDEST PUSH1 0x0 PUSH2 0xA2B DUP3 PUSH2 0x66E JUMP JUMPDEST SWAP2 POP PUSH2 0xA36 DUP4 PUSH2 0x66E JUMP JUMPDEST SWAP3 POP DUP2 PUSH32 0xFFFFFFFFFFFFFFFFFFFFFFFFFFFFFFFFFFFFFFFFFFFFFFFFFFFFFFFFFFFFFFFF DIV DUP4 GT DUP3 ISZERO ISZERO AND ISZERO PUSH2 0xA6F JUMPI PUSH2 0xA6E PUSH2 0x7DF JUMP JUMPDEST JUMPDEST DUP3 DUP3 MUL SWAP1 POP SWAP3 SWAP2 POP POP JUMP JUMPDEST PUSH32 0x4E487B7100000000000000000000000000000000000000000000000000000000 PUSH1 0x0 MSTORE PUSH1 0x12 PUSH1 0x4 MSTORE PUSH1 0x24 PUSH1 0x0 REVERT JUMPDEST PUSH1 0x0 PUSH2 0xAB4 DUP3 PUSH2 0x66E JUMP JUMPDEST SWAP2 POP PUSH2 0xABF DUP4 PUSH2 0x66E JUMP JUMPDEST SWAP3 POP DUP3 PUSH2 0xACF JUMPI PUSH2 0xACE PUSH2 0xA7A JUMP JUMPDEST JUMPDEST DUP3 DUP3 DIV SWAP1 POP SWAP3 SWAP2 POP POP JUMP JUMPDEST PUSH1 0x0 PUSH10 0xFFFFFFFFFFFFFFFFFFFF DUP3 AND SWAP1 POP SWAP2 SWAP1 POP JUMP JUMPDEST PUSH2 0xAF9 DUP2 PUSH2 0xADA JUMP JUMPDEST DUP2 EQ PUSH2 0xB04 JUMPI PUSH1 0x0 DUP1 REVERT JUMPDEST POP JUMP JUMPDEST PUSH1 0x0 DUP2 MLOAD SWAP1 POP PUSH2 0xB16 DUP2 PUSH2 0xAF0 JUMP JUMPDEST SWAP3 SWAP2 POP POP JUMP JUMPDEST PUSH1 0x0 DUP2 SWAP1 POP SWAP2 SWAP1 POP JUMP JUMPDEST PUSH2 0xB2F DUP2 PUSH2 0xB1C JUMP JUMPDEST DUP2 EQ PUSH2 0xB3A JUMPI PUSH1 0x0 DUP1 REVERT JUMPDEST POP JUMP JUMPDEST PUSH1 0x0 DUP2 MLOAD SWAP1 POP PUSH2 0xB4C DUP2 PUSH2 0xB26 JUMP JUMPDEST SWAP3 SWAP2 POP POP JUMP JUMPDEST PUSH1 0x0 DUP2 MLOAD SWAP1 POP PUSH2 0xB61 DUP2 PUSH2 0x678 JUMP JUMPDEST SWAP3 SWAP2 POP POP JUMP JUMPDEST PUSH1 0x0 DUP1 PUSH1 0x0 DUP1 PUSH1 0x0 PUSH1 0xA0 DUP7 DUP9 SUB SLT ISZERO PUSH2 0xB83 JUMPI PUSH2 0xB82 PUSH2 0x669 JUMP JUMPDEST JUMPDEST PUSH1 0x0 PUSH2 0xB91 DUP9 DUP3 DUP10 ADD PUSH2 0xB07 JUMP JUMPDEST SWAP6 POP POP PUSH1 0x20 PUSH2 0xBA2 DUP9 DUP3 DUP10 ADD PUSH2 0xB3D JUMP JUMPDEST SWAP5 POP POP PUSH1 0x40 PUSH2 0xBB3 DUP9 DUP3 DUP10 ADD PUSH2 0xB52 JUMP JUMPDEST SWAP4 POP POP PUSH1 0x60 PUSH2 0xBC4 DUP9 DUP3 DUP10 ADD PUSH2 0xB52 JUMP JUMPDEST SWAP3 POP POP PUSH1 0x80 PUSH2 0xBD5 DUP9 DUP3 DUP10 ADD PUSH2 0xB07 JUMP JUMPDEST SWAP2 POP POP SWAP3 SWAP6 POP SWAP3 SWAP6 SWAP1 SWAP4 POP JUMP JUMPDEST PUSH1 0x0 PUSH2 0xBED DUP3 PUSH2 0xB1C JUMP JUMPDEST SWAP2 POP PUSH2 0xBF8 DUP4 PUSH2 0xB1C JUMP JUMPDEST SWAP3 POP DUP3 PUSH32 0x7FFFFFFFFFFFFFFFFFFFFFFFFFFFFFFFFFFFFFFFFFFFFFFFFFFFFFFFFFFFFFFF DIV DUP3 GT PUSH1 0x0 DUP5 SGT PUSH1 0x0 DUP5 SGT AND AND ISZERO PUSH2 0xC37 JUMPI PUSH2 0xC36 PUSH2 0x7DF JUMP JUMPDEST JUMPDEST DUP2 PUSH32 0x8000000000000000000000000000000000000000000000000000000000000000 SDIV DUP4 SLT PUSH1 0x0 DUP5 SLT PUSH1 0x0 DUP5 SGT AND AND ISZERO PUSH2 0xC74 JUMPI PUSH2 0xC73 PUSH2 0x7DF JUMP JUMPDEST JUMPDEST DUP3 PUSH32 0x8000000000000000000000000000000000000000000000000000000000000000 SDIV DUP3 SLT PUSH1 0x0 DUP5 SGT PUSH1 0x0 DUP5 SLT AND AND ISZERO PUSH2 0xCB1 JUMPI PUSH2 0xCB0 PUSH2 0x7DF JUMP JUMPDEST JUMPDEST DUP3 PUSH32 0x7FFFFFFFFFFFFFFFFFFFFFFFFFFFFFFFFFFFFFFFFFFFFFFFFFFFFFFFFFFFFFFF SDIV DUP3 SLT PUSH1 0x0 DUP5 SLT PUSH1 0x0 DUP5 SLT AND AND ISZERO PUSH2 0xCEE JUMPI PUSH2 0xCED PUSH2 0x7DF JUMP JUMPDEST JUMPDEST DUP3 DUP3 MUL SWAP1 POP SWAP3 SWAP2 POP POP JUMP INVALID LOG2 PUSH5 0x6970667358 0x22 SLT KECCAK256 0xDB 0x5E SWAP4 0xB1 0xC9 PUSH19 0xE29E6C0091A12B293996A293309FAE15308A8E 0xC5 0xD8 0x22 STATICCALL 0x29 0xF8 CALL PUSH5 0x736F6C6343 STOP ADDMOD 0xE STOP CALLER "
				},
				"gasEstimates": {
					"creation": {
						"codeDepositCost": "675000",
						"executionCost": "22814",
						"totalCost": "697814"
					},
					"external": {
						"Fund()": "infinite",
						"Withdraw()": "infinite",
						"addreddToAmountFeed(address)": "2814",
						"fundersList(uint256)": "4934",
						"minimumFund()": "2473"
					}
				},
				"methodIdentifiers": {
					"Fund()": "6ce1417e",
					"Withdraw()": "57ea89b6",
					"addreddToAmountFeed(address)": "520fcd61",
					"fundersList(uint256)": "47ff62c6",
					"minimumFund()": "66b30f06"
				}
			},
			"storageLayout": {
				"storage": [
					{
						"astId": 56,
						"contract": "contracts/FundMe.sol:FundMe",
						"label": "minimumFund",
						"offset": 0,
						"slot": "0",
						"type": "t_uint256"
					},
					{
						"astId": 59,
						"contract": "contracts/FundMe.sol:FundMe",
						"label": "fundersList",
						"offset": 0,
						"slot": "1",
						"type": "t_array(t_address)dyn_storage"
					},
					{
						"astId": 63,
						"contract": "contracts/FundMe.sol:FundMe",
						"label": "addreddToAmountFeed",
						"offset": 0,
						"slot": "2",
						"type": "t_mapping(t_address,t_uint256)"
					}
				],
				"types": {
					"t_address": {
						"encoding": "inplace",
						"label": "address",
						"numberOfBytes": "20"
					},
					"t_array(t_address)dyn_storage": {
						"base": "t_address",
						"encoding": "dynamic_array",
						"label": "address[]",
						"numberOfBytes": "32"
					},
					"t_mapping(t_address,t_uint256)": {
						"encoding": "mapping",
						"key": "t_address",
						"label": "mapping(address => uint256)",
						"numberOfBytes": "32",
						"value": "t_uint256"
					},
					"t_uint256": {
						"encoding": "inplace",
						"label": "uint256",
						"numberOfBytes": "32"
					}
				}
			},
			"userdoc": {
				"kind": "user",
				"methods": {},
				"version": 1
			}
		}
	}
}