{
	"contracts/PriceConverter.sol": {
		"PriceConverter": {
			"abi": [
				{
					"inputs": [
						{
							"internalType": "uint256",
							"name": "_etherAmount",
							"type": "uint256"
						}
					],
					"name": "GetConversionRate",
					"outputs": [
						{
							"internalType": "uint256",
							"name": "",
							"type": "uint256"
						}
					],
					"stateMutability": "view",
					"type": "function"
				},
				{
					"inputs": [],
					"name": "GetPrice",
					"outputs": [
						{
							"internalType": "uint256",
							"name": "",
							"type": "uint256"
						}
					],
					"stateMutability": "view",
					"type": "function"
				},
				{
					"inputs": [],
					"name": "GetVersion",
					"outputs": [
						{
							"internalType": "uint256",
							"name": "",
							"type": "uint256"
						}
					],
					"stateMutability": "view",
					"type": "function"
				}
			],
			"devdoc": {
				"kind": "dev",
				"methods": {},
				"version": 1
			},
			"evm": {
				"assembly": "    /* \"contracts/PriceConverter.sol\":140:883  library PriceConverter{... */\n  dataSize(sub_0)\n  dataOffset(sub_0)\n  0x0b\n  dup3\n  dup3\n  dup3\n  codecopy\n  dup1\n  mload\n  0x00\n  byte\n  0x73\n  eq\n  tag_1\n  jumpi\n  mstore(0x00, 0x4e487b7100000000000000000000000000000000000000000000000000000000)\n  mstore(0x04, 0x00)\n  revert(0x00, 0x24)\ntag_1:\n  mstore(0x00, address)\n  0x73\n  dup2\n  mstore8\n  dup3\n  dup2\n  return\nstop\n\nsub_0: assembly {\n        /* \"contracts/PriceConverter.sol\":140:883  library PriceConverter{... */\n      eq(address, deployTimeAddress())\n      mstore(0x40, 0x80)\n      jumpi(tag_1, lt(calldatasize, 0x04))\n      shr(0xe0, calldataload(0x00))\n      dup1\n      0x6d90164e\n      eq\n      tag_2\n      jumpi\n      dup1\n      0x793b233b\n      eq\n      tag_3\n      jumpi\n      dup1\n      0xc6129a5a\n      eq\n      tag_4\n      jumpi\n    tag_1:\n      0x00\n      dup1\n      revert\n        /* \"contracts/PriceConverter.sol\":170:436  function GetPrice() public view returns(uint256){... */\n    tag_2:\n      tag_5\n      tag_6\n      jump\t// in\n    tag_5:\n      mload(0x40)\n      tag_7\n      swap2\n      swap1\n      tag_8\n      jump\t// in\n    tag_7:\n      mload(0x40)\n      dup1\n      swap2\n      sub\n      swap1\n      return\n        /* \"contracts/PriceConverter.sol\":657:880  function GetConversionRate(uint256 _etherAmount) public view returns(uint256){... */\n    tag_3:\n      tag_9\n      0x04\n      dup1\n      calldatasize\n      sub\n      dup2\n      add\n      swap1\n      tag_10\n      swap2\n      swap1\n      tag_11\n      jump\t// in\n    tag_10:\n      tag_12\n      jump\t// in\n    tag_9:\n      mload(0x40)\n      tag_13\n      swap2\n      swap1\n      tag_8\n      jump\t// in\n    tag_13:\n      mload(0x40)\n      dup1\n      swap2\n      sub\n      swap1\n      return\n        /* \"contracts/PriceConverter.sol\":444:649  function GetVersion() public view returns(uint256){... */\n    tag_4:\n      tag_14\n      tag_15\n      jump\t// in\n    tag_14:\n      mload(0x40)\n      tag_16\n      swap2\n      swap1\n      tag_8\n      jump\t// in\n    tag_16:\n      mload(0x40)\n      dup1\n      swap2\n      sub\n      swap1\n      return\n        /* \"contracts/PriceConverter.sol\":170:436  function GetPrice() public view returns(uint256){... */\n    tag_6:\n        /* \"contracts/PriceConverter.sol\":210:217  uint256 */\n      0x00\n        /* \"contracts/PriceConverter.sol\":229:260  AggregatorV3Interface priceFeed */\n      dup1\n        /* \"contracts/PriceConverter.sol\":285:327  0x8A753747A1Fa494EC906cE90E9f37563A8AF630e */\n      0x8a753747a1fa494ec906ce90e9f37563a8af630e\n        /* \"contracts/PriceConverter.sol\":229:328  AggregatorV3Interface priceFeed = AggregatorV3Interface(0x8A753747A1Fa494EC906cE90E9f37563A8AF630e) */\n      swap1\n      pop\n        /* \"contracts/PriceConverter.sol\":342:354  int256 price */\n      0x00\n        /* \"contracts/PriceConverter.sol\":361:370  priceFeed */\n      dup2\n        /* \"contracts/PriceConverter.sol\":361:386  priceFeed.latestRoundData */\n      0xffffffffffffffffffffffffffffffffffffffff\n      and\n      0xfeaf968c\n        /* \"contracts/PriceConverter.sol\":361:388  priceFeed.latestRoundData() */\n      mload(0x40)\n      dup2\n      0xffffffff\n      and\n      0xe0\n      shl\n      dup2\n      mstore\n      0x04\n      add\n      0xa0\n      mload(0x40)\n      dup1\n      dup4\n      sub\n      dup2\n      dup7\n      gas\n      staticcall\n      iszero\n      dup1\n      iszero\n      tag_19\n      jumpi\n      returndatasize\n      0x00\n      dup1\n      returndatacopy\n      revert(0x00, returndatasize)\n    tag_19:\n      pop\n      pop\n      pop\n      pop\n      mload(0x40)\n      returndatasize\n      not(0x1f)\n      0x1f\n      dup3\n      add\n      and\n      dup3\n      add\n      dup1\n      0x40\n      mstore\n      pop\n      dup2\n      add\n      swap1\n      tag_20\n      swap2\n      swap1\n      tag_21\n      jump\t// in\n    tag_20:\n        /* \"contracts/PriceConverter.sol\":340:388  (,int256 price,,,) = priceFeed.latestRoundData() */\n      pop\n      pop\n      pop\n      swap2\n      pop\n      pop\n        /* \"contracts/PriceConverter.sol\":423:427  1e10 */\n      0x02540be400\n        /* \"contracts/PriceConverter.sol\":415:420  price */\n      dup2\n        /* \"contracts/PriceConverter.sol\":415:427  price * 1e10 */\n      tag_22\n      swap2\n      swap1\n      tag_23\n      jump\t// in\n    tag_22:\n        /* \"contracts/PriceConverter.sol\":400:428  return uint256(price * 1e10) */\n      swap3\n      pop\n      pop\n      pop\n        /* \"contracts/PriceConverter.sol\":170:436  function GetPrice() public view returns(uint256){... */\n      swap1\n      jump\t// out\n        /* \"contracts/PriceConverter.sol\":657:880  function GetConversionRate(uint256 _etherAmount) public view returns(uint256){... */\n    tag_12:\n        /* \"contracts/PriceConverter.sol\":726:733  uint256 */\n      0x00\n        /* \"contracts/PriceConverter.sol\":745:761  uint256 ethPrice */\n      dup1\n        /* \"contracts/PriceConverter.sol\":764:774  GetPrice() */\n      tag_25\n        /* \"contracts/PriceConverter.sol\":764:772  GetPrice */\n      tag_6\n        /* \"contracts/PriceConverter.sol\":764:774  GetPrice() */\n      jump\t// in\n    tag_25:\n        /* \"contracts/PriceConverter.sol\":745:774  uint256 ethPrice = GetPrice() */\n      swap1\n      pop\n        /* \"contracts/PriceConverter.sol\":785:807  uint256 ethAmountInUsd */\n      0x00\n        /* \"contracts/PriceConverter.sol\":836:840  1e18 */\n      0x0de0b6b3a7640000\n        /* \"contracts/PriceConverter.sol\":822:834  _etherAmount */\n      dup5\n        /* \"contracts/PriceConverter.sol\":811:819  ethPrice */\n      dup4\n        /* \"contracts/PriceConverter.sol\":811:834  ethPrice * _etherAmount */\n      tag_26\n      swap2\n      swap1\n      tag_27\n      jump\t// in\n    tag_26:\n        /* \"contracts/PriceConverter.sol\":810:840  (ethPrice * _etherAmount)/1e18 */\n      tag_28\n      swap2\n      swap1\n      tag_29\n      jump\t// in\n    tag_28:\n        /* \"contracts/PriceConverter.sol\":785:840  uint256 ethAmountInUsd = (ethPrice * _etherAmount)/1e18 */\n      swap1\n      pop\n        /* \"contracts/PriceConverter.sol\":858:872  ethAmountInUsd */\n      dup1\n        /* \"contracts/PriceConverter.sol\":851:872  return ethAmountInUsd */\n      swap3\n      pop\n      pop\n      pop\n        /* \"contracts/PriceConverter.sol\":657:880  function GetConversionRate(uint256 _etherAmount) public view returns(uint256){... */\n      swap2\n      swap1\n      pop\n      jump\t// out\n        /* \"contracts/PriceConverter.sol\":444:649  function GetVersion() public view returns(uint256){... */\n    tag_15:\n        /* \"contracts/PriceConverter.sol\":486:493  uint256 */\n      0x00\n        /* \"contracts/PriceConverter.sol\":505:536  AggregatorV3Interface priceFeed */\n      dup1\n        /* \"contracts/PriceConverter.sol\":561:603  0x8A753747A1Fa494EC906cE90E9f37563A8AF630e */\n      0x8a753747a1fa494ec906ce90e9f37563a8af630e\n        /* \"contracts/PriceConverter.sol\":505:604  AggregatorV3Interface priceFeed = AggregatorV3Interface(0x8A753747A1Fa494EC906cE90E9f37563A8AF630e) */\n      swap1\n      pop\n        /* \"contracts/PriceConverter.sol\":622:631  priceFeed */\n      dup1\n        /* \"contracts/PriceConverter.sol\":622:639  priceFeed.version */\n      0xffffffffffffffffffffffffffffffffffffffff\n      and\n      0x54fd4d50\n        /* \"contracts/PriceConverter.sol\":622:641  priceFeed.version() */\n      mload(0x40)\n      dup2\n      0xffffffff\n      and\n      0xe0\n      shl\n      dup2\n      mstore\n      0x04\n      add\n      0x20\n      mload(0x40)\n      dup1\n      dup4\n      sub\n      dup2\n      dup7\n      gas\n      staticcall\n      iszero\n      dup1\n      iszero\n      tag_32\n      jumpi\n      returndatasize\n      0x00\n      dup1\n      returndatacopy\n      revert(0x00, returndatasize)\n    tag_32:\n      pop\n      pop\n      pop\n      pop\n      mload(0x40)\n      returndatasize\n      not(0x1f)\n      0x1f\n      dup3\n      add\n      and\n      dup3\n      add\n      dup1\n      0x40\n      mstore\n      pop\n      dup2\n      add\n      swap1\n      tag_33\n      swap2\n      swap1\n      tag_34\n      jump\t// in\n    tag_33:\n        /* \"contracts/PriceConverter.sol\":615:641  return priceFeed.version() */\n      swap2\n      pop\n      pop\n        /* \"contracts/PriceConverter.sol\":444:649  function GetVersion() public view returns(uint256){... */\n      swap1\n      jump\t// out\n        /* \"#utility.yul\":7:84   */\n    tag_35:\n        /* \"#utility.yul\":44:51   */\n      0x00\n        /* \"#utility.yul\":73:78   */\n      dup2\n        /* \"#utility.yul\":62:78   */\n      swap1\n      pop\n        /* \"#utility.yul\":7:84   */\n      swap2\n      swap1\n      pop\n      jump\t// out\n        /* \"#utility.yul\":90:216   */\n    tag_36:\n        /* \"#utility.yul\":185:209   */\n      tag_54\n        /* \"#utility.yul\":203:208   */\n      dup2\n        /* \"#utility.yul\":185:209   */\n      tag_35\n      jump\t// in\n    tag_54:\n        /* \"#utility.yul\":180:183   */\n      dup3\n        /* \"#utility.yul\":173:210   */\n      mstore\n        /* \"#utility.yul\":90:216   */\n      pop\n      pop\n      jump\t// out\n        /* \"#utility.yul\":222:460   */\n    tag_8:\n        /* \"#utility.yul\":323:327   */\n      0x00\n        /* \"#utility.yul\":361:363   */\n      0x20\n        /* \"#utility.yul\":350:359   */\n      dup3\n        /* \"#utility.yul\":346:364   */\n      add\n        /* \"#utility.yul\":338:364   */\n      swap1\n      pop\n        /* \"#utility.yul\":374:453   */\n      tag_56\n        /* \"#utility.yul\":450:451   */\n      0x00\n        /* \"#utility.yul\":439:448   */\n      dup4\n        /* \"#utility.yul\":435:452   */\n      add\n        /* \"#utility.yul\":426:432   */\n      dup5\n        /* \"#utility.yul\":374:453   */\n      tag_36\n      jump\t// in\n    tag_56:\n        /* \"#utility.yul\":222:460   */\n      swap3\n      swap2\n      pop\n      pop\n      jump\t// out\n        /* \"#utility.yul\":547:664   */\n    tag_38:\n        /* \"#utility.yul\":656:657   */\n      0x00\n        /* \"#utility.yul\":653:654   */\n      dup1\n        /* \"#utility.yul\":646:658   */\n      revert\n        /* \"#utility.yul\":793:915   */\n    tag_40:\n        /* \"#utility.yul\":866:890   */\n      tag_61\n        /* \"#utility.yul\":884:889   */\n      dup2\n        /* \"#utility.yul\":866:890   */\n      tag_35\n      jump\t// in\n    tag_61:\n        /* \"#utility.yul\":859:864   */\n      dup2\n        /* \"#utility.yul\":856:891   */\n      eq\n        /* \"#utility.yul\":846:909   */\n      tag_62\n      jumpi\n        /* \"#utility.yul\":905:906   */\n      0x00\n        /* \"#utility.yul\":902:903   */\n      dup1\n        /* \"#utility.yul\":895:907   */\n      revert\n        /* \"#utility.yul\":846:909   */\n    tag_62:\n        /* \"#utility.yul\":793:915   */\n      pop\n      jump\t// out\n        /* \"#utility.yul\":921:1060   */\n    tag_41:\n        /* \"#utility.yul\":967:972   */\n      0x00\n        /* \"#utility.yul\":1005:1011   */\n      dup2\n        /* \"#utility.yul\":992:1012   */\n      calldataload\n        /* \"#utility.yul\":983:1012   */\n      swap1\n      pop\n        /* \"#utility.yul\":1021:1054   */\n      tag_64\n        /* \"#utility.yul\":1048:1053   */\n      dup2\n        /* \"#utility.yul\":1021:1054   */\n      tag_40\n      jump\t// in\n    tag_64:\n        /* \"#utility.yul\":921:1060   */\n      swap3\n      swap2\n      pop\n      pop\n      jump\t// out\n        /* \"#utility.yul\":1066:1395   */\n    tag_11:\n        /* \"#utility.yul\":1125:1131   */\n      0x00\n        /* \"#utility.yul\":1174:1176   */\n      0x20\n        /* \"#utility.yul\":1162:1171   */\n      dup3\n        /* \"#utility.yul\":1153:1160   */\n      dup5\n        /* \"#utility.yul\":1149:1172   */\n      sub\n        /* \"#utility.yul\":1145:1177   */\n      slt\n        /* \"#utility.yul\":1142:1261   */\n      iszero\n      tag_66\n      jumpi\n        /* \"#utility.yul\":1180:1259   */\n      tag_67\n      tag_38\n      jump\t// in\n    tag_67:\n        /* \"#utility.yul\":1142:1261   */\n    tag_66:\n        /* \"#utility.yul\":1300:1301   */\n      0x00\n        /* \"#utility.yul\":1325:1378   */\n      tag_68\n        /* \"#utility.yul\":1370:1377   */\n      dup5\n        /* \"#utility.yul\":1361:1367   */\n      dup3\n        /* \"#utility.yul\":1350:1359   */\n      dup6\n        /* \"#utility.yul\":1346:1368   */\n      add\n        /* \"#utility.yul\":1325:1378   */\n      tag_41\n      jump\t// in\n    tag_68:\n        /* \"#utility.yul\":1315:1378   */\n      swap2\n      pop\n        /* \"#utility.yul\":1271:1388   */\n      pop\n        /* \"#utility.yul\":1066:1395   */\n      swap3\n      swap2\n      pop\n      pop\n      jump\t// out\n        /* \"#utility.yul\":1401:1506   */\n    tag_42:\n        /* \"#utility.yul\":1437:1444   */\n      0x00\n        /* \"#utility.yul\":1477:1499   */\n      0xffffffffffffffffffff\n        /* \"#utility.yul\":1470:1475   */\n      dup3\n        /* \"#utility.yul\":1466:1500   */\n      and\n        /* \"#utility.yul\":1455:1500   */\n      swap1\n      pop\n        /* \"#utility.yul\":1401:1506   */\n      swap2\n      swap1\n      pop\n      jump\t// out\n        /* \"#utility.yul\":1512:1632   */\n    tag_43:\n        /* \"#utility.yul\":1584:1607   */\n      tag_71\n        /* \"#utility.yul\":1601:1606   */\n      dup2\n        /* \"#utility.yul\":1584:1607   */\n      tag_42\n      jump\t// in\n    tag_71:\n        /* \"#utility.yul\":1577:1582   */\n      dup2\n        /* \"#utility.yul\":1574:1608   */\n      eq\n        /* \"#utility.yul\":1564:1626   */\n      tag_72\n      jumpi\n        /* \"#utility.yul\":1622:1623   */\n      0x00\n        /* \"#utility.yul\":1619:1620   */\n      dup1\n        /* \"#utility.yul\":1612:1624   */\n      revert\n        /* \"#utility.yul\":1564:1626   */\n    tag_72:\n        /* \"#utility.yul\":1512:1632   */\n      pop\n      jump\t// out\n        /* \"#utility.yul\":1638:1779   */\n    tag_44:\n        /* \"#utility.yul\":1694:1699   */\n      0x00\n        /* \"#utility.yul\":1725:1731   */\n      dup2\n        /* \"#utility.yul\":1719:1732   */\n      mload\n        /* \"#utility.yul\":1710:1732   */\n      swap1\n      pop\n        /* \"#utility.yul\":1741:1773   */\n      tag_74\n        /* \"#utility.yul\":1767:1772   */\n      dup2\n        /* \"#utility.yul\":1741:1773   */\n      tag_43\n      jump\t// in\n    tag_74:\n        /* \"#utility.yul\":1638:1779   */\n      swap3\n      swap2\n      pop\n      pop\n      jump\t// out\n        /* \"#utility.yul\":1785:1861   */\n    tag_45:\n        /* \"#utility.yul\":1821:1828   */\n      0x00\n        /* \"#utility.yul\":1850:1855   */\n      dup2\n        /* \"#utility.yul\":1839:1855   */\n      swap1\n      pop\n        /* \"#utility.yul\":1785:1861   */\n      swap2\n      swap1\n      pop\n      jump\t// out\n        /* \"#utility.yul\":1867:1987   */\n    tag_46:\n        /* \"#utility.yul\":1939:1962   */\n      tag_77\n        /* \"#utility.yul\":1956:1961   */\n      dup2\n        /* \"#utility.yul\":1939:1962   */\n      tag_45\n      jump\t// in\n    tag_77:\n        /* \"#utility.yul\":1932:1937   */\n      dup2\n        /* \"#utility.yul\":1929:1963   */\n      eq\n        /* \"#utility.yul\":1919:1981   */\n      tag_78\n      jumpi\n        /* \"#utility.yul\":1977:1978   */\n      0x00\n        /* \"#utility.yul\":1974:1975   */\n      dup1\n        /* \"#utility.yul\":1967:1979   */\n      revert\n        /* \"#utility.yul\":1919:1981   */\n    tag_78:\n        /* \"#utility.yul\":1867:1987   */\n      pop\n      jump\t// out\n        /* \"#utility.yul\":1993:2134   */\n    tag_47:\n        /* \"#utility.yul\":2049:2054   */\n      0x00\n        /* \"#utility.yul\":2080:2086   */\n      dup2\n        /* \"#utility.yul\":2074:2087   */\n      mload\n        /* \"#utility.yul\":2065:2087   */\n      swap1\n      pop\n        /* \"#utility.yul\":2096:2128   */\n      tag_80\n        /* \"#utility.yul\":2122:2127   */\n      dup2\n        /* \"#utility.yul\":2096:2128   */\n      tag_46\n      jump\t// in\n    tag_80:\n        /* \"#utility.yul\":1993:2134   */\n      swap3\n      swap2\n      pop\n      pop\n      jump\t// out\n        /* \"#utility.yul\":2140:2283   */\n    tag_48:\n        /* \"#utility.yul\":2197:2202   */\n      0x00\n        /* \"#utility.yul\":2228:2234   */\n      dup2\n        /* \"#utility.yul\":2222:2235   */\n      mload\n        /* \"#utility.yul\":2213:2235   */\n      swap1\n      pop\n        /* \"#utility.yul\":2244:2277   */\n      tag_82\n        /* \"#utility.yul\":2271:2276   */\n      dup2\n        /* \"#utility.yul\":2244:2277   */\n      tag_40\n      jump\t// in\n    tag_82:\n        /* \"#utility.yul\":2140:2283   */\n      swap3\n      swap2\n      pop\n      pop\n      jump\t// out\n        /* \"#utility.yul\":2289:3260   */\n    tag_21:\n        /* \"#utility.yul\":2392:2398   */\n      0x00\n        /* \"#utility.yul\":2400:2406   */\n      dup1\n        /* \"#utility.yul\":2408:2414   */\n      0x00\n        /* \"#utility.yul\":2416:2422   */\n      dup1\n        /* \"#utility.yul\":2424:2430   */\n      0x00\n        /* \"#utility.yul\":2473:2476   */\n      0xa0\n        /* \"#utility.yul\":2461:2470   */\n      dup7\n        /* \"#utility.yul\":2452:2459   */\n      dup9\n        /* \"#utility.yul\":2448:2471   */\n      sub\n        /* \"#utility.yul\":2444:2477   */\n      slt\n        /* \"#utility.yul\":2441:2561   */\n      iszero\n      tag_84\n      jumpi\n        /* \"#utility.yul\":2480:2559   */\n      tag_85\n      tag_38\n      jump\t// in\n    tag_85:\n        /* \"#utility.yul\":2441:2561   */\n    tag_84:\n        /* \"#utility.yul\":2600:2601   */\n      0x00\n        /* \"#utility.yul\":2625:2688   */\n      tag_86\n        /* \"#utility.yul\":2680:2687   */\n      dup9\n        /* \"#utility.yul\":2671:2677   */\n      dup3\n        /* \"#utility.yul\":2660:2669   */\n      dup10\n        /* \"#utility.yul\":2656:2678   */\n      add\n        /* \"#utility.yul\":2625:2688   */\n      tag_44\n      jump\t// in\n    tag_86:\n        /* \"#utility.yul\":2615:2688   */\n      swap6\n      pop\n        /* \"#utility.yul\":2571:2698   */\n      pop\n        /* \"#utility.yul\":2737:2739   */\n      0x20\n        /* \"#utility.yul\":2763:2826   */\n      tag_87\n        /* \"#utility.yul\":2818:2825   */\n      dup9\n        /* \"#utility.yul\":2809:2815   */\n      dup3\n        /* \"#utility.yul\":2798:2807   */\n      dup10\n        /* \"#utility.yul\":2794:2816   */\n      add\n        /* \"#utility.yul\":2763:2826   */\n      tag_47\n      jump\t// in\n    tag_87:\n        /* \"#utility.yul\":2753:2826   */\n      swap5\n      pop\n        /* \"#utility.yul\":2708:2836   */\n      pop\n        /* \"#utility.yul\":2875:2877   */\n      0x40\n        /* \"#utility.yul\":2901:2965   */\n      tag_88\n        /* \"#utility.yul\":2957:2964   */\n      dup9\n        /* \"#utility.yul\":2948:2954   */\n      dup3\n        /* \"#utility.yul\":2937:2946   */\n      dup10\n        /* \"#utility.yul\":2933:2955   */\n      add\n        /* \"#utility.yul\":2901:2965   */\n      tag_48\n      jump\t// in\n    tag_88:\n        /* \"#utility.yul\":2891:2965   */\n      swap4\n      pop\n        /* \"#utility.yul\":2846:2975   */\n      pop\n        /* \"#utility.yul\":3014:3016   */\n      0x60\n        /* \"#utility.yul\":3040:3104   */\n      tag_89\n        /* \"#utility.yul\":3096:3103   */\n      dup9\n        /* \"#utility.yul\":3087:3093   */\n      dup3\n        /* \"#utility.yul\":3076:3085   */\n      dup10\n        /* \"#utility.yul\":3072:3094   */\n      add\n        /* \"#utility.yul\":3040:3104   */\n      tag_48\n      jump\t// in\n    tag_89:\n        /* \"#utility.yul\":3030:3104   */\n      swap3\n      pop\n        /* \"#utility.yul\":2985:3114   */\n      pop\n        /* \"#utility.yul\":3153:3156   */\n      0x80\n        /* \"#utility.yul\":3180:3243   */\n      tag_90\n        /* \"#utility.yul\":3235:3242   */\n      dup9\n        /* \"#utility.yul\":3226:3232   */\n      dup3\n        /* \"#utility.yul\":3215:3224   */\n      dup10\n        /* \"#utility.yul\":3211:3233   */\n      add\n        /* \"#utility.yul\":3180:3243   */\n      tag_44\n      jump\t// in\n    tag_90:\n        /* \"#utility.yul\":3170:3243   */\n      swap2\n      pop\n        /* \"#utility.yul\":3124:3253   */\n      pop\n        /* \"#utility.yul\":2289:3260   */\n      swap3\n      swap6\n      pop\n      swap3\n      swap6\n      swap1\n      swap4\n      pop\n      jump\t// out\n        /* \"#utility.yul\":3266:3446   */\n    tag_49:\n        /* \"#utility.yul\":3314:3391   */\n      0x4e487b7100000000000000000000000000000000000000000000000000000000\n        /* \"#utility.yul\":3311:3312   */\n      0x00\n        /* \"#utility.yul\":3304:3392   */\n      mstore\n        /* \"#utility.yul\":3411:3415   */\n      0x11\n        /* \"#utility.yul\":3408:3409   */\n      0x04\n        /* \"#utility.yul\":3401:3416   */\n      mstore\n        /* \"#utility.yul\":3435:3439   */\n      0x24\n        /* \"#utility.yul\":3432:3433   */\n      0x00\n        /* \"#utility.yul\":3425:3440   */\n      revert\n        /* \"#utility.yul\":3452:4443   */\n    tag_23:\n        /* \"#utility.yul\":3491:3498   */\n      0x00\n        /* \"#utility.yul\":3514:3533   */\n      tag_93\n        /* \"#utility.yul\":3531:3532   */\n      dup3\n        /* \"#utility.yul\":3514:3533   */\n      tag_45\n      jump\t// in\n    tag_93:\n        /* \"#utility.yul\":3509:3533   */\n      swap2\n      pop\n        /* \"#utility.yul\":3547:3566   */\n      tag_94\n        /* \"#utility.yul\":3564:3565   */\n      dup4\n        /* \"#utility.yul\":3547:3566   */\n      tag_45\n      jump\t// in\n    tag_94:\n        /* \"#utility.yul\":3542:3566   */\n      swap3\n      pop\n        /* \"#utility.yul\":3748:3749   */\n      dup3\n        /* \"#utility.yul\":3680:3746   */\n      0x7fffffffffffffffffffffffffffffffffffffffffffffffffffffffffffffff\n        /* \"#utility.yul\":3676:3750   */\n      div\n        /* \"#utility.yul\":3673:3674   */\n      dup3\n        /* \"#utility.yul\":3670:3751   */\n      gt\n        /* \"#utility.yul\":3665:3666   */\n      0x00\n        /* \"#utility.yul\":3662:3663   */\n      dup5\n        /* \"#utility.yul\":3658:3667   */\n      sgt\n        /* \"#utility.yul\":3654:3655   */\n      0x00\n        /* \"#utility.yul\":3651:3652   */\n      dup5\n        /* \"#utility.yul\":3647:3656   */\n      sgt\n        /* \"#utility.yul\":3643:3668   */\n      and\n        /* \"#utility.yul\":3639:3752   */\n      and\n        /* \"#utility.yul\":3636:3775   */\n      iszero\n      tag_95\n      jumpi\n        /* \"#utility.yul\":3755:3773   */\n      tag_96\n      tag_49\n      jump\t// in\n    tag_96:\n        /* \"#utility.yul\":3636:3775   */\n    tag_95:\n        /* \"#utility.yul\":3959:3960   */\n      dup2\n        /* \"#utility.yul\":3891:3957   */\n      0x8000000000000000000000000000000000000000000000000000000000000000\n        /* \"#utility.yul\":3886:3961   */\n      sdiv\n        /* \"#utility.yul\":3883:3884   */\n      dup4\n        /* \"#utility.yul\":3879:3962   */\n      slt\n        /* \"#utility.yul\":3874:3875   */\n      0x00\n        /* \"#utility.yul\":3871:3872   */\n      dup5\n        /* \"#utility.yul\":3867:3876   */\n      slt\n        /* \"#utility.yul\":3863:3864   */\n      0x00\n        /* \"#utility.yul\":3860:3861   */\n      dup5\n        /* \"#utility.yul\":3856:3865   */\n      sgt\n        /* \"#utility.yul\":3852:3877   */\n      and\n        /* \"#utility.yul\":3848:3963   */\n      and\n        /* \"#utility.yul\":3845:3986   */\n      iszero\n      tag_97\n      jumpi\n        /* \"#utility.yul\":3966:3984   */\n      tag_98\n      tag_49\n      jump\t// in\n    tag_98:\n        /* \"#utility.yul\":3845:3986   */\n    tag_97:\n        /* \"#utility.yul\":4170:4171   */\n      dup3\n        /* \"#utility.yul\":4102:4168   */\n      0x8000000000000000000000000000000000000000000000000000000000000000\n        /* \"#utility.yul\":4097:4172   */\n      sdiv\n        /* \"#utility.yul\":4094:4095   */\n      dup3\n        /* \"#utility.yul\":4090:4173   */\n      slt\n        /* \"#utility.yul\":4085:4086   */\n      0x00\n        /* \"#utility.yul\":4082:4083   */\n      dup5\n        /* \"#utility.yul\":4078:4087   */\n      sgt\n        /* \"#utility.yul\":4074:4075   */\n      0x00\n        /* \"#utility.yul\":4071:4072   */\n      dup5\n        /* \"#utility.yul\":4067:4076   */\n      slt\n        /* \"#utility.yul\":4063:4088   */\n      and\n        /* \"#utility.yul\":4059:4174   */\n      and\n        /* \"#utility.yul\":4056:4197   */\n      iszero\n      tag_99\n      jumpi\n        /* \"#utility.yul\":4177:4195   */\n      tag_100\n      tag_49\n      jump\t// in\n    tag_100:\n        /* \"#utility.yul\":4056:4197   */\n    tag_99:\n        /* \"#utility.yul\":4380:4381   */\n      dup3\n        /* \"#utility.yul\":4312:4378   */\n      0x7fffffffffffffffffffffffffffffffffffffffffffffffffffffffffffffff\n        /* \"#utility.yul\":4307:4382   */\n      sdiv\n        /* \"#utility.yul\":4304:4305   */\n      dup3\n        /* \"#utility.yul\":4300:4383   */\n      slt\n        /* \"#utility.yul\":4295:4296   */\n      0x00\n        /* \"#utility.yul\":4292:4293   */\n      dup5\n        /* \"#utility.yul\":4288:4297   */\n      slt\n        /* \"#utility.yul\":4284:4285   */\n      0x00\n        /* \"#utility.yul\":4281:4282   */\n      dup5\n        /* \"#utility.yul\":4277:4286   */\n      slt\n        /* \"#utility.yul\":4273:4298   */\n      and\n        /* \"#utility.yul\":4269:4384   */\n      and\n        /* \"#utility.yul\":4266:4407   */\n      iszero\n      tag_101\n      jumpi\n        /* \"#utility.yul\":4387:4405   */\n      tag_102\n      tag_49\n      jump\t// in\n    tag_102:\n        /* \"#utility.yul\":4266:4407   */\n    tag_101:\n        /* \"#utility.yul\":4435:4436   */\n      dup3\n        /* \"#utility.yul\":4432:4433   */\n      dup3\n        /* \"#utility.yul\":4428:4437   */\n      mul\n        /* \"#utility.yul\":4417:4437   */\n      swap1\n      pop\n        /* \"#utility.yul\":3452:4443   */\n      swap3\n      swap2\n      pop\n      pop\n      jump\t// out\n        /* \"#utility.yul\":4449:4797   */\n    tag_27:\n        /* \"#utility.yul\":4489:4496   */\n      0x00\n        /* \"#utility.yul\":4512:4532   */\n      tag_104\n        /* \"#utility.yul\":4530:4531   */\n      dup3\n        /* \"#utility.yul\":4512:4532   */\n      tag_35\n      jump\t// in\n    tag_104:\n        /* \"#utility.yul\":4507:4532   */\n      swap2\n      pop\n        /* \"#utility.yul\":4546:4566   */\n      tag_105\n        /* \"#utility.yul\":4564:4565   */\n      dup4\n        /* \"#utility.yul\":4546:4566   */\n      tag_35\n      jump\t// in\n    tag_105:\n        /* \"#utility.yul\":4541:4566   */\n      swap3\n      pop\n        /* \"#utility.yul\":4734:4735   */\n      dup2\n        /* \"#utility.yul\":4666:4732   */\n      0xffffffffffffffffffffffffffffffffffffffffffffffffffffffffffffffff\n        /* \"#utility.yul\":4662:4736   */\n      div\n        /* \"#utility.yul\":4659:4660   */\n      dup4\n        /* \"#utility.yul\":4656:4737   */\n      gt\n        /* \"#utility.yul\":4651:4652   */\n      dup3\n        /* \"#utility.yul\":4644:4653   */\n      iszero\n        /* \"#utility.yul\":4637:4654   */\n      iszero\n        /* \"#utility.yul\":4633:4738   */\n      and\n        /* \"#utility.yul\":4630:4761   */\n      iszero\n      tag_106\n      jumpi\n        /* \"#utility.yul\":4741:4759   */\n      tag_107\n      tag_49\n      jump\t// in\n    tag_107:\n        /* \"#utility.yul\":4630:4761   */\n    tag_106:\n        /* \"#utility.yul\":4789:4790   */\n      dup3\n        /* \"#utility.yul\":4786:4787   */\n      dup3\n        /* \"#utility.yul\":4782:4791   */\n      mul\n        /* \"#utility.yul\":4771:4791   */\n      swap1\n      pop\n        /* \"#utility.yul\":4449:4797   */\n      swap3\n      swap2\n      pop\n      pop\n      jump\t// out\n        /* \"#utility.yul\":4803:4983   */\n    tag_50:\n        /* \"#utility.yul\":4851:4928   */\n      0x4e487b7100000000000000000000000000000000000000000000000000000000\n        /* \"#utility.yul\":4848:4849   */\n      0x00\n        /* \"#utility.yul\":4841:4929   */\n      mstore\n        /* \"#utility.yul\":4948:4952   */\n      0x12\n        /* \"#utility.yul\":4945:4946   */\n      0x04\n        /* \"#utility.yul\":4938:4953   */\n      mstore\n        /* \"#utility.yul\":4972:4976   */\n      0x24\n        /* \"#utility.yul\":4969:4970   */\n      0x00\n        /* \"#utility.yul\":4962:4977   */\n      revert\n        /* \"#utility.yul\":4989:5174   */\n    tag_29:\n        /* \"#utility.yul\":5029:5030   */\n      0x00\n        /* \"#utility.yul\":5046:5066   */\n      tag_110\n        /* \"#utility.yul\":5064:5065   */\n      dup3\n        /* \"#utility.yul\":5046:5066   */\n      tag_35\n      jump\t// in\n    tag_110:\n        /* \"#utility.yul\":5041:5066   */\n      swap2\n      pop\n        /* \"#utility.yul\":5080:5100   */\n      tag_111\n        /* \"#utility.yul\":5098:5099   */\n      dup4\n        /* \"#utility.yul\":5080:5100   */\n      tag_35\n      jump\t// in\n    tag_111:\n        /* \"#utility.yul\":5075:5100   */\n      swap3\n      pop\n        /* \"#utility.yul\":5119:5120   */\n      dup3\n        /* \"#utility.yul\":5109:5144   */\n      tag_112\n      jumpi\n        /* \"#utility.yul\":5124:5142   */\n      tag_113\n      tag_50\n      jump\t// in\n    tag_113:\n        /* \"#utility.yul\":5109:5144   */\n    tag_112:\n        /* \"#utility.yul\":5166:5167   */\n      dup3\n        /* \"#utility.yul\":5163:5164   */\n      dup3\n        /* \"#utility.yul\":5159:5168   */\n      div\n        /* \"#utility.yul\":5154:5168   */\n      swap1\n      pop\n        /* \"#utility.yul\":4989:5174   */\n      swap3\n      swap2\n      pop\n      pop\n      jump\t// out\n        /* \"#utility.yul\":5180:5531   */\n    tag_34:\n        /* \"#utility.yul\":5250:5256   */\n      0x00\n        /* \"#utility.yul\":5299:5301   */\n      0x20\n        /* \"#utility.yul\":5287:5296   */\n      dup3\n        /* \"#utility.yul\":5278:5285   */\n      dup5\n        /* \"#utility.yul\":5274:5297   */\n      sub\n        /* \"#utility.yul\":5270:5302   */\n      slt\n        /* \"#utility.yul\":5267:5386   */\n      iszero\n      tag_115\n      jumpi\n        /* \"#utility.yul\":5305:5384   */\n      tag_116\n      tag_38\n      jump\t// in\n    tag_116:\n        /* \"#utility.yul\":5267:5386   */\n    tag_115:\n        /* \"#utility.yul\":5425:5426   */\n      0x00\n        /* \"#utility.yul\":5450:5514   */\n      tag_117\n        /* \"#utility.yul\":5506:5513   */\n      dup5\n        /* \"#utility.yul\":5497:5503   */\n      dup3\n        /* \"#utility.yul\":5486:5495   */\n      dup6\n        /* \"#utility.yul\":5482:5504   */\n      add\n        /* \"#utility.yul\":5450:5514   */\n      tag_48\n      jump\t// in\n    tag_117:\n        /* \"#utility.yul\":5440:5514   */\n      swap2\n      pop\n        /* \"#utility.yul\":5396:5524   */\n      pop\n        /* \"#utility.yul\":5180:5531   */\n      swap3\n      swap2\n      pop\n      pop\n      jump\t// out\n\n    auxdata: 0xa26469706673582212202ccfc7643be8cda1efd957a35944fc6850f73ea55df6cb3696fe10bd753bd74b64736f6c634300080d0033\n}\n",
				"bytecode": {
					"linkReferences": {},
					"object": "61062b610053600b82828239805160001a607314610046577f4e487b7100000000000000000000000000000000000000000000000000000000600052600060045260246000fd5b30600052607381538281f3fe730000000000000000000000000000000000000000301460806040526004361061004b5760003560e01c80636d90164e14610050578063793b233b1461006e578063c6129a5a1461009e575b600080fd5b6100586100bc565b6040516100659190610247565b60405180910390f35b61008860048036038101906100839190610293565b610165565b6040516100959190610247565b60405180910390f35b6100a661019f565b6040516100b39190610247565b60405180910390f35b600080738a753747a1fa494ec906ce90e9f37563a8af630e905060008173ffffffffffffffffffffffffffffffffffffffff1663feaf968c6040518163ffffffff1660e01b815260040160a060405180830381865afa158015610123573d6000803e3d6000fd5b505050506040513d601f19601f82011682018060405250810190610147919061034d565b5050509150506402540be4008161015e91906103f7565b9250505090565b6000806101706100bc565b90506000670de0b6b3a76400008483610189919061050e565b6101939190610597565b90508092505050919050565b600080738a753747a1fa494ec906ce90e9f37563a8af630e90508073ffffffffffffffffffffffffffffffffffffffff166354fd4d506040518163ffffffff1660e01b8152600401602060405180830381865afa158015610204573d6000803e3d6000fd5b505050506040513d601f19601f8201168201806040525081019061022891906105c8565b91505090565b6000819050919050565b6102418161022e565b82525050565b600060208201905061025c6000830184610238565b92915050565b600080fd5b6102708161022e565b811461027b57600080fd5b50565b60008135905061028d81610267565b92915050565b6000602082840312156102a9576102a8610262565b5b60006102b78482850161027e565b91505092915050565b600069ffffffffffffffffffff82169050919050565b6102df816102c0565b81146102ea57600080fd5b50565b6000815190506102fc816102d6565b92915050565b6000819050919050565b61031581610302565b811461032057600080fd5b50565b6000815190506103328161030c565b92915050565b60008151905061034781610267565b92915050565b600080600080600060a0868803121561036957610368610262565b5b6000610377888289016102ed565b955050602061038888828901610323565b945050604061039988828901610338565b93505060606103aa88828901610338565b92505060806103bb888289016102ed565b9150509295509295909350565b7f4e487b7100000000000000000000000000000000000000000000000000000000600052601160045260246000fd5b600061040282610302565b915061040d83610302565b9250827f7fffffffffffffffffffffffffffffffffffffffffffffffffffffffffffffff048211600084136000841316161561044c5761044b6103c8565b5b817f80000000000000000000000000000000000000000000000000000000000000000583126000841260008413161615610489576104886103c8565b5b827f800000000000000000000000000000000000000000000000000000000000000005821260008413600084121616156104c6576104c56103c8565b5b827f7fffffffffffffffffffffffffffffffffffffffffffffffffffffffffffffff0582126000841260008412161615610503576105026103c8565b5b828202905092915050565b60006105198261022e565b91506105248361022e565b9250817fffffffffffffffffffffffffffffffffffffffffffffffffffffffffffffffff048311821515161561055d5761055c6103c8565b5b828202905092915050565b7f4e487b7100000000000000000000000000000000000000000000000000000000600052601260045260246000fd5b60006105a28261022e565b91506105ad8361022e565b9250826105bd576105bc610568565b5b828204905092915050565b6000602082840312156105de576105dd610262565b5b60006105ec84828501610338565b9150509291505056fea26469706673582212202ccfc7643be8cda1efd957a35944fc6850f73ea55df6cb3696fe10bd753bd74b64736f6c634300080d0033",
					"opcodes": "PUSH2 0x62B PUSH2 0x53 PUSH1 0xB DUP3 DUP3 DUP3 CODECOPY DUP1 MLOAD PUSH1 0x0 BYTE PUSH1 0x73 EQ PUSH2 0x46 JUMPI PUSH32 0x4E487B7100000000000000000000000000000000000000000000000000000000 PUSH1 0x0 MSTORE PUSH1 0x0 PUSH1 0x4 MSTORE PUSH1 0x24 PUSH1 0x0 REVERT JUMPDEST ADDRESS PUSH1 0x0 MSTORE PUSH1 0x73 DUP2 MSTORE8 DUP3 DUP2 RETURN INVALID PUSH20 0x0 ADDRESS EQ PUSH1 0x80 PUSH1 0x40 MSTORE PUSH1 0x4 CALLDATASIZE LT PUSH2 0x4B JUMPI PUSH1 0x0 CALLDATALOAD PUSH1 0xE0 SHR DUP1 PUSH4 0x6D90164E EQ PUSH2 0x50 JUMPI DUP1 PUSH4 0x793B233B EQ PUSH2 0x6E JUMPI DUP1 PUSH4 0xC6129A5A EQ PUSH2 0x9E JUMPI JUMPDEST PUSH1 0x0 DUP1 REVERT JUMPDEST PUSH2 0x58 PUSH2 0xBC JUMP JUMPDEST PUSH1 0x40 MLOAD PUSH2 0x65 SWAP2 SWAP1 PUSH2 0x247 JUMP JUMPDEST PUSH1 0x40 MLOAD DUP1 SWAP2 SUB SWAP1 RETURN JUMPDEST PUSH2 0x88 PUSH1 0x4 DUP1 CALLDATASIZE SUB DUP2 ADD SWAP1 PUSH2 0x83 SWAP2 SWAP1 PUSH2 0x293 JUMP JUMPDEST PUSH2 0x165 JUMP JUMPDEST PUSH1 0x40 MLOAD PUSH2 0x95 SWAP2 SWAP1 PUSH2 0x247 JUMP JUMPDEST PUSH1 0x40 MLOAD DUP1 SWAP2 SUB SWAP1 RETURN JUMPDEST PUSH2 0xA6 PUSH2 0x19F JUMP JUMPDEST PUSH1 0x40 MLOAD PUSH2 0xB3 SWAP2 SWAP1 PUSH2 0x247 JUMP JUMPDEST PUSH1 0x40 MLOAD DUP1 SWAP2 SUB SWAP1 RETURN JUMPDEST PUSH1 0x0 DUP1 PUSH20 0x8A753747A1FA494EC906CE90E9F37563A8AF630E SWAP1 POP PUSH1 0x0 DUP2 PUSH20 0xFFFFFFFFFFFFFFFFFFFFFFFFFFFFFFFFFFFFFFFF AND PUSH4 0xFEAF968C PUSH1 0x40 MLOAD DUP2 PUSH4 0xFFFFFFFF AND PUSH1 0xE0 SHL DUP2 MSTORE PUSH1 0x4 ADD PUSH1 0xA0 PUSH1 0x40 MLOAD DUP1 DUP4 SUB DUP2 DUP7 GAS STATICCALL ISZERO DUP1 ISZERO PUSH2 0x123 JUMPI RETURNDATASIZE PUSH1 0x0 DUP1 RETURNDATACOPY RETURNDATASIZE PUSH1 0x0 REVERT JUMPDEST POP POP POP POP PUSH1 0x40 MLOAD RETURNDATASIZE PUSH1 0x1F NOT PUSH1 0x1F DUP3 ADD AND DUP3 ADD DUP1 PUSH1 0x40 MSTORE POP DUP2 ADD SWAP1 PUSH2 0x147 SWAP2 SWAP1 PUSH2 0x34D JUMP JUMPDEST POP POP POP SWAP2 POP POP PUSH5 0x2540BE400 DUP2 PUSH2 0x15E SWAP2 SWAP1 PUSH2 0x3F7 JUMP JUMPDEST SWAP3 POP POP POP SWAP1 JUMP JUMPDEST PUSH1 0x0 DUP1 PUSH2 0x170 PUSH2 0xBC JUMP JUMPDEST SWAP1 POP PUSH1 0x0 PUSH8 0xDE0B6B3A7640000 DUP5 DUP4 PUSH2 0x189 SWAP2 SWAP1 PUSH2 0x50E JUMP JUMPDEST PUSH2 0x193 SWAP2 SWAP1 PUSH2 0x597 JUMP JUMPDEST SWAP1 POP DUP1 SWAP3 POP POP POP SWAP2 SWAP1 POP JUMP JUMPDEST PUSH1 0x0 DUP1 PUSH20 0x8A753747A1FA494EC906CE90E9F37563A8AF630E SWAP1 POP DUP1 PUSH20 0xFFFFFFFFFFFFFFFFFFFFFFFFFFFFFFFFFFFFFFFF AND PUSH4 0x54FD4D50 PUSH1 0x40 MLOAD DUP2 PUSH4 0xFFFFFFFF AND PUSH1 0xE0 SHL DUP2 MSTORE PUSH1 0x4 ADD PUSH1 0x20 PUSH1 0x40 MLOAD DUP1 DUP4 SUB DUP2 DUP7 GAS STATICCALL ISZERO DUP1 ISZERO PUSH2 0x204 JUMPI RETURNDATASIZE PUSH1 0x0 DUP1 RETURNDATACOPY RETURNDATASIZE PUSH1 0x0 REVERT JUMPDEST POP POP POP POP PUSH1 0x40 MLOAD RETURNDATASIZE PUSH1 0x1F NOT PUSH1 0x1F DUP3 ADD AND DUP3 ADD DUP1 PUSH1 0x40 MSTORE POP DUP2 ADD SWAP1 PUSH2 0x228 SWAP2 SWAP1 PUSH2 0x5C8 JUMP JUMPDEST SWAP2 POP POP SWAP1 JUMP JUMPDEST PUSH1 0x0 DUP2 SWAP1 POP SWAP2 SWAP1 POP JUMP JUMPDEST PUSH2 0x241 DUP2 PUSH2 0x22E JUMP JUMPDEST DUP3 MSTORE POP POP JUMP JUMPDEST PUSH1 0x0 PUSH1 0x20 DUP3 ADD SWAP1 POP PUSH2 0x25C PUSH1 0x0 DUP4 ADD DUP5 PUSH2 0x238 JUMP JUMPDEST SWAP3 SWAP2 POP POP JUMP JUMPDEST PUSH1 0x0 DUP1 REVERT JUMPDEST PUSH2 0x270 DUP2 PUSH2 0x22E JUMP JUMPDEST DUP2 EQ PUSH2 0x27B JUMPI PUSH1 0x0 DUP1 REVERT JUMPDEST POP JUMP JUMPDEST PUSH1 0x0 DUP2 CALLDATALOAD SWAP1 POP PUSH2 0x28D DUP2 PUSH2 0x267 JUMP JUMPDEST SWAP3 SWAP2 POP POP JUMP JUMPDEST PUSH1 0x0 PUSH1 0x20 DUP3 DUP5 SUB SLT ISZERO PUSH2 0x2A9 JUMPI PUSH2 0x2A8 PUSH2 0x262 JUMP JUMPDEST JUMPDEST PUSH1 0x0 PUSH2 0x2B7 DUP5 DUP3 DUP6 ADD PUSH2 0x27E JUMP JUMPDEST SWAP2 POP POP SWAP3 SWAP2 POP POP JUMP JUMPDEST PUSH1 0x0 PUSH10 0xFFFFFFFFFFFFFFFFFFFF DUP3 AND SWAP1 POP SWAP2 SWAP1 POP JUMP JUMPDEST PUSH2 0x2DF DUP2 PUSH2 0x2C0 JUMP JUMPDEST DUP2 EQ PUSH2 0x2EA JUMPI PUSH1 0x0 DUP1 REVERT JUMPDEST POP JUMP JUMPDEST PUSH1 0x0 DUP2 MLOAD SWAP1 POP PUSH2 0x2FC DUP2 PUSH2 0x2D6 JUMP JUMPDEST SWAP3 SWAP2 POP POP JUMP JUMPDEST PUSH1 0x0 DUP2 SWAP1 POP SWAP2 SWAP1 POP JUMP JUMPDEST PUSH2 0x315 DUP2 PUSH2 0x302 JUMP JUMPDEST DUP2 EQ PUSH2 0x320 JUMPI PUSH1 0x0 DUP1 REVERT JUMPDEST POP JUMP JUMPDEST PUSH1 0x0 DUP2 MLOAD SWAP1 POP PUSH2 0x332 DUP2 PUSH2 0x30C JUMP JUMPDEST SWAP3 SWAP2 POP POP JUMP JUMPDEST PUSH1 0x0 DUP2 MLOAD SWAP1 POP PUSH2 0x347 DUP2 PUSH2 0x267 JUMP JUMPDEST SWAP3 SWAP2 POP POP JUMP JUMPDEST PUSH1 0x0 DUP1 PUSH1 0x0 DUP1 PUSH1 0x0 PUSH1 0xA0 DUP7 DUP9 SUB SLT ISZERO PUSH2 0x369 JUMPI PUSH2 0x368 PUSH2 0x262 JUMP JUMPDEST JUMPDEST PUSH1 0x0 PUSH2 0x377 DUP9 DUP3 DUP10 ADD PUSH2 0x2ED JUMP JUMPDEST SWAP6 POP POP PUSH1 0x20 PUSH2 0x388 DUP9 DUP3 DUP10 ADD PUSH2 0x323 JUMP JUMPDEST SWAP5 POP POP PUSH1 0x40 PUSH2 0x399 DUP9 DUP3 DUP10 ADD PUSH2 0x338 JUMP JUMPDEST SWAP4 POP POP PUSH1 0x60 PUSH2 0x3AA DUP9 DUP3 DUP10 ADD PUSH2 0x338 JUMP JUMPDEST SWAP3 POP POP PUSH1 0x80 PUSH2 0x3BB DUP9 DUP3 DUP10 ADD PUSH2 0x2ED JUMP JUMPDEST SWAP2 POP POP SWAP3 SWAP6 POP SWAP3 SWAP6 SWAP1 SWAP4 POP JUMP JUMPDEST PUSH32 0x4E487B7100000000000000000000000000000000000000000000000000000000 PUSH1 0x0 MSTORE PUSH1 0x11 PUSH1 0x4 MSTORE PUSH1 0x24 PUSH1 0x0 REVERT JUMPDEST PUSH1 0x0 PUSH2 0x402 DUP3 PUSH2 0x302 JUMP JUMPDEST SWAP2 POP PUSH2 0x40D DUP4 PUSH2 0x302 JUMP JUMPDEST SWAP3 POP DUP3 PUSH32 0x7FFFFFFFFFFFFFFFFFFFFFFFFFFFFFFFFFFFFFFFFFFFFFFFFFFFFFFFFFFFFFFF DIV DUP3 GT PUSH1 0x0 DUP5 SGT PUSH1 0x0 DUP5 SGT AND AND ISZERO PUSH2 0x44C JUMPI PUSH2 0x44B PUSH2 0x3C8 JUMP JUMPDEST JUMPDEST DUP2 PUSH32 0x8000000000000000000000000000000000000000000000000000000000000000 SDIV DUP4 SLT PUSH1 0x0 DUP5 SLT PUSH1 0x0 DUP5 SGT AND AND ISZERO PUSH2 0x489 JUMPI PUSH2 0x488 PUSH2 0x3C8 JUMP JUMPDEST JUMPDEST DUP3 PUSH32 0x8000000000000000000000000000000000000000000000000000000000000000 SDIV DUP3 SLT PUSH1 0x0 DUP5 SGT PUSH1 0x0 DUP5 SLT AND AND ISZERO PUSH2 0x4C6 JUMPI PUSH2 0x4C5 PUSH2 0x3C8 JUMP JUMPDEST JUMPDEST DUP3 PUSH32 0x7FFFFFFFFFFFFFFFFFFFFFFFFFFFFFFFFFFFFFFFFFFFFFFFFFFFFFFFFFFFFFFF SDIV DUP3 SLT PUSH1 0x0 DUP5 SLT PUSH1 0x0 DUP5 SLT AND AND ISZERO PUSH2 0x503 JUMPI PUSH2 0x502 PUSH2 0x3C8 JUMP JUMPDEST JUMPDEST DUP3 DUP3 MUL SWAP1 POP SWAP3 SWAP2 POP POP JUMP JUMPDEST PUSH1 0x0 PUSH2 0x519 DUP3 PUSH2 0x22E JUMP JUMPDEST SWAP2 POP PUSH2 0x524 DUP4 PUSH2 0x22E JUMP JUMPDEST SWAP3 POP DUP2 PUSH32 0xFFFFFFFFFFFFFFFFFFFFFFFFFFFFFFFFFFFFFFFFFFFFFFFFFFFFFFFFFFFFFFFF DIV DUP4 GT DUP3 ISZERO ISZERO AND ISZERO PUSH2 0x55D JUMPI PUSH2 0x55C PUSH2 0x3C8 JUMP JUMPDEST JUMPDEST DUP3 DUP3 MUL SWAP1 POP SWAP3 SWAP2 POP POP JUMP JUMPDEST PUSH32 0x4E487B7100000000000000000000000000000000000000000000000000000000 PUSH1 0x0 MSTORE PUSH1 0x12 PUSH1 0x4 MSTORE PUSH1 0x24 PUSH1 0x0 REVERT JUMPDEST PUSH1 0x0 PUSH2 0x5A2 DUP3 PUSH2 0x22E JUMP JUMPDEST SWAP2 POP PUSH2 0x5AD DUP4 PUSH2 0x22E JUMP JUMPDEST SWAP3 POP DUP3 PUSH2 0x5BD JUMPI PUSH2 0x5BC PUSH2 0x568 JUMP JUMPDEST JUMPDEST DUP3 DUP3 DIV SWAP1 POP SWAP3 SWAP2 POP POP JUMP JUMPDEST PUSH1 0x0 PUSH1 0x20 DUP3 DUP5 SUB SLT ISZERO PUSH2 0x5DE JUMPI PUSH2 0x5DD PUSH2 0x262 JUMP JUMPDEST JUMPDEST PUSH1 0x0 PUSH2 0x5EC DUP5 DUP3 DUP6 ADD PUSH2 0x338 JUMP JUMPDEST SWAP2 POP POP SWAP3 SWAP2 POP POP JUMP INVALID LOG2 PUSH5 0x6970667358 0x22 SLT KECCAK256 0x2C 0xCF 0xC7 PUSH5 0x3BE8CDA1EF 0xD9 JUMPI LOG3 MSIZE DIFFICULTY 0xFC PUSH9 0x50F73EA55DF6CB3696 INVALID LT 0xBD PUSH22 0x3BD74B64736F6C634300080D00330000000000000000 "
				},
				"gasEstimates": {
					"creation": {
						"codeDepositCost": "315800",
						"executionCost": "380",
						"totalCost": "316180"
					},
					"external": {
						"GetConversionRate(uint256)": "infinite",
						"GetPrice()": "infinite",
						"GetVersion()": "infinite"
					}
				},
				"methodIdentifiers": {
					"GetConversionRate(uint256)": "793b233b",
					"GetPrice()": "6d90164e",
					"GetVersion()": "c6129a5a"
				}
			},
			"storageLayout": {
				"storage": [],
				"types": null
			},
			"userdoc": {
				"kind": "user",
				"methods": {},
				"version": 1
			}
		}
	}
}