{
	"contracts/FundMe.sol": {
		"FundMe": {
			"abi": [
				{
					"inputs": [],
					"stateMutability": "nonpayable",
					"type": "constructor"
				},
				{
					"inputs": [],
					"name": "NotAuthorized",
					"type": "error"
				},
				{
					"inputs": [],
					"name": "Fund",
					"outputs": [],
					"stateMutability": "payable",
					"type": "function"
				},
				{
					"inputs": [],
					"name": "MINIMUM_FUND",
					"outputs": [
						{
							"internalType": "uint256",
							"name": "",
							"type": "uint256"
						}
					],
					"stateMutability": "view",
					"type": "function"
				},
				{
					"inputs": [],
					"name": "Withdraw",
					"outputs": [],
					"stateMutability": "nonpayable",
					"type": "function"
				},
				{
					"inputs": [
						{
							"internalType": "address",
							"name": "",
							"type": "address"
						}
					],
					"name": "addreddToAmountFeed",
					"outputs": [
						{
							"internalType": "uint256",
							"name": "",
							"type": "uint256"
						}
					],
					"stateMutability": "view",
					"type": "function"
				},
				{
					"inputs": [
						{
							"internalType": "uint256",
							"name": "",
							"type": "uint256"
						}
					],
					"name": "fundersList",
					"outputs": [
						{
							"internalType": "address",
							"name": "",
							"type": "address"
						}
					],
					"stateMutability": "view",
					"type": "function"
				},
				{
					"inputs": [],
					"name": "i_owner",
					"outputs": [
						{
							"internalType": "address",
							"name": "",
							"type": "address"
						}
					],
					"stateMutability": "view",
					"type": "function"
				},
				{
					"stateMutability": "payable",
					"type": "receive"
				}
			],
			"devdoc": {
				"kind": "dev",
				"methods": {},
				"version": 1
			},
			"evm": {
				"assembly": "    /* \"contracts/FundMe.sol\":120:1609  contract FundMe{... */\n  mstore(0x40, 0xa0)\n    /* \"contracts/FundMe.sol\":411:463  constructor(){... */\n  callvalue\n  dup1\n  iszero\n  tag_1\n  jumpi\n  0x00\n  dup1\n  revert\ntag_1:\n  pop\n    /* \"contracts/FundMe.sol\":445:455  msg.sender */\n  caller\n    /* \"contracts/FundMe.sol\":435:455  i_owner = msg.sender */\n  0xffffffffffffffffffffffffffffffffffffffff\n  and\n  0x80\n  dup2\n  0xffffffffffffffffffffffffffffffffffffffff\n  and\n  dup2\n  mstore\n  pop\n  pop\n    /* \"contracts/FundMe.sol\":120:1609  contract FundMe{... */\n  mload(0x80)\n  codecopy(0x00, dataOffset(sub_0), dataSize(sub_0))\n  0x00\n  assignImmutable(\"0xeafa31dc210956fc0884ec5660eba9405197797219cbbda41b6aaf7118c651d8\")\n  return(0x00, dataSize(sub_0))\nstop\n\nsub_0: assembly {\n        /* \"contracts/FundMe.sol\":120:1609  contract FundMe{... */\n      mstore(0x40, 0x80)\n      jumpi(tag_1, lt(calldatasize, 0x04))\n      shr(0xe0, calldataload(0x00))\n      dup1\n      0x47ff62c6\n      eq\n      tag_3\n      jumpi\n      dup1\n      0x520fcd61\n      eq\n      tag_4\n      jumpi\n      dup1\n      0x57ea89b6\n      eq\n      tag_5\n      jumpi\n      dup1\n      0x5deb0172\n      eq\n      tag_6\n      jumpi\n      dup1\n      0x6ce1417e\n      eq\n      tag_7\n      jumpi\n      dup1\n      0xdba6335f\n      eq\n      tag_8\n      jumpi\n      jump(tag_2)\n    tag_1:\n      jumpi(tag_2, calldatasize)\n        /* \"contracts/FundMe.sol\":1335:1346  fundersList */\n      0x00\n        /* \"contracts/FundMe.sol\":1352:1362  msg.sender */\n      caller\n        /* \"contracts/FundMe.sol\":1335:1363  fundersList.push(msg.sender) */\n      swap1\n      dup1\n      0x01\n      dup2\n      sload\n      add\n      dup1\n      dup3\n      sstore\n      dup1\n      swap2\n      pop\n      pop\n      0x01\n      swap1\n      sub\n      swap1\n      0x00\n      mstore\n      keccak256(0x00, 0x20)\n      add\n      0x00\n      swap1\n      swap2\n      swap1\n      swap2\n      swap1\n      swap2\n      0x0100\n      exp\n      dup2\n      sload\n      dup2\n      0xffffffffffffffffffffffffffffffffffffffff\n      mul\n      not\n      and\n      swap1\n      dup4\n      0xffffffffffffffffffffffffffffffffffffffff\n      and\n      mul\n      or\n      swap1\n      sstore\n      pop\n        /* \"contracts/FundMe.sol\":1409:1418  msg.value */\n      callvalue\n        /* \"contracts/FundMe.sol\":1374:1393  addreddToAmountFeed */\n      0x01\n        /* \"contracts/FundMe.sol\":1374:1405  addreddToAmountFeed[msg.sender] */\n      0x00\n        /* \"contracts/FundMe.sol\":1394:1404  msg.sender */\n      caller\n        /* \"contracts/FundMe.sol\":1374:1405  addreddToAmountFeed[msg.sender] */\n      0xffffffffffffffffffffffffffffffffffffffff\n      and\n      0xffffffffffffffffffffffffffffffffffffffff\n      and\n      dup2\n      mstore\n      0x20\n      add\n      swap1\n      dup2\n      mstore\n      0x20\n      add\n      0x00\n      keccak256\n      0x00\n        /* \"contracts/FundMe.sol\":1374:1418  addreddToAmountFeed[msg.sender] += msg.value */\n      dup3\n      dup3\n      sload\n      tag_12\n      swap2\n      swap1\n      tag_13\n      jump\t// in\n    tag_12:\n      swap3\n      pop\n      pop\n      dup2\n      swap1\n      sstore\n      stop\n        /* \"contracts/FundMe.sol\":120:1609  contract FundMe{... */\n    tag_2:\n      0x00\n      dup1\n      revert\n        /* \"contracts/FundMe.sol\":263:291  address[] public fundersList */\n    tag_3:\n      callvalue\n      dup1\n      iszero\n      tag_14\n      jumpi\n      0x00\n      dup1\n      revert\n    tag_14:\n      pop\n      tag_15\n      0x04\n      dup1\n      calldatasize\n      sub\n      dup2\n      add\n      swap1\n      tag_16\n      swap2\n      swap1\n      tag_17\n      jump\t// in\n    tag_16:\n      tag_18\n      jump\t// in\n    tag_15:\n      mload(0x40)\n      tag_19\n      swap2\n      swap1\n      tag_20\n      jump\t// in\n    tag_19:\n      mload(0x40)\n      dup1\n      swap2\n      sub\n      swap1\n      return\n        /* \"contracts/FundMe.sol\":298:352  mapping(address => uint256) public addreddToAmountFeed */\n    tag_4:\n      callvalue\n      dup1\n      iszero\n      tag_21\n      jumpi\n      0x00\n      dup1\n      revert\n    tag_21:\n      pop\n      tag_22\n      0x04\n      dup1\n      calldatasize\n      sub\n      dup2\n      add\n      swap1\n      tag_23\n      swap2\n      swap1\n      tag_24\n      jump\t// in\n    tag_23:\n      tag_25\n      jump\t// in\n    tag_22:\n      mload(0x40)\n      tag_26\n      swap2\n      swap1\n      tag_27\n      jump\t// in\n    tag_26:\n      mload(0x40)\n      dup1\n      swap2\n      sub\n      swap1\n      return\n        /* \"contracts/FundMe.sol\":698:1290  function Withdraw() public onlyOwner{... */\n    tag_5:\n      callvalue\n      dup1\n      iszero\n      tag_28\n      jumpi\n      0x00\n      dup1\n      revert\n    tag_28:\n      pop\n      tag_29\n      tag_30\n      jump\t// in\n    tag_29:\n      stop\n        /* \"contracts/FundMe.sol\":207:256  uint256 public constant  MINIMUM_FUND = 50 * 1e18 */\n    tag_6:\n      callvalue\n      dup1\n      iszero\n      tag_31\n      jumpi\n      0x00\n      dup1\n      revert\n    tag_31:\n      pop\n      tag_32\n      tag_33\n      jump\t// in\n    tag_32:\n      mload(0x40)\n      tag_34\n      swap2\n      swap1\n      tag_27\n      jump\t// in\n    tag_34:\n      mload(0x40)\n      dup1\n      swap2\n      sub\n      swap1\n      return\n        /* \"contracts/FundMe.sol\":471:690  function Fund() public payable{... */\n    tag_7:\n      tag_35\n      tag_36\n      jump\t// in\n    tag_35:\n      stop\n        /* \"contracts/FundMe.sol\":370:402  address public immutable i_owner */\n    tag_8:\n      callvalue\n      dup1\n      iszero\n      tag_37\n      jumpi\n      0x00\n      dup1\n      revert\n    tag_37:\n      pop\n      tag_38\n      tag_39\n      jump\t// in\n    tag_38:\n      mload(0x40)\n      tag_40\n      swap2\n      swap1\n      tag_20\n      jump\t// in\n    tag_40:\n      mload(0x40)\n      dup1\n      swap2\n      sub\n      swap1\n      return\n        /* \"contracts/FundMe.sol\":263:291  address[] public fundersList */\n    tag_18:\n      0x00\n      dup2\n      dup2\n      sload\n      dup2\n      lt\n      tag_41\n      jumpi\n      0x00\n      dup1\n      revert\n    tag_41:\n      swap1\n      0x00\n      mstore\n      keccak256(0x00, 0x20)\n      add\n      0x00\n      swap2\n      pop\n      sload\n      swap1\n      0x0100\n      exp\n      swap1\n      div\n      0xffffffffffffffffffffffffffffffffffffffff\n      and\n      dup2\n      jump\t// out\n        /* \"contracts/FundMe.sol\":298:352  mapping(address => uint256) public addreddToAmountFeed */\n    tag_25:\n      mstore(0x20, 0x01)\n      dup1\n      0x00\n      mstore\n      keccak256(0x00, 0x40)\n      0x00\n      swap2\n      pop\n      swap1\n      pop\n      sload\n      dup2\n      jump\t// out\n        /* \"contracts/FundMe.sol\":698:1290  function Withdraw() public onlyOwner{... */\n    tag_30:\n        /* \"contracts/FundMe.sol\":1551:1558  i_owner */\n      immutable(\"0xeafa31dc210956fc0884ec5660eba9405197797219cbbda41b6aaf7118c651d8\")\n        /* \"contracts/FundMe.sol\":1537:1558  msg.sender != i_owner */\n      0xffffffffffffffffffffffffffffffffffffffff\n      and\n        /* \"contracts/FundMe.sol\":1537:1547  msg.sender */\n      caller\n        /* \"contracts/FundMe.sol\":1537:1558  msg.sender != i_owner */\n      0xffffffffffffffffffffffffffffffffffffffff\n      and\n      eq\n        /* \"contracts/FundMe.sol\":1534:1587  if(msg.sender != i_owner) { revert NotAuthorized(); } */\n      tag_44\n      jumpi\n        /* \"contracts/FundMe.sol\":1569:1584  NotAuthorized() */\n      mload(0x40)\n      0xea8e4eb500000000000000000000000000000000000000000000000000000000\n      dup2\n      mstore\n      0x04\n      add\n      mload(0x40)\n      dup1\n      swap2\n      sub\n      swap1\n      revert\n        /* \"contracts/FundMe.sol\":1534:1587  if(msg.sender != i_owner) { revert NotAuthorized(); } */\n    tag_44:\n        /* \"contracts/FundMe.sol\":749:758  uint256 i */\n      0x00\n        /* \"contracts/FundMe.sol\":745:855  for(uint256 i =0; i<fundersList.length; i++){... */\n    tag_46:\n        /* \"contracts/FundMe.sol\":765:776  fundersList */\n      0x00\n        /* \"contracts/FundMe.sol\":765:783  fundersList.length */\n      dup1\n      sload\n      swap1\n      pop\n        /* \"contracts/FundMe.sol\":763:764  i */\n      dup2\n        /* \"contracts/FundMe.sol\":763:783  i<fundersList.length */\n      lt\n        /* \"contracts/FundMe.sol\":745:855  for(uint256 i =0; i<fundersList.length; i++){... */\n      iszero\n      tag_47\n      jumpi\n        /* \"contracts/FundMe.sol\":842:843  0 */\n      0x00\n        /* \"contracts/FundMe.sol\":804:823  addreddToAmountFeed */\n      0x01\n        /* \"contracts/FundMe.sol\":804:839  addreddToAmountFeed[fundersList[i]] */\n      0x00\n        /* \"contracts/FundMe.sol\":824:835  fundersList */\n      dup1\n        /* \"contracts/FundMe.sol\":836:837  i */\n      dup5\n        /* \"contracts/FundMe.sol\":824:838  fundersList[i] */\n      dup2\n      sload\n      dup2\n      lt\n      tag_49\n      jumpi\n      tag_50\n      tag_51\n      jump\t// in\n    tag_50:\n    tag_49:\n      swap1\n      0x00\n      mstore\n      keccak256(0x00, 0x20)\n      add\n      0x00\n      swap1\n      sload\n      swap1\n      0x0100\n      exp\n      swap1\n      div\n      0xffffffffffffffffffffffffffffffffffffffff\n      and\n        /* \"contracts/FundMe.sol\":804:839  addreddToAmountFeed[fundersList[i]] */\n      0xffffffffffffffffffffffffffffffffffffffff\n      and\n      0xffffffffffffffffffffffffffffffffffffffff\n      and\n      dup2\n      mstore\n      0x20\n      add\n      swap1\n      dup2\n      mstore\n      0x20\n      add\n      0x00\n      keccak256\n        /* \"contracts/FundMe.sol\":804:843  addreddToAmountFeed[fundersList[i]] = 0 */\n      dup2\n      swap1\n      sstore\n      pop\n        /* \"contracts/FundMe.sol\":785:788  i++ */\n      dup1\n      dup1\n      tag_53\n      swap1\n      tag_54\n      jump\t// in\n    tag_53:\n      swap2\n      pop\n      pop\n        /* \"contracts/FundMe.sol\":745:855  for(uint256 i =0; i<fundersList.length; i++){... */\n      jump(tag_46)\n    tag_47:\n      pop\n        /* \"contracts/FundMe.sol\":893:894  0 */\n      0x00\n        /* \"contracts/FundMe.sol\":879:895  new address[](0) */\n      0xffffffffffffffff\n      dup2\n      gt\n      iszero\n      tag_55\n      jumpi\n      tag_56\n      tag_57\n      jump\t// in\n    tag_56:\n    tag_55:\n      mload(0x40)\n      swap1\n      dup1\n      dup3\n      mstore\n      dup1\n      0x20\n      mul\n      0x20\n      add\n      dup3\n      add\n      0x40\n      mstore\n      dup1\n      iszero\n      tag_58\n      jumpi\n      dup2\n      0x20\n      add\n      0x20\n      dup3\n      mul\n      dup1\n      calldatasize\n      dup4\n      calldatacopy\n      dup1\n      dup3\n      add\n      swap2\n      pop\n      pop\n      swap1\n      pop\n    tag_58:\n      pop\n        /* \"contracts/FundMe.sol\":865:876  fundersList */\n      0x00\n        /* \"contracts/FundMe.sol\":865:895  fundersList = new address[](0) */\n      swap1\n      dup1\n      mload\n      swap1\n      0x20\n      add\n      swap1\n      tag_59\n      swap3\n      swap2\n      swap1\n      tag_60\n      jump\t// in\n    tag_59:\n      pop\n        /* \"contracts/FundMe.sol\":1157:1173  bool callSuccess */\n      0x00\n        /* \"contracts/FundMe.sol\":1186:1196  msg.sender */\n      caller\n        /* \"contracts/FundMe.sol\":1178:1202  payable(msg.sender).call */\n      0xffffffffffffffffffffffffffffffffffffffff\n      and\n        /* \"contracts/FundMe.sol\":1210:1231  address(this).balance */\n      selfbalance\n        /* \"contracts/FundMe.sol\":1178:1236  payable(msg.sender).call{value: address(this).balance}(\"\") */\n      mload(0x40)\n      tag_61\n      swap1\n      tag_62\n      jump\t// in\n    tag_61:\n      0x00\n      mload(0x40)\n      dup1\n      dup4\n      sub\n      dup2\n      dup6\n      dup8\n      gas\n      call\n      swap3\n      pop\n      pop\n      pop\n      returndatasize\n      dup1\n      0x00\n      dup2\n      eq\n      tag_65\n      jumpi\n      mload(0x40)\n      swap2\n      pop\n      and(add(returndatasize, 0x3f), not(0x1f))\n      dup3\n      add\n      0x40\n      mstore\n      returndatasize\n      dup3\n      mstore\n      returndatasize\n      0x00\n      0x20\n      dup5\n      add\n      returndatacopy\n      jump(tag_64)\n    tag_65:\n      0x60\n      swap2\n      pop\n    tag_64:\n      pop\n        /* \"contracts/FundMe.sol\":1156:1236  (bool callSuccess,) = payable(msg.sender).call{value: address(this).balance}(\"\") */\n      pop\n      swap1\n      pop\n        /* \"contracts/FundMe.sol\":1255:1266  callSuccess */\n      dup1\n        /* \"contracts/FundMe.sol\":1247:1282  require(callSuccess, \"call Failed\") */\n      tag_66\n      jumpi\n      mload(0x40)\n      0x08c379a000000000000000000000000000000000000000000000000000000000\n      dup2\n      mstore\n      0x04\n      add\n      tag_67\n      swap1\n      tag_68\n      jump\t// in\n    tag_67:\n      mload(0x40)\n      dup1\n      swap2\n      sub\n      swap1\n      revert\n    tag_66:\n        /* \"contracts/FundMe.sol\":734:1290  {... */\n      pop\n        /* \"contracts/FundMe.sol\":698:1290  function Withdraw() public onlyOwner{... */\n      jump\t// out\n        /* \"contracts/FundMe.sol\":207:256  uint256 public constant  MINIMUM_FUND = 50 * 1e18 */\n    tag_33:\n        /* \"contracts/FundMe.sol\":247:256  50 * 1e18 */\n      0x02b5e3af16b1880000\n        /* \"contracts/FundMe.sol\":207:256  uint256 public constant  MINIMUM_FUND = 50 * 1e18 */\n      dup2\n      jump\t// out\n        /* \"contracts/FundMe.sol\":471:690  function Fund() public payable{... */\n    tag_36:\n        /* \"contracts/FundMe.sol\":247:256  50 * 1e18 */\n      0x02b5e3af16b1880000\n        /* \"contracts/FundMe.sol\":520:549  msg.value.GetConversionRate() */\n      tag_70\n        /* \"contracts/FundMe.sol\":520:529  msg.value */\n      callvalue\n        /* \"contracts/FundMe.sol\":520:547  msg.value.GetConversionRate */\n      tag_71\n        /* \"contracts/FundMe.sol\":520:549  msg.value.GetConversionRate() */\n      jump\t// in\n    tag_70:\n        /* \"contracts/FundMe.sol\":520:565  msg.value.GetConversionRate() >= MINIMUM_FUND */\n      lt\n      iszero\n        /* \"contracts/FundMe.sol\":512:588  require(msg.value.GetConversionRate() >= MINIMUM_FUND, \"Didn't send enough\") */\n      tag_72\n      jumpi\n      mload(0x40)\n      0x08c379a000000000000000000000000000000000000000000000000000000000\n      dup2\n      mstore\n      0x04\n      add\n      tag_73\n      swap1\n      tag_74\n      jump\t// in\n    tag_73:\n      mload(0x40)\n      dup1\n      swap2\n      sub\n      swap1\n      revert\n    tag_72:\n        /* \"contracts/FundMe.sol\":599:610  fundersList */\n      0x00\n        /* \"contracts/FundMe.sol\":616:626  msg.sender */\n      caller\n        /* \"contracts/FundMe.sol\":599:627  fundersList.push(msg.sender) */\n      swap1\n      dup1\n      0x01\n      dup2\n      sload\n      add\n      dup1\n      dup3\n      sstore\n      dup1\n      swap2\n      pop\n      pop\n      0x01\n      swap1\n      sub\n      swap1\n      0x00\n      mstore\n      keccak256(0x00, 0x20)\n      add\n      0x00\n      swap1\n      swap2\n      swap1\n      swap2\n      swap1\n      swap2\n      0x0100\n      exp\n      dup2\n      sload\n      dup2\n      0xffffffffffffffffffffffffffffffffffffffff\n      mul\n      not\n      and\n      swap1\n      dup4\n      0xffffffffffffffffffffffffffffffffffffffff\n      and\n      mul\n      or\n      swap1\n      sstore\n      pop\n        /* \"contracts/FundMe.sol\":673:682  msg.value */\n      callvalue\n        /* \"contracts/FundMe.sol\":638:657  addreddToAmountFeed */\n      0x01\n        /* \"contracts/FundMe.sol\":638:669  addreddToAmountFeed[msg.sender] */\n      0x00\n        /* \"contracts/FundMe.sol\":658:668  msg.sender */\n      caller\n        /* \"contracts/FundMe.sol\":638:669  addreddToAmountFeed[msg.sender] */\n      0xffffffffffffffffffffffffffffffffffffffff\n      and\n      0xffffffffffffffffffffffffffffffffffffffff\n      and\n      dup2\n      mstore\n      0x20\n      add\n      swap1\n      dup2\n      mstore\n      0x20\n      add\n      0x00\n      keccak256\n      0x00\n        /* \"contracts/FundMe.sol\":638:682  addreddToAmountFeed[msg.sender] += msg.value */\n      dup3\n      dup3\n      sload\n      tag_76\n      swap2\n      swap1\n      tag_13\n      jump\t// in\n    tag_76:\n      swap3\n      pop\n      pop\n      dup2\n      swap1\n      sstore\n      pop\n        /* \"contracts/FundMe.sol\":471:690  function Fund() public payable{... */\n      jump\t// out\n        /* \"contracts/FundMe.sol\":370:402  address public immutable i_owner */\n    tag_39:\n      immutable(\"0xeafa31dc210956fc0884ec5660eba9405197797219cbbda41b6aaf7118c651d8\")\n      dup2\n      jump\t// out\n        /* \"contracts/PriceConverter.sol\":661:886  function GetConversionRate(uint256 _etherAmount) internal view returns(uint256){... */\n    tag_71:\n        /* \"contracts/PriceConverter.sol\":732:739  uint256 */\n      0x00\n        /* \"contracts/PriceConverter.sol\":751:767  uint256 ethPrice */\n      dup1\n        /* \"contracts/PriceConverter.sol\":770:780  GetPrice() */\n      tag_78\n        /* \"contracts/PriceConverter.sol\":770:778  GetPrice */\n      tag_79\n        /* \"contracts/PriceConverter.sol\":770:780  GetPrice() */\n      jump\t// in\n    tag_78:\n        /* \"contracts/PriceConverter.sol\":751:780  uint256 ethPrice = GetPrice() */\n      swap1\n      pop\n        /* \"contracts/PriceConverter.sol\":791:813  uint256 ethAmountInUsd */\n      0x00\n        /* \"contracts/PriceConverter.sol\":842:846  1e18 */\n      0x0de0b6b3a7640000\n        /* \"contracts/PriceConverter.sol\":828:840  _etherAmount */\n      dup5\n        /* \"contracts/PriceConverter.sol\":817:825  ethPrice */\n      dup4\n        /* \"contracts/PriceConverter.sol\":817:840  ethPrice * _etherAmount */\n      tag_80\n      swap2\n      swap1\n      tag_81\n      jump\t// in\n    tag_80:\n        /* \"contracts/PriceConverter.sol\":816:846  (ethPrice * _etherAmount)/1e18 */\n      tag_82\n      swap2\n      swap1\n      tag_83\n      jump\t// in\n    tag_82:\n        /* \"contracts/PriceConverter.sol\":791:846  uint256 ethAmountInUsd = (ethPrice * _etherAmount)/1e18 */\n      swap1\n      pop\n        /* \"contracts/PriceConverter.sol\":864:878  ethAmountInUsd */\n      dup1\n        /* \"contracts/PriceConverter.sol\":857:878  return ethAmountInUsd */\n      swap3\n      pop\n      pop\n      pop\n        /* \"contracts/PriceConverter.sol\":661:886  function GetConversionRate(uint256 _etherAmount) internal view returns(uint256){... */\n      swap2\n      swap1\n      pop\n      jump\t// out\n        /* \"contracts/PriceConverter.sol\":170:438  function GetPrice() internal view returns(uint256){... */\n    tag_79:\n        /* \"contracts/PriceConverter.sol\":212:219  uint256 */\n      0x00\n        /* \"contracts/PriceConverter.sol\":231:262  AggregatorV3Interface priceFeed */\n      dup1\n        /* \"contracts/PriceConverter.sol\":287:329  0x8A753747A1Fa494EC906cE90E9f37563A8AF630e */\n      0x8a753747a1fa494ec906ce90e9f37563a8af630e\n        /* \"contracts/PriceConverter.sol\":231:330  AggregatorV3Interface priceFeed = AggregatorV3Interface(0x8A753747A1Fa494EC906cE90E9f37563A8AF630e) */\n      swap1\n      pop\n        /* \"contracts/PriceConverter.sol\":344:356  int256 price */\n      0x00\n        /* \"contracts/PriceConverter.sol\":363:372  priceFeed */\n      dup2\n        /* \"contracts/PriceConverter.sol\":363:388  priceFeed.latestRoundData */\n      0xffffffffffffffffffffffffffffffffffffffff\n      and\n      0xfeaf968c\n        /* \"contracts/PriceConverter.sol\":363:390  priceFeed.latestRoundData() */\n      mload(0x40)\n      dup2\n      0xffffffff\n      and\n      0xe0\n      shl\n      dup2\n      mstore\n      0x04\n      add\n      0xa0\n      mload(0x40)\n      dup1\n      dup4\n      sub\n      dup2\n      dup7\n      gas\n      staticcall\n      iszero\n      dup1\n      iszero\n      tag_86\n      jumpi\n      returndatasize\n      0x00\n      dup1\n      returndatacopy\n      revert(0x00, returndatasize)\n    tag_86:\n      pop\n      pop\n      pop\n      pop\n      mload(0x40)\n      returndatasize\n      not(0x1f)\n      0x1f\n      dup3\n      add\n      and\n      dup3\n      add\n      dup1\n      0x40\n      mstore\n      pop\n      dup2\n      add\n      swap1\n      tag_87\n      swap2\n      swap1\n      tag_88\n      jump\t// in\n    tag_87:\n        /* \"contracts/PriceConverter.sol\":342:390  (,int256 price,,,) = priceFeed.latestRoundData() */\n      pop\n      pop\n      pop\n      swap2\n      pop\n      pop\n        /* \"contracts/PriceConverter.sol\":425:429  1e10 */\n      0x02540be400\n        /* \"contracts/PriceConverter.sol\":417:422  price */\n      dup2\n        /* \"contracts/PriceConverter.sol\":417:429  price * 1e10 */\n      tag_89\n      swap2\n      swap1\n      tag_90\n      jump\t// in\n    tag_89:\n        /* \"contracts/PriceConverter.sol\":402:430  return uint256(price * 1e10) */\n      swap3\n      pop\n      pop\n      pop\n        /* \"contracts/PriceConverter.sol\":170:438  function GetPrice() internal view returns(uint256){... */\n      swap1\n      jump\t// out\n    tag_60:\n      dup3\n      dup1\n      sload\n      dup3\n      dup3\n      sstore\n      swap1\n      0x00\n      mstore\n      keccak256(0x00, 0x20)\n      swap1\n      dup2\n      add\n      swap3\n      dup3\n      iszero\n      tag_91\n      jumpi\n      swap2\n      0x20\n      mul\n      dup3\n      add\n    tag_92:\n      dup3\n      dup2\n      gt\n      iszero\n      tag_93\n      jumpi\n      dup3\n      mload\n      dup3\n      exp(0x0100, 0x00)\n      dup2\n      sload\n      dup2\n      0xffffffffffffffffffffffffffffffffffffffff\n      mul\n      not\n      and\n      swap1\n      dup4\n      0xffffffffffffffffffffffffffffffffffffffff\n      and\n      mul\n      or\n      swap1\n      sstore\n      pop\n      swap2\n      0x20\n      add\n      swap2\n      swap1\n      0x01\n      add\n      swap1\n      jump(tag_92)\n    tag_93:\n    tag_91:\n      pop\n      swap1\n      pop\n      tag_94\n      swap2\n      swap1\n      tag_95\n      jump\t// in\n    tag_94:\n      pop\n      swap1\n      jump\t// out\n    tag_95:\n    tag_96:\n      dup1\n      dup3\n      gt\n      iszero\n      tag_97\n      jumpi\n      0x00\n      dup2\n      0x00\n      swap1\n      sstore\n      pop\n      0x01\n      add\n      jump(tag_96)\n    tag_97:\n      pop\n      swap1\n      jump\t// out\n        /* \"#utility.yul\":7:84   */\n    tag_98:\n        /* \"#utility.yul\":44:51   */\n      0x00\n        /* \"#utility.yul\":73:78   */\n      dup2\n        /* \"#utility.yul\":62:78   */\n      swap1\n      pop\n        /* \"#utility.yul\":7:84   */\n      swap2\n      swap1\n      pop\n      jump\t// out\n        /* \"#utility.yul\":90:270   */\n    tag_99:\n        /* \"#utility.yul\":138:215   */\n      0x4e487b7100000000000000000000000000000000000000000000000000000000\n        /* \"#utility.yul\":135:136   */\n      0x00\n        /* \"#utility.yul\":128:216   */\n      mstore\n        /* \"#utility.yul\":235:239   */\n      0x11\n        /* \"#utility.yul\":232:233   */\n      0x04\n        /* \"#utility.yul\":225:240   */\n      mstore\n        /* \"#utility.yul\":259:263   */\n      0x24\n        /* \"#utility.yul\":256:257   */\n      0x00\n        /* \"#utility.yul\":249:264   */\n      revert\n        /* \"#utility.yul\":276:581   */\n    tag_13:\n        /* \"#utility.yul\":316:319   */\n      0x00\n        /* \"#utility.yul\":335:355   */\n      tag_131\n        /* \"#utility.yul\":353:354   */\n      dup3\n        /* \"#utility.yul\":335:355   */\n      tag_98\n      jump\t// in\n    tag_131:\n        /* \"#utility.yul\":330:355   */\n      swap2\n      pop\n        /* \"#utility.yul\":369:389   */\n      tag_132\n        /* \"#utility.yul\":387:388   */\n      dup4\n        /* \"#utility.yul\":369:389   */\n      tag_98\n      jump\t// in\n    tag_132:\n        /* \"#utility.yul\":364:389   */\n      swap3\n      pop\n        /* \"#utility.yul\":523:524   */\n      dup3\n        /* \"#utility.yul\":455:521   */\n      0xffffffffffffffffffffffffffffffffffffffffffffffffffffffffffffffff\n        /* \"#utility.yul\":451:525   */\n      sub\n        /* \"#utility.yul\":448:449   */\n      dup3\n        /* \"#utility.yul\":445:526   */\n      gt\n        /* \"#utility.yul\":442:549   */\n      iszero\n      tag_133\n      jumpi\n        /* \"#utility.yul\":529:547   */\n      tag_134\n      tag_99\n      jump\t// in\n    tag_134:\n        /* \"#utility.yul\":442:549   */\n    tag_133:\n        /* \"#utility.yul\":573:574   */\n      dup3\n        /* \"#utility.yul\":570:571   */\n      dup3\n        /* \"#utility.yul\":566:575   */\n      add\n        /* \"#utility.yul\":559:575   */\n      swap1\n      pop\n        /* \"#utility.yul\":276:581   */\n      swap3\n      swap2\n      pop\n      pop\n      jump\t// out\n        /* \"#utility.yul\":668:785   */\n    tag_101:\n        /* \"#utility.yul\":777:778   */\n      0x00\n        /* \"#utility.yul\":774:775   */\n      dup1\n        /* \"#utility.yul\":767:779   */\n      revert\n        /* \"#utility.yul\":914:1036   */\n    tag_103:\n        /* \"#utility.yul\":987:1011   */\n      tag_139\n        /* \"#utility.yul\":1005:1010   */\n      dup2\n        /* \"#utility.yul\":987:1011   */\n      tag_98\n      jump\t// in\n    tag_139:\n        /* \"#utility.yul\":980:985   */\n      dup2\n        /* \"#utility.yul\":977:1012   */\n      eq\n        /* \"#utility.yul\":967:1030   */\n      tag_140\n      jumpi\n        /* \"#utility.yul\":1026:1027   */\n      0x00\n        /* \"#utility.yul\":1023:1024   */\n      dup1\n        /* \"#utility.yul\":1016:1028   */\n      revert\n        /* \"#utility.yul\":967:1030   */\n    tag_140:\n        /* \"#utility.yul\":914:1036   */\n      pop\n      jump\t// out\n        /* \"#utility.yul\":1042:1181   */\n    tag_104:\n        /* \"#utility.yul\":1088:1093   */\n      0x00\n        /* \"#utility.yul\":1126:1132   */\n      dup2\n        /* \"#utility.yul\":1113:1133   */\n      calldataload\n        /* \"#utility.yul\":1104:1133   */\n      swap1\n      pop\n        /* \"#utility.yul\":1142:1175   */\n      tag_142\n        /* \"#utility.yul\":1169:1174   */\n      dup2\n        /* \"#utility.yul\":1142:1175   */\n      tag_103\n      jump\t// in\n    tag_142:\n        /* \"#utility.yul\":1042:1181   */\n      swap3\n      swap2\n      pop\n      pop\n      jump\t// out\n        /* \"#utility.yul\":1187:1516   */\n    tag_17:\n        /* \"#utility.yul\":1246:1252   */\n      0x00\n        /* \"#utility.yul\":1295:1297   */\n      0x20\n        /* \"#utility.yul\":1283:1292   */\n      dup3\n        /* \"#utility.yul\":1274:1281   */\n      dup5\n        /* \"#utility.yul\":1270:1293   */\n      sub\n        /* \"#utility.yul\":1266:1298   */\n      slt\n        /* \"#utility.yul\":1263:1382   */\n      iszero\n      tag_144\n      jumpi\n        /* \"#utility.yul\":1301:1380   */\n      tag_145\n      tag_101\n      jump\t// in\n    tag_145:\n        /* \"#utility.yul\":1263:1382   */\n    tag_144:\n        /* \"#utility.yul\":1421:1422   */\n      0x00\n        /* \"#utility.yul\":1446:1499   */\n      tag_146\n        /* \"#utility.yul\":1491:1498   */\n      dup5\n        /* \"#utility.yul\":1482:1488   */\n      dup3\n        /* \"#utility.yul\":1471:1480   */\n      dup6\n        /* \"#utility.yul\":1467:1489   */\n      add\n        /* \"#utility.yul\":1446:1499   */\n      tag_104\n      jump\t// in\n    tag_146:\n        /* \"#utility.yul\":1436:1499   */\n      swap2\n      pop\n        /* \"#utility.yul\":1392:1509   */\n      pop\n        /* \"#utility.yul\":1187:1516   */\n      swap3\n      swap2\n      pop\n      pop\n      jump\t// out\n        /* \"#utility.yul\":1522:1648   */\n    tag_105:\n        /* \"#utility.yul\":1559:1566   */\n      0x00\n        /* \"#utility.yul\":1599:1641   */\n      0xffffffffffffffffffffffffffffffffffffffff\n        /* \"#utility.yul\":1592:1597   */\n      dup3\n        /* \"#utility.yul\":1588:1642   */\n      and\n        /* \"#utility.yul\":1577:1642   */\n      swap1\n      pop\n        /* \"#utility.yul\":1522:1648   */\n      swap2\n      swap1\n      pop\n      jump\t// out\n        /* \"#utility.yul\":1654:1750   */\n    tag_106:\n        /* \"#utility.yul\":1691:1698   */\n      0x00\n        /* \"#utility.yul\":1720:1744   */\n      tag_149\n        /* \"#utility.yul\":1738:1743   */\n      dup3\n        /* \"#utility.yul\":1720:1744   */\n      tag_105\n      jump\t// in\n    tag_149:\n        /* \"#utility.yul\":1709:1744   */\n      swap1\n      pop\n        /* \"#utility.yul\":1654:1750   */\n      swap2\n      swap1\n      pop\n      jump\t// out\n        /* \"#utility.yul\":1756:1874   */\n    tag_107:\n        /* \"#utility.yul\":1843:1867   */\n      tag_151\n        /* \"#utility.yul\":1861:1866   */\n      dup2\n        /* \"#utility.yul\":1843:1867   */\n      tag_106\n      jump\t// in\n    tag_151:\n        /* \"#utility.yul\":1838:1841   */\n      dup3\n        /* \"#utility.yul\":1831:1868   */\n      mstore\n        /* \"#utility.yul\":1756:1874   */\n      pop\n      pop\n      jump\t// out\n        /* \"#utility.yul\":1880:2102   */\n    tag_20:\n        /* \"#utility.yul\":1973:1977   */\n      0x00\n        /* \"#utility.yul\":2011:2013   */\n      0x20\n        /* \"#utility.yul\":2000:2009   */\n      dup3\n        /* \"#utility.yul\":1996:2014   */\n      add\n        /* \"#utility.yul\":1988:2014   */\n      swap1\n      pop\n        /* \"#utility.yul\":2024:2095   */\n      tag_153\n        /* \"#utility.yul\":2092:2093   */\n      0x00\n        /* \"#utility.yul\":2081:2090   */\n      dup4\n        /* \"#utility.yul\":2077:2094   */\n      add\n        /* \"#utility.yul\":2068:2074   */\n      dup5\n        /* \"#utility.yul\":2024:2095   */\n      tag_107\n      jump\t// in\n    tag_153:\n        /* \"#utility.yul\":1880:2102   */\n      swap3\n      swap2\n      pop\n      pop\n      jump\t// out\n        /* \"#utility.yul\":2108:2230   */\n    tag_108:\n        /* \"#utility.yul\":2181:2205   */\n      tag_155\n        /* \"#utility.yul\":2199:2204   */\n      dup2\n        /* \"#utility.yul\":2181:2205   */\n      tag_106\n      jump\t// in\n    tag_155:\n        /* \"#utility.yul\":2174:2179   */\n      dup2\n        /* \"#utility.yul\":2171:2206   */\n      eq\n        /* \"#utility.yul\":2161:2224   */\n      tag_156\n      jumpi\n        /* \"#utility.yul\":2220:2221   */\n      0x00\n        /* \"#utility.yul\":2217:2218   */\n      dup1\n        /* \"#utility.yul\":2210:2222   */\n      revert\n        /* \"#utility.yul\":2161:2224   */\n    tag_156:\n        /* \"#utility.yul\":2108:2230   */\n      pop\n      jump\t// out\n        /* \"#utility.yul\":2236:2375   */\n    tag_109:\n        /* \"#utility.yul\":2282:2287   */\n      0x00\n        /* \"#utility.yul\":2320:2326   */\n      dup2\n        /* \"#utility.yul\":2307:2327   */\n      calldataload\n        /* \"#utility.yul\":2298:2327   */\n      swap1\n      pop\n        /* \"#utility.yul\":2336:2369   */\n      tag_158\n        /* \"#utility.yul\":2363:2368   */\n      dup2\n        /* \"#utility.yul\":2336:2369   */\n      tag_108\n      jump\t// in\n    tag_158:\n        /* \"#utility.yul\":2236:2375   */\n      swap3\n      swap2\n      pop\n      pop\n      jump\t// out\n        /* \"#utility.yul\":2381:2710   */\n    tag_24:\n        /* \"#utility.yul\":2440:2446   */\n      0x00\n        /* \"#utility.yul\":2489:2491   */\n      0x20\n        /* \"#utility.yul\":2477:2486   */\n      dup3\n        /* \"#utility.yul\":2468:2475   */\n      dup5\n        /* \"#utility.yul\":2464:2487   */\n      sub\n        /* \"#utility.yul\":2460:2492   */\n      slt\n        /* \"#utility.yul\":2457:2576   */\n      iszero\n      tag_160\n      jumpi\n        /* \"#utility.yul\":2495:2574   */\n      tag_161\n      tag_101\n      jump\t// in\n    tag_161:\n        /* \"#utility.yul\":2457:2576   */\n    tag_160:\n        /* \"#utility.yul\":2615:2616   */\n      0x00\n        /* \"#utility.yul\":2640:2693   */\n      tag_162\n        /* \"#utility.yul\":2685:2692   */\n      dup5\n        /* \"#utility.yul\":2676:2682   */\n      dup3\n        /* \"#utility.yul\":2665:2674   */\n      dup6\n        /* \"#utility.yul\":2661:2683   */\n      add\n        /* \"#utility.yul\":2640:2693   */\n      tag_109\n      jump\t// in\n    tag_162:\n        /* \"#utility.yul\":2630:2693   */\n      swap2\n      pop\n        /* \"#utility.yul\":2586:2703   */\n      pop\n        /* \"#utility.yul\":2381:2710   */\n      swap3\n      swap2\n      pop\n      pop\n      jump\t// out\n        /* \"#utility.yul\":2716:2834   */\n    tag_110:\n        /* \"#utility.yul\":2803:2827   */\n      tag_164\n        /* \"#utility.yul\":2821:2826   */\n      dup2\n        /* \"#utility.yul\":2803:2827   */\n      tag_98\n      jump\t// in\n    tag_164:\n        /* \"#utility.yul\":2798:2801   */\n      dup3\n        /* \"#utility.yul\":2791:2828   */\n      mstore\n        /* \"#utility.yul\":2716:2834   */\n      pop\n      pop\n      jump\t// out\n        /* \"#utility.yul\":2840:3062   */\n    tag_27:\n        /* \"#utility.yul\":2933:2937   */\n      0x00\n        /* \"#utility.yul\":2971:2973   */\n      0x20\n        /* \"#utility.yul\":2960:2969   */\n      dup3\n        /* \"#utility.yul\":2956:2974   */\n      add\n        /* \"#utility.yul\":2948:2974   */\n      swap1\n      pop\n        /* \"#utility.yul\":2984:3055   */\n      tag_166\n        /* \"#utility.yul\":3052:3053   */\n      0x00\n        /* \"#utility.yul\":3041:3050   */\n      dup4\n        /* \"#utility.yul\":3037:3054   */\n      add\n        /* \"#utility.yul\":3028:3034   */\n      dup5\n        /* \"#utility.yul\":2984:3055   */\n      tag_110\n      jump\t// in\n    tag_166:\n        /* \"#utility.yul\":2840:3062   */\n      swap3\n      swap2\n      pop\n      pop\n      jump\t// out\n        /* \"#utility.yul\":3068:3248   */\n    tag_51:\n        /* \"#utility.yul\":3116:3193   */\n      0x4e487b7100000000000000000000000000000000000000000000000000000000\n        /* \"#utility.yul\":3113:3114   */\n      0x00\n        /* \"#utility.yul\":3106:3194   */\n      mstore\n        /* \"#utility.yul\":3213:3217   */\n      0x32\n        /* \"#utility.yul\":3210:3211   */\n      0x04\n        /* \"#utility.yul\":3203:3218   */\n      mstore\n        /* \"#utility.yul\":3237:3241   */\n      0x24\n        /* \"#utility.yul\":3234:3235   */\n      0x00\n        /* \"#utility.yul\":3227:3242   */\n      revert\n        /* \"#utility.yul\":3254:3487   */\n    tag_54:\n        /* \"#utility.yul\":3293:3296   */\n      0x00\n        /* \"#utility.yul\":3316:3340   */\n      tag_169\n        /* \"#utility.yul\":3334:3339   */\n      dup3\n        /* \"#utility.yul\":3316:3340   */\n      tag_98\n      jump\t// in\n    tag_169:\n        /* \"#utility.yul\":3307:3340   */\n      swap2\n      pop\n        /* \"#utility.yul\":3362:3428   */\n      0xffffffffffffffffffffffffffffffffffffffffffffffffffffffffffffffff\n        /* \"#utility.yul\":3355:3360   */\n      dup3\n        /* \"#utility.yul\":3352:3429   */\n      sub\n        /* \"#utility.yul\":3349:3452   */\n      tag_170\n      jumpi\n        /* \"#utility.yul\":3432:3450   */\n      tag_171\n      tag_99\n      jump\t// in\n    tag_171:\n        /* \"#utility.yul\":3349:3452   */\n    tag_170:\n        /* \"#utility.yul\":3479:3480   */\n      0x01\n        /* \"#utility.yul\":3472:3477   */\n      dup3\n        /* \"#utility.yul\":3468:3481   */\n      add\n        /* \"#utility.yul\":3461:3481   */\n      swap1\n      pop\n        /* \"#utility.yul\":3254:3487   */\n      swap2\n      swap1\n      pop\n      jump\t// out\n        /* \"#utility.yul\":3493:3673   */\n    tag_57:\n        /* \"#utility.yul\":3541:3618   */\n      0x4e487b7100000000000000000000000000000000000000000000000000000000\n        /* \"#utility.yul\":3538:3539   */\n      0x00\n        /* \"#utility.yul\":3531:3619   */\n      mstore\n        /* \"#utility.yul\":3638:3642   */\n      0x41\n        /* \"#utility.yul\":3635:3636   */\n      0x04\n        /* \"#utility.yul\":3628:3643   */\n      mstore\n        /* \"#utility.yul\":3662:3666   */\n      0x24\n        /* \"#utility.yul\":3659:3660   */\n      0x00\n        /* \"#utility.yul\":3652:3667   */\n      revert\n        /* \"#utility.yul\":3679:3826   */\n    tag_111:\n        /* \"#utility.yul\":3780:3791   */\n      0x00\n        /* \"#utility.yul\":3817:3820   */\n      dup2\n        /* \"#utility.yul\":3802:3820   */\n      swap1\n      pop\n        /* \"#utility.yul\":3679:3826   */\n      swap3\n      swap2\n      pop\n      pop\n      jump\t// out\n        /* \"#utility.yul\":3832:3946   */\n    tag_112:\n      pop\n      jump\t// out\n        /* \"#utility.yul\":3952:4350   */\n    tag_113:\n        /* \"#utility.yul\":4111:4114   */\n      0x00\n        /* \"#utility.yul\":4132:4215   */\n      tag_176\n        /* \"#utility.yul\":4213:4214   */\n      0x00\n        /* \"#utility.yul\":4208:4211   */\n      dup4\n        /* \"#utility.yul\":4132:4215   */\n      tag_111\n      jump\t// in\n    tag_176:\n        /* \"#utility.yul\":4125:4215   */\n      swap2\n      pop\n        /* \"#utility.yul\":4224:4317   */\n      tag_177\n        /* \"#utility.yul\":4313:4316   */\n      dup3\n        /* \"#utility.yul\":4224:4317   */\n      tag_112\n      jump\t// in\n    tag_177:\n        /* \"#utility.yul\":4342:4343   */\n      0x00\n        /* \"#utility.yul\":4337:4340   */\n      dup3\n        /* \"#utility.yul\":4333:4344   */\n      add\n        /* \"#utility.yul\":4326:4344   */\n      swap1\n      pop\n        /* \"#utility.yul\":3952:4350   */\n      swap2\n      swap1\n      pop\n      jump\t// out\n        /* \"#utility.yul\":4356:4735   */\n    tag_62:\n        /* \"#utility.yul\":4540:4543   */\n      0x00\n        /* \"#utility.yul\":4562:4709   */\n      tag_179\n        /* \"#utility.yul\":4705:4708   */\n      dup3\n        /* \"#utility.yul\":4562:4709   */\n      tag_113\n      jump\t// in\n    tag_179:\n        /* \"#utility.yul\":4555:4709   */\n      swap2\n      pop\n        /* \"#utility.yul\":4726:4729   */\n      dup2\n        /* \"#utility.yul\":4719:4729   */\n      swap1\n      pop\n        /* \"#utility.yul\":4356:4735   */\n      swap2\n      swap1\n      pop\n      jump\t// out\n        /* \"#utility.yul\":4741:4910   */\n    tag_114:\n        /* \"#utility.yul\":4825:4836   */\n      0x00\n        /* \"#utility.yul\":4859:4865   */\n      dup3\n        /* \"#utility.yul\":4854:4857   */\n      dup3\n        /* \"#utility.yul\":4847:4866   */\n      mstore\n        /* \"#utility.yul\":4899:4903   */\n      0x20\n        /* \"#utility.yul\":4894:4897   */\n      dup3\n        /* \"#utility.yul\":4890:4904   */\n      add\n        /* \"#utility.yul\":4875:4904   */\n      swap1\n      pop\n        /* \"#utility.yul\":4741:4910   */\n      swap3\n      swap2\n      pop\n      pop\n      jump\t// out\n        /* \"#utility.yul\":4916:5077   */\n    tag_115:\n        /* \"#utility.yul\":5056:5069   */\n      0x63616c6c204661696c6564000000000000000000000000000000000000000000\n        /* \"#utility.yul\":5052:5053   */\n      0x00\n        /* \"#utility.yul\":5044:5050   */\n      dup3\n        /* \"#utility.yul\":5040:5054   */\n      add\n        /* \"#utility.yul\":5033:5070   */\n      mstore\n        /* \"#utility.yul\":4916:5077   */\n      pop\n      jump\t// out\n        /* \"#utility.yul\":5083:5449   */\n    tag_116:\n        /* \"#utility.yul\":5225:5228   */\n      0x00\n        /* \"#utility.yul\":5246:5313   */\n      tag_183\n        /* \"#utility.yul\":5310:5312   */\n      0x0b\n        /* \"#utility.yul\":5305:5308   */\n      dup4\n        /* \"#utility.yul\":5246:5313   */\n      tag_114\n      jump\t// in\n    tag_183:\n        /* \"#utility.yul\":5239:5313   */\n      swap2\n      pop\n        /* \"#utility.yul\":5322:5415   */\n      tag_184\n        /* \"#utility.yul\":5411:5414   */\n      dup3\n        /* \"#utility.yul\":5322:5415   */\n      tag_115\n      jump\t// in\n    tag_184:\n        /* \"#utility.yul\":5440:5442   */\n      0x20\n        /* \"#utility.yul\":5435:5438   */\n      dup3\n        /* \"#utility.yul\":5431:5443   */\n      add\n        /* \"#utility.yul\":5424:5443   */\n      swap1\n      pop\n        /* \"#utility.yul\":5083:5449   */\n      swap2\n      swap1\n      pop\n      jump\t// out\n        /* \"#utility.yul\":5455:5874   */\n    tag_68:\n        /* \"#utility.yul\":5621:5625   */\n      0x00\n        /* \"#utility.yul\":5659:5661   */\n      0x20\n        /* \"#utility.yul\":5648:5657   */\n      dup3\n        /* \"#utility.yul\":5644:5662   */\n      add\n        /* \"#utility.yul\":5636:5662   */\n      swap1\n      pop\n        /* \"#utility.yul\":5708:5717   */\n      dup2\n        /* \"#utility.yul\":5702:5706   */\n      dup2\n        /* \"#utility.yul\":5698:5718   */\n      sub\n        /* \"#utility.yul\":5694:5695   */\n      0x00\n        /* \"#utility.yul\":5683:5692   */\n      dup4\n        /* \"#utility.yul\":5679:5696   */\n      add\n        /* \"#utility.yul\":5672:5719   */\n      mstore\n        /* \"#utility.yul\":5736:5867   */\n      tag_186\n        /* \"#utility.yul\":5862:5866   */\n      dup2\n        /* \"#utility.yul\":5736:5867   */\n      tag_116\n      jump\t// in\n    tag_186:\n        /* \"#utility.yul\":5728:5867   */\n      swap1\n      pop\n        /* \"#utility.yul\":5455:5874   */\n      swap2\n      swap1\n      pop\n      jump\t// out\n        /* \"#utility.yul\":5880:6048   */\n    tag_117:\n        /* \"#utility.yul\":6020:6040   */\n      0x4469646e27742073656e6420656e6f7567680000000000000000000000000000\n        /* \"#utility.yul\":6016:6017   */\n      0x00\n        /* \"#utility.yul\":6008:6014   */\n      dup3\n        /* \"#utility.yul\":6004:6018   */\n      add\n        /* \"#utility.yul\":5997:6041   */\n      mstore\n        /* \"#utility.yul\":5880:6048   */\n      pop\n      jump\t// out\n        /* \"#utility.yul\":6054:6420   */\n    tag_118:\n        /* \"#utility.yul\":6196:6199   */\n      0x00\n        /* \"#utility.yul\":6217:6284   */\n      tag_189\n        /* \"#utility.yul\":6281:6283   */\n      0x12\n        /* \"#utility.yul\":6276:6279   */\n      dup4\n        /* \"#utility.yul\":6217:6284   */\n      tag_114\n      jump\t// in\n    tag_189:\n        /* \"#utility.yul\":6210:6284   */\n      swap2\n      pop\n        /* \"#utility.yul\":6293:6386   */\n      tag_190\n        /* \"#utility.yul\":6382:6385   */\n      dup3\n        /* \"#utility.yul\":6293:6386   */\n      tag_117\n      jump\t// in\n    tag_190:\n        /* \"#utility.yul\":6411:6413   */\n      0x20\n        /* \"#utility.yul\":6406:6409   */\n      dup3\n        /* \"#utility.yul\":6402:6414   */\n      add\n        /* \"#utility.yul\":6395:6414   */\n      swap1\n      pop\n        /* \"#utility.yul\":6054:6420   */\n      swap2\n      swap1\n      pop\n      jump\t// out\n        /* \"#utility.yul\":6426:6845   */\n    tag_74:\n        /* \"#utility.yul\":6592:6596   */\n      0x00\n        /* \"#utility.yul\":6630:6632   */\n      0x20\n        /* \"#utility.yul\":6619:6628   */\n      dup3\n        /* \"#utility.yul\":6615:6633   */\n      add\n        /* \"#utility.yul\":6607:6633   */\n      swap1\n      pop\n        /* \"#utility.yul\":6679:6688   */\n      dup2\n        /* \"#utility.yul\":6673:6677   */\n      dup2\n        /* \"#utility.yul\":6669:6689   */\n      sub\n        /* \"#utility.yul\":6665:6666   */\n      0x00\n        /* \"#utility.yul\":6654:6663   */\n      dup4\n        /* \"#utility.yul\":6650:6667   */\n      add\n        /* \"#utility.yul\":6643:6690   */\n      mstore\n        /* \"#utility.yul\":6707:6838   */\n      tag_192\n        /* \"#utility.yul\":6833:6837   */\n      dup2\n        /* \"#utility.yul\":6707:6838   */\n      tag_118\n      jump\t// in\n    tag_192:\n        /* \"#utility.yul\":6699:6838   */\n      swap1\n      pop\n        /* \"#utility.yul\":6426:6845   */\n      swap2\n      swap1\n      pop\n      jump\t// out\n        /* \"#utility.yul\":6851:7199   */\n    tag_81:\n        /* \"#utility.yul\":6891:6898   */\n      0x00\n        /* \"#utility.yul\":6914:6934   */\n      tag_194\n        /* \"#utility.yul\":6932:6933   */\n      dup3\n        /* \"#utility.yul\":6914:6934   */\n      tag_98\n      jump\t// in\n    tag_194:\n        /* \"#utility.yul\":6909:6934   */\n      swap2\n      pop\n        /* \"#utility.yul\":6948:6968   */\n      tag_195\n        /* \"#utility.yul\":6966:6967   */\n      dup4\n        /* \"#utility.yul\":6948:6968   */\n      tag_98\n      jump\t// in\n    tag_195:\n        /* \"#utility.yul\":6943:6968   */\n      swap3\n      pop\n        /* \"#utility.yul\":7136:7137   */\n      dup2\n        /* \"#utility.yul\":7068:7134   */\n      0xffffffffffffffffffffffffffffffffffffffffffffffffffffffffffffffff\n        /* \"#utility.yul\":7064:7138   */\n      div\n        /* \"#utility.yul\":7061:7062   */\n      dup4\n        /* \"#utility.yul\":7058:7139   */\n      gt\n        /* \"#utility.yul\":7053:7054   */\n      dup3\n        /* \"#utility.yul\":7046:7055   */\n      iszero\n        /* \"#utility.yul\":7039:7056   */\n      iszero\n        /* \"#utility.yul\":7035:7140   */\n      and\n        /* \"#utility.yul\":7032:7163   */\n      iszero\n      tag_196\n      jumpi\n        /* \"#utility.yul\":7143:7161   */\n      tag_197\n      tag_99\n      jump\t// in\n    tag_197:\n        /* \"#utility.yul\":7032:7163   */\n    tag_196:\n        /* \"#utility.yul\":7191:7192   */\n      dup3\n        /* \"#utility.yul\":7188:7189   */\n      dup3\n        /* \"#utility.yul\":7184:7193   */\n      mul\n        /* \"#utility.yul\":7173:7193   */\n      swap1\n      pop\n        /* \"#utility.yul\":6851:7199   */\n      swap3\n      swap2\n      pop\n      pop\n      jump\t// out\n        /* \"#utility.yul\":7205:7385   */\n    tag_119:\n        /* \"#utility.yul\":7253:7330   */\n      0x4e487b7100000000000000000000000000000000000000000000000000000000\n        /* \"#utility.yul\":7250:7251   */\n      0x00\n        /* \"#utility.yul\":7243:7331   */\n      mstore\n        /* \"#utility.yul\":7350:7354   */\n      0x12\n        /* \"#utility.yul\":7347:7348   */\n      0x04\n        /* \"#utility.yul\":7340:7355   */\n      mstore\n        /* \"#utility.yul\":7374:7378   */\n      0x24\n        /* \"#utility.yul\":7371:7372   */\n      0x00\n        /* \"#utility.yul\":7364:7379   */\n      revert\n        /* \"#utility.yul\":7391:7576   */\n    tag_83:\n        /* \"#utility.yul\":7431:7432   */\n      0x00\n        /* \"#utility.yul\":7448:7468   */\n      tag_200\n        /* \"#utility.yul\":7466:7467   */\n      dup3\n        /* \"#utility.yul\":7448:7468   */\n      tag_98\n      jump\t// in\n    tag_200:\n        /* \"#utility.yul\":7443:7468   */\n      swap2\n      pop\n        /* \"#utility.yul\":7482:7502   */\n      tag_201\n        /* \"#utility.yul\":7500:7501   */\n      dup4\n        /* \"#utility.yul\":7482:7502   */\n      tag_98\n      jump\t// in\n    tag_201:\n        /* \"#utility.yul\":7477:7502   */\n      swap3\n      pop\n        /* \"#utility.yul\":7521:7522   */\n      dup3\n        /* \"#utility.yul\":7511:7546   */\n      tag_202\n      jumpi\n        /* \"#utility.yul\":7526:7544   */\n      tag_203\n      tag_119\n      jump\t// in\n    tag_203:\n        /* \"#utility.yul\":7511:7546   */\n    tag_202:\n        /* \"#utility.yul\":7568:7569   */\n      dup3\n        /* \"#utility.yul\":7565:7566   */\n      dup3\n        /* \"#utility.yul\":7561:7570   */\n      div\n        /* \"#utility.yul\":7556:7570   */\n      swap1\n      pop\n        /* \"#utility.yul\":7391:7576   */\n      swap3\n      swap2\n      pop\n      pop\n      jump\t// out\n        /* \"#utility.yul\":7582:7687   */\n    tag_120:\n        /* \"#utility.yul\":7618:7625   */\n      0x00\n        /* \"#utility.yul\":7658:7680   */\n      0xffffffffffffffffffff\n        /* \"#utility.yul\":7651:7656   */\n      dup3\n        /* \"#utility.yul\":7647:7681   */\n      and\n        /* \"#utility.yul\":7636:7681   */\n      swap1\n      pop\n        /* \"#utility.yul\":7582:7687   */\n      swap2\n      swap1\n      pop\n      jump\t// out\n        /* \"#utility.yul\":7693:7813   */\n    tag_121:\n        /* \"#utility.yul\":7765:7788   */\n      tag_206\n        /* \"#utility.yul\":7782:7787   */\n      dup2\n        /* \"#utility.yul\":7765:7788   */\n      tag_120\n      jump\t// in\n    tag_206:\n        /* \"#utility.yul\":7758:7763   */\n      dup2\n        /* \"#utility.yul\":7755:7789   */\n      eq\n        /* \"#utility.yul\":7745:7807   */\n      tag_207\n      jumpi\n        /* \"#utility.yul\":7803:7804   */\n      0x00\n        /* \"#utility.yul\":7800:7801   */\n      dup1\n        /* \"#utility.yul\":7793:7805   */\n      revert\n        /* \"#utility.yul\":7745:7807   */\n    tag_207:\n        /* \"#utility.yul\":7693:7813   */\n      pop\n      jump\t// out\n        /* \"#utility.yul\":7819:7960   */\n    tag_122:\n        /* \"#utility.yul\":7875:7880   */\n      0x00\n        /* \"#utility.yul\":7906:7912   */\n      dup2\n        /* \"#utility.yul\":7900:7913   */\n      mload\n        /* \"#utility.yul\":7891:7913   */\n      swap1\n      pop\n        /* \"#utility.yul\":7922:7954   */\n      tag_209\n        /* \"#utility.yul\":7948:7953   */\n      dup2\n        /* \"#utility.yul\":7922:7954   */\n      tag_121\n      jump\t// in\n    tag_209:\n        /* \"#utility.yul\":7819:7960   */\n      swap3\n      swap2\n      pop\n      pop\n      jump\t// out\n        /* \"#utility.yul\":7966:8042   */\n    tag_123:\n        /* \"#utility.yul\":8002:8009   */\n      0x00\n        /* \"#utility.yul\":8031:8036   */\n      dup2\n        /* \"#utility.yul\":8020:8036   */\n      swap1\n      pop\n        /* \"#utility.yul\":7966:8042   */\n      swap2\n      swap1\n      pop\n      jump\t// out\n        /* \"#utility.yul\":8048:8168   */\n    tag_124:\n        /* \"#utility.yul\":8120:8143   */\n      tag_212\n        /* \"#utility.yul\":8137:8142   */\n      dup2\n        /* \"#utility.yul\":8120:8143   */\n      tag_123\n      jump\t// in\n    tag_212:\n        /* \"#utility.yul\":8113:8118   */\n      dup2\n        /* \"#utility.yul\":8110:8144   */\n      eq\n        /* \"#utility.yul\":8100:8162   */\n      tag_213\n      jumpi\n        /* \"#utility.yul\":8158:8159   */\n      0x00\n        /* \"#utility.yul\":8155:8156   */\n      dup1\n        /* \"#utility.yul\":8148:8160   */\n      revert\n        /* \"#utility.yul\":8100:8162   */\n    tag_213:\n        /* \"#utility.yul\":8048:8168   */\n      pop\n      jump\t// out\n        /* \"#utility.yul\":8174:8315   */\n    tag_125:\n        /* \"#utility.yul\":8230:8235   */\n      0x00\n        /* \"#utility.yul\":8261:8267   */\n      dup2\n        /* \"#utility.yul\":8255:8268   */\n      mload\n        /* \"#utility.yul\":8246:8268   */\n      swap1\n      pop\n        /* \"#utility.yul\":8277:8309   */\n      tag_215\n        /* \"#utility.yul\":8303:8308   */\n      dup2\n        /* \"#utility.yul\":8277:8309   */\n      tag_124\n      jump\t// in\n    tag_215:\n        /* \"#utility.yul\":8174:8315   */\n      swap3\n      swap2\n      pop\n      pop\n      jump\t// out\n        /* \"#utility.yul\":8321:8464   */\n    tag_126:\n        /* \"#utility.yul\":8378:8383   */\n      0x00\n        /* \"#utility.yul\":8409:8415   */\n      dup2\n        /* \"#utility.yul\":8403:8416   */\n      mload\n        /* \"#utility.yul\":8394:8416   */\n      swap1\n      pop\n        /* \"#utility.yul\":8425:8458   */\n      tag_217\n        /* \"#utility.yul\":8452:8457   */\n      dup2\n        /* \"#utility.yul\":8425:8458   */\n      tag_103\n      jump\t// in\n    tag_217:\n        /* \"#utility.yul\":8321:8464   */\n      swap3\n      swap2\n      pop\n      pop\n      jump\t// out\n        /* \"#utility.yul\":8470:9441   */\n    tag_88:\n        /* \"#utility.yul\":8573:8579   */\n      0x00\n        /* \"#utility.yul\":8581:8587   */\n      dup1\n        /* \"#utility.yul\":8589:8595   */\n      0x00\n        /* \"#utility.yul\":8597:8603   */\n      dup1\n        /* \"#utility.yul\":8605:8611   */\n      0x00\n        /* \"#utility.yul\":8654:8657   */\n      0xa0\n        /* \"#utility.yul\":8642:8651   */\n      dup7\n        /* \"#utility.yul\":8633:8640   */\n      dup9\n        /* \"#utility.yul\":8629:8652   */\n      sub\n        /* \"#utility.yul\":8625:8658   */\n      slt\n        /* \"#utility.yul\":8622:8742   */\n      iszero\n      tag_219\n      jumpi\n        /* \"#utility.yul\":8661:8740   */\n      tag_220\n      tag_101\n      jump\t// in\n    tag_220:\n        /* \"#utility.yul\":8622:8742   */\n    tag_219:\n        /* \"#utility.yul\":8781:8782   */\n      0x00\n        /* \"#utility.yul\":8806:8869   */\n      tag_221\n        /* \"#utility.yul\":8861:8868   */\n      dup9\n        /* \"#utility.yul\":8852:8858   */\n      dup3\n        /* \"#utility.yul\":8841:8850   */\n      dup10\n        /* \"#utility.yul\":8837:8859   */\n      add\n        /* \"#utility.yul\":8806:8869   */\n      tag_122\n      jump\t// in\n    tag_221:\n        /* \"#utility.yul\":8796:8869   */\n      swap6\n      pop\n        /* \"#utility.yul\":8752:8879   */\n      pop\n        /* \"#utility.yul\":8918:8920   */\n      0x20\n        /* \"#utility.yul\":8944:9007   */\n      tag_222\n        /* \"#utility.yul\":8999:9006   */\n      dup9\n        /* \"#utility.yul\":8990:8996   */\n      dup3\n        /* \"#utility.yul\":8979:8988   */\n      dup10\n        /* \"#utility.yul\":8975:8997   */\n      add\n        /* \"#utility.yul\":8944:9007   */\n      tag_125\n      jump\t// in\n    tag_222:\n        /* \"#utility.yul\":8934:9007   */\n      swap5\n      pop\n        /* \"#utility.yul\":8889:9017   */\n      pop\n        /* \"#utility.yul\":9056:9058   */\n      0x40\n        /* \"#utility.yul\":9082:9146   */\n      tag_223\n        /* \"#utility.yul\":9138:9145   */\n      dup9\n        /* \"#utility.yul\":9129:9135   */\n      dup3\n        /* \"#utility.yul\":9118:9127   */\n      dup10\n        /* \"#utility.yul\":9114:9136   */\n      add\n        /* \"#utility.yul\":9082:9146   */\n      tag_126\n      jump\t// in\n    tag_223:\n        /* \"#utility.yul\":9072:9146   */\n      swap4\n      pop\n        /* \"#utility.yul\":9027:9156   */\n      pop\n        /* \"#utility.yul\":9195:9197   */\n      0x60\n        /* \"#utility.yul\":9221:9285   */\n      tag_224\n        /* \"#utility.yul\":9277:9284   */\n      dup9\n        /* \"#utility.yul\":9268:9274   */\n      dup3\n        /* \"#utility.yul\":9257:9266   */\n      dup10\n        /* \"#utility.yul\":9253:9275   */\n      add\n        /* \"#utility.yul\":9221:9285   */\n      tag_126\n      jump\t// in\n    tag_224:\n        /* \"#utility.yul\":9211:9285   */\n      swap3\n      pop\n        /* \"#utility.yul\":9166:9295   */\n      pop\n        /* \"#utility.yul\":9334:9337   */\n      0x80\n        /* \"#utility.yul\":9361:9424   */\n      tag_225\n        /* \"#utility.yul\":9416:9423   */\n      dup9\n        /* \"#utility.yul\":9407:9413   */\n      dup3\n        /* \"#utility.yul\":9396:9405   */\n      dup10\n        /* \"#utility.yul\":9392:9414   */\n      add\n        /* \"#utility.yul\":9361:9424   */\n      tag_122\n      jump\t// in\n    tag_225:\n        /* \"#utility.yul\":9351:9424   */\n      swap2\n      pop\n        /* \"#utility.yul\":9305:9434   */\n      pop\n        /* \"#utility.yul\":8470:9441   */\n      swap3\n      swap6\n      pop\n      swap3\n      swap6\n      swap1\n      swap4\n      pop\n      jump\t// out\n        /* \"#utility.yul\":9447:10438   */\n    tag_90:\n        /* \"#utility.yul\":9486:9493   */\n      0x00\n        /* \"#utility.yul\":9509:9528   */\n      tag_227\n        /* \"#utility.yul\":9526:9527   */\n      dup3\n        /* \"#utility.yul\":9509:9528   */\n      tag_123\n      jump\t// in\n    tag_227:\n        /* \"#utility.yul\":9504:9528   */\n      swap2\n      pop\n        /* \"#utility.yul\":9542:9561   */\n      tag_228\n        /* \"#utility.yul\":9559:9560   */\n      dup4\n        /* \"#utility.yul\":9542:9561   */\n      tag_123\n      jump\t// in\n    tag_228:\n        /* \"#utility.yul\":9537:9561   */\n      swap3\n      pop\n        /* \"#utility.yul\":9743:9744   */\n      dup3\n        /* \"#utility.yul\":9675:9741   */\n      0x7fffffffffffffffffffffffffffffffffffffffffffffffffffffffffffffff\n        /* \"#utility.yul\":9671:9745   */\n      div\n        /* \"#utility.yul\":9668:9669   */\n      dup3\n        /* \"#utility.yul\":9665:9746   */\n      gt\n        /* \"#utility.yul\":9660:9661   */\n      0x00\n        /* \"#utility.yul\":9657:9658   */\n      dup5\n        /* \"#utility.yul\":9653:9662   */\n      sgt\n        /* \"#utility.yul\":9649:9650   */\n      0x00\n        /* \"#utility.yul\":9646:9647   */\n      dup5\n        /* \"#utility.yul\":9642:9651   */\n      sgt\n        /* \"#utility.yul\":9638:9663   */\n      and\n        /* \"#utility.yul\":9634:9747   */\n      and\n        /* \"#utility.yul\":9631:9770   */\n      iszero\n      tag_229\n      jumpi\n        /* \"#utility.yul\":9750:9768   */\n      tag_230\n      tag_99\n      jump\t// in\n    tag_230:\n        /* \"#utility.yul\":9631:9770   */\n    tag_229:\n        /* \"#utility.yul\":9954:9955   */\n      dup2\n        /* \"#utility.yul\":9886:9952   */\n      0x8000000000000000000000000000000000000000000000000000000000000000\n        /* \"#utility.yul\":9881:9956   */\n      sdiv\n        /* \"#utility.yul\":9878:9879   */\n      dup4\n        /* \"#utility.yul\":9874:9957   */\n      slt\n        /* \"#utility.yul\":9869:9870   */\n      0x00\n        /* \"#utility.yul\":9866:9867   */\n      dup5\n        /* \"#utility.yul\":9862:9871   */\n      slt\n        /* \"#utility.yul\":9858:9859   */\n      0x00\n        /* \"#utility.yul\":9855:9856   */\n      dup5\n        /* \"#utility.yul\":9851:9860   */\n      sgt\n        /* \"#utility.yul\":9847:9872   */\n      and\n        /* \"#utility.yul\":9843:9958   */\n      and\n        /* \"#utility.yul\":9840:9981   */\n      iszero\n      tag_231\n      jumpi\n        /* \"#utility.yul\":9961:9979   */\n      tag_232\n      tag_99\n      jump\t// in\n    tag_232:\n        /* \"#utility.yul\":9840:9981   */\n    tag_231:\n        /* \"#utility.yul\":10165:10166   */\n      dup3\n        /* \"#utility.yul\":10097:10163   */\n      0x8000000000000000000000000000000000000000000000000000000000000000\n        /* \"#utility.yul\":10092:10167   */\n      sdiv\n        /* \"#utility.yul\":10089:10090   */\n      dup3\n        /* \"#utility.yul\":10085:10168   */\n      slt\n        /* \"#utility.yul\":10080:10081   */\n      0x00\n        /* \"#utility.yul\":10077:10078   */\n      dup5\n        /* \"#utility.yul\":10073:10082   */\n      sgt\n        /* \"#utility.yul\":10069:10070   */\n      0x00\n        /* \"#utility.yul\":10066:10067   */\n      dup5\n        /* \"#utility.yul\":10062:10071   */\n      slt\n        /* \"#utility.yul\":10058:10083   */\n      and\n        /* \"#utility.yul\":10054:10169   */\n      and\n        /* \"#utility.yul\":10051:10192   */\n      iszero\n      tag_233\n      jumpi\n        /* \"#utility.yul\":10172:10190   */\n      tag_234\n      tag_99\n      jump\t// in\n    tag_234:\n        /* \"#utility.yul\":10051:10192   */\n    tag_233:\n        /* \"#utility.yul\":10375:10376   */\n      dup3\n        /* \"#utility.yul\":10307:10373   */\n      0x7fffffffffffffffffffffffffffffffffffffffffffffffffffffffffffffff\n        /* \"#utility.yul\":10302:10377   */\n      sdiv\n        /* \"#utility.yul\":10299:10300   */\n      dup3\n        /* \"#utility.yul\":10295:10378   */\n      slt\n        /* \"#utility.yul\":10290:10291   */\n      0x00\n        /* \"#utility.yul\":10287:10288   */\n      dup5\n        /* \"#utility.yul\":10283:10292   */\n      slt\n        /* \"#utility.yul\":10279:10280   */\n      0x00\n        /* \"#utility.yul\":10276:10277   */\n      dup5\n        /* \"#utility.yul\":10272:10281   */\n      slt\n        /* \"#utility.yul\":10268:10293   */\n      and\n        /* \"#utility.yul\":10264:10379   */\n      and\n        /* \"#utility.yul\":10261:10402   */\n      iszero\n      tag_235\n      jumpi\n        /* \"#utility.yul\":10382:10400   */\n      tag_236\n      tag_99\n      jump\t// in\n    tag_236:\n        /* \"#utility.yul\":10261:10402   */\n    tag_235:\n        /* \"#utility.yul\":10430:10431   */\n      dup3\n        /* \"#utility.yul\":10427:10428   */\n      dup3\n        /* \"#utility.yul\":10423:10432   */\n      mul\n        /* \"#utility.yul\":10412:10432   */\n      swap1\n      pop\n        /* \"#utility.yul\":9447:10438   */\n      swap3\n      swap2\n      pop\n      pop\n      jump\t// out\n\n    auxdata: 0xa2646970667358221220c5ddbf153c9f43e1e0366b3ab687399f834042d253e8a25cf1fbb1d2ffa00e5d64736f6c634300080e0033\n}\n",
				"bytecode": {
					"linkReferences": {},
					"object": "60a060405234801561001057600080fd5b503373ffffffffffffffffffffffffffffffffffffffff1660808173ffffffffffffffffffffffffffffffffffffffff1681525050608051610e196100676000396000818161026701526105bd0152610e196000f3fe6080604052600436106100595760003560e01c806347ff62c61461011d578063520fcd611461015a57806357ea89b6146101975780635deb0172146101ae5780636ce1417e146101d9578063dba6335f146101e357610118565b36610118576000339080600181540180825580915050600190039060005260206000200160009091909190916101000a81548173ffffffffffffffffffffffffffffffffffffffff021916908373ffffffffffffffffffffffffffffffffffffffff16021790555034600160003373ffffffffffffffffffffffffffffffffffffffff1673ffffffffffffffffffffffffffffffffffffffff168152602001908152602001600020600082825461011091906107a2565b925050819055005b600080fd5b34801561012957600080fd5b50610144600480360381019061013f9190610829565b61020e565b6040516101519190610897565b60405180910390f35b34801561016657600080fd5b50610181600480360381019061017c91906108de565b61024d565b60405161018e919061091a565b60405180910390f35b3480156101a357600080fd5b506101ac610265565b005b3480156101ba57600080fd5b506101c361049f565b6040516101d0919061091a565b60405180910390f35b6101e16104ac565b005b3480156101ef57600080fd5b506101f86105bb565b6040516102059190610897565b60405180910390f35b6000818154811061021e57600080fd5b906000526020600020016000915054906101000a900473ffffffffffffffffffffffffffffffffffffffff1681565b60016020528060005260406000206000915090505481565b7f000000000000000000000000000000000000000000000000000000000000000073ffffffffffffffffffffffffffffffffffffffff163373ffffffffffffffffffffffffffffffffffffffff16146102ea576040517fea8e4eb500000000000000000000000000000000000000000000000000000000815260040160405180910390fd5b60005b60008054905081101561038f5760006001600080848154811061031357610312610935565b5b9060005260206000200160009054906101000a900473ffffffffffffffffffffffffffffffffffffffff1673ffffffffffffffffffffffffffffffffffffffff1673ffffffffffffffffffffffffffffffffffffffff16815260200190815260200160002081905550808061038790610964565b9150506102ed565b50600067ffffffffffffffff8111156103ab576103aa6109ac565b5b6040519080825280602002602001820160405280156103d95781602001602082028036833780820191505090505b50600090805190602001906103ef9291906106c2565b5060003373ffffffffffffffffffffffffffffffffffffffff164760405161041690610a0c565b60006040518083038185875af1925050503d8060008114610453576040519150601f19603f3d011682016040523d82523d6000602084013e610458565b606091505b505090508061049c576040517f08c379a000000000000000000000000000000000000000000000000000000000815260040161049390610a7e565b60405180910390fd5b50565b6802b5e3af16b188000081565b6802b5e3af16b18800006104bf346105df565b1015610500576040517f08c379a00000000000000000000000000000000000000000000000000000000081526004016104f790610aea565b60405180910390fd5b6000339080600181540180825580915050600190039060005260206000200160009091909190916101000a81548173ffffffffffffffffffffffffffffffffffffffff021916908373ffffffffffffffffffffffffffffffffffffffff16021790555034600160003373ffffffffffffffffffffffffffffffffffffffff1673ffffffffffffffffffffffffffffffffffffffff16815260200190815260200160002060008282546105b291906107a2565b92505081905550565b7f000000000000000000000000000000000000000000000000000000000000000081565b6000806105ea610619565b90506000670de0b6b3a764000084836106039190610b0a565b61060d9190610b93565b90508092505050919050565b600080738a753747a1fa494ec906ce90e9f37563a8af630e905060008173ffffffffffffffffffffffffffffffffffffffff1663feaf968c6040518163ffffffff1660e01b815260040160a060405180830381865afa158015610680573d6000803e3d6000fd5b505050506040513d601f19601f820116820180604052508101906106a49190610c51565b5050509150506402540be400816106bb9190610ccc565b9250505090565b82805482825590600052602060002090810192821561073b579160200282015b8281111561073a5782518260006101000a81548173ffffffffffffffffffffffffffffffffffffffff021916908373ffffffffffffffffffffffffffffffffffffffff160217905550916020019190600101906106e2565b5b509050610748919061074c565b5090565b5b8082111561076557600081600090555060010161074d565b5090565b6000819050919050565b7f4e487b7100000000000000000000000000000000000000000000000000000000600052601160045260246000fd5b60006107ad82610769565b91506107b883610769565b9250827fffffffffffffffffffffffffffffffffffffffffffffffffffffffffffffffff038211156107ed576107ec610773565b5b828201905092915050565b600080fd5b61080681610769565b811461081157600080fd5b50565b600081359050610823816107fd565b92915050565b60006020828403121561083f5761083e6107f8565b5b600061084d84828501610814565b91505092915050565b600073ffffffffffffffffffffffffffffffffffffffff82169050919050565b600061088182610856565b9050919050565b61089181610876565b82525050565b60006020820190506108ac6000830184610888565b92915050565b6108bb81610876565b81146108c657600080fd5b50565b6000813590506108d8816108b2565b92915050565b6000602082840312156108f4576108f36107f8565b5b6000610902848285016108c9565b91505092915050565b61091481610769565b82525050565b600060208201905061092f600083018461090b565b92915050565b7f4e487b7100000000000000000000000000000000000000000000000000000000600052603260045260246000fd5b600061096f82610769565b91507fffffffffffffffffffffffffffffffffffffffffffffffffffffffffffffffff82036109a1576109a0610773565b5b600182019050919050565b7f4e487b7100000000000000000000000000000000000000000000000000000000600052604160045260246000fd5b600081905092915050565b50565b60006109f66000836109db565b9150610a01826109e6565b600082019050919050565b6000610a17826109e9565b9150819050919050565b600082825260208201905092915050565b7f63616c6c204661696c6564000000000000000000000000000000000000000000600082015250565b6000610a68600b83610a21565b9150610a7382610a32565b602082019050919050565b60006020820190508181036000830152610a9781610a5b565b9050919050565b7f4469646e27742073656e6420656e6f7567680000000000000000000000000000600082015250565b6000610ad4601283610a21565b9150610adf82610a9e565b602082019050919050565b60006020820190508181036000830152610b0381610ac7565b9050919050565b6000610b1582610769565b9150610b2083610769565b9250817fffffffffffffffffffffffffffffffffffffffffffffffffffffffffffffffff0483118215151615610b5957610b58610773565b5b828202905092915050565b7f4e487b7100000000000000000000000000000000000000000000000000000000600052601260045260246000fd5b6000610b9e82610769565b9150610ba983610769565b925082610bb957610bb8610b64565b5b828204905092915050565b600069ffffffffffffffffffff82169050919050565b610be381610bc4565b8114610bee57600080fd5b50565b600081519050610c0081610bda565b92915050565b6000819050919050565b610c1981610c06565b8114610c2457600080fd5b50565b600081519050610c3681610c10565b92915050565b600081519050610c4b816107fd565b92915050565b600080600080600060a08688031215610c6d57610c6c6107f8565b5b6000610c7b88828901610bf1565b9550506020610c8c88828901610c27565b9450506040610c9d88828901610c3c565b9350506060610cae88828901610c3c565b9250506080610cbf88828901610bf1565b9150509295509295909350565b6000610cd782610c06565b9150610ce283610c06565b9250827f7fffffffffffffffffffffffffffffffffffffffffffffffffffffffffffffff0482116000841360008413161615610d2157610d20610773565b5b817f80000000000000000000000000000000000000000000000000000000000000000583126000841260008413161615610d5e57610d5d610773565b5b827f80000000000000000000000000000000000000000000000000000000000000000582126000841360008412161615610d9b57610d9a610773565b5b827f7fffffffffffffffffffffffffffffffffffffffffffffffffffffffffffffff0582126000841260008412161615610dd857610dd7610773565b5b82820290509291505056fea2646970667358221220c5ddbf153c9f43e1e0366b3ab687399f834042d253e8a25cf1fbb1d2ffa00e5d64736f6c634300080e0033",
					"opcodes": "PUSH1 0xA0 PUSH1 0x40 MSTORE CALLVALUE DUP1 ISZERO PUSH2 0x10 JUMPI PUSH1 0x0 DUP1 REVERT JUMPDEST POP CALLER PUSH20 0xFFFFFFFFFFFFFFFFFFFFFFFFFFFFFFFFFFFFFFFF AND PUSH1 0x80 DUP2 PUSH20 0xFFFFFFFFFFFFFFFFFFFFFFFFFFFFFFFFFFFFFFFF AND DUP2 MSTORE POP POP PUSH1 0x80 MLOAD PUSH2 0xE19 PUSH2 0x67 PUSH1 0x0 CODECOPY PUSH1 0x0 DUP2 DUP2 PUSH2 0x267 ADD MSTORE PUSH2 0x5BD ADD MSTORE PUSH2 0xE19 PUSH1 0x0 RETURN INVALID PUSH1 0x80 PUSH1 0x40 MSTORE PUSH1 0x4 CALLDATASIZE LT PUSH2 0x59 JUMPI PUSH1 0x0 CALLDATALOAD PUSH1 0xE0 SHR DUP1 PUSH4 0x47FF62C6 EQ PUSH2 0x11D JUMPI DUP1 PUSH4 0x520FCD61 EQ PUSH2 0x15A JUMPI DUP1 PUSH4 0x57EA89B6 EQ PUSH2 0x197 JUMPI DUP1 PUSH4 0x5DEB0172 EQ PUSH2 0x1AE JUMPI DUP1 PUSH4 0x6CE1417E EQ PUSH2 0x1D9 JUMPI DUP1 PUSH4 0xDBA6335F EQ PUSH2 0x1E3 JUMPI PUSH2 0x118 JUMP JUMPDEST CALLDATASIZE PUSH2 0x118 JUMPI PUSH1 0x0 CALLER SWAP1 DUP1 PUSH1 0x1 DUP2 SLOAD ADD DUP1 DUP3 SSTORE DUP1 SWAP2 POP POP PUSH1 0x1 SWAP1 SUB SWAP1 PUSH1 0x0 MSTORE PUSH1 0x20 PUSH1 0x0 KECCAK256 ADD PUSH1 0x0 SWAP1 SWAP2 SWAP1 SWAP2 SWAP1 SWAP2 PUSH2 0x100 EXP DUP2 SLOAD DUP2 PUSH20 0xFFFFFFFFFFFFFFFFFFFFFFFFFFFFFFFFFFFFFFFF MUL NOT AND SWAP1 DUP4 PUSH20 0xFFFFFFFFFFFFFFFFFFFFFFFFFFFFFFFFFFFFFFFF AND MUL OR SWAP1 SSTORE POP CALLVALUE PUSH1 0x1 PUSH1 0x0 CALLER PUSH20 0xFFFFFFFFFFFFFFFFFFFFFFFFFFFFFFFFFFFFFFFF AND PUSH20 0xFFFFFFFFFFFFFFFFFFFFFFFFFFFFFFFFFFFFFFFF AND DUP2 MSTORE PUSH1 0x20 ADD SWAP1 DUP2 MSTORE PUSH1 0x20 ADD PUSH1 0x0 KECCAK256 PUSH1 0x0 DUP3 DUP3 SLOAD PUSH2 0x110 SWAP2 SWAP1 PUSH2 0x7A2 JUMP JUMPDEST SWAP3 POP POP DUP2 SWAP1 SSTORE STOP JUMPDEST PUSH1 0x0 DUP1 REVERT JUMPDEST CALLVALUE DUP1 ISZERO PUSH2 0x129 JUMPI PUSH1 0x0 DUP1 REVERT JUMPDEST POP PUSH2 0x144 PUSH1 0x4 DUP1 CALLDATASIZE SUB DUP2 ADD SWAP1 PUSH2 0x13F SWAP2 SWAP1 PUSH2 0x829 JUMP JUMPDEST PUSH2 0x20E JUMP JUMPDEST PUSH1 0x40 MLOAD PUSH2 0x151 SWAP2 SWAP1 PUSH2 0x897 JUMP JUMPDEST PUSH1 0x40 MLOAD DUP1 SWAP2 SUB SWAP1 RETURN JUMPDEST CALLVALUE DUP1 ISZERO PUSH2 0x166 JUMPI PUSH1 0x0 DUP1 REVERT JUMPDEST POP PUSH2 0x181 PUSH1 0x4 DUP1 CALLDATASIZE SUB DUP2 ADD SWAP1 PUSH2 0x17C SWAP2 SWAP1 PUSH2 0x8DE JUMP JUMPDEST PUSH2 0x24D JUMP JUMPDEST PUSH1 0x40 MLOAD PUSH2 0x18E SWAP2 SWAP1 PUSH2 0x91A JUMP JUMPDEST PUSH1 0x40 MLOAD DUP1 SWAP2 SUB SWAP1 RETURN JUMPDEST CALLVALUE DUP1 ISZERO PUSH2 0x1A3 JUMPI PUSH1 0x0 DUP1 REVERT JUMPDEST POP PUSH2 0x1AC PUSH2 0x265 JUMP JUMPDEST STOP JUMPDEST CALLVALUE DUP1 ISZERO PUSH2 0x1BA JUMPI PUSH1 0x0 DUP1 REVERT JUMPDEST POP PUSH2 0x1C3 PUSH2 0x49F JUMP JUMPDEST PUSH1 0x40 MLOAD PUSH2 0x1D0 SWAP2 SWAP1 PUSH2 0x91A JUMP JUMPDEST PUSH1 0x40 MLOAD DUP1 SWAP2 SUB SWAP1 RETURN JUMPDEST PUSH2 0x1E1 PUSH2 0x4AC JUMP JUMPDEST STOP JUMPDEST CALLVALUE DUP1 ISZERO PUSH2 0x1EF JUMPI PUSH1 0x0 DUP1 REVERT JUMPDEST POP PUSH2 0x1F8 PUSH2 0x5BB JUMP JUMPDEST PUSH1 0x40 MLOAD PUSH2 0x205 SWAP2 SWAP1 PUSH2 0x897 JUMP JUMPDEST PUSH1 0x40 MLOAD DUP1 SWAP2 SUB SWAP1 RETURN JUMPDEST PUSH1 0x0 DUP2 DUP2 SLOAD DUP2 LT PUSH2 0x21E JUMPI PUSH1 0x0 DUP1 REVERT JUMPDEST SWAP1 PUSH1 0x0 MSTORE PUSH1 0x20 PUSH1 0x0 KECCAK256 ADD PUSH1 0x0 SWAP2 POP SLOAD SWAP1 PUSH2 0x100 EXP SWAP1 DIV PUSH20 0xFFFFFFFFFFFFFFFFFFFFFFFFFFFFFFFFFFFFFFFF AND DUP2 JUMP JUMPDEST PUSH1 0x1 PUSH1 0x20 MSTORE DUP1 PUSH1 0x0 MSTORE PUSH1 0x40 PUSH1 0x0 KECCAK256 PUSH1 0x0 SWAP2 POP SWAP1 POP SLOAD DUP2 JUMP JUMPDEST PUSH32 0x0 PUSH20 0xFFFFFFFFFFFFFFFFFFFFFFFFFFFFFFFFFFFFFFFF AND CALLER PUSH20 0xFFFFFFFFFFFFFFFFFFFFFFFFFFFFFFFFFFFFFFFF AND EQ PUSH2 0x2EA JUMPI PUSH1 0x40 MLOAD PUSH32 0xEA8E4EB500000000000000000000000000000000000000000000000000000000 DUP2 MSTORE PUSH1 0x4 ADD PUSH1 0x40 MLOAD DUP1 SWAP2 SUB SWAP1 REVERT JUMPDEST PUSH1 0x0 JUMPDEST PUSH1 0x0 DUP1 SLOAD SWAP1 POP DUP2 LT ISZERO PUSH2 0x38F JUMPI PUSH1 0x0 PUSH1 0x1 PUSH1 0x0 DUP1 DUP5 DUP2 SLOAD DUP2 LT PUSH2 0x313 JUMPI PUSH2 0x312 PUSH2 0x935 JUMP JUMPDEST JUMPDEST SWAP1 PUSH1 0x0 MSTORE PUSH1 0x20 PUSH1 0x0 KECCAK256 ADD PUSH1 0x0 SWAP1 SLOAD SWAP1 PUSH2 0x100 EXP SWAP1 DIV PUSH20 0xFFFFFFFFFFFFFFFFFFFFFFFFFFFFFFFFFFFFFFFF AND PUSH20 0xFFFFFFFFFFFFFFFFFFFFFFFFFFFFFFFFFFFFFFFF AND PUSH20 0xFFFFFFFFFFFFFFFFFFFFFFFFFFFFFFFFFFFFFFFF AND DUP2 MSTORE PUSH1 0x20 ADD SWAP1 DUP2 MSTORE PUSH1 0x20 ADD PUSH1 0x0 KECCAK256 DUP2 SWAP1 SSTORE POP DUP1 DUP1 PUSH2 0x387 SWAP1 PUSH2 0x964 JUMP JUMPDEST SWAP2 POP POP PUSH2 0x2ED JUMP JUMPDEST POP PUSH1 0x0 PUSH8 0xFFFFFFFFFFFFFFFF DUP2 GT ISZERO PUSH2 0x3AB JUMPI PUSH2 0x3AA PUSH2 0x9AC JUMP JUMPDEST JUMPDEST PUSH1 0x40 MLOAD SWAP1 DUP1 DUP3 MSTORE DUP1 PUSH1 0x20 MUL PUSH1 0x20 ADD DUP3 ADD PUSH1 0x40 MSTORE DUP1 ISZERO PUSH2 0x3D9 JUMPI DUP2 PUSH1 0x20 ADD PUSH1 0x20 DUP3 MUL DUP1 CALLDATASIZE DUP4 CALLDATACOPY DUP1 DUP3 ADD SWAP2 POP POP SWAP1 POP JUMPDEST POP PUSH1 0x0 SWAP1 DUP1 MLOAD SWAP1 PUSH1 0x20 ADD SWAP1 PUSH2 0x3EF SWAP3 SWAP2 SWAP1 PUSH2 0x6C2 JUMP JUMPDEST POP PUSH1 0x0 CALLER PUSH20 0xFFFFFFFFFFFFFFFFFFFFFFFFFFFFFFFFFFFFFFFF AND SELFBALANCE PUSH1 0x40 MLOAD PUSH2 0x416 SWAP1 PUSH2 0xA0C JUMP JUMPDEST PUSH1 0x0 PUSH1 0x40 MLOAD DUP1 DUP4 SUB DUP2 DUP6 DUP8 GAS CALL SWAP3 POP POP POP RETURNDATASIZE DUP1 PUSH1 0x0 DUP2 EQ PUSH2 0x453 JUMPI PUSH1 0x40 MLOAD SWAP2 POP PUSH1 0x1F NOT PUSH1 0x3F RETURNDATASIZE ADD AND DUP3 ADD PUSH1 0x40 MSTORE RETURNDATASIZE DUP3 MSTORE RETURNDATASIZE PUSH1 0x0 PUSH1 0x20 DUP5 ADD RETURNDATACOPY PUSH2 0x458 JUMP JUMPDEST PUSH1 0x60 SWAP2 POP JUMPDEST POP POP SWAP1 POP DUP1 PUSH2 0x49C JUMPI PUSH1 0x40 MLOAD PUSH32 0x8C379A000000000000000000000000000000000000000000000000000000000 DUP2 MSTORE PUSH1 0x4 ADD PUSH2 0x493 SWAP1 PUSH2 0xA7E JUMP JUMPDEST PUSH1 0x40 MLOAD DUP1 SWAP2 SUB SWAP1 REVERT JUMPDEST POP JUMP JUMPDEST PUSH9 0x2B5E3AF16B1880000 DUP2 JUMP JUMPDEST PUSH9 0x2B5E3AF16B1880000 PUSH2 0x4BF CALLVALUE PUSH2 0x5DF JUMP JUMPDEST LT ISZERO PUSH2 0x500 JUMPI PUSH1 0x40 MLOAD PUSH32 0x8C379A000000000000000000000000000000000000000000000000000000000 DUP2 MSTORE PUSH1 0x4 ADD PUSH2 0x4F7 SWAP1 PUSH2 0xAEA JUMP JUMPDEST PUSH1 0x40 MLOAD DUP1 SWAP2 SUB SWAP1 REVERT JUMPDEST PUSH1 0x0 CALLER SWAP1 DUP1 PUSH1 0x1 DUP2 SLOAD ADD DUP1 DUP3 SSTORE DUP1 SWAP2 POP POP PUSH1 0x1 SWAP1 SUB SWAP1 PUSH1 0x0 MSTORE PUSH1 0x20 PUSH1 0x0 KECCAK256 ADD PUSH1 0x0 SWAP1 SWAP2 SWAP1 SWAP2 SWAP1 SWAP2 PUSH2 0x100 EXP DUP2 SLOAD DUP2 PUSH20 0xFFFFFFFFFFFFFFFFFFFFFFFFFFFFFFFFFFFFFFFF MUL NOT AND SWAP1 DUP4 PUSH20 0xFFFFFFFFFFFFFFFFFFFFFFFFFFFFFFFFFFFFFFFF AND MUL OR SWAP1 SSTORE POP CALLVALUE PUSH1 0x1 PUSH1 0x0 CALLER PUSH20 0xFFFFFFFFFFFFFFFFFFFFFFFFFFFFFFFFFFFFFFFF AND PUSH20 0xFFFFFFFFFFFFFFFFFFFFFFFFFFFFFFFFFFFFFFFF AND DUP2 MSTORE PUSH1 0x20 ADD SWAP1 DUP2 MSTORE PUSH1 0x20 ADD PUSH1 0x0 KECCAK256 PUSH1 0x0 DUP3 DUP3 SLOAD PUSH2 0x5B2 SWAP2 SWAP1 PUSH2 0x7A2 JUMP JUMPDEST SWAP3 POP POP DUP2 SWAP1 SSTORE POP JUMP JUMPDEST PUSH32 0x0 DUP2 JUMP JUMPDEST PUSH1 0x0 DUP1 PUSH2 0x5EA PUSH2 0x619 JUMP JUMPDEST SWAP1 POP PUSH1 0x0 PUSH8 0xDE0B6B3A7640000 DUP5 DUP4 PUSH2 0x603 SWAP2 SWAP1 PUSH2 0xB0A JUMP JUMPDEST PUSH2 0x60D SWAP2 SWAP1 PUSH2 0xB93 JUMP JUMPDEST SWAP1 POP DUP1 SWAP3 POP POP POP SWAP2 SWAP1 POP JUMP JUMPDEST PUSH1 0x0 DUP1 PUSH20 0x8A753747A1FA494EC906CE90E9F37563A8AF630E SWAP1 POP PUSH1 0x0 DUP2 PUSH20 0xFFFFFFFFFFFFFFFFFFFFFFFFFFFFFFFFFFFFFFFF AND PUSH4 0xFEAF968C PUSH1 0x40 MLOAD DUP2 PUSH4 0xFFFFFFFF AND PUSH1 0xE0 SHL DUP2 MSTORE PUSH1 0x4 ADD PUSH1 0xA0 PUSH1 0x40 MLOAD DUP1 DUP4 SUB DUP2 DUP7 GAS STATICCALL ISZERO DUP1 ISZERO PUSH2 0x680 JUMPI RETURNDATASIZE PUSH1 0x0 DUP1 RETURNDATACOPY RETURNDATASIZE PUSH1 0x0 REVERT JUMPDEST POP POP POP POP PUSH1 0x40 MLOAD RETURNDATASIZE PUSH1 0x1F NOT PUSH1 0x1F DUP3 ADD AND DUP3 ADD DUP1 PUSH1 0x40 MSTORE POP DUP2 ADD SWAP1 PUSH2 0x6A4 SWAP2 SWAP1 PUSH2 0xC51 JUMP JUMPDEST POP POP POP SWAP2 POP POP PUSH5 0x2540BE400 DUP2 PUSH2 0x6BB SWAP2 SWAP1 PUSH2 0xCCC JUMP JUMPDEST SWAP3 POP POP POP SWAP1 JUMP JUMPDEST DUP3 DUP1 SLOAD DUP3 DUP3 SSTORE SWAP1 PUSH1 0x0 MSTORE PUSH1 0x20 PUSH1 0x0 KECCAK256 SWAP1 DUP2 ADD SWAP3 DUP3 ISZERO PUSH2 0x73B JUMPI SWAP2 PUSH1 0x20 MUL DUP3 ADD JUMPDEST DUP3 DUP2 GT ISZERO PUSH2 0x73A JUMPI DUP3 MLOAD DUP3 PUSH1 0x0 PUSH2 0x100 EXP DUP2 SLOAD DUP2 PUSH20 0xFFFFFFFFFFFFFFFFFFFFFFFFFFFFFFFFFFFFFFFF MUL NOT AND SWAP1 DUP4 PUSH20 0xFFFFFFFFFFFFFFFFFFFFFFFFFFFFFFFFFFFFFFFF AND MUL OR SWAP1 SSTORE POP SWAP2 PUSH1 0x20 ADD SWAP2 SWAP1 PUSH1 0x1 ADD SWAP1 PUSH2 0x6E2 JUMP JUMPDEST JUMPDEST POP SWAP1 POP PUSH2 0x748 SWAP2 SWAP1 PUSH2 0x74C JUMP JUMPDEST POP SWAP1 JUMP JUMPDEST JUMPDEST DUP1 DUP3 GT ISZERO PUSH2 0x765 JUMPI PUSH1 0x0 DUP2 PUSH1 0x0 SWAP1 SSTORE POP PUSH1 0x1 ADD PUSH2 0x74D JUMP JUMPDEST POP SWAP1 JUMP JUMPDEST PUSH1 0x0 DUP2 SWAP1 POP SWAP2 SWAP1 POP JUMP JUMPDEST PUSH32 0x4E487B7100000000000000000000000000000000000000000000000000000000 PUSH1 0x0 MSTORE PUSH1 0x11 PUSH1 0x4 MSTORE PUSH1 0x24 PUSH1 0x0 REVERT JUMPDEST PUSH1 0x0 PUSH2 0x7AD DUP3 PUSH2 0x769 JUMP JUMPDEST SWAP2 POP PUSH2 0x7B8 DUP4 PUSH2 0x769 JUMP JUMPDEST SWAP3 POP DUP3 PUSH32 0xFFFFFFFFFFFFFFFFFFFFFFFFFFFFFFFFFFFFFFFFFFFFFFFFFFFFFFFFFFFFFFFF SUB DUP3 GT ISZERO PUSH2 0x7ED JUMPI PUSH2 0x7EC PUSH2 0x773 JUMP JUMPDEST JUMPDEST DUP3 DUP3 ADD SWAP1 POP SWAP3 SWAP2 POP POP JUMP JUMPDEST PUSH1 0x0 DUP1 REVERT JUMPDEST PUSH2 0x806 DUP2 PUSH2 0x769 JUMP JUMPDEST DUP2 EQ PUSH2 0x811 JUMPI PUSH1 0x0 DUP1 REVERT JUMPDEST POP JUMP JUMPDEST PUSH1 0x0 DUP2 CALLDATALOAD SWAP1 POP PUSH2 0x823 DUP2 PUSH2 0x7FD JUMP JUMPDEST SWAP3 SWAP2 POP POP JUMP JUMPDEST PUSH1 0x0 PUSH1 0x20 DUP3 DUP5 SUB SLT ISZERO PUSH2 0x83F JUMPI PUSH2 0x83E PUSH2 0x7F8 JUMP JUMPDEST JUMPDEST PUSH1 0x0 PUSH2 0x84D DUP5 DUP3 DUP6 ADD PUSH2 0x814 JUMP JUMPDEST SWAP2 POP POP SWAP3 SWAP2 POP POP JUMP JUMPDEST PUSH1 0x0 PUSH20 0xFFFFFFFFFFFFFFFFFFFFFFFFFFFFFFFFFFFFFFFF DUP3 AND SWAP1 POP SWAP2 SWAP1 POP JUMP JUMPDEST PUSH1 0x0 PUSH2 0x881 DUP3 PUSH2 0x856 JUMP JUMPDEST SWAP1 POP SWAP2 SWAP1 POP JUMP JUMPDEST PUSH2 0x891 DUP2 PUSH2 0x876 JUMP JUMPDEST DUP3 MSTORE POP POP JUMP JUMPDEST PUSH1 0x0 PUSH1 0x20 DUP3 ADD SWAP1 POP PUSH2 0x8AC PUSH1 0x0 DUP4 ADD DUP5 PUSH2 0x888 JUMP JUMPDEST SWAP3 SWAP2 POP POP JUMP JUMPDEST PUSH2 0x8BB DUP2 PUSH2 0x876 JUMP JUMPDEST DUP2 EQ PUSH2 0x8C6 JUMPI PUSH1 0x0 DUP1 REVERT JUMPDEST POP JUMP JUMPDEST PUSH1 0x0 DUP2 CALLDATALOAD SWAP1 POP PUSH2 0x8D8 DUP2 PUSH2 0x8B2 JUMP JUMPDEST SWAP3 SWAP2 POP POP JUMP JUMPDEST PUSH1 0x0 PUSH1 0x20 DUP3 DUP5 SUB SLT ISZERO PUSH2 0x8F4 JUMPI PUSH2 0x8F3 PUSH2 0x7F8 JUMP JUMPDEST JUMPDEST PUSH1 0x0 PUSH2 0x902 DUP5 DUP3 DUP6 ADD PUSH2 0x8C9 JUMP JUMPDEST SWAP2 POP POP SWAP3 SWAP2 POP POP JUMP JUMPDEST PUSH2 0x914 DUP2 PUSH2 0x769 JUMP JUMPDEST DUP3 MSTORE POP POP JUMP JUMPDEST PUSH1 0x0 PUSH1 0x20 DUP3 ADD SWAP1 POP PUSH2 0x92F PUSH1 0x0 DUP4 ADD DUP5 PUSH2 0x90B JUMP JUMPDEST SWAP3 SWAP2 POP POP JUMP JUMPDEST PUSH32 0x4E487B7100000000000000000000000000000000000000000000000000000000 PUSH1 0x0 MSTORE PUSH1 0x32 PUSH1 0x4 MSTORE PUSH1 0x24 PUSH1 0x0 REVERT JUMPDEST PUSH1 0x0 PUSH2 0x96F DUP3 PUSH2 0x769 JUMP JUMPDEST SWAP2 POP PUSH32 0xFFFFFFFFFFFFFFFFFFFFFFFFFFFFFFFFFFFFFFFFFFFFFFFFFFFFFFFFFFFFFFFF DUP3 SUB PUSH2 0x9A1 JUMPI PUSH2 0x9A0 PUSH2 0x773 JUMP JUMPDEST JUMPDEST PUSH1 0x1 DUP3 ADD SWAP1 POP SWAP2 SWAP1 POP JUMP JUMPDEST PUSH32 0x4E487B7100000000000000000000000000000000000000000000000000000000 PUSH1 0x0 MSTORE PUSH1 0x41 PUSH1 0x4 MSTORE PUSH1 0x24 PUSH1 0x0 REVERT JUMPDEST PUSH1 0x0 DUP2 SWAP1 POP SWAP3 SWAP2 POP POP JUMP JUMPDEST POP JUMP JUMPDEST PUSH1 0x0 PUSH2 0x9F6 PUSH1 0x0 DUP4 PUSH2 0x9DB JUMP JUMPDEST SWAP2 POP PUSH2 0xA01 DUP3 PUSH2 0x9E6 JUMP JUMPDEST PUSH1 0x0 DUP3 ADD SWAP1 POP SWAP2 SWAP1 POP JUMP JUMPDEST PUSH1 0x0 PUSH2 0xA17 DUP3 PUSH2 0x9E9 JUMP JUMPDEST SWAP2 POP DUP2 SWAP1 POP SWAP2 SWAP1 POP JUMP JUMPDEST PUSH1 0x0 DUP3 DUP3 MSTORE PUSH1 0x20 DUP3 ADD SWAP1 POP SWAP3 SWAP2 POP POP JUMP JUMPDEST PUSH32 0x63616C6C204661696C6564000000000000000000000000000000000000000000 PUSH1 0x0 DUP3 ADD MSTORE POP JUMP JUMPDEST PUSH1 0x0 PUSH2 0xA68 PUSH1 0xB DUP4 PUSH2 0xA21 JUMP JUMPDEST SWAP2 POP PUSH2 0xA73 DUP3 PUSH2 0xA32 JUMP JUMPDEST PUSH1 0x20 DUP3 ADD SWAP1 POP SWAP2 SWAP1 POP JUMP JUMPDEST PUSH1 0x0 PUSH1 0x20 DUP3 ADD SWAP1 POP DUP2 DUP2 SUB PUSH1 0x0 DUP4 ADD MSTORE PUSH2 0xA97 DUP2 PUSH2 0xA5B JUMP JUMPDEST SWAP1 POP SWAP2 SWAP1 POP JUMP JUMPDEST PUSH32 0x4469646E27742073656E6420656E6F7567680000000000000000000000000000 PUSH1 0x0 DUP3 ADD MSTORE POP JUMP JUMPDEST PUSH1 0x0 PUSH2 0xAD4 PUSH1 0x12 DUP4 PUSH2 0xA21 JUMP JUMPDEST SWAP2 POP PUSH2 0xADF DUP3 PUSH2 0xA9E JUMP JUMPDEST PUSH1 0x20 DUP3 ADD SWAP1 POP SWAP2 SWAP1 POP JUMP JUMPDEST PUSH1 0x0 PUSH1 0x20 DUP3 ADD SWAP1 POP DUP2 DUP2 SUB PUSH1 0x0 DUP4 ADD MSTORE PUSH2 0xB03 DUP2 PUSH2 0xAC7 JUMP JUMPDEST SWAP1 POP SWAP2 SWAP1 POP JUMP JUMPDEST PUSH1 0x0 PUSH2 0xB15 DUP3 PUSH2 0x769 JUMP JUMPDEST SWAP2 POP PUSH2 0xB20 DUP4 PUSH2 0x769 JUMP JUMPDEST SWAP3 POP DUP2 PUSH32 0xFFFFFFFFFFFFFFFFFFFFFFFFFFFFFFFFFFFFFFFFFFFFFFFFFFFFFFFFFFFFFFFF DIV DUP4 GT DUP3 ISZERO ISZERO AND ISZERO PUSH2 0xB59 JUMPI PUSH2 0xB58 PUSH2 0x773 JUMP JUMPDEST JUMPDEST DUP3 DUP3 MUL SWAP1 POP SWAP3 SWAP2 POP POP JUMP JUMPDEST PUSH32 0x4E487B7100000000000000000000000000000000000000000000000000000000 PUSH1 0x0 MSTORE PUSH1 0x12 PUSH1 0x4 MSTORE PUSH1 0x24 PUSH1 0x0 REVERT JUMPDEST PUSH1 0x0 PUSH2 0xB9E DUP3 PUSH2 0x769 JUMP JUMPDEST SWAP2 POP PUSH2 0xBA9 DUP4 PUSH2 0x769 JUMP JUMPDEST SWAP3 POP DUP3 PUSH2 0xBB9 JUMPI PUSH2 0xBB8 PUSH2 0xB64 JUMP JUMPDEST JUMPDEST DUP3 DUP3 DIV SWAP1 POP SWAP3 SWAP2 POP POP JUMP JUMPDEST PUSH1 0x0 PUSH10 0xFFFFFFFFFFFFFFFFFFFF DUP3 AND SWAP1 POP SWAP2 SWAP1 POP JUMP JUMPDEST PUSH2 0xBE3 DUP2 PUSH2 0xBC4 JUMP JUMPDEST DUP2 EQ PUSH2 0xBEE JUMPI PUSH1 0x0 DUP1 REVERT JUMPDEST POP JUMP JUMPDEST PUSH1 0x0 DUP2 MLOAD SWAP1 POP PUSH2 0xC00 DUP2 PUSH2 0xBDA JUMP JUMPDEST SWAP3 SWAP2 POP POP JUMP JUMPDEST PUSH1 0x0 DUP2 SWAP1 POP SWAP2 SWAP1 POP JUMP JUMPDEST PUSH2 0xC19 DUP2 PUSH2 0xC06 JUMP JUMPDEST DUP2 EQ PUSH2 0xC24 JUMPI PUSH1 0x0 DUP1 REVERT JUMPDEST POP JUMP JUMPDEST PUSH1 0x0 DUP2 MLOAD SWAP1 POP PUSH2 0xC36 DUP2 PUSH2 0xC10 JUMP JUMPDEST SWAP3 SWAP2 POP POP JUMP JUMPDEST PUSH1 0x0 DUP2 MLOAD SWAP1 POP PUSH2 0xC4B DUP2 PUSH2 0x7FD JUMP JUMPDEST SWAP3 SWAP2 POP POP JUMP JUMPDEST PUSH1 0x0 DUP1 PUSH1 0x0 DUP1 PUSH1 0x0 PUSH1 0xA0 DUP7 DUP9 SUB SLT ISZERO PUSH2 0xC6D JUMPI PUSH2 0xC6C PUSH2 0x7F8 JUMP JUMPDEST JUMPDEST PUSH1 0x0 PUSH2 0xC7B DUP9 DUP3 DUP10 ADD PUSH2 0xBF1 JUMP JUMPDEST SWAP6 POP POP PUSH1 0x20 PUSH2 0xC8C DUP9 DUP3 DUP10 ADD PUSH2 0xC27 JUMP JUMPDEST SWAP5 POP POP PUSH1 0x40 PUSH2 0xC9D DUP9 DUP3 DUP10 ADD PUSH2 0xC3C JUMP JUMPDEST SWAP4 POP POP PUSH1 0x60 PUSH2 0xCAE DUP9 DUP3 DUP10 ADD PUSH2 0xC3C JUMP JUMPDEST SWAP3 POP POP PUSH1 0x80 PUSH2 0xCBF DUP9 DUP3 DUP10 ADD PUSH2 0xBF1 JUMP JUMPDEST SWAP2 POP POP SWAP3 SWAP6 POP SWAP3 SWAP6 SWAP1 SWAP4 POP JUMP JUMPDEST PUSH1 0x0 PUSH2 0xCD7 DUP3 PUSH2 0xC06 JUMP JUMPDEST SWAP2 POP PUSH2 0xCE2 DUP4 PUSH2 0xC06 JUMP JUMPDEST SWAP3 POP DUP3 PUSH32 0x7FFFFFFFFFFFFFFFFFFFFFFFFFFFFFFFFFFFFFFFFFFFFFFFFFFFFFFFFFFFFFFF DIV DUP3 GT PUSH1 0x0 DUP5 SGT PUSH1 0x0 DUP5 SGT AND AND ISZERO PUSH2 0xD21 JUMPI PUSH2 0xD20 PUSH2 0x773 JUMP JUMPDEST JUMPDEST DUP2 PUSH32 0x8000000000000000000000000000000000000000000000000000000000000000 SDIV DUP4 SLT PUSH1 0x0 DUP5 SLT PUSH1 0x0 DUP5 SGT AND AND ISZERO PUSH2 0xD5E JUMPI PUSH2 0xD5D PUSH2 0x773 JUMP JUMPDEST JUMPDEST DUP3 PUSH32 0x8000000000000000000000000000000000000000000000000000000000000000 SDIV DUP3 SLT PUSH1 0x0 DUP5 SGT PUSH1 0x0 DUP5 SLT AND AND ISZERO PUSH2 0xD9B JUMPI PUSH2 0xD9A PUSH2 0x773 JUMP JUMPDEST JUMPDEST DUP3 PUSH32 0x7FFFFFFFFFFFFFFFFFFFFFFFFFFFFFFFFFFFFFFFFFFFFFFFFFFFFFFFFFFFFFFF SDIV DUP3 SLT PUSH1 0x0 DUP5 SLT PUSH1 0x0 DUP5 SLT AND AND ISZERO PUSH2 0xDD8 JUMPI PUSH2 0xDD7 PUSH2 0x773 JUMP JUMPDEST JUMPDEST DUP3 DUP3 MUL SWAP1 POP SWAP3 SWAP2 POP POP JUMP INVALID LOG2 PUSH5 0x6970667358 0x22 SLT KECCAK256 0xC5 0xDD 0xBF ISZERO EXTCODECOPY SWAP16 NUMBER 0xE1 0xE0 CALLDATASIZE PUSH12 0x3AB687399F834042D253E8A2 0x5C CALL 0xFB 0xB1 0xD2 SELFDESTRUCT LOG0 0xE 0x5D PUSH5 0x736F6C6343 STOP ADDMOD 0xE STOP CALLER "
				},
				"gasEstimates": {
					"creation": {
						"codeDepositCost": "721800",
						"executionCost": "infinite",
						"totalCost": "infinite"
					},
					"external": {
						"Fund()": "infinite",
						"MINIMUM_FUND()": "373",
						"Withdraw()": "infinite",
						"addreddToAmountFeed(address)": "2814",
						"fundersList(uint256)": "4934",
						"i_owner()": "infinite"
					}
				},
				"methodIdentifiers": {
					"Fund()": "6ce1417e",
					"MINIMUM_FUND()": "5deb0172",
					"Withdraw()": "57ea89b6",
					"addreddToAmountFeed(address)": "520fcd61",
					"fundersList(uint256)": "47ff62c6",
					"i_owner()": "dba6335f"
				}
			},
			"storageLayout": {
				"storage": [
					{
						"astId": 61,
						"contract": "contracts/FundMe.sol:FundMe",
						"label": "fundersList",
						"offset": 0,
						"slot": "0",
						"type": "t_array(t_address)dyn_storage"
					},
					{
						"astId": 65,
						"contract": "contracts/FundMe.sol:FundMe",
						"label": "addreddToAmountFeed",
						"offset": 0,
						"slot": "1",
						"type": "t_mapping(t_address,t_uint256)"
					}
				],
				"types": {
					"t_address": {
						"encoding": "inplace",
						"label": "address",
						"numberOfBytes": "20"
					},
					"t_array(t_address)dyn_storage": {
						"base": "t_address",
						"encoding": "dynamic_array",
						"label": "address[]",
						"numberOfBytes": "32"
					},
					"t_mapping(t_address,t_uint256)": {
						"encoding": "mapping",
						"key": "t_address",
						"label": "mapping(address => uint256)",
						"numberOfBytes": "32",
						"value": "t_uint256"
					},
					"t_uint256": {
						"encoding": "inplace",
						"label": "uint256",
						"numberOfBytes": "32"
					}
				}
			},
			"userdoc": {
				"kind": "user",
				"methods": {},
				"version": 1
			}
		}
	}
}