{
	"contracts/FundMe.sol": {
		"FundMe": {
			"abi": [
				{
					"inputs": [],
					"stateMutability": "nonpayable",
					"type": "constructor"
				},
				{
					"inputs": [],
					"name": "NotAuthorized",
					"type": "error"
				},
				{
					"stateMutability": "payable",
					"type": "fallback"
				},
				{
					"inputs": [],
					"name": "Fund",
					"outputs": [],
					"stateMutability": "payable",
					"type": "function"
				},
				{
					"inputs": [],
					"name": "MINIMUM_FUND",
					"outputs": [
						{
							"internalType": "uint256",
							"name": "",
							"type": "uint256"
						}
					],
					"stateMutability": "view",
					"type": "function"
				},
				{
					"inputs": [],
					"name": "Withdraw",
					"outputs": [],
					"stateMutability": "nonpayable",
					"type": "function"
				},
				{
					"inputs": [
						{
							"internalType": "address",
							"name": "",
							"type": "address"
						}
					],
					"name": "addreddToAmountFeed",
					"outputs": [
						{
							"internalType": "uint256",
							"name": "",
							"type": "uint256"
						}
					],
					"stateMutability": "view",
					"type": "function"
				},
				{
					"inputs": [
						{
							"internalType": "uint256",
							"name": "",
							"type": "uint256"
						}
					],
					"name": "fundersList",
					"outputs": [
						{
							"internalType": "address",
							"name": "",
							"type": "address"
						}
					],
					"stateMutability": "view",
					"type": "function"
				},
				{
					"inputs": [],
					"name": "i_owner",
					"outputs": [
						{
							"internalType": "address",
							"name": "",
							"type": "address"
						}
					],
					"stateMutability": "view",
					"type": "function"
				},
				{
					"stateMutability": "payable",
					"type": "receive"
				}
			],
			"devdoc": {
				"kind": "dev",
				"methods": {},
				"version": 1
			},
			"evm": {
				"assembly": "    /* \"contracts/FundMe.sol\":120:1592  contract FundMe{... */\n  mstore(0x40, 0xa0)\n    /* \"contracts/FundMe.sol\":411:463  constructor(){... */\n  callvalue\n  dup1\n  iszero\n  tag_1\n  jumpi\n  0x00\n  dup1\n  revert\ntag_1:\n  pop\n    /* \"contracts/FundMe.sol\":445:455  msg.sender */\n  caller\n    /* \"contracts/FundMe.sol\":435:455  i_owner = msg.sender */\n  0xffffffffffffffffffffffffffffffffffffffff\n  and\n  0x80\n  dup2\n  0xffffffffffffffffffffffffffffffffffffffff\n  and\n  dup2\n  mstore\n  pop\n  pop\n    /* \"contracts/FundMe.sol\":120:1592  contract FundMe{... */\n  mload(0x80)\n  codecopy(0x00, dataOffset(sub_0), dataSize(sub_0))\n  0x00\n  assignImmutable(\"0xeafa31dc210956fc0884ec5660eba9405197797219cbbda41b6aaf7118c651d8\")\n  return(0x00, dataSize(sub_0))\nstop\n\nsub_0: assembly {\n        /* \"contracts/FundMe.sol\":120:1592  contract FundMe{... */\n      mstore(0x40, 0x80)\n      jumpi(tag_1, lt(calldatasize, 0x04))\n      shr(0xe0, calldataload(0x00))\n      dup1\n      0x47ff62c6\n      eq\n      tag_3\n      jumpi\n      dup1\n      0x520fcd61\n      eq\n      tag_4\n      jumpi\n      dup1\n      0x57ea89b6\n      eq\n      tag_5\n      jumpi\n      dup1\n      0x5deb0172\n      eq\n      tag_6\n      jumpi\n      dup1\n      0x6ce1417e\n      eq\n      tag_7\n      jumpi\n      dup1\n      0xdba6335f\n      eq\n      tag_8\n      jumpi\n      jump(tag_2)\n    tag_1:\n      jumpi(tag_2, calldatasize)\n        /* \"contracts/FundMe.sol\":1335:1341  Fund() */\n      tag_11\n        /* \"contracts/FundMe.sol\":1335:1339  Fund */\n      tag_12\n        /* \"contracts/FundMe.sol\":1335:1341  Fund() */\n      jump\t// in\n    tag_11:\n        /* \"contracts/FundMe.sol\":120:1592  contract FundMe{... */\n      stop\n    tag_2:\n        /* \"contracts/FundMe.sol\":1395:1401  Fund() */\n      tag_15\n        /* \"contracts/FundMe.sol\":1395:1399  Fund */\n      tag_12\n        /* \"contracts/FundMe.sol\":1395:1401  Fund() */\n      jump\t// in\n    tag_15:\n        /* \"contracts/FundMe.sol\":120:1592  contract FundMe{... */\n      stop\n        /* \"contracts/FundMe.sol\":263:291  address[] public fundersList */\n    tag_3:\n      callvalue\n      dup1\n      iszero\n      tag_16\n      jumpi\n      0x00\n      dup1\n      revert\n    tag_16:\n      pop\n      tag_17\n      0x04\n      dup1\n      calldatasize\n      sub\n      dup2\n      add\n      swap1\n      tag_18\n      swap2\n      swap1\n      tag_19\n      jump\t// in\n    tag_18:\n      tag_20\n      jump\t// in\n    tag_17:\n      mload(0x40)\n      tag_21\n      swap2\n      swap1\n      tag_22\n      jump\t// in\n    tag_21:\n      mload(0x40)\n      dup1\n      swap2\n      sub\n      swap1\n      return\n        /* \"contracts/FundMe.sol\":298:352  mapping(address => uint256) public addreddToAmountFeed */\n    tag_4:\n      callvalue\n      dup1\n      iszero\n      tag_23\n      jumpi\n      0x00\n      dup1\n      revert\n    tag_23:\n      pop\n      tag_24\n      0x04\n      dup1\n      calldatasize\n      sub\n      dup2\n      add\n      swap1\n      tag_25\n      swap2\n      swap1\n      tag_26\n      jump\t// in\n    tag_25:\n      tag_27\n      jump\t// in\n    tag_24:\n      mload(0x40)\n      tag_28\n      swap2\n      swap1\n      tag_29\n      jump\t// in\n    tag_28:\n      mload(0x40)\n      dup1\n      swap2\n      sub\n      swap1\n      return\n        /* \"contracts/FundMe.sol\":698:1290  function Withdraw() public onlyOwner{... */\n    tag_5:\n      callvalue\n      dup1\n      iszero\n      tag_30\n      jumpi\n      0x00\n      dup1\n      revert\n    tag_30:\n      pop\n      tag_31\n      tag_32\n      jump\t// in\n    tag_31:\n      stop\n        /* \"contracts/FundMe.sol\":207:256  uint256 public constant  MINIMUM_FUND = 50 * 1e18 */\n    tag_6:\n      callvalue\n      dup1\n      iszero\n      tag_33\n      jumpi\n      0x00\n      dup1\n      revert\n    tag_33:\n      pop\n      tag_34\n      tag_35\n      jump\t// in\n    tag_34:\n      mload(0x40)\n      tag_36\n      swap2\n      swap1\n      tag_29\n      jump\t// in\n    tag_36:\n      mload(0x40)\n      dup1\n      swap2\n      sub\n      swap1\n      return\n        /* \"contracts/FundMe.sol\":471:690  function Fund() public payable{... */\n    tag_7:\n      tag_37\n      tag_12\n      jump\t// in\n    tag_37:\n      stop\n        /* \"contracts/FundMe.sol\":370:402  address public immutable i_owner */\n    tag_8:\n      callvalue\n      dup1\n      iszero\n      tag_38\n      jumpi\n      0x00\n      dup1\n      revert\n    tag_38:\n      pop\n      tag_39\n      tag_40\n      jump\t// in\n    tag_39:\n      mload(0x40)\n      tag_41\n      swap2\n      swap1\n      tag_22\n      jump\t// in\n    tag_41:\n      mload(0x40)\n      dup1\n      swap2\n      sub\n      swap1\n      return\n        /* \"contracts/FundMe.sol\":471:690  function Fund() public payable{... */\n    tag_12:\n        /* \"contracts/FundMe.sol\":247:256  50 * 1e18 */\n      0x02b5e3af16b1880000\n        /* \"contracts/FundMe.sol\":520:549  msg.value.GetConversionRate() */\n      tag_43\n        /* \"contracts/FundMe.sol\":520:529  msg.value */\n      callvalue\n        /* \"contracts/FundMe.sol\":520:547  msg.value.GetConversionRate */\n      tag_44\n        /* \"contracts/FundMe.sol\":520:549  msg.value.GetConversionRate() */\n      jump\t// in\n    tag_43:\n        /* \"contracts/FundMe.sol\":520:565  msg.value.GetConversionRate() >= MINIMUM_FUND */\n      lt\n      iszero\n        /* \"contracts/FundMe.sol\":512:588  require(msg.value.GetConversionRate() >= MINIMUM_FUND, \"Didn't send enough\") */\n      tag_45\n      jumpi\n      mload(0x40)\n      0x08c379a000000000000000000000000000000000000000000000000000000000\n      dup2\n      mstore\n      0x04\n      add\n      tag_46\n      swap1\n      tag_47\n      jump\t// in\n    tag_46:\n      mload(0x40)\n      dup1\n      swap2\n      sub\n      swap1\n      revert\n    tag_45:\n        /* \"contracts/FundMe.sol\":599:610  fundersList */\n      0x00\n        /* \"contracts/FundMe.sol\":616:626  msg.sender */\n      caller\n        /* \"contracts/FundMe.sol\":599:627  fundersList.push(msg.sender) */\n      swap1\n      dup1\n      0x01\n      dup2\n      sload\n      add\n      dup1\n      dup3\n      sstore\n      dup1\n      swap2\n      pop\n      pop\n      0x01\n      swap1\n      sub\n      swap1\n      0x00\n      mstore\n      keccak256(0x00, 0x20)\n      add\n      0x00\n      swap1\n      swap2\n      swap1\n      swap2\n      swap1\n      swap2\n      0x0100\n      exp\n      dup2\n      sload\n      dup2\n      0xffffffffffffffffffffffffffffffffffffffff\n      mul\n      not\n      and\n      swap1\n      dup4\n      0xffffffffffffffffffffffffffffffffffffffff\n      and\n      mul\n      or\n      swap1\n      sstore\n      pop\n        /* \"contracts/FundMe.sol\":673:682  msg.value */\n      callvalue\n        /* \"contracts/FundMe.sol\":638:657  addreddToAmountFeed */\n      0x01\n        /* \"contracts/FundMe.sol\":638:669  addreddToAmountFeed[msg.sender] */\n      0x00\n        /* \"contracts/FundMe.sol\":658:668  msg.sender */\n      caller\n        /* \"contracts/FundMe.sol\":638:669  addreddToAmountFeed[msg.sender] */\n      0xffffffffffffffffffffffffffffffffffffffff\n      and\n      0xffffffffffffffffffffffffffffffffffffffff\n      and\n      dup2\n      mstore\n      0x20\n      add\n      swap1\n      dup2\n      mstore\n      0x20\n      add\n      0x00\n      keccak256\n      0x00\n        /* \"contracts/FundMe.sol\":638:682  addreddToAmountFeed[msg.sender] += msg.value */\n      dup3\n      dup3\n      sload\n      tag_49\n      swap2\n      swap1\n      tag_50\n      jump\t// in\n    tag_49:\n      swap3\n      pop\n      pop\n      dup2\n      swap1\n      sstore\n      pop\n        /* \"contracts/FundMe.sol\":471:690  function Fund() public payable{... */\n      jump\t// out\n        /* \"contracts/FundMe.sol\":263:291  address[] public fundersList */\n    tag_20:\n      0x00\n      dup2\n      dup2\n      sload\n      dup2\n      lt\n      tag_51\n      jumpi\n      0x00\n      dup1\n      revert\n    tag_51:\n      swap1\n      0x00\n      mstore\n      keccak256(0x00, 0x20)\n      add\n      0x00\n      swap2\n      pop\n      sload\n      swap1\n      0x0100\n      exp\n      swap1\n      div\n      0xffffffffffffffffffffffffffffffffffffffff\n      and\n      dup2\n      jump\t// out\n        /* \"contracts/FundMe.sol\":298:352  mapping(address => uint256) public addreddToAmountFeed */\n    tag_27:\n      mstore(0x20, 0x01)\n      dup1\n      0x00\n      mstore\n      keccak256(0x00, 0x40)\n      0x00\n      swap2\n      pop\n      swap1\n      pop\n      sload\n      dup2\n      jump\t// out\n        /* \"contracts/FundMe.sol\":698:1290  function Withdraw() public onlyOwner{... */\n    tag_32:\n        /* \"contracts/FundMe.sol\":1534:1541  i_owner */\n      immutable(\"0xeafa31dc210956fc0884ec5660eba9405197797219cbbda41b6aaf7118c651d8\")\n        /* \"contracts/FundMe.sol\":1520:1541  msg.sender != i_owner */\n      0xffffffffffffffffffffffffffffffffffffffff\n      and\n        /* \"contracts/FundMe.sol\":1520:1530  msg.sender */\n      caller\n        /* \"contracts/FundMe.sol\":1520:1541  msg.sender != i_owner */\n      0xffffffffffffffffffffffffffffffffffffffff\n      and\n      eq\n        /* \"contracts/FundMe.sol\":1517:1570  if(msg.sender != i_owner) { revert NotAuthorized(); } */\n      tag_54\n      jumpi\n        /* \"contracts/FundMe.sol\":1552:1567  NotAuthorized() */\n      mload(0x40)\n      0xea8e4eb500000000000000000000000000000000000000000000000000000000\n      dup2\n      mstore\n      0x04\n      add\n      mload(0x40)\n      dup1\n      swap2\n      sub\n      swap1\n      revert\n        /* \"contracts/FundMe.sol\":1517:1570  if(msg.sender != i_owner) { revert NotAuthorized(); } */\n    tag_54:\n        /* \"contracts/FundMe.sol\":749:758  uint256 i */\n      0x00\n        /* \"contracts/FundMe.sol\":745:855  for(uint256 i =0; i<fundersList.length; i++){... */\n    tag_56:\n        /* \"contracts/FundMe.sol\":765:776  fundersList */\n      0x00\n        /* \"contracts/FundMe.sol\":765:783  fundersList.length */\n      dup1\n      sload\n      swap1\n      pop\n        /* \"contracts/FundMe.sol\":763:764  i */\n      dup2\n        /* \"contracts/FundMe.sol\":763:783  i<fundersList.length */\n      lt\n        /* \"contracts/FundMe.sol\":745:855  for(uint256 i =0; i<fundersList.length; i++){... */\n      iszero\n      tag_57\n      jumpi\n        /* \"contracts/FundMe.sol\":842:843  0 */\n      0x00\n        /* \"contracts/FundMe.sol\":804:823  addreddToAmountFeed */\n      0x01\n        /* \"contracts/FundMe.sol\":804:839  addreddToAmountFeed[fundersList[i]] */\n      0x00\n        /* \"contracts/FundMe.sol\":824:835  fundersList */\n      dup1\n        /* \"contracts/FundMe.sol\":836:837  i */\n      dup5\n        /* \"contracts/FundMe.sol\":824:838  fundersList[i] */\n      dup2\n      sload\n      dup2\n      lt\n      tag_59\n      jumpi\n      tag_60\n      tag_61\n      jump\t// in\n    tag_60:\n    tag_59:\n      swap1\n      0x00\n      mstore\n      keccak256(0x00, 0x20)\n      add\n      0x00\n      swap1\n      sload\n      swap1\n      0x0100\n      exp\n      swap1\n      div\n      0xffffffffffffffffffffffffffffffffffffffff\n      and\n        /* \"contracts/FundMe.sol\":804:839  addreddToAmountFeed[fundersList[i]] */\n      0xffffffffffffffffffffffffffffffffffffffff\n      and\n      0xffffffffffffffffffffffffffffffffffffffff\n      and\n      dup2\n      mstore\n      0x20\n      add\n      swap1\n      dup2\n      mstore\n      0x20\n      add\n      0x00\n      keccak256\n        /* \"contracts/FundMe.sol\":804:843  addreddToAmountFeed[fundersList[i]] = 0 */\n      dup2\n      swap1\n      sstore\n      pop\n        /* \"contracts/FundMe.sol\":785:788  i++ */\n      dup1\n      dup1\n      tag_63\n      swap1\n      tag_64\n      jump\t// in\n    tag_63:\n      swap2\n      pop\n      pop\n        /* \"contracts/FundMe.sol\":745:855  for(uint256 i =0; i<fundersList.length; i++){... */\n      jump(tag_56)\n    tag_57:\n      pop\n        /* \"contracts/FundMe.sol\":893:894  0 */\n      0x00\n        /* \"contracts/FundMe.sol\":879:895  new address[](0) */\n      0xffffffffffffffff\n      dup2\n      gt\n      iszero\n      tag_65\n      jumpi\n      tag_66\n      tag_67\n      jump\t// in\n    tag_66:\n    tag_65:\n      mload(0x40)\n      swap1\n      dup1\n      dup3\n      mstore\n      dup1\n      0x20\n      mul\n      0x20\n      add\n      dup3\n      add\n      0x40\n      mstore\n      dup1\n      iszero\n      tag_68\n      jumpi\n      dup2\n      0x20\n      add\n      0x20\n      dup3\n      mul\n      dup1\n      calldatasize\n      dup4\n      calldatacopy\n      dup1\n      dup3\n      add\n      swap2\n      pop\n      pop\n      swap1\n      pop\n    tag_68:\n      pop\n        /* \"contracts/FundMe.sol\":865:876  fundersList */\n      0x00\n        /* \"contracts/FundMe.sol\":865:895  fundersList = new address[](0) */\n      swap1\n      dup1\n      mload\n      swap1\n      0x20\n      add\n      swap1\n      tag_69\n      swap3\n      swap2\n      swap1\n      tag_70\n      jump\t// in\n    tag_69:\n      pop\n        /* \"contracts/FundMe.sol\":1157:1173  bool callSuccess */\n      0x00\n        /* \"contracts/FundMe.sol\":1186:1196  msg.sender */\n      caller\n        /* \"contracts/FundMe.sol\":1178:1202  payable(msg.sender).call */\n      0xffffffffffffffffffffffffffffffffffffffff\n      and\n        /* \"contracts/FundMe.sol\":1210:1231  address(this).balance */\n      selfbalance\n        /* \"contracts/FundMe.sol\":1178:1236  payable(msg.sender).call{value: address(this).balance}(\"\") */\n      mload(0x40)\n      tag_71\n      swap1\n      tag_72\n      jump\t// in\n    tag_71:\n      0x00\n      mload(0x40)\n      dup1\n      dup4\n      sub\n      dup2\n      dup6\n      dup8\n      gas\n      call\n      swap3\n      pop\n      pop\n      pop\n      returndatasize\n      dup1\n      0x00\n      dup2\n      eq\n      tag_75\n      jumpi\n      mload(0x40)\n      swap2\n      pop\n      and(add(returndatasize, 0x3f), not(0x1f))\n      dup3\n      add\n      0x40\n      mstore\n      returndatasize\n      dup3\n      mstore\n      returndatasize\n      0x00\n      0x20\n      dup5\n      add\n      returndatacopy\n      jump(tag_74)\n    tag_75:\n      0x60\n      swap2\n      pop\n    tag_74:\n      pop\n        /* \"contracts/FundMe.sol\":1156:1236  (bool callSuccess,) = payable(msg.sender).call{value: address(this).balance}(\"\") */\n      pop\n      swap1\n      pop\n        /* \"contracts/FundMe.sol\":1255:1266  callSuccess */\n      dup1\n        /* \"contracts/FundMe.sol\":1247:1282  require(callSuccess, \"call Failed\") */\n      tag_76\n      jumpi\n      mload(0x40)\n      0x08c379a000000000000000000000000000000000000000000000000000000000\n      dup2\n      mstore\n      0x04\n      add\n      tag_77\n      swap1\n      tag_78\n      jump\t// in\n    tag_77:\n      mload(0x40)\n      dup1\n      swap2\n      sub\n      swap1\n      revert\n    tag_76:\n        /* \"contracts/FundMe.sol\":734:1290  {... */\n      pop\n        /* \"contracts/FundMe.sol\":698:1290  function Withdraw() public onlyOwner{... */\n      jump\t// out\n        /* \"contracts/FundMe.sol\":207:256  uint256 public constant  MINIMUM_FUND = 50 * 1e18 */\n    tag_35:\n        /* \"contracts/FundMe.sol\":247:256  50 * 1e18 */\n      0x02b5e3af16b1880000\n        /* \"contracts/FundMe.sol\":207:256  uint256 public constant  MINIMUM_FUND = 50 * 1e18 */\n      dup2\n      jump\t// out\n        /* \"contracts/FundMe.sol\":370:402  address public immutable i_owner */\n    tag_40:\n      immutable(\"0xeafa31dc210956fc0884ec5660eba9405197797219cbbda41b6aaf7118c651d8\")\n      dup2\n      jump\t// out\n        /* \"contracts/PriceConverter.sol\":661:886  function GetConversionRate(uint256 _etherAmount) internal view returns(uint256){... */\n    tag_44:\n        /* \"contracts/PriceConverter.sol\":732:739  uint256 */\n      0x00\n        /* \"contracts/PriceConverter.sol\":751:767  uint256 ethPrice */\n      dup1\n        /* \"contracts/PriceConverter.sol\":770:780  GetPrice() */\n      tag_80\n        /* \"contracts/PriceConverter.sol\":770:778  GetPrice */\n      tag_81\n        /* \"contracts/PriceConverter.sol\":770:780  GetPrice() */\n      jump\t// in\n    tag_80:\n        /* \"contracts/PriceConverter.sol\":751:780  uint256 ethPrice = GetPrice() */\n      swap1\n      pop\n        /* \"contracts/PriceConverter.sol\":791:813  uint256 ethAmountInUsd */\n      0x00\n        /* \"contracts/PriceConverter.sol\":842:846  1e18 */\n      0x0de0b6b3a7640000\n        /* \"contracts/PriceConverter.sol\":828:840  _etherAmount */\n      dup5\n        /* \"contracts/PriceConverter.sol\":817:825  ethPrice */\n      dup4\n        /* \"contracts/PriceConverter.sol\":817:840  ethPrice * _etherAmount */\n      tag_82\n      swap2\n      swap1\n      tag_83\n      jump\t// in\n    tag_82:\n        /* \"contracts/PriceConverter.sol\":816:846  (ethPrice * _etherAmount)/1e18 */\n      tag_84\n      swap2\n      swap1\n      tag_85\n      jump\t// in\n    tag_84:\n        /* \"contracts/PriceConverter.sol\":791:846  uint256 ethAmountInUsd = (ethPrice * _etherAmount)/1e18 */\n      swap1\n      pop\n        /* \"contracts/PriceConverter.sol\":864:878  ethAmountInUsd */\n      dup1\n        /* \"contracts/PriceConverter.sol\":857:878  return ethAmountInUsd */\n      swap3\n      pop\n      pop\n      pop\n        /* \"contracts/PriceConverter.sol\":661:886  function GetConversionRate(uint256 _etherAmount) internal view returns(uint256){... */\n      swap2\n      swap1\n      pop\n      jump\t// out\n        /* \"contracts/PriceConverter.sol\":170:438  function GetPrice() internal view returns(uint256){... */\n    tag_81:\n        /* \"contracts/PriceConverter.sol\":212:219  uint256 */\n      0x00\n        /* \"contracts/PriceConverter.sol\":231:262  AggregatorV3Interface priceFeed */\n      dup1\n        /* \"contracts/PriceConverter.sol\":287:329  0x8A753747A1Fa494EC906cE90E9f37563A8AF630e */\n      0x8a753747a1fa494ec906ce90e9f37563a8af630e\n        /* \"contracts/PriceConverter.sol\":231:330  AggregatorV3Interface priceFeed = AggregatorV3Interface(0x8A753747A1Fa494EC906cE90E9f37563A8AF630e) */\n      swap1\n      pop\n        /* \"contracts/PriceConverter.sol\":344:356  int256 price */\n      0x00\n        /* \"contracts/PriceConverter.sol\":363:372  priceFeed */\n      dup2\n        /* \"contracts/PriceConverter.sol\":363:388  priceFeed.latestRoundData */\n      0xffffffffffffffffffffffffffffffffffffffff\n      and\n      0xfeaf968c\n        /* \"contracts/PriceConverter.sol\":363:390  priceFeed.latestRoundData() */\n      mload(0x40)\n      dup2\n      0xffffffff\n      and\n      0xe0\n      shl\n      dup2\n      mstore\n      0x04\n      add\n      0xa0\n      mload(0x40)\n      dup1\n      dup4\n      sub\n      dup2\n      dup7\n      gas\n      staticcall\n      iszero\n      dup1\n      iszero\n      tag_88\n      jumpi\n      returndatasize\n      0x00\n      dup1\n      returndatacopy\n      revert(0x00, returndatasize)\n    tag_88:\n      pop\n      pop\n      pop\n      pop\n      mload(0x40)\n      returndatasize\n      not(0x1f)\n      0x1f\n      dup3\n      add\n      and\n      dup3\n      add\n      dup1\n      0x40\n      mstore\n      pop\n      dup2\n      add\n      swap1\n      tag_89\n      swap2\n      swap1\n      tag_90\n      jump\t// in\n    tag_89:\n        /* \"contracts/PriceConverter.sol\":342:390  (,int256 price,,,) = priceFeed.latestRoundData() */\n      pop\n      pop\n      pop\n      swap2\n      pop\n      pop\n        /* \"contracts/PriceConverter.sol\":425:429  1e10 */\n      0x02540be400\n        /* \"contracts/PriceConverter.sol\":417:422  price */\n      dup2\n        /* \"contracts/PriceConverter.sol\":417:429  price * 1e10 */\n      tag_91\n      swap2\n      swap1\n      tag_92\n      jump\t// in\n    tag_91:\n        /* \"contracts/PriceConverter.sol\":402:430  return uint256(price * 1e10) */\n      swap3\n      pop\n      pop\n      pop\n        /* \"contracts/PriceConverter.sol\":170:438  function GetPrice() internal view returns(uint256){... */\n      swap1\n      jump\t// out\n    tag_70:\n      dup3\n      dup1\n      sload\n      dup3\n      dup3\n      sstore\n      swap1\n      0x00\n      mstore\n      keccak256(0x00, 0x20)\n      swap1\n      dup2\n      add\n      swap3\n      dup3\n      iszero\n      tag_93\n      jumpi\n      swap2\n      0x20\n      mul\n      dup3\n      add\n    tag_94:\n      dup3\n      dup2\n      gt\n      iszero\n      tag_95\n      jumpi\n      dup3\n      mload\n      dup3\n      exp(0x0100, 0x00)\n      dup2\n      sload\n      dup2\n      0xffffffffffffffffffffffffffffffffffffffff\n      mul\n      not\n      and\n      swap1\n      dup4\n      0xffffffffffffffffffffffffffffffffffffffff\n      and\n      mul\n      or\n      swap1\n      sstore\n      pop\n      swap2\n      0x20\n      add\n      swap2\n      swap1\n      0x01\n      add\n      swap1\n      jump(tag_94)\n    tag_95:\n    tag_93:\n      pop\n      swap1\n      pop\n      tag_96\n      swap2\n      swap1\n      tag_97\n      jump\t// in\n    tag_96:\n      pop\n      swap1\n      jump\t// out\n    tag_97:\n    tag_98:\n      dup1\n      dup3\n      gt\n      iszero\n      tag_99\n      jumpi\n      0x00\n      dup2\n      0x00\n      swap1\n      sstore\n      pop\n      0x01\n      add\n      jump(tag_98)\n    tag_99:\n      pop\n      swap1\n      jump\t// out\n        /* \"#utility.yul\":88:205   */\n    tag_101:\n        /* \"#utility.yul\":197:198   */\n      0x00\n        /* \"#utility.yul\":194:195   */\n      dup1\n        /* \"#utility.yul\":187:199   */\n      revert\n        /* \"#utility.yul\":334:411   */\n    tag_103:\n        /* \"#utility.yul\":371:378   */\n      0x00\n        /* \"#utility.yul\":400:405   */\n      dup2\n        /* \"#utility.yul\":389:405   */\n      swap1\n      pop\n        /* \"#utility.yul\":334:411   */\n      swap2\n      swap1\n      pop\n      jump\t// out\n        /* \"#utility.yul\":417:539   */\n    tag_104:\n        /* \"#utility.yul\":490:514   */\n      tag_135\n        /* \"#utility.yul\":508:513   */\n      dup2\n        /* \"#utility.yul\":490:514   */\n      tag_103\n      jump\t// in\n    tag_135:\n        /* \"#utility.yul\":483:488   */\n      dup2\n        /* \"#utility.yul\":480:515   */\n      eq\n        /* \"#utility.yul\":470:533   */\n      tag_136\n      jumpi\n        /* \"#utility.yul\":529:530   */\n      0x00\n        /* \"#utility.yul\":526:527   */\n      dup1\n        /* \"#utility.yul\":519:531   */\n      revert\n        /* \"#utility.yul\":470:533   */\n    tag_136:\n        /* \"#utility.yul\":417:539   */\n      pop\n      jump\t// out\n        /* \"#utility.yul\":545:684   */\n    tag_105:\n        /* \"#utility.yul\":591:596   */\n      0x00\n        /* \"#utility.yul\":629:635   */\n      dup2\n        /* \"#utility.yul\":616:636   */\n      calldataload\n        /* \"#utility.yul\":607:636   */\n      swap1\n      pop\n        /* \"#utility.yul\":645:678   */\n      tag_138\n        /* \"#utility.yul\":672:677   */\n      dup2\n        /* \"#utility.yul\":645:678   */\n      tag_104\n      jump\t// in\n    tag_138:\n        /* \"#utility.yul\":545:684   */\n      swap3\n      swap2\n      pop\n      pop\n      jump\t// out\n        /* \"#utility.yul\":690:1019   */\n    tag_19:\n        /* \"#utility.yul\":749:755   */\n      0x00\n        /* \"#utility.yul\":798:800   */\n      0x20\n        /* \"#utility.yul\":786:795   */\n      dup3\n        /* \"#utility.yul\":777:784   */\n      dup5\n        /* \"#utility.yul\":773:796   */\n      sub\n        /* \"#utility.yul\":769:801   */\n      slt\n        /* \"#utility.yul\":766:885   */\n      iszero\n      tag_140\n      jumpi\n        /* \"#utility.yul\":804:883   */\n      tag_141\n      tag_101\n      jump\t// in\n    tag_141:\n        /* \"#utility.yul\":766:885   */\n    tag_140:\n        /* \"#utility.yul\":924:925   */\n      0x00\n        /* \"#utility.yul\":949:1002   */\n      tag_142\n        /* \"#utility.yul\":994:1001   */\n      dup5\n        /* \"#utility.yul\":985:991   */\n      dup3\n        /* \"#utility.yul\":974:983   */\n      dup6\n        /* \"#utility.yul\":970:992   */\n      add\n        /* \"#utility.yul\":949:1002   */\n      tag_105\n      jump\t// in\n    tag_142:\n        /* \"#utility.yul\":939:1002   */\n      swap2\n      pop\n        /* \"#utility.yul\":895:1012   */\n      pop\n        /* \"#utility.yul\":690:1019   */\n      swap3\n      swap2\n      pop\n      pop\n      jump\t// out\n        /* \"#utility.yul\":1025:1151   */\n    tag_106:\n        /* \"#utility.yul\":1062:1069   */\n      0x00\n        /* \"#utility.yul\":1102:1144   */\n      0xffffffffffffffffffffffffffffffffffffffff\n        /* \"#utility.yul\":1095:1100   */\n      dup3\n        /* \"#utility.yul\":1091:1145   */\n      and\n        /* \"#utility.yul\":1080:1145   */\n      swap1\n      pop\n        /* \"#utility.yul\":1025:1151   */\n      swap2\n      swap1\n      pop\n      jump\t// out\n        /* \"#utility.yul\":1157:1253   */\n    tag_107:\n        /* \"#utility.yul\":1194:1201   */\n      0x00\n        /* \"#utility.yul\":1223:1247   */\n      tag_145\n        /* \"#utility.yul\":1241:1246   */\n      dup3\n        /* \"#utility.yul\":1223:1247   */\n      tag_106\n      jump\t// in\n    tag_145:\n        /* \"#utility.yul\":1212:1247   */\n      swap1\n      pop\n        /* \"#utility.yul\":1157:1253   */\n      swap2\n      swap1\n      pop\n      jump\t// out\n        /* \"#utility.yul\":1259:1377   */\n    tag_108:\n        /* \"#utility.yul\":1346:1370   */\n      tag_147\n        /* \"#utility.yul\":1364:1369   */\n      dup2\n        /* \"#utility.yul\":1346:1370   */\n      tag_107\n      jump\t// in\n    tag_147:\n        /* \"#utility.yul\":1341:1344   */\n      dup3\n        /* \"#utility.yul\":1334:1371   */\n      mstore\n        /* \"#utility.yul\":1259:1377   */\n      pop\n      pop\n      jump\t// out\n        /* \"#utility.yul\":1383:1605   */\n    tag_22:\n        /* \"#utility.yul\":1476:1480   */\n      0x00\n        /* \"#utility.yul\":1514:1516   */\n      0x20\n        /* \"#utility.yul\":1503:1512   */\n      dup3\n        /* \"#utility.yul\":1499:1517   */\n      add\n        /* \"#utility.yul\":1491:1517   */\n      swap1\n      pop\n        /* \"#utility.yul\":1527:1598   */\n      tag_149\n        /* \"#utility.yul\":1595:1596   */\n      0x00\n        /* \"#utility.yul\":1584:1593   */\n      dup4\n        /* \"#utility.yul\":1580:1597   */\n      add\n        /* \"#utility.yul\":1571:1577   */\n      dup5\n        /* \"#utility.yul\":1527:1598   */\n      tag_108\n      jump\t// in\n    tag_149:\n        /* \"#utility.yul\":1383:1605   */\n      swap3\n      swap2\n      pop\n      pop\n      jump\t// out\n        /* \"#utility.yul\":1611:1733   */\n    tag_109:\n        /* \"#utility.yul\":1684:1708   */\n      tag_151\n        /* \"#utility.yul\":1702:1707   */\n      dup2\n        /* \"#utility.yul\":1684:1708   */\n      tag_107\n      jump\t// in\n    tag_151:\n        /* \"#utility.yul\":1677:1682   */\n      dup2\n        /* \"#utility.yul\":1674:1709   */\n      eq\n        /* \"#utility.yul\":1664:1727   */\n      tag_152\n      jumpi\n        /* \"#utility.yul\":1723:1724   */\n      0x00\n        /* \"#utility.yul\":1720:1721   */\n      dup1\n        /* \"#utility.yul\":1713:1725   */\n      revert\n        /* \"#utility.yul\":1664:1727   */\n    tag_152:\n        /* \"#utility.yul\":1611:1733   */\n      pop\n      jump\t// out\n        /* \"#utility.yul\":1739:1878   */\n    tag_110:\n        /* \"#utility.yul\":1785:1790   */\n      0x00\n        /* \"#utility.yul\":1823:1829   */\n      dup2\n        /* \"#utility.yul\":1810:1830   */\n      calldataload\n        /* \"#utility.yul\":1801:1830   */\n      swap1\n      pop\n        /* \"#utility.yul\":1839:1872   */\n      tag_154\n        /* \"#utility.yul\":1866:1871   */\n      dup2\n        /* \"#utility.yul\":1839:1872   */\n      tag_109\n      jump\t// in\n    tag_154:\n        /* \"#utility.yul\":1739:1878   */\n      swap3\n      swap2\n      pop\n      pop\n      jump\t// out\n        /* \"#utility.yul\":1884:2213   */\n    tag_26:\n        /* \"#utility.yul\":1943:1949   */\n      0x00\n        /* \"#utility.yul\":1992:1994   */\n      0x20\n        /* \"#utility.yul\":1980:1989   */\n      dup3\n        /* \"#utility.yul\":1971:1978   */\n      dup5\n        /* \"#utility.yul\":1967:1990   */\n      sub\n        /* \"#utility.yul\":1963:1995   */\n      slt\n        /* \"#utility.yul\":1960:2079   */\n      iszero\n      tag_156\n      jumpi\n        /* \"#utility.yul\":1998:2077   */\n      tag_157\n      tag_101\n      jump\t// in\n    tag_157:\n        /* \"#utility.yul\":1960:2079   */\n    tag_156:\n        /* \"#utility.yul\":2118:2119   */\n      0x00\n        /* \"#utility.yul\":2143:2196   */\n      tag_158\n        /* \"#utility.yul\":2188:2195   */\n      dup5\n        /* \"#utility.yul\":2179:2185   */\n      dup3\n        /* \"#utility.yul\":2168:2177   */\n      dup6\n        /* \"#utility.yul\":2164:2186   */\n      add\n        /* \"#utility.yul\":2143:2196   */\n      tag_110\n      jump\t// in\n    tag_158:\n        /* \"#utility.yul\":2133:2196   */\n      swap2\n      pop\n        /* \"#utility.yul\":2089:2206   */\n      pop\n        /* \"#utility.yul\":1884:2213   */\n      swap3\n      swap2\n      pop\n      pop\n      jump\t// out\n        /* \"#utility.yul\":2219:2337   */\n    tag_111:\n        /* \"#utility.yul\":2306:2330   */\n      tag_160\n        /* \"#utility.yul\":2324:2329   */\n      dup2\n        /* \"#utility.yul\":2306:2330   */\n      tag_103\n      jump\t// in\n    tag_160:\n        /* \"#utility.yul\":2301:2304   */\n      dup3\n        /* \"#utility.yul\":2294:2331   */\n      mstore\n        /* \"#utility.yul\":2219:2337   */\n      pop\n      pop\n      jump\t// out\n        /* \"#utility.yul\":2343:2565   */\n    tag_29:\n        /* \"#utility.yul\":2436:2440   */\n      0x00\n        /* \"#utility.yul\":2474:2476   */\n      0x20\n        /* \"#utility.yul\":2463:2472   */\n      dup3\n        /* \"#utility.yul\":2459:2477   */\n      add\n        /* \"#utility.yul\":2451:2477   */\n      swap1\n      pop\n        /* \"#utility.yul\":2487:2558   */\n      tag_162\n        /* \"#utility.yul\":2555:2556   */\n      0x00\n        /* \"#utility.yul\":2544:2553   */\n      dup4\n        /* \"#utility.yul\":2540:2557   */\n      add\n        /* \"#utility.yul\":2531:2537   */\n      dup5\n        /* \"#utility.yul\":2487:2558   */\n      tag_111\n      jump\t// in\n    tag_162:\n        /* \"#utility.yul\":2343:2565   */\n      swap3\n      swap2\n      pop\n      pop\n      jump\t// out\n        /* \"#utility.yul\":2571:2740   */\n    tag_112:\n        /* \"#utility.yul\":2655:2666   */\n      0x00\n        /* \"#utility.yul\":2689:2695   */\n      dup3\n        /* \"#utility.yul\":2684:2687   */\n      dup3\n        /* \"#utility.yul\":2677:2696   */\n      mstore\n        /* \"#utility.yul\":2729:2733   */\n      0x20\n        /* \"#utility.yul\":2724:2727   */\n      dup3\n        /* \"#utility.yul\":2720:2734   */\n      add\n        /* \"#utility.yul\":2705:2734   */\n      swap1\n      pop\n        /* \"#utility.yul\":2571:2740   */\n      swap3\n      swap2\n      pop\n      pop\n      jump\t// out\n        /* \"#utility.yul\":2746:2914   */\n    tag_113:\n        /* \"#utility.yul\":2886:2906   */\n      0x4469646e27742073656e6420656e6f7567680000000000000000000000000000\n        /* \"#utility.yul\":2882:2883   */\n      0x00\n        /* \"#utility.yul\":2874:2880   */\n      dup3\n        /* \"#utility.yul\":2870:2884   */\n      add\n        /* \"#utility.yul\":2863:2907   */\n      mstore\n        /* \"#utility.yul\":2746:2914   */\n      pop\n      jump\t// out\n        /* \"#utility.yul\":2920:3286   */\n    tag_114:\n        /* \"#utility.yul\":3062:3065   */\n      0x00\n        /* \"#utility.yul\":3083:3150   */\n      tag_166\n        /* \"#utility.yul\":3147:3149   */\n      0x12\n        /* \"#utility.yul\":3142:3145   */\n      dup4\n        /* \"#utility.yul\":3083:3150   */\n      tag_112\n      jump\t// in\n    tag_166:\n        /* \"#utility.yul\":3076:3150   */\n      swap2\n      pop\n        /* \"#utility.yul\":3159:3252   */\n      tag_167\n        /* \"#utility.yul\":3248:3251   */\n      dup3\n        /* \"#utility.yul\":3159:3252   */\n      tag_113\n      jump\t// in\n    tag_167:\n        /* \"#utility.yul\":3277:3279   */\n      0x20\n        /* \"#utility.yul\":3272:3275   */\n      dup3\n        /* \"#utility.yul\":3268:3280   */\n      add\n        /* \"#utility.yul\":3261:3280   */\n      swap1\n      pop\n        /* \"#utility.yul\":2920:3286   */\n      swap2\n      swap1\n      pop\n      jump\t// out\n        /* \"#utility.yul\":3292:3711   */\n    tag_47:\n        /* \"#utility.yul\":3458:3462   */\n      0x00\n        /* \"#utility.yul\":3496:3498   */\n      0x20\n        /* \"#utility.yul\":3485:3494   */\n      dup3\n        /* \"#utility.yul\":3481:3499   */\n      add\n        /* \"#utility.yul\":3473:3499   */\n      swap1\n      pop\n        /* \"#utility.yul\":3545:3554   */\n      dup2\n        /* \"#utility.yul\":3539:3543   */\n      dup2\n        /* \"#utility.yul\":3535:3555   */\n      sub\n        /* \"#utility.yul\":3531:3532   */\n      0x00\n        /* \"#utility.yul\":3520:3529   */\n      dup4\n        /* \"#utility.yul\":3516:3533   */\n      add\n        /* \"#utility.yul\":3509:3556   */\n      mstore\n        /* \"#utility.yul\":3573:3704   */\n      tag_169\n        /* \"#utility.yul\":3699:3703   */\n      dup2\n        /* \"#utility.yul\":3573:3704   */\n      tag_114\n      jump\t// in\n    tag_169:\n        /* \"#utility.yul\":3565:3704   */\n      swap1\n      pop\n        /* \"#utility.yul\":3292:3711   */\n      swap2\n      swap1\n      pop\n      jump\t// out\n        /* \"#utility.yul\":3717:3897   */\n    tag_115:\n        /* \"#utility.yul\":3765:3842   */\n      0x4e487b7100000000000000000000000000000000000000000000000000000000\n        /* \"#utility.yul\":3762:3763   */\n      0x00\n        /* \"#utility.yul\":3755:3843   */\n      mstore\n        /* \"#utility.yul\":3862:3866   */\n      0x11\n        /* \"#utility.yul\":3859:3860   */\n      0x04\n        /* \"#utility.yul\":3852:3867   */\n      mstore\n        /* \"#utility.yul\":3886:3890   */\n      0x24\n        /* \"#utility.yul\":3883:3884   */\n      0x00\n        /* \"#utility.yul\":3876:3891   */\n      revert\n        /* \"#utility.yul\":3903:4208   */\n    tag_50:\n        /* \"#utility.yul\":3943:3946   */\n      0x00\n        /* \"#utility.yul\":3962:3982   */\n      tag_172\n        /* \"#utility.yul\":3980:3981   */\n      dup3\n        /* \"#utility.yul\":3962:3982   */\n      tag_103\n      jump\t// in\n    tag_172:\n        /* \"#utility.yul\":3957:3982   */\n      swap2\n      pop\n        /* \"#utility.yul\":3996:4016   */\n      tag_173\n        /* \"#utility.yul\":4014:4015   */\n      dup4\n        /* \"#utility.yul\":3996:4016   */\n      tag_103\n      jump\t// in\n    tag_173:\n        /* \"#utility.yul\":3991:4016   */\n      swap3\n      pop\n        /* \"#utility.yul\":4150:4151   */\n      dup3\n        /* \"#utility.yul\":4082:4148   */\n      0xffffffffffffffffffffffffffffffffffffffffffffffffffffffffffffffff\n        /* \"#utility.yul\":4078:4152   */\n      sub\n        /* \"#utility.yul\":4075:4076   */\n      dup3\n        /* \"#utility.yul\":4072:4153   */\n      gt\n        /* \"#utility.yul\":4069:4176   */\n      iszero\n      tag_174\n      jumpi\n        /* \"#utility.yul\":4156:4174   */\n      tag_175\n      tag_115\n      jump\t// in\n    tag_175:\n        /* \"#utility.yul\":4069:4176   */\n    tag_174:\n        /* \"#utility.yul\":4200:4201   */\n      dup3\n        /* \"#utility.yul\":4197:4198   */\n      dup3\n        /* \"#utility.yul\":4193:4202   */\n      add\n        /* \"#utility.yul\":4186:4202   */\n      swap1\n      pop\n        /* \"#utility.yul\":3903:4208   */\n      swap3\n      swap2\n      pop\n      pop\n      jump\t// out\n        /* \"#utility.yul\":4214:4394   */\n    tag_61:\n        /* \"#utility.yul\":4262:4339   */\n      0x4e487b7100000000000000000000000000000000000000000000000000000000\n        /* \"#utility.yul\":4259:4260   */\n      0x00\n        /* \"#utility.yul\":4252:4340   */\n      mstore\n        /* \"#utility.yul\":4359:4363   */\n      0x32\n        /* \"#utility.yul\":4356:4357   */\n      0x04\n        /* \"#utility.yul\":4349:4364   */\n      mstore\n        /* \"#utility.yul\":4383:4387   */\n      0x24\n        /* \"#utility.yul\":4380:4381   */\n      0x00\n        /* \"#utility.yul\":4373:4388   */\n      revert\n        /* \"#utility.yul\":4400:4633   */\n    tag_64:\n        /* \"#utility.yul\":4439:4442   */\n      0x00\n        /* \"#utility.yul\":4462:4486   */\n      tag_178\n        /* \"#utility.yul\":4480:4485   */\n      dup3\n        /* \"#utility.yul\":4462:4486   */\n      tag_103\n      jump\t// in\n    tag_178:\n        /* \"#utility.yul\":4453:4486   */\n      swap2\n      pop\n        /* \"#utility.yul\":4508:4574   */\n      0xffffffffffffffffffffffffffffffffffffffffffffffffffffffffffffffff\n        /* \"#utility.yul\":4501:4506   */\n      dup3\n        /* \"#utility.yul\":4498:4575   */\n      sub\n        /* \"#utility.yul\":4495:4598   */\n      tag_179\n      jumpi\n        /* \"#utility.yul\":4578:4596   */\n      tag_180\n      tag_115\n      jump\t// in\n    tag_180:\n        /* \"#utility.yul\":4495:4598   */\n    tag_179:\n        /* \"#utility.yul\":4625:4626   */\n      0x01\n        /* \"#utility.yul\":4618:4623   */\n      dup3\n        /* \"#utility.yul\":4614:4627   */\n      add\n        /* \"#utility.yul\":4607:4627   */\n      swap1\n      pop\n        /* \"#utility.yul\":4400:4633   */\n      swap2\n      swap1\n      pop\n      jump\t// out\n        /* \"#utility.yul\":4639:4819   */\n    tag_67:\n        /* \"#utility.yul\":4687:4764   */\n      0x4e487b7100000000000000000000000000000000000000000000000000000000\n        /* \"#utility.yul\":4684:4685   */\n      0x00\n        /* \"#utility.yul\":4677:4765   */\n      mstore\n        /* \"#utility.yul\":4784:4788   */\n      0x41\n        /* \"#utility.yul\":4781:4782   */\n      0x04\n        /* \"#utility.yul\":4774:4789   */\n      mstore\n        /* \"#utility.yul\":4808:4812   */\n      0x24\n        /* \"#utility.yul\":4805:4806   */\n      0x00\n        /* \"#utility.yul\":4798:4813   */\n      revert\n        /* \"#utility.yul\":4825:4972   */\n    tag_116:\n        /* \"#utility.yul\":4926:4937   */\n      0x00\n        /* \"#utility.yul\":4963:4966   */\n      dup2\n        /* \"#utility.yul\":4948:4966   */\n      swap1\n      pop\n        /* \"#utility.yul\":4825:4972   */\n      swap3\n      swap2\n      pop\n      pop\n      jump\t// out\n        /* \"#utility.yul\":4978:5092   */\n    tag_117:\n      pop\n      jump\t// out\n        /* \"#utility.yul\":5098:5496   */\n    tag_118:\n        /* \"#utility.yul\":5257:5260   */\n      0x00\n        /* \"#utility.yul\":5278:5361   */\n      tag_185\n        /* \"#utility.yul\":5359:5360   */\n      0x00\n        /* \"#utility.yul\":5354:5357   */\n      dup4\n        /* \"#utility.yul\":5278:5361   */\n      tag_116\n      jump\t// in\n    tag_185:\n        /* \"#utility.yul\":5271:5361   */\n      swap2\n      pop\n        /* \"#utility.yul\":5370:5463   */\n      tag_186\n        /* \"#utility.yul\":5459:5462   */\n      dup3\n        /* \"#utility.yul\":5370:5463   */\n      tag_117\n      jump\t// in\n    tag_186:\n        /* \"#utility.yul\":5488:5489   */\n      0x00\n        /* \"#utility.yul\":5483:5486   */\n      dup3\n        /* \"#utility.yul\":5479:5490   */\n      add\n        /* \"#utility.yul\":5472:5490   */\n      swap1\n      pop\n        /* \"#utility.yul\":5098:5496   */\n      swap2\n      swap1\n      pop\n      jump\t// out\n        /* \"#utility.yul\":5502:5881   */\n    tag_72:\n        /* \"#utility.yul\":5686:5689   */\n      0x00\n        /* \"#utility.yul\":5708:5855   */\n      tag_188\n        /* \"#utility.yul\":5851:5854   */\n      dup3\n        /* \"#utility.yul\":5708:5855   */\n      tag_118\n      jump\t// in\n    tag_188:\n        /* \"#utility.yul\":5701:5855   */\n      swap2\n      pop\n        /* \"#utility.yul\":5872:5875   */\n      dup2\n        /* \"#utility.yul\":5865:5875   */\n      swap1\n      pop\n        /* \"#utility.yul\":5502:5881   */\n      swap2\n      swap1\n      pop\n      jump\t// out\n        /* \"#utility.yul\":5887:6048   */\n    tag_119:\n        /* \"#utility.yul\":6027:6040   */\n      0x63616c6c204661696c6564000000000000000000000000000000000000000000\n        /* \"#utility.yul\":6023:6024   */\n      0x00\n        /* \"#utility.yul\":6015:6021   */\n      dup3\n        /* \"#utility.yul\":6011:6025   */\n      add\n        /* \"#utility.yul\":6004:6041   */\n      mstore\n        /* \"#utility.yul\":5887:6048   */\n      pop\n      jump\t// out\n        /* \"#utility.yul\":6054:6420   */\n    tag_120:\n        /* \"#utility.yul\":6196:6199   */\n      0x00\n        /* \"#utility.yul\":6217:6284   */\n      tag_191\n        /* \"#utility.yul\":6281:6283   */\n      0x0b\n        /* \"#utility.yul\":6276:6279   */\n      dup4\n        /* \"#utility.yul\":6217:6284   */\n      tag_112\n      jump\t// in\n    tag_191:\n        /* \"#utility.yul\":6210:6284   */\n      swap2\n      pop\n        /* \"#utility.yul\":6293:6386   */\n      tag_192\n        /* \"#utility.yul\":6382:6385   */\n      dup3\n        /* \"#utility.yul\":6293:6386   */\n      tag_119\n      jump\t// in\n    tag_192:\n        /* \"#utility.yul\":6411:6413   */\n      0x20\n        /* \"#utility.yul\":6406:6409   */\n      dup3\n        /* \"#utility.yul\":6402:6414   */\n      add\n        /* \"#utility.yul\":6395:6414   */\n      swap1\n      pop\n        /* \"#utility.yul\":6054:6420   */\n      swap2\n      swap1\n      pop\n      jump\t// out\n        /* \"#utility.yul\":6426:6845   */\n    tag_78:\n        /* \"#utility.yul\":6592:6596   */\n      0x00\n        /* \"#utility.yul\":6630:6632   */\n      0x20\n        /* \"#utility.yul\":6619:6628   */\n      dup3\n        /* \"#utility.yul\":6615:6633   */\n      add\n        /* \"#utility.yul\":6607:6633   */\n      swap1\n      pop\n        /* \"#utility.yul\":6679:6688   */\n      dup2\n        /* \"#utility.yul\":6673:6677   */\n      dup2\n        /* \"#utility.yul\":6669:6689   */\n      sub\n        /* \"#utility.yul\":6665:6666   */\n      0x00\n        /* \"#utility.yul\":6654:6663   */\n      dup4\n        /* \"#utility.yul\":6650:6667   */\n      add\n        /* \"#utility.yul\":6643:6690   */\n      mstore\n        /* \"#utility.yul\":6707:6838   */\n      tag_194\n        /* \"#utility.yul\":6833:6837   */\n      dup2\n        /* \"#utility.yul\":6707:6838   */\n      tag_120\n      jump\t// in\n    tag_194:\n        /* \"#utility.yul\":6699:6838   */\n      swap1\n      pop\n        /* \"#utility.yul\":6426:6845   */\n      swap2\n      swap1\n      pop\n      jump\t// out\n        /* \"#utility.yul\":6851:7199   */\n    tag_83:\n        /* \"#utility.yul\":6891:6898   */\n      0x00\n        /* \"#utility.yul\":6914:6934   */\n      tag_196\n        /* \"#utility.yul\":6932:6933   */\n      dup3\n        /* \"#utility.yul\":6914:6934   */\n      tag_103\n      jump\t// in\n    tag_196:\n        /* \"#utility.yul\":6909:6934   */\n      swap2\n      pop\n        /* \"#utility.yul\":6948:6968   */\n      tag_197\n        /* \"#utility.yul\":6966:6967   */\n      dup4\n        /* \"#utility.yul\":6948:6968   */\n      tag_103\n      jump\t// in\n    tag_197:\n        /* \"#utility.yul\":6943:6968   */\n      swap3\n      pop\n        /* \"#utility.yul\":7136:7137   */\n      dup2\n        /* \"#utility.yul\":7068:7134   */\n      0xffffffffffffffffffffffffffffffffffffffffffffffffffffffffffffffff\n        /* \"#utility.yul\":7064:7138   */\n      div\n        /* \"#utility.yul\":7061:7062   */\n      dup4\n        /* \"#utility.yul\":7058:7139   */\n      gt\n        /* \"#utility.yul\":7053:7054   */\n      dup3\n        /* \"#utility.yul\":7046:7055   */\n      iszero\n        /* \"#utility.yul\":7039:7056   */\n      iszero\n        /* \"#utility.yul\":7035:7140   */\n      and\n        /* \"#utility.yul\":7032:7163   */\n      iszero\n      tag_198\n      jumpi\n        /* \"#utility.yul\":7143:7161   */\n      tag_199\n      tag_115\n      jump\t// in\n    tag_199:\n        /* \"#utility.yul\":7032:7163   */\n    tag_198:\n        /* \"#utility.yul\":7191:7192   */\n      dup3\n        /* \"#utility.yul\":7188:7189   */\n      dup3\n        /* \"#utility.yul\":7184:7193   */\n      mul\n        /* \"#utility.yul\":7173:7193   */\n      swap1\n      pop\n        /* \"#utility.yul\":6851:7199   */\n      swap3\n      swap2\n      pop\n      pop\n      jump\t// out\n        /* \"#utility.yul\":7205:7385   */\n    tag_121:\n        /* \"#utility.yul\":7253:7330   */\n      0x4e487b7100000000000000000000000000000000000000000000000000000000\n        /* \"#utility.yul\":7250:7251   */\n      0x00\n        /* \"#utility.yul\":7243:7331   */\n      mstore\n        /* \"#utility.yul\":7350:7354   */\n      0x12\n        /* \"#utility.yul\":7347:7348   */\n      0x04\n        /* \"#utility.yul\":7340:7355   */\n      mstore\n        /* \"#utility.yul\":7374:7378   */\n      0x24\n        /* \"#utility.yul\":7371:7372   */\n      0x00\n        /* \"#utility.yul\":7364:7379   */\n      revert\n        /* \"#utility.yul\":7391:7576   */\n    tag_85:\n        /* \"#utility.yul\":7431:7432   */\n      0x00\n        /* \"#utility.yul\":7448:7468   */\n      tag_202\n        /* \"#utility.yul\":7466:7467   */\n      dup3\n        /* \"#utility.yul\":7448:7468   */\n      tag_103\n      jump\t// in\n    tag_202:\n        /* \"#utility.yul\":7443:7468   */\n      swap2\n      pop\n        /* \"#utility.yul\":7482:7502   */\n      tag_203\n        /* \"#utility.yul\":7500:7501   */\n      dup4\n        /* \"#utility.yul\":7482:7502   */\n      tag_103\n      jump\t// in\n    tag_203:\n        /* \"#utility.yul\":7477:7502   */\n      swap3\n      pop\n        /* \"#utility.yul\":7521:7522   */\n      dup3\n        /* \"#utility.yul\":7511:7546   */\n      tag_204\n      jumpi\n        /* \"#utility.yul\":7526:7544   */\n      tag_205\n      tag_121\n      jump\t// in\n    tag_205:\n        /* \"#utility.yul\":7511:7546   */\n    tag_204:\n        /* \"#utility.yul\":7568:7569   */\n      dup3\n        /* \"#utility.yul\":7565:7566   */\n      dup3\n        /* \"#utility.yul\":7561:7570   */\n      div\n        /* \"#utility.yul\":7556:7570   */\n      swap1\n      pop\n        /* \"#utility.yul\":7391:7576   */\n      swap3\n      swap2\n      pop\n      pop\n      jump\t// out\n        /* \"#utility.yul\":7582:7687   */\n    tag_122:\n        /* \"#utility.yul\":7618:7625   */\n      0x00\n        /* \"#utility.yul\":7658:7680   */\n      0xffffffffffffffffffff\n        /* \"#utility.yul\":7651:7656   */\n      dup3\n        /* \"#utility.yul\":7647:7681   */\n      and\n        /* \"#utility.yul\":7636:7681   */\n      swap1\n      pop\n        /* \"#utility.yul\":7582:7687   */\n      swap2\n      swap1\n      pop\n      jump\t// out\n        /* \"#utility.yul\":7693:7813   */\n    tag_123:\n        /* \"#utility.yul\":7765:7788   */\n      tag_208\n        /* \"#utility.yul\":7782:7787   */\n      dup2\n        /* \"#utility.yul\":7765:7788   */\n      tag_122\n      jump\t// in\n    tag_208:\n        /* \"#utility.yul\":7758:7763   */\n      dup2\n        /* \"#utility.yul\":7755:7789   */\n      eq\n        /* \"#utility.yul\":7745:7807   */\n      tag_209\n      jumpi\n        /* \"#utility.yul\":7803:7804   */\n      0x00\n        /* \"#utility.yul\":7800:7801   */\n      dup1\n        /* \"#utility.yul\":7793:7805   */\n      revert\n        /* \"#utility.yul\":7745:7807   */\n    tag_209:\n        /* \"#utility.yul\":7693:7813   */\n      pop\n      jump\t// out\n        /* \"#utility.yul\":7819:7960   */\n    tag_124:\n        /* \"#utility.yul\":7875:7880   */\n      0x00\n        /* \"#utility.yul\":7906:7912   */\n      dup2\n        /* \"#utility.yul\":7900:7913   */\n      mload\n        /* \"#utility.yul\":7891:7913   */\n      swap1\n      pop\n        /* \"#utility.yul\":7922:7954   */\n      tag_211\n        /* \"#utility.yul\":7948:7953   */\n      dup2\n        /* \"#utility.yul\":7922:7954   */\n      tag_123\n      jump\t// in\n    tag_211:\n        /* \"#utility.yul\":7819:7960   */\n      swap3\n      swap2\n      pop\n      pop\n      jump\t// out\n        /* \"#utility.yul\":7966:8042   */\n    tag_125:\n        /* \"#utility.yul\":8002:8009   */\n      0x00\n        /* \"#utility.yul\":8031:8036   */\n      dup2\n        /* \"#utility.yul\":8020:8036   */\n      swap1\n      pop\n        /* \"#utility.yul\":7966:8042   */\n      swap2\n      swap1\n      pop\n      jump\t// out\n        /* \"#utility.yul\":8048:8168   */\n    tag_126:\n        /* \"#utility.yul\":8120:8143   */\n      tag_214\n        /* \"#utility.yul\":8137:8142   */\n      dup2\n        /* \"#utility.yul\":8120:8143   */\n      tag_125\n      jump\t// in\n    tag_214:\n        /* \"#utility.yul\":8113:8118   */\n      dup2\n        /* \"#utility.yul\":8110:8144   */\n      eq\n        /* \"#utility.yul\":8100:8162   */\n      tag_215\n      jumpi\n        /* \"#utility.yul\":8158:8159   */\n      0x00\n        /* \"#utility.yul\":8155:8156   */\n      dup1\n        /* \"#utility.yul\":8148:8160   */\n      revert\n        /* \"#utility.yul\":8100:8162   */\n    tag_215:\n        /* \"#utility.yul\":8048:8168   */\n      pop\n      jump\t// out\n        /* \"#utility.yul\":8174:8315   */\n    tag_127:\n        /* \"#utility.yul\":8230:8235   */\n      0x00\n        /* \"#utility.yul\":8261:8267   */\n      dup2\n        /* \"#utility.yul\":8255:8268   */\n      mload\n        /* \"#utility.yul\":8246:8268   */\n      swap1\n      pop\n        /* \"#utility.yul\":8277:8309   */\n      tag_217\n        /* \"#utility.yul\":8303:8308   */\n      dup2\n        /* \"#utility.yul\":8277:8309   */\n      tag_126\n      jump\t// in\n    tag_217:\n        /* \"#utility.yul\":8174:8315   */\n      swap3\n      swap2\n      pop\n      pop\n      jump\t// out\n        /* \"#utility.yul\":8321:8464   */\n    tag_128:\n        /* \"#utility.yul\":8378:8383   */\n      0x00\n        /* \"#utility.yul\":8409:8415   */\n      dup2\n        /* \"#utility.yul\":8403:8416   */\n      mload\n        /* \"#utility.yul\":8394:8416   */\n      swap1\n      pop\n        /* \"#utility.yul\":8425:8458   */\n      tag_219\n        /* \"#utility.yul\":8452:8457   */\n      dup2\n        /* \"#utility.yul\":8425:8458   */\n      tag_104\n      jump\t// in\n    tag_219:\n        /* \"#utility.yul\":8321:8464   */\n      swap3\n      swap2\n      pop\n      pop\n      jump\t// out\n        /* \"#utility.yul\":8470:9441   */\n    tag_90:\n        /* \"#utility.yul\":8573:8579   */\n      0x00\n        /* \"#utility.yul\":8581:8587   */\n      dup1\n        /* \"#utility.yul\":8589:8595   */\n      0x00\n        /* \"#utility.yul\":8597:8603   */\n      dup1\n        /* \"#utility.yul\":8605:8611   */\n      0x00\n        /* \"#utility.yul\":8654:8657   */\n      0xa0\n        /* \"#utility.yul\":8642:8651   */\n      dup7\n        /* \"#utility.yul\":8633:8640   */\n      dup9\n        /* \"#utility.yul\":8629:8652   */\n      sub\n        /* \"#utility.yul\":8625:8658   */\n      slt\n        /* \"#utility.yul\":8622:8742   */\n      iszero\n      tag_221\n      jumpi\n        /* \"#utility.yul\":8661:8740   */\n      tag_222\n      tag_101\n      jump\t// in\n    tag_222:\n        /* \"#utility.yul\":8622:8742   */\n    tag_221:\n        /* \"#utility.yul\":8781:8782   */\n      0x00\n        /* \"#utility.yul\":8806:8869   */\n      tag_223\n        /* \"#utility.yul\":8861:8868   */\n      dup9\n        /* \"#utility.yul\":8852:8858   */\n      dup3\n        /* \"#utility.yul\":8841:8850   */\n      dup10\n        /* \"#utility.yul\":8837:8859   */\n      add\n        /* \"#utility.yul\":8806:8869   */\n      tag_124\n      jump\t// in\n    tag_223:\n        /* \"#utility.yul\":8796:8869   */\n      swap6\n      pop\n        /* \"#utility.yul\":8752:8879   */\n      pop\n        /* \"#utility.yul\":8918:8920   */\n      0x20\n        /* \"#utility.yul\":8944:9007   */\n      tag_224\n        /* \"#utility.yul\":8999:9006   */\n      dup9\n        /* \"#utility.yul\":8990:8996   */\n      dup3\n        /* \"#utility.yul\":8979:8988   */\n      dup10\n        /* \"#utility.yul\":8975:8997   */\n      add\n        /* \"#utility.yul\":8944:9007   */\n      tag_127\n      jump\t// in\n    tag_224:\n        /* \"#utility.yul\":8934:9007   */\n      swap5\n      pop\n        /* \"#utility.yul\":8889:9017   */\n      pop\n        /* \"#utility.yul\":9056:9058   */\n      0x40\n        /* \"#utility.yul\":9082:9146   */\n      tag_225\n        /* \"#utility.yul\":9138:9145   */\n      dup9\n        /* \"#utility.yul\":9129:9135   */\n      dup3\n        /* \"#utility.yul\":9118:9127   */\n      dup10\n        /* \"#utility.yul\":9114:9136   */\n      add\n        /* \"#utility.yul\":9082:9146   */\n      tag_128\n      jump\t// in\n    tag_225:\n        /* \"#utility.yul\":9072:9146   */\n      swap4\n      pop\n        /* \"#utility.yul\":9027:9156   */\n      pop\n        /* \"#utility.yul\":9195:9197   */\n      0x60\n        /* \"#utility.yul\":9221:9285   */\n      tag_226\n        /* \"#utility.yul\":9277:9284   */\n      dup9\n        /* \"#utility.yul\":9268:9274   */\n      dup3\n        /* \"#utility.yul\":9257:9266   */\n      dup10\n        /* \"#utility.yul\":9253:9275   */\n      add\n        /* \"#utility.yul\":9221:9285   */\n      tag_128\n      jump\t// in\n    tag_226:\n        /* \"#utility.yul\":9211:9285   */\n      swap3\n      pop\n        /* \"#utility.yul\":9166:9295   */\n      pop\n        /* \"#utility.yul\":9334:9337   */\n      0x80\n        /* \"#utility.yul\":9361:9424   */\n      tag_227\n        /* \"#utility.yul\":9416:9423   */\n      dup9\n        /* \"#utility.yul\":9407:9413   */\n      dup3\n        /* \"#utility.yul\":9396:9405   */\n      dup10\n        /* \"#utility.yul\":9392:9414   */\n      add\n        /* \"#utility.yul\":9361:9424   */\n      tag_124\n      jump\t// in\n    tag_227:\n        /* \"#utility.yul\":9351:9424   */\n      swap2\n      pop\n        /* \"#utility.yul\":9305:9434   */\n      pop\n        /* \"#utility.yul\":8470:9441   */\n      swap3\n      swap6\n      pop\n      swap3\n      swap6\n      swap1\n      swap4\n      pop\n      jump\t// out\n        /* \"#utility.yul\":9447:10438   */\n    tag_92:\n        /* \"#utility.yul\":9486:9493   */\n      0x00\n        /* \"#utility.yul\":9509:9528   */\n      tag_229\n        /* \"#utility.yul\":9526:9527   */\n      dup3\n        /* \"#utility.yul\":9509:9528   */\n      tag_125\n      jump\t// in\n    tag_229:\n        /* \"#utility.yul\":9504:9528   */\n      swap2\n      pop\n        /* \"#utility.yul\":9542:9561   */\n      tag_230\n        /* \"#utility.yul\":9559:9560   */\n      dup4\n        /* \"#utility.yul\":9542:9561   */\n      tag_125\n      jump\t// in\n    tag_230:\n        /* \"#utility.yul\":9537:9561   */\n      swap3\n      pop\n        /* \"#utility.yul\":9743:9744   */\n      dup3\n        /* \"#utility.yul\":9675:9741   */\n      0x7fffffffffffffffffffffffffffffffffffffffffffffffffffffffffffffff\n        /* \"#utility.yul\":9671:9745   */\n      div\n        /* \"#utility.yul\":9668:9669   */\n      dup3\n        /* \"#utility.yul\":9665:9746   */\n      gt\n        /* \"#utility.yul\":9660:9661   */\n      0x00\n        /* \"#utility.yul\":9657:9658   */\n      dup5\n        /* \"#utility.yul\":9653:9662   */\n      sgt\n        /* \"#utility.yul\":9649:9650   */\n      0x00\n        /* \"#utility.yul\":9646:9647   */\n      dup5\n        /* \"#utility.yul\":9642:9651   */\n      sgt\n        /* \"#utility.yul\":9638:9663   */\n      and\n        /* \"#utility.yul\":9634:9747   */\n      and\n        /* \"#utility.yul\":9631:9770   */\n      iszero\n      tag_231\n      jumpi\n        /* \"#utility.yul\":9750:9768   */\n      tag_232\n      tag_115\n      jump\t// in\n    tag_232:\n        /* \"#utility.yul\":9631:9770   */\n    tag_231:\n        /* \"#utility.yul\":9954:9955   */\n      dup2\n        /* \"#utility.yul\":9886:9952   */\n      0x8000000000000000000000000000000000000000000000000000000000000000\n        /* \"#utility.yul\":9881:9956   */\n      sdiv\n        /* \"#utility.yul\":9878:9879   */\n      dup4\n        /* \"#utility.yul\":9874:9957   */\n      slt\n        /* \"#utility.yul\":9869:9870   */\n      0x00\n        /* \"#utility.yul\":9866:9867   */\n      dup5\n        /* \"#utility.yul\":9862:9871   */\n      slt\n        /* \"#utility.yul\":9858:9859   */\n      0x00\n        /* \"#utility.yul\":9855:9856   */\n      dup5\n        /* \"#utility.yul\":9851:9860   */\n      sgt\n        /* \"#utility.yul\":9847:9872   */\n      and\n        /* \"#utility.yul\":9843:9958   */\n      and\n        /* \"#utility.yul\":9840:9981   */\n      iszero\n      tag_233\n      jumpi\n        /* \"#utility.yul\":9961:9979   */\n      tag_234\n      tag_115\n      jump\t// in\n    tag_234:\n        /* \"#utility.yul\":9840:9981   */\n    tag_233:\n        /* \"#utility.yul\":10165:10166   */\n      dup3\n        /* \"#utility.yul\":10097:10163   */\n      0x8000000000000000000000000000000000000000000000000000000000000000\n        /* \"#utility.yul\":10092:10167   */\n      sdiv\n        /* \"#utility.yul\":10089:10090   */\n      dup3\n        /* \"#utility.yul\":10085:10168   */\n      slt\n        /* \"#utility.yul\":10080:10081   */\n      0x00\n        /* \"#utility.yul\":10077:10078   */\n      dup5\n        /* \"#utility.yul\":10073:10082   */\n      sgt\n        /* \"#utility.yul\":10069:10070   */\n      0x00\n        /* \"#utility.yul\":10066:10067   */\n      dup5\n        /* \"#utility.yul\":10062:10071   */\n      slt\n        /* \"#utility.yul\":10058:10083   */\n      and\n        /* \"#utility.yul\":10054:10169   */\n      and\n        /* \"#utility.yul\":10051:10192   */\n      iszero\n      tag_235\n      jumpi\n        /* \"#utility.yul\":10172:10190   */\n      tag_236\n      tag_115\n      jump\t// in\n    tag_236:\n        /* \"#utility.yul\":10051:10192   */\n    tag_235:\n        /* \"#utility.yul\":10375:10376   */\n      dup3\n        /* \"#utility.yul\":10307:10373   */\n      0x7fffffffffffffffffffffffffffffffffffffffffffffffffffffffffffffff\n        /* \"#utility.yul\":10302:10377   */\n      sdiv\n        /* \"#utility.yul\":10299:10300   */\n      dup3\n        /* \"#utility.yul\":10295:10378   */\n      slt\n        /* \"#utility.yul\":10290:10291   */\n      0x00\n        /* \"#utility.yul\":10287:10288   */\n      dup5\n        /* \"#utility.yul\":10283:10292   */\n      slt\n        /* \"#utility.yul\":10279:10280   */\n      0x00\n        /* \"#utility.yul\":10276:10277   */\n      dup5\n        /* \"#utility.yul\":10272:10281   */\n      slt\n        /* \"#utility.yul\":10268:10293   */\n      and\n        /* \"#utility.yul\":10264:10379   */\n      and\n        /* \"#utility.yul\":10261:10402   */\n      iszero\n      tag_237\n      jumpi\n        /* \"#utility.yul\":10382:10400   */\n      tag_238\n      tag_115\n      jump\t// in\n    tag_238:\n        /* \"#utility.yul\":10261:10402   */\n    tag_237:\n        /* \"#utility.yul\":10430:10431   */\n      dup3\n        /* \"#utility.yul\":10427:10428   */\n      dup3\n        /* \"#utility.yul\":10423:10432   */\n      mul\n        /* \"#utility.yul\":10412:10432   */\n      swap1\n      pop\n        /* \"#utility.yul\":9447:10438   */\n      swap3\n      swap2\n      pop\n      pop\n      jump\t// out\n\n    auxdata: 0xa26469706673582212201a6c82e9d985c363d006ad754e963dc37c08bd945e96400fb7423bad8987016e64736f6c634300080e0033\n}\n",
				"bytecode": {
					"linkReferences": {},
					"object": "60a060405234801561001057600080fd5b503373ffffffffffffffffffffffffffffffffffffffff1660808173ffffffffffffffffffffffffffffffffffffffff1681525050608051610d6e610067600039600081816102cb01526105120152610d6e6000f3fe6080604052600436106100595760003560e01c806347ff62c614610072578063520fcd61146100af57806357ea89b6146100ec5780635deb0172146101035780636ce1417e1461012e578063dba6335f1461013857610068565b3661006857610066610163565b005b610070610163565b005b34801561007e57600080fd5b50610099600480360381019061009491906106f9565b610272565b6040516100a69190610767565b60405180910390f35b3480156100bb57600080fd5b506100d660048036038101906100d191906107ae565b6102b1565b6040516100e391906107ea565b60405180910390f35b3480156100f857600080fd5b506101016102c9565b005b34801561010f57600080fd5b50610118610503565b60405161012591906107ea565b60405180910390f35b610136610163565b005b34801561014457600080fd5b5061014d610510565b60405161015a9190610767565b60405180910390f35b6802b5e3af16b188000061017634610534565b10156101b7576040517f08c379a00000000000000000000000000000000000000000000000000000000081526004016101ae90610862565b60405180910390fd5b6000339080600181540180825580915050600190039060005260206000200160009091909190916101000a81548173ffffffffffffffffffffffffffffffffffffffff021916908373ffffffffffffffffffffffffffffffffffffffff16021790555034600160003373ffffffffffffffffffffffffffffffffffffffff1673ffffffffffffffffffffffffffffffffffffffff168152602001908152602001600020600082825461026991906108b1565b92505081905550565b6000818154811061028257600080fd5b906000526020600020016000915054906101000a900473ffffffffffffffffffffffffffffffffffffffff1681565b60016020528060005260406000206000915090505481565b7f000000000000000000000000000000000000000000000000000000000000000073ffffffffffffffffffffffffffffffffffffffff163373ffffffffffffffffffffffffffffffffffffffff161461034e576040517fea8e4eb500000000000000000000000000000000000000000000000000000000815260040160405180910390fd5b60005b6000805490508110156103f35760006001600080848154811061037757610376610907565b5b9060005260206000200160009054906101000a900473ffffffffffffffffffffffffffffffffffffffff1673ffffffffffffffffffffffffffffffffffffffff1673ffffffffffffffffffffffffffffffffffffffff1681526020019081526020016000208190555080806103eb90610936565b915050610351565b50600067ffffffffffffffff81111561040f5761040e61097e565b5b60405190808252806020026020018201604052801561043d5781602001602082028036833780820191505090505b5060009080519060200190610453929190610617565b5060003373ffffffffffffffffffffffffffffffffffffffff164760405161047a906109de565b60006040518083038185875af1925050503d80600081146104b7576040519150601f19603f3d011682016040523d82523d6000602084013e6104bc565b606091505b5050905080610500576040517f08c379a00000000000000000000000000000000000000000000000000000000081526004016104f790610a3f565b60405180910390fd5b50565b6802b5e3af16b188000081565b7f000000000000000000000000000000000000000000000000000000000000000081565b60008061053f61056e565b90506000670de0b6b3a764000084836105589190610a5f565b6105629190610ae8565b90508092505050919050565b600080738a753747a1fa494ec906ce90e9f37563a8af630e905060008173ffffffffffffffffffffffffffffffffffffffff1663feaf968c6040518163ffffffff1660e01b815260040160a060405180830381865afa1580156105d5573d6000803e3d6000fd5b505050506040513d601f19601f820116820180604052508101906105f99190610ba6565b5050509150506402540be400816106109190610c21565b9250505090565b828054828255906000526020600020908101928215610690579160200282015b8281111561068f5782518260006101000a81548173ffffffffffffffffffffffffffffffffffffffff021916908373ffffffffffffffffffffffffffffffffffffffff16021790555091602001919060010190610637565b5b50905061069d91906106a1565b5090565b5b808211156106ba5760008160009055506001016106a2565b5090565b600080fd5b6000819050919050565b6106d6816106c3565b81146106e157600080fd5b50565b6000813590506106f3816106cd565b92915050565b60006020828403121561070f5761070e6106be565b5b600061071d848285016106e4565b91505092915050565b600073ffffffffffffffffffffffffffffffffffffffff82169050919050565b600061075182610726565b9050919050565b61076181610746565b82525050565b600060208201905061077c6000830184610758565b92915050565b61078b81610746565b811461079657600080fd5b50565b6000813590506107a881610782565b92915050565b6000602082840312156107c4576107c36106be565b5b60006107d284828501610799565b91505092915050565b6107e4816106c3565b82525050565b60006020820190506107ff60008301846107db565b92915050565b600082825260208201905092915050565b7f4469646e27742073656e6420656e6f7567680000000000000000000000000000600082015250565b600061084c601283610805565b915061085782610816565b602082019050919050565b6000602082019050818103600083015261087b8161083f565b9050919050565b7f4e487b7100000000000000000000000000000000000000000000000000000000600052601160045260246000fd5b60006108bc826106c3565b91506108c7836106c3565b9250827fffffffffffffffffffffffffffffffffffffffffffffffffffffffffffffffff038211156108fc576108fb610882565b5b828201905092915050565b7f4e487b7100000000000000000000000000000000000000000000000000000000600052603260045260246000fd5b6000610941826106c3565b91507fffffffffffffffffffffffffffffffffffffffffffffffffffffffffffffffff820361097357610972610882565b5b600182019050919050565b7f4e487b7100000000000000000000000000000000000000000000000000000000600052604160045260246000fd5b600081905092915050565b50565b60006109c86000836109ad565b91506109d3826109b8565b600082019050919050565b60006109e9826109bb565b9150819050919050565b7f63616c6c204661696c6564000000000000000000000000000000000000000000600082015250565b6000610a29600b83610805565b9150610a34826109f3565b602082019050919050565b60006020820190508181036000830152610a5881610a1c565b9050919050565b6000610a6a826106c3565b9150610a75836106c3565b9250817fffffffffffffffffffffffffffffffffffffffffffffffffffffffffffffffff0483118215151615610aae57610aad610882565b5b828202905092915050565b7f4e487b7100000000000000000000000000000000000000000000000000000000600052601260045260246000fd5b6000610af3826106c3565b9150610afe836106c3565b925082610b0e57610b0d610ab9565b5b828204905092915050565b600069ffffffffffffffffffff82169050919050565b610b3881610b19565b8114610b4357600080fd5b50565b600081519050610b5581610b2f565b92915050565b6000819050919050565b610b6e81610b5b565b8114610b7957600080fd5b50565b600081519050610b8b81610b65565b92915050565b600081519050610ba0816106cd565b92915050565b600080600080600060a08688031215610bc257610bc16106be565b5b6000610bd088828901610b46565b9550506020610be188828901610b7c565b9450506040610bf288828901610b91565b9350506060610c0388828901610b91565b9250506080610c1488828901610b46565b9150509295509295909350565b6000610c2c82610b5b565b9150610c3783610b5b565b9250827f7fffffffffffffffffffffffffffffffffffffffffffffffffffffffffffffff0482116000841360008413161615610c7657610c75610882565b5b817f80000000000000000000000000000000000000000000000000000000000000000583126000841260008413161615610cb357610cb2610882565b5b827f80000000000000000000000000000000000000000000000000000000000000000582126000841360008412161615610cf057610cef610882565b5b827f7fffffffffffffffffffffffffffffffffffffffffffffffffffffffffffffff0582126000841260008412161615610d2d57610d2c610882565b5b82820290509291505056fea26469706673582212201a6c82e9d985c363d006ad754e963dc37c08bd945e96400fb7423bad8987016e64736f6c634300080e0033",
					"opcodes": "PUSH1 0xA0 PUSH1 0x40 MSTORE CALLVALUE DUP1 ISZERO PUSH2 0x10 JUMPI PUSH1 0x0 DUP1 REVERT JUMPDEST POP CALLER PUSH20 0xFFFFFFFFFFFFFFFFFFFFFFFFFFFFFFFFFFFFFFFF AND PUSH1 0x80 DUP2 PUSH20 0xFFFFFFFFFFFFFFFFFFFFFFFFFFFFFFFFFFFFFFFF AND DUP2 MSTORE POP POP PUSH1 0x80 MLOAD PUSH2 0xD6E PUSH2 0x67 PUSH1 0x0 CODECOPY PUSH1 0x0 DUP2 DUP2 PUSH2 0x2CB ADD MSTORE PUSH2 0x512 ADD MSTORE PUSH2 0xD6E PUSH1 0x0 RETURN INVALID PUSH1 0x80 PUSH1 0x40 MSTORE PUSH1 0x4 CALLDATASIZE LT PUSH2 0x59 JUMPI PUSH1 0x0 CALLDATALOAD PUSH1 0xE0 SHR DUP1 PUSH4 0x47FF62C6 EQ PUSH2 0x72 JUMPI DUP1 PUSH4 0x520FCD61 EQ PUSH2 0xAF JUMPI DUP1 PUSH4 0x57EA89B6 EQ PUSH2 0xEC JUMPI DUP1 PUSH4 0x5DEB0172 EQ PUSH2 0x103 JUMPI DUP1 PUSH4 0x6CE1417E EQ PUSH2 0x12E JUMPI DUP1 PUSH4 0xDBA6335F EQ PUSH2 0x138 JUMPI PUSH2 0x68 JUMP JUMPDEST CALLDATASIZE PUSH2 0x68 JUMPI PUSH2 0x66 PUSH2 0x163 JUMP JUMPDEST STOP JUMPDEST PUSH2 0x70 PUSH2 0x163 JUMP JUMPDEST STOP JUMPDEST CALLVALUE DUP1 ISZERO PUSH2 0x7E JUMPI PUSH1 0x0 DUP1 REVERT JUMPDEST POP PUSH2 0x99 PUSH1 0x4 DUP1 CALLDATASIZE SUB DUP2 ADD SWAP1 PUSH2 0x94 SWAP2 SWAP1 PUSH2 0x6F9 JUMP JUMPDEST PUSH2 0x272 JUMP JUMPDEST PUSH1 0x40 MLOAD PUSH2 0xA6 SWAP2 SWAP1 PUSH2 0x767 JUMP JUMPDEST PUSH1 0x40 MLOAD DUP1 SWAP2 SUB SWAP1 RETURN JUMPDEST CALLVALUE DUP1 ISZERO PUSH2 0xBB JUMPI PUSH1 0x0 DUP1 REVERT JUMPDEST POP PUSH2 0xD6 PUSH1 0x4 DUP1 CALLDATASIZE SUB DUP2 ADD SWAP1 PUSH2 0xD1 SWAP2 SWAP1 PUSH2 0x7AE JUMP JUMPDEST PUSH2 0x2B1 JUMP JUMPDEST PUSH1 0x40 MLOAD PUSH2 0xE3 SWAP2 SWAP1 PUSH2 0x7EA JUMP JUMPDEST PUSH1 0x40 MLOAD DUP1 SWAP2 SUB SWAP1 RETURN JUMPDEST CALLVALUE DUP1 ISZERO PUSH2 0xF8 JUMPI PUSH1 0x0 DUP1 REVERT JUMPDEST POP PUSH2 0x101 PUSH2 0x2C9 JUMP JUMPDEST STOP JUMPDEST CALLVALUE DUP1 ISZERO PUSH2 0x10F JUMPI PUSH1 0x0 DUP1 REVERT JUMPDEST POP PUSH2 0x118 PUSH2 0x503 JUMP JUMPDEST PUSH1 0x40 MLOAD PUSH2 0x125 SWAP2 SWAP1 PUSH2 0x7EA JUMP JUMPDEST PUSH1 0x40 MLOAD DUP1 SWAP2 SUB SWAP1 RETURN JUMPDEST PUSH2 0x136 PUSH2 0x163 JUMP JUMPDEST STOP JUMPDEST CALLVALUE DUP1 ISZERO PUSH2 0x144 JUMPI PUSH1 0x0 DUP1 REVERT JUMPDEST POP PUSH2 0x14D PUSH2 0x510 JUMP JUMPDEST PUSH1 0x40 MLOAD PUSH2 0x15A SWAP2 SWAP1 PUSH2 0x767 JUMP JUMPDEST PUSH1 0x40 MLOAD DUP1 SWAP2 SUB SWAP1 RETURN JUMPDEST PUSH9 0x2B5E3AF16B1880000 PUSH2 0x176 CALLVALUE PUSH2 0x534 JUMP JUMPDEST LT ISZERO PUSH2 0x1B7 JUMPI PUSH1 0x40 MLOAD PUSH32 0x8C379A000000000000000000000000000000000000000000000000000000000 DUP2 MSTORE PUSH1 0x4 ADD PUSH2 0x1AE SWAP1 PUSH2 0x862 JUMP JUMPDEST PUSH1 0x40 MLOAD DUP1 SWAP2 SUB SWAP1 REVERT JUMPDEST PUSH1 0x0 CALLER SWAP1 DUP1 PUSH1 0x1 DUP2 SLOAD ADD DUP1 DUP3 SSTORE DUP1 SWAP2 POP POP PUSH1 0x1 SWAP1 SUB SWAP1 PUSH1 0x0 MSTORE PUSH1 0x20 PUSH1 0x0 KECCAK256 ADD PUSH1 0x0 SWAP1 SWAP2 SWAP1 SWAP2 SWAP1 SWAP2 PUSH2 0x100 EXP DUP2 SLOAD DUP2 PUSH20 0xFFFFFFFFFFFFFFFFFFFFFFFFFFFFFFFFFFFFFFFF MUL NOT AND SWAP1 DUP4 PUSH20 0xFFFFFFFFFFFFFFFFFFFFFFFFFFFFFFFFFFFFFFFF AND MUL OR SWAP1 SSTORE POP CALLVALUE PUSH1 0x1 PUSH1 0x0 CALLER PUSH20 0xFFFFFFFFFFFFFFFFFFFFFFFFFFFFFFFFFFFFFFFF AND PUSH20 0xFFFFFFFFFFFFFFFFFFFFFFFFFFFFFFFFFFFFFFFF AND DUP2 MSTORE PUSH1 0x20 ADD SWAP1 DUP2 MSTORE PUSH1 0x20 ADD PUSH1 0x0 KECCAK256 PUSH1 0x0 DUP3 DUP3 SLOAD PUSH2 0x269 SWAP2 SWAP1 PUSH2 0x8B1 JUMP JUMPDEST SWAP3 POP POP DUP2 SWAP1 SSTORE POP JUMP JUMPDEST PUSH1 0x0 DUP2 DUP2 SLOAD DUP2 LT PUSH2 0x282 JUMPI PUSH1 0x0 DUP1 REVERT JUMPDEST SWAP1 PUSH1 0x0 MSTORE PUSH1 0x20 PUSH1 0x0 KECCAK256 ADD PUSH1 0x0 SWAP2 POP SLOAD SWAP1 PUSH2 0x100 EXP SWAP1 DIV PUSH20 0xFFFFFFFFFFFFFFFFFFFFFFFFFFFFFFFFFFFFFFFF AND DUP2 JUMP JUMPDEST PUSH1 0x1 PUSH1 0x20 MSTORE DUP1 PUSH1 0x0 MSTORE PUSH1 0x40 PUSH1 0x0 KECCAK256 PUSH1 0x0 SWAP2 POP SWAP1 POP SLOAD DUP2 JUMP JUMPDEST PUSH32 0x0 PUSH20 0xFFFFFFFFFFFFFFFFFFFFFFFFFFFFFFFFFFFFFFFF AND CALLER PUSH20 0xFFFFFFFFFFFFFFFFFFFFFFFFFFFFFFFFFFFFFFFF AND EQ PUSH2 0x34E JUMPI PUSH1 0x40 MLOAD PUSH32 0xEA8E4EB500000000000000000000000000000000000000000000000000000000 DUP2 MSTORE PUSH1 0x4 ADD PUSH1 0x40 MLOAD DUP1 SWAP2 SUB SWAP1 REVERT JUMPDEST PUSH1 0x0 JUMPDEST PUSH1 0x0 DUP1 SLOAD SWAP1 POP DUP2 LT ISZERO PUSH2 0x3F3 JUMPI PUSH1 0x0 PUSH1 0x1 PUSH1 0x0 DUP1 DUP5 DUP2 SLOAD DUP2 LT PUSH2 0x377 JUMPI PUSH2 0x376 PUSH2 0x907 JUMP JUMPDEST JUMPDEST SWAP1 PUSH1 0x0 MSTORE PUSH1 0x20 PUSH1 0x0 KECCAK256 ADD PUSH1 0x0 SWAP1 SLOAD SWAP1 PUSH2 0x100 EXP SWAP1 DIV PUSH20 0xFFFFFFFFFFFFFFFFFFFFFFFFFFFFFFFFFFFFFFFF AND PUSH20 0xFFFFFFFFFFFFFFFFFFFFFFFFFFFFFFFFFFFFFFFF AND PUSH20 0xFFFFFFFFFFFFFFFFFFFFFFFFFFFFFFFFFFFFFFFF AND DUP2 MSTORE PUSH1 0x20 ADD SWAP1 DUP2 MSTORE PUSH1 0x20 ADD PUSH1 0x0 KECCAK256 DUP2 SWAP1 SSTORE POP DUP1 DUP1 PUSH2 0x3EB SWAP1 PUSH2 0x936 JUMP JUMPDEST SWAP2 POP POP PUSH2 0x351 JUMP JUMPDEST POP PUSH1 0x0 PUSH8 0xFFFFFFFFFFFFFFFF DUP2 GT ISZERO PUSH2 0x40F JUMPI PUSH2 0x40E PUSH2 0x97E JUMP JUMPDEST JUMPDEST PUSH1 0x40 MLOAD SWAP1 DUP1 DUP3 MSTORE DUP1 PUSH1 0x20 MUL PUSH1 0x20 ADD DUP3 ADD PUSH1 0x40 MSTORE DUP1 ISZERO PUSH2 0x43D JUMPI DUP2 PUSH1 0x20 ADD PUSH1 0x20 DUP3 MUL DUP1 CALLDATASIZE DUP4 CALLDATACOPY DUP1 DUP3 ADD SWAP2 POP POP SWAP1 POP JUMPDEST POP PUSH1 0x0 SWAP1 DUP1 MLOAD SWAP1 PUSH1 0x20 ADD SWAP1 PUSH2 0x453 SWAP3 SWAP2 SWAP1 PUSH2 0x617 JUMP JUMPDEST POP PUSH1 0x0 CALLER PUSH20 0xFFFFFFFFFFFFFFFFFFFFFFFFFFFFFFFFFFFFFFFF AND SELFBALANCE PUSH1 0x40 MLOAD PUSH2 0x47A SWAP1 PUSH2 0x9DE JUMP JUMPDEST PUSH1 0x0 PUSH1 0x40 MLOAD DUP1 DUP4 SUB DUP2 DUP6 DUP8 GAS CALL SWAP3 POP POP POP RETURNDATASIZE DUP1 PUSH1 0x0 DUP2 EQ PUSH2 0x4B7 JUMPI PUSH1 0x40 MLOAD SWAP2 POP PUSH1 0x1F NOT PUSH1 0x3F RETURNDATASIZE ADD AND DUP3 ADD PUSH1 0x40 MSTORE RETURNDATASIZE DUP3 MSTORE RETURNDATASIZE PUSH1 0x0 PUSH1 0x20 DUP5 ADD RETURNDATACOPY PUSH2 0x4BC JUMP JUMPDEST PUSH1 0x60 SWAP2 POP JUMPDEST POP POP SWAP1 POP DUP1 PUSH2 0x500 JUMPI PUSH1 0x40 MLOAD PUSH32 0x8C379A000000000000000000000000000000000000000000000000000000000 DUP2 MSTORE PUSH1 0x4 ADD PUSH2 0x4F7 SWAP1 PUSH2 0xA3F JUMP JUMPDEST PUSH1 0x40 MLOAD DUP1 SWAP2 SUB SWAP1 REVERT JUMPDEST POP JUMP JUMPDEST PUSH9 0x2B5E3AF16B1880000 DUP2 JUMP JUMPDEST PUSH32 0x0 DUP2 JUMP JUMPDEST PUSH1 0x0 DUP1 PUSH2 0x53F PUSH2 0x56E JUMP JUMPDEST SWAP1 POP PUSH1 0x0 PUSH8 0xDE0B6B3A7640000 DUP5 DUP4 PUSH2 0x558 SWAP2 SWAP1 PUSH2 0xA5F JUMP JUMPDEST PUSH2 0x562 SWAP2 SWAP1 PUSH2 0xAE8 JUMP JUMPDEST SWAP1 POP DUP1 SWAP3 POP POP POP SWAP2 SWAP1 POP JUMP JUMPDEST PUSH1 0x0 DUP1 PUSH20 0x8A753747A1FA494EC906CE90E9F37563A8AF630E SWAP1 POP PUSH1 0x0 DUP2 PUSH20 0xFFFFFFFFFFFFFFFFFFFFFFFFFFFFFFFFFFFFFFFF AND PUSH4 0xFEAF968C PUSH1 0x40 MLOAD DUP2 PUSH4 0xFFFFFFFF AND PUSH1 0xE0 SHL DUP2 MSTORE PUSH1 0x4 ADD PUSH1 0xA0 PUSH1 0x40 MLOAD DUP1 DUP4 SUB DUP2 DUP7 GAS STATICCALL ISZERO DUP1 ISZERO PUSH2 0x5D5 JUMPI RETURNDATASIZE PUSH1 0x0 DUP1 RETURNDATACOPY RETURNDATASIZE PUSH1 0x0 REVERT JUMPDEST POP POP POP POP PUSH1 0x40 MLOAD RETURNDATASIZE PUSH1 0x1F NOT PUSH1 0x1F DUP3 ADD AND DUP3 ADD DUP1 PUSH1 0x40 MSTORE POP DUP2 ADD SWAP1 PUSH2 0x5F9 SWAP2 SWAP1 PUSH2 0xBA6 JUMP JUMPDEST POP POP POP SWAP2 POP POP PUSH5 0x2540BE400 DUP2 PUSH2 0x610 SWAP2 SWAP1 PUSH2 0xC21 JUMP JUMPDEST SWAP3 POP POP POP SWAP1 JUMP JUMPDEST DUP3 DUP1 SLOAD DUP3 DUP3 SSTORE SWAP1 PUSH1 0x0 MSTORE PUSH1 0x20 PUSH1 0x0 KECCAK256 SWAP1 DUP2 ADD SWAP3 DUP3 ISZERO PUSH2 0x690 JUMPI SWAP2 PUSH1 0x20 MUL DUP3 ADD JUMPDEST DUP3 DUP2 GT ISZERO PUSH2 0x68F JUMPI DUP3 MLOAD DUP3 PUSH1 0x0 PUSH2 0x100 EXP DUP2 SLOAD DUP2 PUSH20 0xFFFFFFFFFFFFFFFFFFFFFFFFFFFFFFFFFFFFFFFF MUL NOT AND SWAP1 DUP4 PUSH20 0xFFFFFFFFFFFFFFFFFFFFFFFFFFFFFFFFFFFFFFFF AND MUL OR SWAP1 SSTORE POP SWAP2 PUSH1 0x20 ADD SWAP2 SWAP1 PUSH1 0x1 ADD SWAP1 PUSH2 0x637 JUMP JUMPDEST JUMPDEST POP SWAP1 POP PUSH2 0x69D SWAP2 SWAP1 PUSH2 0x6A1 JUMP JUMPDEST POP SWAP1 JUMP JUMPDEST JUMPDEST DUP1 DUP3 GT ISZERO PUSH2 0x6BA JUMPI PUSH1 0x0 DUP2 PUSH1 0x0 SWAP1 SSTORE POP PUSH1 0x1 ADD PUSH2 0x6A2 JUMP JUMPDEST POP SWAP1 JUMP JUMPDEST PUSH1 0x0 DUP1 REVERT JUMPDEST PUSH1 0x0 DUP2 SWAP1 POP SWAP2 SWAP1 POP JUMP JUMPDEST PUSH2 0x6D6 DUP2 PUSH2 0x6C3 JUMP JUMPDEST DUP2 EQ PUSH2 0x6E1 JUMPI PUSH1 0x0 DUP1 REVERT JUMPDEST POP JUMP JUMPDEST PUSH1 0x0 DUP2 CALLDATALOAD SWAP1 POP PUSH2 0x6F3 DUP2 PUSH2 0x6CD JUMP JUMPDEST SWAP3 SWAP2 POP POP JUMP JUMPDEST PUSH1 0x0 PUSH1 0x20 DUP3 DUP5 SUB SLT ISZERO PUSH2 0x70F JUMPI PUSH2 0x70E PUSH2 0x6BE JUMP JUMPDEST JUMPDEST PUSH1 0x0 PUSH2 0x71D DUP5 DUP3 DUP6 ADD PUSH2 0x6E4 JUMP JUMPDEST SWAP2 POP POP SWAP3 SWAP2 POP POP JUMP JUMPDEST PUSH1 0x0 PUSH20 0xFFFFFFFFFFFFFFFFFFFFFFFFFFFFFFFFFFFFFFFF DUP3 AND SWAP1 POP SWAP2 SWAP1 POP JUMP JUMPDEST PUSH1 0x0 PUSH2 0x751 DUP3 PUSH2 0x726 JUMP JUMPDEST SWAP1 POP SWAP2 SWAP1 POP JUMP JUMPDEST PUSH2 0x761 DUP2 PUSH2 0x746 JUMP JUMPDEST DUP3 MSTORE POP POP JUMP JUMPDEST PUSH1 0x0 PUSH1 0x20 DUP3 ADD SWAP1 POP PUSH2 0x77C PUSH1 0x0 DUP4 ADD DUP5 PUSH2 0x758 JUMP JUMPDEST SWAP3 SWAP2 POP POP JUMP JUMPDEST PUSH2 0x78B DUP2 PUSH2 0x746 JUMP JUMPDEST DUP2 EQ PUSH2 0x796 JUMPI PUSH1 0x0 DUP1 REVERT JUMPDEST POP JUMP JUMPDEST PUSH1 0x0 DUP2 CALLDATALOAD SWAP1 POP PUSH2 0x7A8 DUP2 PUSH2 0x782 JUMP JUMPDEST SWAP3 SWAP2 POP POP JUMP JUMPDEST PUSH1 0x0 PUSH1 0x20 DUP3 DUP5 SUB SLT ISZERO PUSH2 0x7C4 JUMPI PUSH2 0x7C3 PUSH2 0x6BE JUMP JUMPDEST JUMPDEST PUSH1 0x0 PUSH2 0x7D2 DUP5 DUP3 DUP6 ADD PUSH2 0x799 JUMP JUMPDEST SWAP2 POP POP SWAP3 SWAP2 POP POP JUMP JUMPDEST PUSH2 0x7E4 DUP2 PUSH2 0x6C3 JUMP JUMPDEST DUP3 MSTORE POP POP JUMP JUMPDEST PUSH1 0x0 PUSH1 0x20 DUP3 ADD SWAP1 POP PUSH2 0x7FF PUSH1 0x0 DUP4 ADD DUP5 PUSH2 0x7DB JUMP JUMPDEST SWAP3 SWAP2 POP POP JUMP JUMPDEST PUSH1 0x0 DUP3 DUP3 MSTORE PUSH1 0x20 DUP3 ADD SWAP1 POP SWAP3 SWAP2 POP POP JUMP JUMPDEST PUSH32 0x4469646E27742073656E6420656E6F7567680000000000000000000000000000 PUSH1 0x0 DUP3 ADD MSTORE POP JUMP JUMPDEST PUSH1 0x0 PUSH2 0x84C PUSH1 0x12 DUP4 PUSH2 0x805 JUMP JUMPDEST SWAP2 POP PUSH2 0x857 DUP3 PUSH2 0x816 JUMP JUMPDEST PUSH1 0x20 DUP3 ADD SWAP1 POP SWAP2 SWAP1 POP JUMP JUMPDEST PUSH1 0x0 PUSH1 0x20 DUP3 ADD SWAP1 POP DUP2 DUP2 SUB PUSH1 0x0 DUP4 ADD MSTORE PUSH2 0x87B DUP2 PUSH2 0x83F JUMP JUMPDEST SWAP1 POP SWAP2 SWAP1 POP JUMP JUMPDEST PUSH32 0x4E487B7100000000000000000000000000000000000000000000000000000000 PUSH1 0x0 MSTORE PUSH1 0x11 PUSH1 0x4 MSTORE PUSH1 0x24 PUSH1 0x0 REVERT JUMPDEST PUSH1 0x0 PUSH2 0x8BC DUP3 PUSH2 0x6C3 JUMP JUMPDEST SWAP2 POP PUSH2 0x8C7 DUP4 PUSH2 0x6C3 JUMP JUMPDEST SWAP3 POP DUP3 PUSH32 0xFFFFFFFFFFFFFFFFFFFFFFFFFFFFFFFFFFFFFFFFFFFFFFFFFFFFFFFFFFFFFFFF SUB DUP3 GT ISZERO PUSH2 0x8FC JUMPI PUSH2 0x8FB PUSH2 0x882 JUMP JUMPDEST JUMPDEST DUP3 DUP3 ADD SWAP1 POP SWAP3 SWAP2 POP POP JUMP JUMPDEST PUSH32 0x4E487B7100000000000000000000000000000000000000000000000000000000 PUSH1 0x0 MSTORE PUSH1 0x32 PUSH1 0x4 MSTORE PUSH1 0x24 PUSH1 0x0 REVERT JUMPDEST PUSH1 0x0 PUSH2 0x941 DUP3 PUSH2 0x6C3 JUMP JUMPDEST SWAP2 POP PUSH32 0xFFFFFFFFFFFFFFFFFFFFFFFFFFFFFFFFFFFFFFFFFFFFFFFFFFFFFFFFFFFFFFFF DUP3 SUB PUSH2 0x973 JUMPI PUSH2 0x972 PUSH2 0x882 JUMP JUMPDEST JUMPDEST PUSH1 0x1 DUP3 ADD SWAP1 POP SWAP2 SWAP1 POP JUMP JUMPDEST PUSH32 0x4E487B7100000000000000000000000000000000000000000000000000000000 PUSH1 0x0 MSTORE PUSH1 0x41 PUSH1 0x4 MSTORE PUSH1 0x24 PUSH1 0x0 REVERT JUMPDEST PUSH1 0x0 DUP2 SWAP1 POP SWAP3 SWAP2 POP POP JUMP JUMPDEST POP JUMP JUMPDEST PUSH1 0x0 PUSH2 0x9C8 PUSH1 0x0 DUP4 PUSH2 0x9AD JUMP JUMPDEST SWAP2 POP PUSH2 0x9D3 DUP3 PUSH2 0x9B8 JUMP JUMPDEST PUSH1 0x0 DUP3 ADD SWAP1 POP SWAP2 SWAP1 POP JUMP JUMPDEST PUSH1 0x0 PUSH2 0x9E9 DUP3 PUSH2 0x9BB JUMP JUMPDEST SWAP2 POP DUP2 SWAP1 POP SWAP2 SWAP1 POP JUMP JUMPDEST PUSH32 0x63616C6C204661696C6564000000000000000000000000000000000000000000 PUSH1 0x0 DUP3 ADD MSTORE POP JUMP JUMPDEST PUSH1 0x0 PUSH2 0xA29 PUSH1 0xB DUP4 PUSH2 0x805 JUMP JUMPDEST SWAP2 POP PUSH2 0xA34 DUP3 PUSH2 0x9F3 JUMP JUMPDEST PUSH1 0x20 DUP3 ADD SWAP1 POP SWAP2 SWAP1 POP JUMP JUMPDEST PUSH1 0x0 PUSH1 0x20 DUP3 ADD SWAP1 POP DUP2 DUP2 SUB PUSH1 0x0 DUP4 ADD MSTORE PUSH2 0xA58 DUP2 PUSH2 0xA1C JUMP JUMPDEST SWAP1 POP SWAP2 SWAP1 POP JUMP JUMPDEST PUSH1 0x0 PUSH2 0xA6A DUP3 PUSH2 0x6C3 JUMP JUMPDEST SWAP2 POP PUSH2 0xA75 DUP4 PUSH2 0x6C3 JUMP JUMPDEST SWAP3 POP DUP2 PUSH32 0xFFFFFFFFFFFFFFFFFFFFFFFFFFFFFFFFFFFFFFFFFFFFFFFFFFFFFFFFFFFFFFFF DIV DUP4 GT DUP3 ISZERO ISZERO AND ISZERO PUSH2 0xAAE JUMPI PUSH2 0xAAD PUSH2 0x882 JUMP JUMPDEST JUMPDEST DUP3 DUP3 MUL SWAP1 POP SWAP3 SWAP2 POP POP JUMP JUMPDEST PUSH32 0x4E487B7100000000000000000000000000000000000000000000000000000000 PUSH1 0x0 MSTORE PUSH1 0x12 PUSH1 0x4 MSTORE PUSH1 0x24 PUSH1 0x0 REVERT JUMPDEST PUSH1 0x0 PUSH2 0xAF3 DUP3 PUSH2 0x6C3 JUMP JUMPDEST SWAP2 POP PUSH2 0xAFE DUP4 PUSH2 0x6C3 JUMP JUMPDEST SWAP3 POP DUP3 PUSH2 0xB0E JUMPI PUSH2 0xB0D PUSH2 0xAB9 JUMP JUMPDEST JUMPDEST DUP3 DUP3 DIV SWAP1 POP SWAP3 SWAP2 POP POP JUMP JUMPDEST PUSH1 0x0 PUSH10 0xFFFFFFFFFFFFFFFFFFFF DUP3 AND SWAP1 POP SWAP2 SWAP1 POP JUMP JUMPDEST PUSH2 0xB38 DUP2 PUSH2 0xB19 JUMP JUMPDEST DUP2 EQ PUSH2 0xB43 JUMPI PUSH1 0x0 DUP1 REVERT JUMPDEST POP JUMP JUMPDEST PUSH1 0x0 DUP2 MLOAD SWAP1 POP PUSH2 0xB55 DUP2 PUSH2 0xB2F JUMP JUMPDEST SWAP3 SWAP2 POP POP JUMP JUMPDEST PUSH1 0x0 DUP2 SWAP1 POP SWAP2 SWAP1 POP JUMP JUMPDEST PUSH2 0xB6E DUP2 PUSH2 0xB5B JUMP JUMPDEST DUP2 EQ PUSH2 0xB79 JUMPI PUSH1 0x0 DUP1 REVERT JUMPDEST POP JUMP JUMPDEST PUSH1 0x0 DUP2 MLOAD SWAP1 POP PUSH2 0xB8B DUP2 PUSH2 0xB65 JUMP JUMPDEST SWAP3 SWAP2 POP POP JUMP JUMPDEST PUSH1 0x0 DUP2 MLOAD SWAP1 POP PUSH2 0xBA0 DUP2 PUSH2 0x6CD JUMP JUMPDEST SWAP3 SWAP2 POP POP JUMP JUMPDEST PUSH1 0x0 DUP1 PUSH1 0x0 DUP1 PUSH1 0x0 PUSH1 0xA0 DUP7 DUP9 SUB SLT ISZERO PUSH2 0xBC2 JUMPI PUSH2 0xBC1 PUSH2 0x6BE JUMP JUMPDEST JUMPDEST PUSH1 0x0 PUSH2 0xBD0 DUP9 DUP3 DUP10 ADD PUSH2 0xB46 JUMP JUMPDEST SWAP6 POP POP PUSH1 0x20 PUSH2 0xBE1 DUP9 DUP3 DUP10 ADD PUSH2 0xB7C JUMP JUMPDEST SWAP5 POP POP PUSH1 0x40 PUSH2 0xBF2 DUP9 DUP3 DUP10 ADD PUSH2 0xB91 JUMP JUMPDEST SWAP4 POP POP PUSH1 0x60 PUSH2 0xC03 DUP9 DUP3 DUP10 ADD PUSH2 0xB91 JUMP JUMPDEST SWAP3 POP POP PUSH1 0x80 PUSH2 0xC14 DUP9 DUP3 DUP10 ADD PUSH2 0xB46 JUMP JUMPDEST SWAP2 POP POP SWAP3 SWAP6 POP SWAP3 SWAP6 SWAP1 SWAP4 POP JUMP JUMPDEST PUSH1 0x0 PUSH2 0xC2C DUP3 PUSH2 0xB5B JUMP JUMPDEST SWAP2 POP PUSH2 0xC37 DUP4 PUSH2 0xB5B JUMP JUMPDEST SWAP3 POP DUP3 PUSH32 0x7FFFFFFFFFFFFFFFFFFFFFFFFFFFFFFFFFFFFFFFFFFFFFFFFFFFFFFFFFFFFFFF DIV DUP3 GT PUSH1 0x0 DUP5 SGT PUSH1 0x0 DUP5 SGT AND AND ISZERO PUSH2 0xC76 JUMPI PUSH2 0xC75 PUSH2 0x882 JUMP JUMPDEST JUMPDEST DUP2 PUSH32 0x8000000000000000000000000000000000000000000000000000000000000000 SDIV DUP4 SLT PUSH1 0x0 DUP5 SLT PUSH1 0x0 DUP5 SGT AND AND ISZERO PUSH2 0xCB3 JUMPI PUSH2 0xCB2 PUSH2 0x882 JUMP JUMPDEST JUMPDEST DUP3 PUSH32 0x8000000000000000000000000000000000000000000000000000000000000000 SDIV DUP3 SLT PUSH1 0x0 DUP5 SGT PUSH1 0x0 DUP5 SLT AND AND ISZERO PUSH2 0xCF0 JUMPI PUSH2 0xCEF PUSH2 0x882 JUMP JUMPDEST JUMPDEST DUP3 PUSH32 0x7FFFFFFFFFFFFFFFFFFFFFFFFFFFFFFFFFFFFFFFFFFFFFFFFFFFFFFFFFFFFFFF SDIV DUP3 SLT PUSH1 0x0 DUP5 SLT PUSH1 0x0 DUP5 SLT AND AND ISZERO PUSH2 0xD2D JUMPI PUSH2 0xD2C PUSH2 0x882 JUMP JUMPDEST JUMPDEST DUP3 DUP3 MUL SWAP1 POP SWAP3 SWAP2 POP POP JUMP INVALID LOG2 PUSH5 0x6970667358 0x22 SLT KECCAK256 BYTE PUSH13 0x82E9D985C363D006AD754E963D 0xC3 PUSH29 0x8BD945E96400FB7423BAD8987016E64736F6C634300080E0033000000 "
				},
				"gasEstimates": {
					"creation": {
						"codeDepositCost": "687600",
						"executionCost": "infinite",
						"totalCost": "infinite"
					},
					"external": {
						"": "infinite",
						"Fund()": "infinite",
						"MINIMUM_FUND()": "373",
						"Withdraw()": "infinite",
						"addreddToAmountFeed(address)": "2814",
						"fundersList(uint256)": "4934",
						"i_owner()": "infinite"
					}
				},
				"methodIdentifiers": {
					"Fund()": "6ce1417e",
					"MINIMUM_FUND()": "5deb0172",
					"Withdraw()": "57ea89b6",
					"addreddToAmountFeed(address)": "520fcd61",
					"fundersList(uint256)": "47ff62c6",
					"i_owner()": "dba6335f"
				}
			},
			"storageLayout": {
				"storage": [
					{
						"astId": 61,
						"contract": "contracts/FundMe.sol:FundMe",
						"label": "fundersList",
						"offset": 0,
						"slot": "0",
						"type": "t_array(t_address)dyn_storage"
					},
					{
						"astId": 65,
						"contract": "contracts/FundMe.sol:FundMe",
						"label": "addreddToAmountFeed",
						"offset": 0,
						"slot": "1",
						"type": "t_mapping(t_address,t_uint256)"
					}
				],
				"types": {
					"t_address": {
						"encoding": "inplace",
						"label": "address",
						"numberOfBytes": "20"
					},
					"t_array(t_address)dyn_storage": {
						"base": "t_address",
						"encoding": "dynamic_array",
						"label": "address[]",
						"numberOfBytes": "32"
					},
					"t_mapping(t_address,t_uint256)": {
						"encoding": "mapping",
						"key": "t_address",
						"label": "mapping(address => uint256)",
						"numberOfBytes": "32",
						"value": "t_uint256"
					},
					"t_uint256": {
						"encoding": "inplace",
						"label": "uint256",
						"numberOfBytes": "32"
					}
				}
			},
			"userdoc": {
				"kind": "user",
				"methods": {},
				"version": 1
			}
		}
	}
}