{
	"contracts/FundMe.sol": {
		"FundMe": {
			"abi": [
				{
					"inputs": [],
					"name": "Fund",
					"outputs": [],
					"stateMutability": "payable",
					"type": "function"
				},
				{
					"inputs": [
						{
							"internalType": "uint256",
							"name": "_etherAmount",
							"type": "uint256"
						}
					],
					"name": "GetConversionRate",
					"outputs": [
						{
							"internalType": "uint256",
							"name": "",
							"type": "uint256"
						}
					],
					"stateMutability": "view",
					"type": "function"
				},
				{
					"inputs": [],
					"name": "GetPrice",
					"outputs": [
						{
							"internalType": "uint256",
							"name": "",
							"type": "uint256"
						}
					],
					"stateMutability": "view",
					"type": "function"
				},
				{
					"inputs": [],
					"name": "GetVersion",
					"outputs": [
						{
							"internalType": "uint256",
							"name": "",
							"type": "uint256"
						}
					],
					"stateMutability": "view",
					"type": "function"
				},
				{
					"inputs": [],
					"name": "minimumFund",
					"outputs": [
						{
							"internalType": "uint256",
							"name": "",
							"type": "uint256"
						}
					],
					"stateMutability": "view",
					"type": "function"
				}
			],
			"devdoc": {
				"kind": "dev",
				"methods": {},
				"version": 1
			},
			"evm": {
				"assembly": "    /* \"contracts/FundMe.sol\":140:1210  contract FundMe{... */\n  mstore(0x40, 0x80)\n    /* \"contracts/FundMe.sol\":193:202  50 * 1e18 */\n  0x02b5e3af16b1880000\n    /* \"contracts/FundMe.sol\":164:202  uint256 public minimumFund = 50 * 1e18 */\n  0x00\n  sstore\n    /* \"contracts/FundMe.sol\":140:1210  contract FundMe{... */\n  callvalue\n  dup1\n  iszero\n  tag_1\n  jumpi\n  0x00\n  dup1\n  revert\ntag_1:\n  pop\n  dataSize(sub_0)\n  dup1\n  dataOffset(sub_0)\n  0x00\n  codecopy\n  0x00\n  return\nstop\n\nsub_0: assembly {\n        /* \"contracts/FundMe.sol\":140:1210  contract FundMe{... */\n      mstore(0x40, 0x80)\n      jumpi(tag_1, lt(calldatasize, 0x04))\n      shr(0xe0, calldataload(0x00))\n      dup1\n      0x66b30f06\n      eq\n      tag_2\n      jumpi\n      dup1\n      0x6ce1417e\n      eq\n      tag_3\n      jumpi\n      dup1\n      0x6d90164e\n      eq\n      tag_4\n      jumpi\n      dup1\n      0x793b233b\n      eq\n      tag_5\n      jumpi\n      dup1\n      0xc6129a5a\n      eq\n      tag_6\n      jumpi\n    tag_1:\n      0x00\n      dup1\n      revert\n        /* \"contracts/FundMe.sol\":164:202  uint256 public minimumFund = 50 * 1e18 */\n    tag_2:\n      callvalue\n      dup1\n      iszero\n      tag_7\n      jumpi\n      0x00\n      dup1\n      revert\n    tag_7:\n      pop\n      tag_8\n      tag_9\n      jump\t// in\n    tag_8:\n      mload(0x40)\n      tag_10\n      swap2\n      swap1\n      tag_11\n      jump\t// in\n    tag_10:\n      mload(0x40)\n      dup1\n      swap2\n      sub\n      swap1\n      return\n        /* \"contracts/FundMe.sol\":213:446  function Fund() public payable{... */\n    tag_3:\n      tag_12\n      tag_13\n      jump\t// in\n    tag_12:\n      stop\n        /* \"contracts/FundMe.sol\":454:720  function GetPrice() public view returns(uint256){... */\n    tag_4:\n      callvalue\n      dup1\n      iszero\n      tag_14\n      jumpi\n      0x00\n      dup1\n      revert\n    tag_14:\n      pop\n      tag_15\n      tag_16\n      jump\t// in\n    tag_15:\n      mload(0x40)\n      tag_17\n      swap2\n      swap1\n      tag_11\n      jump\t// in\n    tag_17:\n      mload(0x40)\n      dup1\n      swap2\n      sub\n      swap1\n      return\n        /* \"contracts/FundMe.sol\":941:1164  function GetConversionRate(uint256 _etherAmount) public view returns(uint256){... */\n    tag_5:\n      callvalue\n      dup1\n      iszero\n      tag_18\n      jumpi\n      0x00\n      dup1\n      revert\n    tag_18:\n      pop\n      tag_19\n      0x04\n      dup1\n      calldatasize\n      sub\n      dup2\n      add\n      swap1\n      tag_20\n      swap2\n      swap1\n      tag_21\n      jump\t// in\n    tag_20:\n      tag_22\n      jump\t// in\n    tag_19:\n      mload(0x40)\n      tag_23\n      swap2\n      swap1\n      tag_11\n      jump\t// in\n    tag_23:\n      mload(0x40)\n      dup1\n      swap2\n      sub\n      swap1\n      return\n        /* \"contracts/FundMe.sol\":728:933  function GetVersion() public view returns(uint256){... */\n    tag_6:\n      callvalue\n      dup1\n      iszero\n      tag_24\n      jumpi\n      0x00\n      dup1\n      revert\n    tag_24:\n      pop\n      tag_25\n      tag_26\n      jump\t// in\n    tag_25:\n      mload(0x40)\n      tag_27\n      swap2\n      swap1\n      tag_11\n      jump\t// in\n    tag_27:\n      mload(0x40)\n      dup1\n      swap2\n      sub\n      swap1\n      return\n        /* \"contracts/FundMe.sol\":164:202  uint256 public minimumFund = 50 * 1e18 */\n    tag_9:\n      sload(0x00)\n      dup2\n      jump\t// out\n        /* \"contracts/FundMe.sol\":213:446  function Fund() public payable{... */\n    tag_13:\n        /* \"contracts/FundMe.sol\":404:415  minimumFund */\n      sload(0x00)\n        /* \"contracts/FundMe.sol\":372:400  GetConversionRate(msg.value) */\n      tag_29\n        /* \"contracts/FundMe.sol\":390:399  msg.value */\n      callvalue\n        /* \"contracts/FundMe.sol\":372:389  GetConversionRate */\n      tag_22\n        /* \"contracts/FundMe.sol\":372:400  GetConversionRate(msg.value) */\n      jump\t// in\n    tag_29:\n        /* \"contracts/FundMe.sol\":372:415  GetConversionRate(msg.value) >= minimumFund */\n      lt\n      iszero\n        /* \"contracts/FundMe.sol\":364:438  require(GetConversionRate(msg.value) >= minimumFund, \"Didn't send enough\") */\n      tag_30\n      jumpi\n      mload(0x40)\n      0x08c379a000000000000000000000000000000000000000000000000000000000\n      dup2\n      mstore\n      0x04\n      add\n      tag_31\n      swap1\n      tag_32\n      jump\t// in\n    tag_31:\n      mload(0x40)\n      dup1\n      swap2\n      sub\n      swap1\n      revert\n    tag_30:\n        /* \"contracts/FundMe.sol\":213:446  function Fund() public payable{... */\n      jump\t// out\n        /* \"contracts/FundMe.sol\":454:720  function GetPrice() public view returns(uint256){... */\n    tag_16:\n        /* \"contracts/FundMe.sol\":494:501  uint256 */\n      0x00\n        /* \"contracts/FundMe.sol\":513:544  AggregatorV3Interface priceFeed */\n      dup1\n        /* \"contracts/FundMe.sol\":569:611  0x8A753747A1Fa494EC906cE90E9f37563A8AF630e */\n      0x8a753747a1fa494ec906ce90e9f37563a8af630e\n        /* \"contracts/FundMe.sol\":513:612  AggregatorV3Interface priceFeed = AggregatorV3Interface(0x8A753747A1Fa494EC906cE90E9f37563A8AF630e) */\n      swap1\n      pop\n        /* \"contracts/FundMe.sol\":626:638  int256 price */\n      0x00\n        /* \"contracts/FundMe.sol\":645:654  priceFeed */\n      dup2\n        /* \"contracts/FundMe.sol\":645:670  priceFeed.latestRoundData */\n      0xffffffffffffffffffffffffffffffffffffffff\n      and\n      0xfeaf968c\n        /* \"contracts/FundMe.sol\":645:672  priceFeed.latestRoundData() */\n      mload(0x40)\n      dup2\n      0xffffffff\n      and\n      0xe0\n      shl\n      dup2\n      mstore\n      0x04\n      add\n      0xa0\n      mload(0x40)\n      dup1\n      dup4\n      sub\n      dup2\n      dup7\n      gas\n      staticcall\n      iszero\n      dup1\n      iszero\n      tag_35\n      jumpi\n      returndatasize\n      0x00\n      dup1\n      returndatacopy\n      revert(0x00, returndatasize)\n    tag_35:\n      pop\n      pop\n      pop\n      pop\n      mload(0x40)\n      returndatasize\n      not(0x1f)\n      0x1f\n      dup3\n      add\n      and\n      dup3\n      add\n      dup1\n      0x40\n      mstore\n      pop\n      dup2\n      add\n      swap1\n      tag_36\n      swap2\n      swap1\n      tag_37\n      jump\t// in\n    tag_36:\n        /* \"contracts/FundMe.sol\":624:672  (,int256 price,,,) = priceFeed.latestRoundData() */\n      pop\n      pop\n      pop\n      swap2\n      pop\n      pop\n        /* \"contracts/FundMe.sol\":707:711  1e10 */\n      0x02540be400\n        /* \"contracts/FundMe.sol\":699:704  price */\n      dup2\n        /* \"contracts/FundMe.sol\":699:711  price * 1e10 */\n      tag_38\n      swap2\n      swap1\n      tag_39\n      jump\t// in\n    tag_38:\n        /* \"contracts/FundMe.sol\":684:712  return uint256(price * 1e10) */\n      swap3\n      pop\n      pop\n      pop\n        /* \"contracts/FundMe.sol\":454:720  function GetPrice() public view returns(uint256){... */\n      swap1\n      jump\t// out\n        /* \"contracts/FundMe.sol\":941:1164  function GetConversionRate(uint256 _etherAmount) public view returns(uint256){... */\n    tag_22:\n        /* \"contracts/FundMe.sol\":1010:1017  uint256 */\n      0x00\n        /* \"contracts/FundMe.sol\":1029:1045  uint256 ethPrice */\n      dup1\n        /* \"contracts/FundMe.sol\":1048:1058  GetPrice() */\n      tag_41\n        /* \"contracts/FundMe.sol\":1048:1056  GetPrice */\n      tag_16\n        /* \"contracts/FundMe.sol\":1048:1058  GetPrice() */\n      jump\t// in\n    tag_41:\n        /* \"contracts/FundMe.sol\":1029:1058  uint256 ethPrice = GetPrice() */\n      swap1\n      pop\n        /* \"contracts/FundMe.sol\":1069:1091  uint256 ethAmountInUsd */\n      0x00\n        /* \"contracts/FundMe.sol\":1120:1124  1e18 */\n      0x0de0b6b3a7640000\n        /* \"contracts/FundMe.sol\":1106:1118  _etherAmount */\n      dup5\n        /* \"contracts/FundMe.sol\":1095:1103  ethPrice */\n      dup4\n        /* \"contracts/FundMe.sol\":1095:1118  ethPrice * _etherAmount */\n      tag_42\n      swap2\n      swap1\n      tag_43\n      jump\t// in\n    tag_42:\n        /* \"contracts/FundMe.sol\":1094:1124  (ethPrice * _etherAmount)/1e18 */\n      tag_44\n      swap2\n      swap1\n      tag_45\n      jump\t// in\n    tag_44:\n        /* \"contracts/FundMe.sol\":1069:1124  uint256 ethAmountInUsd = (ethPrice * _etherAmount)/1e18 */\n      swap1\n      pop\n        /* \"contracts/FundMe.sol\":1142:1156  ethAmountInUsd */\n      dup1\n        /* \"contracts/FundMe.sol\":1135:1156  return ethAmountInUsd */\n      swap3\n      pop\n      pop\n      pop\n        /* \"contracts/FundMe.sol\":941:1164  function GetConversionRate(uint256 _etherAmount) public view returns(uint256){... */\n      swap2\n      swap1\n      pop\n      jump\t// out\n        /* \"contracts/FundMe.sol\":728:933  function GetVersion() public view returns(uint256){... */\n    tag_26:\n        /* \"contracts/FundMe.sol\":770:777  uint256 */\n      0x00\n        /* \"contracts/FundMe.sol\":789:820  AggregatorV3Interface priceFeed */\n      dup1\n        /* \"contracts/FundMe.sol\":845:887  0x8A753747A1Fa494EC906cE90E9f37563A8AF630e */\n      0x8a753747a1fa494ec906ce90e9f37563a8af630e\n        /* \"contracts/FundMe.sol\":789:888  AggregatorV3Interface priceFeed = AggregatorV3Interface(0x8A753747A1Fa494EC906cE90E9f37563A8AF630e) */\n      swap1\n      pop\n        /* \"contracts/FundMe.sol\":906:915  priceFeed */\n      dup1\n        /* \"contracts/FundMe.sol\":906:923  priceFeed.version */\n      0xffffffffffffffffffffffffffffffffffffffff\n      and\n      0x54fd4d50\n        /* \"contracts/FundMe.sol\":906:925  priceFeed.version() */\n      mload(0x40)\n      dup2\n      0xffffffff\n      and\n      0xe0\n      shl\n      dup2\n      mstore\n      0x04\n      add\n      0x20\n      mload(0x40)\n      dup1\n      dup4\n      sub\n      dup2\n      dup7\n      gas\n      staticcall\n      iszero\n      dup1\n      iszero\n      tag_48\n      jumpi\n      returndatasize\n      0x00\n      dup1\n      returndatacopy\n      revert(0x00, returndatasize)\n    tag_48:\n      pop\n      pop\n      pop\n      pop\n      mload(0x40)\n      returndatasize\n      not(0x1f)\n      0x1f\n      dup3\n      add\n      and\n      dup3\n      add\n      dup1\n      0x40\n      mstore\n      pop\n      dup2\n      add\n      swap1\n      tag_49\n      swap2\n      swap1\n      tag_50\n      jump\t// in\n    tag_49:\n        /* \"contracts/FundMe.sol\":899:925  return priceFeed.version() */\n      swap2\n      pop\n      pop\n        /* \"contracts/FundMe.sol\":728:933  function GetVersion() public view returns(uint256){... */\n      swap1\n      jump\t// out\n        /* \"#utility.yul\":7:84   */\n    tag_51:\n        /* \"#utility.yul\":44:51   */\n      0x00\n        /* \"#utility.yul\":73:78   */\n      dup2\n        /* \"#utility.yul\":62:78   */\n      swap1\n      pop\n        /* \"#utility.yul\":7:84   */\n      swap2\n      swap1\n      pop\n      jump\t// out\n        /* \"#utility.yul\":90:208   */\n    tag_52:\n        /* \"#utility.yul\":177:201   */\n      tag_73\n        /* \"#utility.yul\":195:200   */\n      dup2\n        /* \"#utility.yul\":177:201   */\n      tag_51\n      jump\t// in\n    tag_73:\n        /* \"#utility.yul\":172:175   */\n      dup3\n        /* \"#utility.yul\":165:202   */\n      mstore\n        /* \"#utility.yul\":90:208   */\n      pop\n      pop\n      jump\t// out\n        /* \"#utility.yul\":214:436   */\n    tag_11:\n        /* \"#utility.yul\":307:311   */\n      0x00\n        /* \"#utility.yul\":345:347   */\n      0x20\n        /* \"#utility.yul\":334:343   */\n      dup3\n        /* \"#utility.yul\":330:348   */\n      add\n        /* \"#utility.yul\":322:348   */\n      swap1\n      pop\n        /* \"#utility.yul\":358:429   */\n      tag_75\n        /* \"#utility.yul\":426:427   */\n      0x00\n        /* \"#utility.yul\":415:424   */\n      dup4\n        /* \"#utility.yul\":411:428   */\n      add\n        /* \"#utility.yul\":402:408   */\n      dup5\n        /* \"#utility.yul\":358:429   */\n      tag_52\n      jump\t// in\n    tag_75:\n        /* \"#utility.yul\":214:436   */\n      swap3\n      swap2\n      pop\n      pop\n      jump\t// out\n        /* \"#utility.yul\":523:640   */\n    tag_54:\n        /* \"#utility.yul\":632:633   */\n      0x00\n        /* \"#utility.yul\":629:630   */\n      dup1\n        /* \"#utility.yul\":622:634   */\n      revert\n        /* \"#utility.yul\":769:891   */\n    tag_56:\n        /* \"#utility.yul\":842:866   */\n      tag_80\n        /* \"#utility.yul\":860:865   */\n      dup2\n        /* \"#utility.yul\":842:866   */\n      tag_51\n      jump\t// in\n    tag_80:\n        /* \"#utility.yul\":835:840   */\n      dup2\n        /* \"#utility.yul\":832:867   */\n      eq\n        /* \"#utility.yul\":822:885   */\n      tag_81\n      jumpi\n        /* \"#utility.yul\":881:882   */\n      0x00\n        /* \"#utility.yul\":878:879   */\n      dup1\n        /* \"#utility.yul\":871:883   */\n      revert\n        /* \"#utility.yul\":822:885   */\n    tag_81:\n        /* \"#utility.yul\":769:891   */\n      pop\n      jump\t// out\n        /* \"#utility.yul\":897:1036   */\n    tag_57:\n        /* \"#utility.yul\":943:948   */\n      0x00\n        /* \"#utility.yul\":981:987   */\n      dup2\n        /* \"#utility.yul\":968:988   */\n      calldataload\n        /* \"#utility.yul\":959:988   */\n      swap1\n      pop\n        /* \"#utility.yul\":997:1030   */\n      tag_83\n        /* \"#utility.yul\":1024:1029   */\n      dup2\n        /* \"#utility.yul\":997:1030   */\n      tag_56\n      jump\t// in\n    tag_83:\n        /* \"#utility.yul\":897:1036   */\n      swap3\n      swap2\n      pop\n      pop\n      jump\t// out\n        /* \"#utility.yul\":1042:1371   */\n    tag_21:\n        /* \"#utility.yul\":1101:1107   */\n      0x00\n        /* \"#utility.yul\":1150:1152   */\n      0x20\n        /* \"#utility.yul\":1138:1147   */\n      dup3\n        /* \"#utility.yul\":1129:1136   */\n      dup5\n        /* \"#utility.yul\":1125:1148   */\n      sub\n        /* \"#utility.yul\":1121:1153   */\n      slt\n        /* \"#utility.yul\":1118:1237   */\n      iszero\n      tag_85\n      jumpi\n        /* \"#utility.yul\":1156:1235   */\n      tag_86\n      tag_54\n      jump\t// in\n    tag_86:\n        /* \"#utility.yul\":1118:1237   */\n    tag_85:\n        /* \"#utility.yul\":1276:1277   */\n      0x00\n        /* \"#utility.yul\":1301:1354   */\n      tag_87\n        /* \"#utility.yul\":1346:1353   */\n      dup5\n        /* \"#utility.yul\":1337:1343   */\n      dup3\n        /* \"#utility.yul\":1326:1335   */\n      dup6\n        /* \"#utility.yul\":1322:1344   */\n      add\n        /* \"#utility.yul\":1301:1354   */\n      tag_57\n      jump\t// in\n    tag_87:\n        /* \"#utility.yul\":1291:1354   */\n      swap2\n      pop\n        /* \"#utility.yul\":1247:1364   */\n      pop\n        /* \"#utility.yul\":1042:1371   */\n      swap3\n      swap2\n      pop\n      pop\n      jump\t// out\n        /* \"#utility.yul\":1377:1546   */\n    tag_58:\n        /* \"#utility.yul\":1461:1472   */\n      0x00\n        /* \"#utility.yul\":1495:1501   */\n      dup3\n        /* \"#utility.yul\":1490:1493   */\n      dup3\n        /* \"#utility.yul\":1483:1502   */\n      mstore\n        /* \"#utility.yul\":1535:1539   */\n      0x20\n        /* \"#utility.yul\":1530:1533   */\n      dup3\n        /* \"#utility.yul\":1526:1540   */\n      add\n        /* \"#utility.yul\":1511:1540   */\n      swap1\n      pop\n        /* \"#utility.yul\":1377:1546   */\n      swap3\n      swap2\n      pop\n      pop\n      jump\t// out\n        /* \"#utility.yul\":1552:1720   */\n    tag_59:\n        /* \"#utility.yul\":1692:1712   */\n      0x4469646e27742073656e6420656e6f7567680000000000000000000000000000\n        /* \"#utility.yul\":1688:1689   */\n      0x00\n        /* \"#utility.yul\":1680:1686   */\n      dup3\n        /* \"#utility.yul\":1676:1690   */\n      add\n        /* \"#utility.yul\":1669:1713   */\n      mstore\n        /* \"#utility.yul\":1552:1720   */\n      pop\n      jump\t// out\n        /* \"#utility.yul\":1726:2092   */\n    tag_60:\n        /* \"#utility.yul\":1868:1871   */\n      0x00\n        /* \"#utility.yul\":1889:1956   */\n      tag_91\n        /* \"#utility.yul\":1953:1955   */\n      0x12\n        /* \"#utility.yul\":1948:1951   */\n      dup4\n        /* \"#utility.yul\":1889:1956   */\n      tag_58\n      jump\t// in\n    tag_91:\n        /* \"#utility.yul\":1882:1956   */\n      swap2\n      pop\n        /* \"#utility.yul\":1965:2058   */\n      tag_92\n        /* \"#utility.yul\":2054:2057   */\n      dup3\n        /* \"#utility.yul\":1965:2058   */\n      tag_59\n      jump\t// in\n    tag_92:\n        /* \"#utility.yul\":2083:2085   */\n      0x20\n        /* \"#utility.yul\":2078:2081   */\n      dup3\n        /* \"#utility.yul\":2074:2086   */\n      add\n        /* \"#utility.yul\":2067:2086   */\n      swap1\n      pop\n        /* \"#utility.yul\":1726:2092   */\n      swap2\n      swap1\n      pop\n      jump\t// out\n        /* \"#utility.yul\":2098:2517   */\n    tag_32:\n        /* \"#utility.yul\":2264:2268   */\n      0x00\n        /* \"#utility.yul\":2302:2304   */\n      0x20\n        /* \"#utility.yul\":2291:2300   */\n      dup3\n        /* \"#utility.yul\":2287:2305   */\n      add\n        /* \"#utility.yul\":2279:2305   */\n      swap1\n      pop\n        /* \"#utility.yul\":2351:2360   */\n      dup2\n        /* \"#utility.yul\":2345:2349   */\n      dup2\n        /* \"#utility.yul\":2341:2361   */\n      sub\n        /* \"#utility.yul\":2337:2338   */\n      0x00\n        /* \"#utility.yul\":2326:2335   */\n      dup4\n        /* \"#utility.yul\":2322:2339   */\n      add\n        /* \"#utility.yul\":2315:2362   */\n      mstore\n        /* \"#utility.yul\":2379:2510   */\n      tag_94\n        /* \"#utility.yul\":2505:2509   */\n      dup2\n        /* \"#utility.yul\":2379:2510   */\n      tag_60\n      jump\t// in\n    tag_94:\n        /* \"#utility.yul\":2371:2510   */\n      swap1\n      pop\n        /* \"#utility.yul\":2098:2517   */\n      swap2\n      swap1\n      pop\n      jump\t// out\n        /* \"#utility.yul\":2523:2628   */\n    tag_61:\n        /* \"#utility.yul\":2559:2566   */\n      0x00\n        /* \"#utility.yul\":2599:2621   */\n      0xffffffffffffffffffff\n        /* \"#utility.yul\":2592:2597   */\n      dup3\n        /* \"#utility.yul\":2588:2622   */\n      and\n        /* \"#utility.yul\":2577:2622   */\n      swap1\n      pop\n        /* \"#utility.yul\":2523:2628   */\n      swap2\n      swap1\n      pop\n      jump\t// out\n        /* \"#utility.yul\":2634:2754   */\n    tag_62:\n        /* \"#utility.yul\":2706:2729   */\n      tag_97\n        /* \"#utility.yul\":2723:2728   */\n      dup2\n        /* \"#utility.yul\":2706:2729   */\n      tag_61\n      jump\t// in\n    tag_97:\n        /* \"#utility.yul\":2699:2704   */\n      dup2\n        /* \"#utility.yul\":2696:2730   */\n      eq\n        /* \"#utility.yul\":2686:2748   */\n      tag_98\n      jumpi\n        /* \"#utility.yul\":2744:2745   */\n      0x00\n        /* \"#utility.yul\":2741:2742   */\n      dup1\n        /* \"#utility.yul\":2734:2746   */\n      revert\n        /* \"#utility.yul\":2686:2748   */\n    tag_98:\n        /* \"#utility.yul\":2634:2754   */\n      pop\n      jump\t// out\n        /* \"#utility.yul\":2760:2901   */\n    tag_63:\n        /* \"#utility.yul\":2816:2821   */\n      0x00\n        /* \"#utility.yul\":2847:2853   */\n      dup2\n        /* \"#utility.yul\":2841:2854   */\n      mload\n        /* \"#utility.yul\":2832:2854   */\n      swap1\n      pop\n        /* \"#utility.yul\":2863:2895   */\n      tag_100\n        /* \"#utility.yul\":2889:2894   */\n      dup2\n        /* \"#utility.yul\":2863:2895   */\n      tag_62\n      jump\t// in\n    tag_100:\n        /* \"#utility.yul\":2760:2901   */\n      swap3\n      swap2\n      pop\n      pop\n      jump\t// out\n        /* \"#utility.yul\":2907:2983   */\n    tag_64:\n        /* \"#utility.yul\":2943:2950   */\n      0x00\n        /* \"#utility.yul\":2972:2977   */\n      dup2\n        /* \"#utility.yul\":2961:2977   */\n      swap1\n      pop\n        /* \"#utility.yul\":2907:2983   */\n      swap2\n      swap1\n      pop\n      jump\t// out\n        /* \"#utility.yul\":2989:3109   */\n    tag_65:\n        /* \"#utility.yul\":3061:3084   */\n      tag_103\n        /* \"#utility.yul\":3078:3083   */\n      dup2\n        /* \"#utility.yul\":3061:3084   */\n      tag_64\n      jump\t// in\n    tag_103:\n        /* \"#utility.yul\":3054:3059   */\n      dup2\n        /* \"#utility.yul\":3051:3085   */\n      eq\n        /* \"#utility.yul\":3041:3103   */\n      tag_104\n      jumpi\n        /* \"#utility.yul\":3099:3100   */\n      0x00\n        /* \"#utility.yul\":3096:3097   */\n      dup1\n        /* \"#utility.yul\":3089:3101   */\n      revert\n        /* \"#utility.yul\":3041:3103   */\n    tag_104:\n        /* \"#utility.yul\":2989:3109   */\n      pop\n      jump\t// out\n        /* \"#utility.yul\":3115:3256   */\n    tag_66:\n        /* \"#utility.yul\":3171:3176   */\n      0x00\n        /* \"#utility.yul\":3202:3208   */\n      dup2\n        /* \"#utility.yul\":3196:3209   */\n      mload\n        /* \"#utility.yul\":3187:3209   */\n      swap1\n      pop\n        /* \"#utility.yul\":3218:3250   */\n      tag_106\n        /* \"#utility.yul\":3244:3249   */\n      dup2\n        /* \"#utility.yul\":3218:3250   */\n      tag_65\n      jump\t// in\n    tag_106:\n        /* \"#utility.yul\":3115:3256   */\n      swap3\n      swap2\n      pop\n      pop\n      jump\t// out\n        /* \"#utility.yul\":3262:3405   */\n    tag_67:\n        /* \"#utility.yul\":3319:3324   */\n      0x00\n        /* \"#utility.yul\":3350:3356   */\n      dup2\n        /* \"#utility.yul\":3344:3357   */\n      mload\n        /* \"#utility.yul\":3335:3357   */\n      swap1\n      pop\n        /* \"#utility.yul\":3366:3399   */\n      tag_108\n        /* \"#utility.yul\":3393:3398   */\n      dup2\n        /* \"#utility.yul\":3366:3399   */\n      tag_56\n      jump\t// in\n    tag_108:\n        /* \"#utility.yul\":3262:3405   */\n      swap3\n      swap2\n      pop\n      pop\n      jump\t// out\n        /* \"#utility.yul\":3411:4382   */\n    tag_37:\n        /* \"#utility.yul\":3514:3520   */\n      0x00\n        /* \"#utility.yul\":3522:3528   */\n      dup1\n        /* \"#utility.yul\":3530:3536   */\n      0x00\n        /* \"#utility.yul\":3538:3544   */\n      dup1\n        /* \"#utility.yul\":3546:3552   */\n      0x00\n        /* \"#utility.yul\":3595:3598   */\n      0xa0\n        /* \"#utility.yul\":3583:3592   */\n      dup7\n        /* \"#utility.yul\":3574:3581   */\n      dup9\n        /* \"#utility.yul\":3570:3593   */\n      sub\n        /* \"#utility.yul\":3566:3599   */\n      slt\n        /* \"#utility.yul\":3563:3683   */\n      iszero\n      tag_110\n      jumpi\n        /* \"#utility.yul\":3602:3681   */\n      tag_111\n      tag_54\n      jump\t// in\n    tag_111:\n        /* \"#utility.yul\":3563:3683   */\n    tag_110:\n        /* \"#utility.yul\":3722:3723   */\n      0x00\n        /* \"#utility.yul\":3747:3810   */\n      tag_112\n        /* \"#utility.yul\":3802:3809   */\n      dup9\n        /* \"#utility.yul\":3793:3799   */\n      dup3\n        /* \"#utility.yul\":3782:3791   */\n      dup10\n        /* \"#utility.yul\":3778:3800   */\n      add\n        /* \"#utility.yul\":3747:3810   */\n      tag_63\n      jump\t// in\n    tag_112:\n        /* \"#utility.yul\":3737:3810   */\n      swap6\n      pop\n        /* \"#utility.yul\":3693:3820   */\n      pop\n        /* \"#utility.yul\":3859:3861   */\n      0x20\n        /* \"#utility.yul\":3885:3948   */\n      tag_113\n        /* \"#utility.yul\":3940:3947   */\n      dup9\n        /* \"#utility.yul\":3931:3937   */\n      dup3\n        /* \"#utility.yul\":3920:3929   */\n      dup10\n        /* \"#utility.yul\":3916:3938   */\n      add\n        /* \"#utility.yul\":3885:3948   */\n      tag_66\n      jump\t// in\n    tag_113:\n        /* \"#utility.yul\":3875:3948   */\n      swap5\n      pop\n        /* \"#utility.yul\":3830:3958   */\n      pop\n        /* \"#utility.yul\":3997:3999   */\n      0x40\n        /* \"#utility.yul\":4023:4087   */\n      tag_114\n        /* \"#utility.yul\":4079:4086   */\n      dup9\n        /* \"#utility.yul\":4070:4076   */\n      dup3\n        /* \"#utility.yul\":4059:4068   */\n      dup10\n        /* \"#utility.yul\":4055:4077   */\n      add\n        /* \"#utility.yul\":4023:4087   */\n      tag_67\n      jump\t// in\n    tag_114:\n        /* \"#utility.yul\":4013:4087   */\n      swap4\n      pop\n        /* \"#utility.yul\":3968:4097   */\n      pop\n        /* \"#utility.yul\":4136:4138   */\n      0x60\n        /* \"#utility.yul\":4162:4226   */\n      tag_115\n        /* \"#utility.yul\":4218:4225   */\n      dup9\n        /* \"#utility.yul\":4209:4215   */\n      dup3\n        /* \"#utility.yul\":4198:4207   */\n      dup10\n        /* \"#utility.yul\":4194:4216   */\n      add\n        /* \"#utility.yul\":4162:4226   */\n      tag_67\n      jump\t// in\n    tag_115:\n        /* \"#utility.yul\":4152:4226   */\n      swap3\n      pop\n        /* \"#utility.yul\":4107:4236   */\n      pop\n        /* \"#utility.yul\":4275:4278   */\n      0x80\n        /* \"#utility.yul\":4302:4365   */\n      tag_116\n        /* \"#utility.yul\":4357:4364   */\n      dup9\n        /* \"#utility.yul\":4348:4354   */\n      dup3\n        /* \"#utility.yul\":4337:4346   */\n      dup10\n        /* \"#utility.yul\":4333:4355   */\n      add\n        /* \"#utility.yul\":4302:4365   */\n      tag_63\n      jump\t// in\n    tag_116:\n        /* \"#utility.yul\":4292:4365   */\n      swap2\n      pop\n        /* \"#utility.yul\":4246:4375   */\n      pop\n        /* \"#utility.yul\":3411:4382   */\n      swap3\n      swap6\n      pop\n      swap3\n      swap6\n      swap1\n      swap4\n      pop\n      jump\t// out\n        /* \"#utility.yul\":4388:4568   */\n    tag_68:\n        /* \"#utility.yul\":4436:4513   */\n      0x4e487b7100000000000000000000000000000000000000000000000000000000\n        /* \"#utility.yul\":4433:4434   */\n      0x00\n        /* \"#utility.yul\":4426:4514   */\n      mstore\n        /* \"#utility.yul\":4533:4537   */\n      0x11\n        /* \"#utility.yul\":4530:4531   */\n      0x04\n        /* \"#utility.yul\":4523:4538   */\n      mstore\n        /* \"#utility.yul\":4557:4561   */\n      0x24\n        /* \"#utility.yul\":4554:4555   */\n      0x00\n        /* \"#utility.yul\":4547:4562   */\n      revert\n        /* \"#utility.yul\":4574:5565   */\n    tag_39:\n        /* \"#utility.yul\":4613:4620   */\n      0x00\n        /* \"#utility.yul\":4636:4655   */\n      tag_119\n        /* \"#utility.yul\":4653:4654   */\n      dup3\n        /* \"#utility.yul\":4636:4655   */\n      tag_64\n      jump\t// in\n    tag_119:\n        /* \"#utility.yul\":4631:4655   */\n      swap2\n      pop\n        /* \"#utility.yul\":4669:4688   */\n      tag_120\n        /* \"#utility.yul\":4686:4687   */\n      dup4\n        /* \"#utility.yul\":4669:4688   */\n      tag_64\n      jump\t// in\n    tag_120:\n        /* \"#utility.yul\":4664:4688   */\n      swap3\n      pop\n        /* \"#utility.yul\":4870:4871   */\n      dup3\n        /* \"#utility.yul\":4802:4868   */\n      0x7fffffffffffffffffffffffffffffffffffffffffffffffffffffffffffffff\n        /* \"#utility.yul\":4798:4872   */\n      div\n        /* \"#utility.yul\":4795:4796   */\n      dup3\n        /* \"#utility.yul\":4792:4873   */\n      gt\n        /* \"#utility.yul\":4787:4788   */\n      0x00\n        /* \"#utility.yul\":4784:4785   */\n      dup5\n        /* \"#utility.yul\":4780:4789   */\n      sgt\n        /* \"#utility.yul\":4776:4777   */\n      0x00\n        /* \"#utility.yul\":4773:4774   */\n      dup5\n        /* \"#utility.yul\":4769:4778   */\n      sgt\n        /* \"#utility.yul\":4765:4790   */\n      and\n        /* \"#utility.yul\":4761:4874   */\n      and\n        /* \"#utility.yul\":4758:4897   */\n      iszero\n      tag_121\n      jumpi\n        /* \"#utility.yul\":4877:4895   */\n      tag_122\n      tag_68\n      jump\t// in\n    tag_122:\n        /* \"#utility.yul\":4758:4897   */\n    tag_121:\n        /* \"#utility.yul\":5081:5082   */\n      dup2\n        /* \"#utility.yul\":5013:5079   */\n      0x8000000000000000000000000000000000000000000000000000000000000000\n        /* \"#utility.yul\":5008:5083   */\n      sdiv\n        /* \"#utility.yul\":5005:5006   */\n      dup4\n        /* \"#utility.yul\":5001:5084   */\n      slt\n        /* \"#utility.yul\":4996:4997   */\n      0x00\n        /* \"#utility.yul\":4993:4994   */\n      dup5\n        /* \"#utility.yul\":4989:4998   */\n      slt\n        /* \"#utility.yul\":4985:4986   */\n      0x00\n        /* \"#utility.yul\":4982:4983   */\n      dup5\n        /* \"#utility.yul\":4978:4987   */\n      sgt\n        /* \"#utility.yul\":4974:4999   */\n      and\n        /* \"#utility.yul\":4970:5085   */\n      and\n        /* \"#utility.yul\":4967:5108   */\n      iszero\n      tag_123\n      jumpi\n        /* \"#utility.yul\":5088:5106   */\n      tag_124\n      tag_68\n      jump\t// in\n    tag_124:\n        /* \"#utility.yul\":4967:5108   */\n    tag_123:\n        /* \"#utility.yul\":5292:5293   */\n      dup3\n        /* \"#utility.yul\":5224:5290   */\n      0x8000000000000000000000000000000000000000000000000000000000000000\n        /* \"#utility.yul\":5219:5294   */\n      sdiv\n        /* \"#utility.yul\":5216:5217   */\n      dup3\n        /* \"#utility.yul\":5212:5295   */\n      slt\n        /* \"#utility.yul\":5207:5208   */\n      0x00\n        /* \"#utility.yul\":5204:5205   */\n      dup5\n        /* \"#utility.yul\":5200:5209   */\n      sgt\n        /* \"#utility.yul\":5196:5197   */\n      0x00\n        /* \"#utility.yul\":5193:5194   */\n      dup5\n        /* \"#utility.yul\":5189:5198   */\n      slt\n        /* \"#utility.yul\":5185:5210   */\n      and\n        /* \"#utility.yul\":5181:5296   */\n      and\n        /* \"#utility.yul\":5178:5319   */\n      iszero\n      tag_125\n      jumpi\n        /* \"#utility.yul\":5299:5317   */\n      tag_126\n      tag_68\n      jump\t// in\n    tag_126:\n        /* \"#utility.yul\":5178:5319   */\n    tag_125:\n        /* \"#utility.yul\":5502:5503   */\n      dup3\n        /* \"#utility.yul\":5434:5500   */\n      0x7fffffffffffffffffffffffffffffffffffffffffffffffffffffffffffffff\n        /* \"#utility.yul\":5429:5504   */\n      sdiv\n        /* \"#utility.yul\":5426:5427   */\n      dup3\n        /* \"#utility.yul\":5422:5505   */\n      slt\n        /* \"#utility.yul\":5417:5418   */\n      0x00\n        /* \"#utility.yul\":5414:5415   */\n      dup5\n        /* \"#utility.yul\":5410:5419   */\n      slt\n        /* \"#utility.yul\":5406:5407   */\n      0x00\n        /* \"#utility.yul\":5403:5404   */\n      dup5\n        /* \"#utility.yul\":5399:5408   */\n      slt\n        /* \"#utility.yul\":5395:5420   */\n      and\n        /* \"#utility.yul\":5391:5506   */\n      and\n        /* \"#utility.yul\":5388:5529   */\n      iszero\n      tag_127\n      jumpi\n        /* \"#utility.yul\":5509:5527   */\n      tag_128\n      tag_68\n      jump\t// in\n    tag_128:\n        /* \"#utility.yul\":5388:5529   */\n    tag_127:\n        /* \"#utility.yul\":5557:5558   */\n      dup3\n        /* \"#utility.yul\":5554:5555   */\n      dup3\n        /* \"#utility.yul\":5550:5559   */\n      mul\n        /* \"#utility.yul\":5539:5559   */\n      swap1\n      pop\n        /* \"#utility.yul\":4574:5565   */\n      swap3\n      swap2\n      pop\n      pop\n      jump\t// out\n        /* \"#utility.yul\":5571:5919   */\n    tag_43:\n        /* \"#utility.yul\":5611:5618   */\n      0x00\n        /* \"#utility.yul\":5634:5654   */\n      tag_130\n        /* \"#utility.yul\":5652:5653   */\n      dup3\n        /* \"#utility.yul\":5634:5654   */\n      tag_51\n      jump\t// in\n    tag_130:\n        /* \"#utility.yul\":5629:5654   */\n      swap2\n      pop\n        /* \"#utility.yul\":5668:5688   */\n      tag_131\n        /* \"#utility.yul\":5686:5687   */\n      dup4\n        /* \"#utility.yul\":5668:5688   */\n      tag_51\n      jump\t// in\n    tag_131:\n        /* \"#utility.yul\":5663:5688   */\n      swap3\n      pop\n        /* \"#utility.yul\":5856:5857   */\n      dup2\n        /* \"#utility.yul\":5788:5854   */\n      0xffffffffffffffffffffffffffffffffffffffffffffffffffffffffffffffff\n        /* \"#utility.yul\":5784:5858   */\n      div\n        /* \"#utility.yul\":5781:5782   */\n      dup4\n        /* \"#utility.yul\":5778:5859   */\n      gt\n        /* \"#utility.yul\":5773:5774   */\n      dup3\n        /* \"#utility.yul\":5766:5775   */\n      iszero\n        /* \"#utility.yul\":5759:5776   */\n      iszero\n        /* \"#utility.yul\":5755:5860   */\n      and\n        /* \"#utility.yul\":5752:5883   */\n      iszero\n      tag_132\n      jumpi\n        /* \"#utility.yul\":5863:5881   */\n      tag_133\n      tag_68\n      jump\t// in\n    tag_133:\n        /* \"#utility.yul\":5752:5883   */\n    tag_132:\n        /* \"#utility.yul\":5911:5912   */\n      dup3\n        /* \"#utility.yul\":5908:5909   */\n      dup3\n        /* \"#utility.yul\":5904:5913   */\n      mul\n        /* \"#utility.yul\":5893:5913   */\n      swap1\n      pop\n        /* \"#utility.yul\":5571:5919   */\n      swap3\n      swap2\n      pop\n      pop\n      jump\t// out\n        /* \"#utility.yul\":5925:6105   */\n    tag_69:\n        /* \"#utility.yul\":5973:6050   */\n      0x4e487b7100000000000000000000000000000000000000000000000000000000\n        /* \"#utility.yul\":5970:5971   */\n      0x00\n        /* \"#utility.yul\":5963:6051   */\n      mstore\n        /* \"#utility.yul\":6070:6074   */\n      0x12\n        /* \"#utility.yul\":6067:6068   */\n      0x04\n        /* \"#utility.yul\":6060:6075   */\n      mstore\n        /* \"#utility.yul\":6094:6098   */\n      0x24\n        /* \"#utility.yul\":6091:6092   */\n      0x00\n        /* \"#utility.yul\":6084:6099   */\n      revert\n        /* \"#utility.yul\":6111:6296   */\n    tag_45:\n        /* \"#utility.yul\":6151:6152   */\n      0x00\n        /* \"#utility.yul\":6168:6188   */\n      tag_136\n        /* \"#utility.yul\":6186:6187   */\n      dup3\n        /* \"#utility.yul\":6168:6188   */\n      tag_51\n      jump\t// in\n    tag_136:\n        /* \"#utility.yul\":6163:6188   */\n      swap2\n      pop\n        /* \"#utility.yul\":6202:6222   */\n      tag_137\n        /* \"#utility.yul\":6220:6221   */\n      dup4\n        /* \"#utility.yul\":6202:6222   */\n      tag_51\n      jump\t// in\n    tag_137:\n        /* \"#utility.yul\":6197:6222   */\n      swap3\n      pop\n        /* \"#utility.yul\":6241:6242   */\n      dup3\n        /* \"#utility.yul\":6231:6266   */\n      tag_138\n      jumpi\n        /* \"#utility.yul\":6246:6264   */\n      tag_139\n      tag_69\n      jump\t// in\n    tag_139:\n        /* \"#utility.yul\":6231:6266   */\n    tag_138:\n        /* \"#utility.yul\":6288:6289   */\n      dup3\n        /* \"#utility.yul\":6285:6286   */\n      dup3\n        /* \"#utility.yul\":6281:6290   */\n      div\n        /* \"#utility.yul\":6276:6290   */\n      swap1\n      pop\n        /* \"#utility.yul\":6111:6296   */\n      swap3\n      swap2\n      pop\n      pop\n      jump\t// out\n        /* \"#utility.yul\":6302:6653   */\n    tag_50:\n        /* \"#utility.yul\":6372:6378   */\n      0x00\n        /* \"#utility.yul\":6421:6423   */\n      0x20\n        /* \"#utility.yul\":6409:6418   */\n      dup3\n        /* \"#utility.yul\":6400:6407   */\n      dup5\n        /* \"#utility.yul\":6396:6419   */\n      sub\n        /* \"#utility.yul\":6392:6424   */\n      slt\n        /* \"#utility.yul\":6389:6508   */\n      iszero\n      tag_141\n      jumpi\n        /* \"#utility.yul\":6427:6506   */\n      tag_142\n      tag_54\n      jump\t// in\n    tag_142:\n        /* \"#utility.yul\":6389:6508   */\n    tag_141:\n        /* \"#utility.yul\":6547:6548   */\n      0x00\n        /* \"#utility.yul\":6572:6636   */\n      tag_143\n        /* \"#utility.yul\":6628:6635   */\n      dup5\n        /* \"#utility.yul\":6619:6625   */\n      dup3\n        /* \"#utility.yul\":6608:6617   */\n      dup6\n        /* \"#utility.yul\":6604:6626   */\n      add\n        /* \"#utility.yul\":6572:6636   */\n      tag_67\n      jump\t// in\n    tag_143:\n        /* \"#utility.yul\":6562:6636   */\n      swap2\n      pop\n        /* \"#utility.yul\":6518:6646   */\n      pop\n        /* \"#utility.yul\":6302:6653   */\n      swap3\n      swap2\n      pop\n      pop\n      jump\t// out\n\n    auxdata: 0xa2646970667358221220b23cd5dd99cef748a96a9a6f3f30fc5f5241a2742ab5ddf29c097002c837f82064736f6c634300080d0033\n}\n",
				"bytecode": {
					"linkReferences": {},
					"object": "60806040526802b5e3af16b188000060005534801561001d57600080fd5b506107588061002d6000396000f3fe60806040526004361061004a5760003560e01c806366b30f061461004f5780636ce1417e1461007a5780636d90164e14610084578063793b233b146100af578063c6129a5a146100ec575b600080fd5b34801561005b57600080fd5b50610064610117565b60405161007191906102f7565b60405180910390f35b61008261011d565b005b34801561009057600080fd5b5061009961016c565b6040516100a691906102f7565b60405180910390f35b3480156100bb57600080fd5b506100d660048036038101906100d19190610343565b610215565b6040516100e391906102f7565b60405180910390f35b3480156100f857600080fd5b5061010161024f565b60405161010e91906102f7565b60405180910390f35b60005481565b60005461012934610215565b101561016a576040517f08c379a0000000000000000000000000000000000000000000000000000000008152600401610161906103cd565b60405180910390fd5b565b600080738a753747a1fa494ec906ce90e9f37563a8af630e905060008173ffffffffffffffffffffffffffffffffffffffff1663feaf968c6040518163ffffffff1660e01b815260040160a060405180830381865afa1580156101d3573d6000803e3d6000fd5b505050506040513d601f19601f820116820180604052508101906101f7919061047a565b5050509150506402540be4008161020e9190610524565b9250505090565b60008061022061016c565b90506000670de0b6b3a76400008483610239919061063b565b61024391906106c4565b90508092505050919050565b600080738a753747a1fa494ec906ce90e9f37563a8af630e90508073ffffffffffffffffffffffffffffffffffffffff166354fd4d506040518163ffffffff1660e01b8152600401602060405180830381865afa1580156102b4573d6000803e3d6000fd5b505050506040513d601f19601f820116820180604052508101906102d891906106f5565b91505090565b6000819050919050565b6102f1816102de565b82525050565b600060208201905061030c60008301846102e8565b92915050565b600080fd5b610320816102de565b811461032b57600080fd5b50565b60008135905061033d81610317565b92915050565b60006020828403121561035957610358610312565b5b60006103678482850161032e565b91505092915050565b600082825260208201905092915050565b7f4469646e27742073656e6420656e6f7567680000000000000000000000000000600082015250565b60006103b7601283610370565b91506103c282610381565b602082019050919050565b600060208201905081810360008301526103e6816103aa565b9050919050565b600069ffffffffffffffffffff82169050919050565b61040c816103ed565b811461041757600080fd5b50565b60008151905061042981610403565b92915050565b6000819050919050565b6104428161042f565b811461044d57600080fd5b50565b60008151905061045f81610439565b92915050565b60008151905061047481610317565b92915050565b600080600080600060a0868803121561049657610495610312565b5b60006104a48882890161041a565b95505060206104b588828901610450565b94505060406104c688828901610465565b93505060606104d788828901610465565b92505060806104e88882890161041a565b9150509295509295909350565b7f4e487b7100000000000000000000000000000000000000000000000000000000600052601160045260246000fd5b600061052f8261042f565b915061053a8361042f565b9250827f7fffffffffffffffffffffffffffffffffffffffffffffffffffffffffffffff0482116000841360008413161615610579576105786104f5565b5b817f800000000000000000000000000000000000000000000000000000000000000005831260008412600084131616156105b6576105b56104f5565b5b827f800000000000000000000000000000000000000000000000000000000000000005821260008413600084121616156105f3576105f26104f5565b5b827f7fffffffffffffffffffffffffffffffffffffffffffffffffffffffffffffff05821260008412600084121616156106305761062f6104f5565b5b828202905092915050565b6000610646826102de565b9150610651836102de565b9250817fffffffffffffffffffffffffffffffffffffffffffffffffffffffffffffffff048311821515161561068a576106896104f5565b5b828202905092915050565b7f4e487b7100000000000000000000000000000000000000000000000000000000600052601260045260246000fd5b60006106cf826102de565b91506106da836102de565b9250826106ea576106e9610695565b5b828204905092915050565b60006020828403121561070b5761070a610312565b5b600061071984828501610465565b9150509291505056fea2646970667358221220b23cd5dd99cef748a96a9a6f3f30fc5f5241a2742ab5ddf29c097002c837f82064736f6c634300080d0033",
					"opcodes": "PUSH1 0x80 PUSH1 0x40 MSTORE PUSH9 0x2B5E3AF16B1880000 PUSH1 0x0 SSTORE CALLVALUE DUP1 ISZERO PUSH2 0x1D JUMPI PUSH1 0x0 DUP1 REVERT JUMPDEST POP PUSH2 0x758 DUP1 PUSH2 0x2D PUSH1 0x0 CODECOPY PUSH1 0x0 RETURN INVALID PUSH1 0x80 PUSH1 0x40 MSTORE PUSH1 0x4 CALLDATASIZE LT PUSH2 0x4A JUMPI PUSH1 0x0 CALLDATALOAD PUSH1 0xE0 SHR DUP1 PUSH4 0x66B30F06 EQ PUSH2 0x4F JUMPI DUP1 PUSH4 0x6CE1417E EQ PUSH2 0x7A JUMPI DUP1 PUSH4 0x6D90164E EQ PUSH2 0x84 JUMPI DUP1 PUSH4 0x793B233B EQ PUSH2 0xAF JUMPI DUP1 PUSH4 0xC6129A5A EQ PUSH2 0xEC JUMPI JUMPDEST PUSH1 0x0 DUP1 REVERT JUMPDEST CALLVALUE DUP1 ISZERO PUSH2 0x5B JUMPI PUSH1 0x0 DUP1 REVERT JUMPDEST POP PUSH2 0x64 PUSH2 0x117 JUMP JUMPDEST PUSH1 0x40 MLOAD PUSH2 0x71 SWAP2 SWAP1 PUSH2 0x2F7 JUMP JUMPDEST PUSH1 0x40 MLOAD DUP1 SWAP2 SUB SWAP1 RETURN JUMPDEST PUSH2 0x82 PUSH2 0x11D JUMP JUMPDEST STOP JUMPDEST CALLVALUE DUP1 ISZERO PUSH2 0x90 JUMPI PUSH1 0x0 DUP1 REVERT JUMPDEST POP PUSH2 0x99 PUSH2 0x16C JUMP JUMPDEST PUSH1 0x40 MLOAD PUSH2 0xA6 SWAP2 SWAP1 PUSH2 0x2F7 JUMP JUMPDEST PUSH1 0x40 MLOAD DUP1 SWAP2 SUB SWAP1 RETURN JUMPDEST CALLVALUE DUP1 ISZERO PUSH2 0xBB JUMPI PUSH1 0x0 DUP1 REVERT JUMPDEST POP PUSH2 0xD6 PUSH1 0x4 DUP1 CALLDATASIZE SUB DUP2 ADD SWAP1 PUSH2 0xD1 SWAP2 SWAP1 PUSH2 0x343 JUMP JUMPDEST PUSH2 0x215 JUMP JUMPDEST PUSH1 0x40 MLOAD PUSH2 0xE3 SWAP2 SWAP1 PUSH2 0x2F7 JUMP JUMPDEST PUSH1 0x40 MLOAD DUP1 SWAP2 SUB SWAP1 RETURN JUMPDEST CALLVALUE DUP1 ISZERO PUSH2 0xF8 JUMPI PUSH1 0x0 DUP1 REVERT JUMPDEST POP PUSH2 0x101 PUSH2 0x24F JUMP JUMPDEST PUSH1 0x40 MLOAD PUSH2 0x10E SWAP2 SWAP1 PUSH2 0x2F7 JUMP JUMPDEST PUSH1 0x40 MLOAD DUP1 SWAP2 SUB SWAP1 RETURN JUMPDEST PUSH1 0x0 SLOAD DUP2 JUMP JUMPDEST PUSH1 0x0 SLOAD PUSH2 0x129 CALLVALUE PUSH2 0x215 JUMP JUMPDEST LT ISZERO PUSH2 0x16A JUMPI PUSH1 0x40 MLOAD PUSH32 0x8C379A000000000000000000000000000000000000000000000000000000000 DUP2 MSTORE PUSH1 0x4 ADD PUSH2 0x161 SWAP1 PUSH2 0x3CD JUMP JUMPDEST PUSH1 0x40 MLOAD DUP1 SWAP2 SUB SWAP1 REVERT JUMPDEST JUMP JUMPDEST PUSH1 0x0 DUP1 PUSH20 0x8A753747A1FA494EC906CE90E9F37563A8AF630E SWAP1 POP PUSH1 0x0 DUP2 PUSH20 0xFFFFFFFFFFFFFFFFFFFFFFFFFFFFFFFFFFFFFFFF AND PUSH4 0xFEAF968C PUSH1 0x40 MLOAD DUP2 PUSH4 0xFFFFFFFF AND PUSH1 0xE0 SHL DUP2 MSTORE PUSH1 0x4 ADD PUSH1 0xA0 PUSH1 0x40 MLOAD DUP1 DUP4 SUB DUP2 DUP7 GAS STATICCALL ISZERO DUP1 ISZERO PUSH2 0x1D3 JUMPI RETURNDATASIZE PUSH1 0x0 DUP1 RETURNDATACOPY RETURNDATASIZE PUSH1 0x0 REVERT JUMPDEST POP POP POP POP PUSH1 0x40 MLOAD RETURNDATASIZE PUSH1 0x1F NOT PUSH1 0x1F DUP3 ADD AND DUP3 ADD DUP1 PUSH1 0x40 MSTORE POP DUP2 ADD SWAP1 PUSH2 0x1F7 SWAP2 SWAP1 PUSH2 0x47A JUMP JUMPDEST POP POP POP SWAP2 POP POP PUSH5 0x2540BE400 DUP2 PUSH2 0x20E SWAP2 SWAP1 PUSH2 0x524 JUMP JUMPDEST SWAP3 POP POP POP SWAP1 JUMP JUMPDEST PUSH1 0x0 DUP1 PUSH2 0x220 PUSH2 0x16C JUMP JUMPDEST SWAP1 POP PUSH1 0x0 PUSH8 0xDE0B6B3A7640000 DUP5 DUP4 PUSH2 0x239 SWAP2 SWAP1 PUSH2 0x63B JUMP JUMPDEST PUSH2 0x243 SWAP2 SWAP1 PUSH2 0x6C4 JUMP JUMPDEST SWAP1 POP DUP1 SWAP3 POP POP POP SWAP2 SWAP1 POP JUMP JUMPDEST PUSH1 0x0 DUP1 PUSH20 0x8A753747A1FA494EC906CE90E9F37563A8AF630E SWAP1 POP DUP1 PUSH20 0xFFFFFFFFFFFFFFFFFFFFFFFFFFFFFFFFFFFFFFFF AND PUSH4 0x54FD4D50 PUSH1 0x40 MLOAD DUP2 PUSH4 0xFFFFFFFF AND PUSH1 0xE0 SHL DUP2 MSTORE PUSH1 0x4 ADD PUSH1 0x20 PUSH1 0x40 MLOAD DUP1 DUP4 SUB DUP2 DUP7 GAS STATICCALL ISZERO DUP1 ISZERO PUSH2 0x2B4 JUMPI RETURNDATASIZE PUSH1 0x0 DUP1 RETURNDATACOPY RETURNDATASIZE PUSH1 0x0 REVERT JUMPDEST POP POP POP POP PUSH1 0x40 MLOAD RETURNDATASIZE PUSH1 0x1F NOT PUSH1 0x1F DUP3 ADD AND DUP3 ADD DUP1 PUSH1 0x40 MSTORE POP DUP2 ADD SWAP1 PUSH2 0x2D8 SWAP2 SWAP1 PUSH2 0x6F5 JUMP JUMPDEST SWAP2 POP POP SWAP1 JUMP JUMPDEST PUSH1 0x0 DUP2 SWAP1 POP SWAP2 SWAP1 POP JUMP JUMPDEST PUSH2 0x2F1 DUP2 PUSH2 0x2DE JUMP JUMPDEST DUP3 MSTORE POP POP JUMP JUMPDEST PUSH1 0x0 PUSH1 0x20 DUP3 ADD SWAP1 POP PUSH2 0x30C PUSH1 0x0 DUP4 ADD DUP5 PUSH2 0x2E8 JUMP JUMPDEST SWAP3 SWAP2 POP POP JUMP JUMPDEST PUSH1 0x0 DUP1 REVERT JUMPDEST PUSH2 0x320 DUP2 PUSH2 0x2DE JUMP JUMPDEST DUP2 EQ PUSH2 0x32B JUMPI PUSH1 0x0 DUP1 REVERT JUMPDEST POP JUMP JUMPDEST PUSH1 0x0 DUP2 CALLDATALOAD SWAP1 POP PUSH2 0x33D DUP2 PUSH2 0x317 JUMP JUMPDEST SWAP3 SWAP2 POP POP JUMP JUMPDEST PUSH1 0x0 PUSH1 0x20 DUP3 DUP5 SUB SLT ISZERO PUSH2 0x359 JUMPI PUSH2 0x358 PUSH2 0x312 JUMP JUMPDEST JUMPDEST PUSH1 0x0 PUSH2 0x367 DUP5 DUP3 DUP6 ADD PUSH2 0x32E JUMP JUMPDEST SWAP2 POP POP SWAP3 SWAP2 POP POP JUMP JUMPDEST PUSH1 0x0 DUP3 DUP3 MSTORE PUSH1 0x20 DUP3 ADD SWAP1 POP SWAP3 SWAP2 POP POP JUMP JUMPDEST PUSH32 0x4469646E27742073656E6420656E6F7567680000000000000000000000000000 PUSH1 0x0 DUP3 ADD MSTORE POP JUMP JUMPDEST PUSH1 0x0 PUSH2 0x3B7 PUSH1 0x12 DUP4 PUSH2 0x370 JUMP JUMPDEST SWAP2 POP PUSH2 0x3C2 DUP3 PUSH2 0x381 JUMP JUMPDEST PUSH1 0x20 DUP3 ADD SWAP1 POP SWAP2 SWAP1 POP JUMP JUMPDEST PUSH1 0x0 PUSH1 0x20 DUP3 ADD SWAP1 POP DUP2 DUP2 SUB PUSH1 0x0 DUP4 ADD MSTORE PUSH2 0x3E6 DUP2 PUSH2 0x3AA JUMP JUMPDEST SWAP1 POP SWAP2 SWAP1 POP JUMP JUMPDEST PUSH1 0x0 PUSH10 0xFFFFFFFFFFFFFFFFFFFF DUP3 AND SWAP1 POP SWAP2 SWAP1 POP JUMP JUMPDEST PUSH2 0x40C DUP2 PUSH2 0x3ED JUMP JUMPDEST DUP2 EQ PUSH2 0x417 JUMPI PUSH1 0x0 DUP1 REVERT JUMPDEST POP JUMP JUMPDEST PUSH1 0x0 DUP2 MLOAD SWAP1 POP PUSH2 0x429 DUP2 PUSH2 0x403 JUMP JUMPDEST SWAP3 SWAP2 POP POP JUMP JUMPDEST PUSH1 0x0 DUP2 SWAP1 POP SWAP2 SWAP1 POP JUMP JUMPDEST PUSH2 0x442 DUP2 PUSH2 0x42F JUMP JUMPDEST DUP2 EQ PUSH2 0x44D JUMPI PUSH1 0x0 DUP1 REVERT JUMPDEST POP JUMP JUMPDEST PUSH1 0x0 DUP2 MLOAD SWAP1 POP PUSH2 0x45F DUP2 PUSH2 0x439 JUMP JUMPDEST SWAP3 SWAP2 POP POP JUMP JUMPDEST PUSH1 0x0 DUP2 MLOAD SWAP1 POP PUSH2 0x474 DUP2 PUSH2 0x317 JUMP JUMPDEST SWAP3 SWAP2 POP POP JUMP JUMPDEST PUSH1 0x0 DUP1 PUSH1 0x0 DUP1 PUSH1 0x0 PUSH1 0xA0 DUP7 DUP9 SUB SLT ISZERO PUSH2 0x496 JUMPI PUSH2 0x495 PUSH2 0x312 JUMP JUMPDEST JUMPDEST PUSH1 0x0 PUSH2 0x4A4 DUP9 DUP3 DUP10 ADD PUSH2 0x41A JUMP JUMPDEST SWAP6 POP POP PUSH1 0x20 PUSH2 0x4B5 DUP9 DUP3 DUP10 ADD PUSH2 0x450 JUMP JUMPDEST SWAP5 POP POP PUSH1 0x40 PUSH2 0x4C6 DUP9 DUP3 DUP10 ADD PUSH2 0x465 JUMP JUMPDEST SWAP4 POP POP PUSH1 0x60 PUSH2 0x4D7 DUP9 DUP3 DUP10 ADD PUSH2 0x465 JUMP JUMPDEST SWAP3 POP POP PUSH1 0x80 PUSH2 0x4E8 DUP9 DUP3 DUP10 ADD PUSH2 0x41A JUMP JUMPDEST SWAP2 POP POP SWAP3 SWAP6 POP SWAP3 SWAP6 SWAP1 SWAP4 POP JUMP JUMPDEST PUSH32 0x4E487B7100000000000000000000000000000000000000000000000000000000 PUSH1 0x0 MSTORE PUSH1 0x11 PUSH1 0x4 MSTORE PUSH1 0x24 PUSH1 0x0 REVERT JUMPDEST PUSH1 0x0 PUSH2 0x52F DUP3 PUSH2 0x42F JUMP JUMPDEST SWAP2 POP PUSH2 0x53A DUP4 PUSH2 0x42F JUMP JUMPDEST SWAP3 POP DUP3 PUSH32 0x7FFFFFFFFFFFFFFFFFFFFFFFFFFFFFFFFFFFFFFFFFFFFFFFFFFFFFFFFFFFFFFF DIV DUP3 GT PUSH1 0x0 DUP5 SGT PUSH1 0x0 DUP5 SGT AND AND ISZERO PUSH2 0x579 JUMPI PUSH2 0x578 PUSH2 0x4F5 JUMP JUMPDEST JUMPDEST DUP2 PUSH32 0x8000000000000000000000000000000000000000000000000000000000000000 SDIV DUP4 SLT PUSH1 0x0 DUP5 SLT PUSH1 0x0 DUP5 SGT AND AND ISZERO PUSH2 0x5B6 JUMPI PUSH2 0x5B5 PUSH2 0x4F5 JUMP JUMPDEST JUMPDEST DUP3 PUSH32 0x8000000000000000000000000000000000000000000000000000000000000000 SDIV DUP3 SLT PUSH1 0x0 DUP5 SGT PUSH1 0x0 DUP5 SLT AND AND ISZERO PUSH2 0x5F3 JUMPI PUSH2 0x5F2 PUSH2 0x4F5 JUMP JUMPDEST JUMPDEST DUP3 PUSH32 0x7FFFFFFFFFFFFFFFFFFFFFFFFFFFFFFFFFFFFFFFFFFFFFFFFFFFFFFFFFFFFFFF SDIV DUP3 SLT PUSH1 0x0 DUP5 SLT PUSH1 0x0 DUP5 SLT AND AND ISZERO PUSH2 0x630 JUMPI PUSH2 0x62F PUSH2 0x4F5 JUMP JUMPDEST JUMPDEST DUP3 DUP3 MUL SWAP1 POP SWAP3 SWAP2 POP POP JUMP JUMPDEST PUSH1 0x0 PUSH2 0x646 DUP3 PUSH2 0x2DE JUMP JUMPDEST SWAP2 POP PUSH2 0x651 DUP4 PUSH2 0x2DE JUMP JUMPDEST SWAP3 POP DUP2 PUSH32 0xFFFFFFFFFFFFFFFFFFFFFFFFFFFFFFFFFFFFFFFFFFFFFFFFFFFFFFFFFFFFFFFF DIV DUP4 GT DUP3 ISZERO ISZERO AND ISZERO PUSH2 0x68A JUMPI PUSH2 0x689 PUSH2 0x4F5 JUMP JUMPDEST JUMPDEST DUP3 DUP3 MUL SWAP1 POP SWAP3 SWAP2 POP POP JUMP JUMPDEST PUSH32 0x4E487B7100000000000000000000000000000000000000000000000000000000 PUSH1 0x0 MSTORE PUSH1 0x12 PUSH1 0x4 MSTORE PUSH1 0x24 PUSH1 0x0 REVERT JUMPDEST PUSH1 0x0 PUSH2 0x6CF DUP3 PUSH2 0x2DE JUMP JUMPDEST SWAP2 POP PUSH2 0x6DA DUP4 PUSH2 0x2DE JUMP JUMPDEST SWAP3 POP DUP3 PUSH2 0x6EA JUMPI PUSH2 0x6E9 PUSH2 0x695 JUMP JUMPDEST JUMPDEST DUP3 DUP3 DIV SWAP1 POP SWAP3 SWAP2 POP POP JUMP JUMPDEST PUSH1 0x0 PUSH1 0x20 DUP3 DUP5 SUB SLT ISZERO PUSH2 0x70B JUMPI PUSH2 0x70A PUSH2 0x312 JUMP JUMPDEST JUMPDEST PUSH1 0x0 PUSH2 0x719 DUP5 DUP3 DUP6 ADD PUSH2 0x465 JUMP JUMPDEST SWAP2 POP POP SWAP3 SWAP2 POP POP JUMP INVALID LOG2 PUSH5 0x6970667358 0x22 SLT KECCAK256 0xB2 EXTCODECOPY 0xD5 0xDD SWAP10 0xCE 0xF7 BASEFEE 0xA9 PUSH11 0x9A6F3F30FC5F5241A2742A 0xB5 0xDD CALLCODE SWAP13 MULMOD PUSH17 0x2C837F82064736F6C634300080D003300 "
				},
				"gasEstimates": {
					"creation": {
						"codeDepositCost": "376000",
						"executionCost": "22517",
						"totalCost": "398517"
					},
					"external": {
						"Fund()": "infinite",
						"GetConversionRate(uint256)": "infinite",
						"GetPrice()": "infinite",
						"GetVersion()": "infinite",
						"minimumFund()": "2407"
					}
				},
				"methodIdentifiers": {
					"Fund()": "6ce1417e",
					"GetConversionRate(uint256)": "793b233b",
					"GetPrice()": "6d90164e",
					"GetVersion()": "c6129a5a",
					"minimumFund()": "66b30f06"
				}
			},
			"storageLayout": {
				"storage": [
					{
						"astId": 53,
						"contract": "contracts/FundMe.sol:FundMe",
						"label": "minimumFund",
						"offset": 0,
						"slot": "0",
						"type": "t_uint256"
					}
				],
				"types": {
					"t_uint256": {
						"encoding": "inplace",
						"label": "uint256",
						"numberOfBytes": "32"
					}
				}
			},
			"userdoc": {
				"kind": "user",
				"methods": {},
				"version": 1
			}
		}
	}
}