{
	"contracts/FundMe.sol": {
		"FundMe": {
			"abi": [
				{
					"inputs": [],
					"name": "Fund",
					"outputs": [],
					"stateMutability": "payable",
					"type": "function"
				},
				{
					"inputs": [
						{
							"internalType": "uint256",
							"name": "_etherAmount",
							"type": "uint256"
						}
					],
					"name": "GetConversionRate",
					"outputs": [
						{
							"internalType": "uint256",
							"name": "",
							"type": "uint256"
						}
					],
					"stateMutability": "view",
					"type": "function"
				},
				{
					"inputs": [],
					"name": "GetPrice",
					"outputs": [
						{
							"internalType": "uint256",
							"name": "",
							"type": "uint256"
						}
					],
					"stateMutability": "view",
					"type": "function"
				},
				{
					"inputs": [],
					"name": "GetVersion",
					"outputs": [
						{
							"internalType": "uint256",
							"name": "",
							"type": "uint256"
						}
					],
					"stateMutability": "view",
					"type": "function"
				},
				{
					"inputs": [
						{
							"internalType": "address",
							"name": "",
							"type": "address"
						}
					],
					"name": "addreddToAmountFeed",
					"outputs": [
						{
							"internalType": "uint256",
							"name": "",
							"type": "uint256"
						}
					],
					"stateMutability": "view",
					"type": "function"
				},
				{
					"inputs": [
						{
							"internalType": "uint256",
							"name": "",
							"type": "uint256"
						}
					],
					"name": "fundersList",
					"outputs": [
						{
							"internalType": "address",
							"name": "",
							"type": "address"
						}
					],
					"stateMutability": "view",
					"type": "function"
				},
				{
					"inputs": [],
					"name": "minimumFund",
					"outputs": [
						{
							"internalType": "uint256",
							"name": "",
							"type": "uint256"
						}
					],
					"stateMutability": "view",
					"type": "function"
				}
			],
			"devdoc": {
				"kind": "dev",
				"methods": {},
				"version": 1
			},
			"evm": {
				"assembly": "    /* \"contracts/FundMe.sol\":140:1403  contract FundMe{... */\n  mstore(0x40, 0x80)\n    /* \"contracts/FundMe.sol\":193:202  50 * 1e18 */\n  0x02b5e3af16b1880000\n    /* \"contracts/FundMe.sol\":164:202  uint256 public minimumFund = 50 * 1e18 */\n  0x00\n  sstore\n    /* \"contracts/FundMe.sol\":140:1403  contract FundMe{... */\n  callvalue\n  dup1\n  iszero\n  tag_1\n  jumpi\n  0x00\n  dup1\n  revert\ntag_1:\n  pop\n  dataSize(sub_0)\n  dup1\n  dataOffset(sub_0)\n  0x00\n  codecopy\n  0x00\n  return\nstop\n\nsub_0: assembly {\n        /* \"contracts/FundMe.sol\":140:1403  contract FundMe{... */\n      mstore(0x40, 0x80)\n      jumpi(tag_1, lt(calldatasize, 0x04))\n      shr(0xe0, calldataload(0x00))\n      dup1\n      0x6ce1417e\n      gt\n      tag_9\n      jumpi\n      dup1\n      0x6ce1417e\n      eq\n      tag_5\n      jumpi\n      dup1\n      0x6d90164e\n      eq\n      tag_6\n      jumpi\n      dup1\n      0x793b233b\n      eq\n      tag_7\n      jumpi\n      dup1\n      0xc6129a5a\n      eq\n      tag_8\n      jumpi\n      jump(tag_1)\n    tag_9:\n      dup1\n      0x47ff62c6\n      eq\n      tag_2\n      jumpi\n      dup1\n      0x520fcd61\n      eq\n      tag_3\n      jumpi\n      dup1\n      0x66b30f06\n      eq\n      tag_4\n      jumpi\n    tag_1:\n      0x00\n      dup1\n      revert\n        /* \"contracts/FundMe.sol\":209:237  address[] public fundersList */\n    tag_2:\n      callvalue\n      dup1\n      iszero\n      tag_10\n      jumpi\n      0x00\n      dup1\n      revert\n    tag_10:\n      pop\n      tag_11\n      0x04\n      dup1\n      calldatasize\n      sub\n      dup2\n      add\n      swap1\n      tag_12\n      swap2\n      swap1\n      tag_13\n      jump\t// in\n    tag_12:\n      tag_14\n      jump\t// in\n    tag_11:\n      mload(0x40)\n      tag_15\n      swap2\n      swap1\n      tag_16\n      jump\t// in\n    tag_15:\n      mload(0x40)\n      dup1\n      swap2\n      sub\n      swap1\n      return\n        /* \"contracts/FundMe.sol\":244:298  mapping(address => uint256) public addreddToAmountFeed */\n    tag_3:\n      callvalue\n      dup1\n      iszero\n      tag_17\n      jumpi\n      0x00\n      dup1\n      revert\n    tag_17:\n      pop\n      tag_18\n      0x04\n      dup1\n      calldatasize\n      sub\n      dup2\n      add\n      swap1\n      tag_19\n      swap2\n      swap1\n      tag_20\n      jump\t// in\n    tag_19:\n      tag_21\n      jump\t// in\n    tag_18:\n      mload(0x40)\n      tag_22\n      swap2\n      swap1\n      tag_23\n      jump\t// in\n    tag_22:\n      mload(0x40)\n      dup1\n      swap2\n      sub\n      swap1\n      return\n        /* \"contracts/FundMe.sol\":164:202  uint256 public minimumFund = 50 * 1e18 */\n    tag_4:\n      callvalue\n      dup1\n      iszero\n      tag_24\n      jumpi\n      0x00\n      dup1\n      revert\n    tag_24:\n      pop\n      tag_25\n      tag_26\n      jump\t// in\n    tag_25:\n      mload(0x40)\n      tag_27\n      swap2\n      swap1\n      tag_23\n      jump\t// in\n    tag_27:\n      mload(0x40)\n      dup1\n      swap2\n      sub\n      swap1\n      return\n        /* \"contracts/FundMe.sol\":307:639  function Fund() public payable{... */\n    tag_5:\n      tag_28\n      tag_29\n      jump\t// in\n    tag_28:\n      stop\n        /* \"contracts/FundMe.sol\":647:913  function GetPrice() public view returns(uint256){... */\n    tag_6:\n      callvalue\n      dup1\n      iszero\n      tag_30\n      jumpi\n      0x00\n      dup1\n      revert\n    tag_30:\n      pop\n      tag_31\n      tag_32\n      jump\t// in\n    tag_31:\n      mload(0x40)\n      tag_33\n      swap2\n      swap1\n      tag_23\n      jump\t// in\n    tag_33:\n      mload(0x40)\n      dup1\n      swap2\n      sub\n      swap1\n      return\n        /* \"contracts/FundMe.sol\":1134:1357  function GetConversionRate(uint256 _etherAmount) public view returns(uint256){... */\n    tag_7:\n      callvalue\n      dup1\n      iszero\n      tag_34\n      jumpi\n      0x00\n      dup1\n      revert\n    tag_34:\n      pop\n      tag_35\n      0x04\n      dup1\n      calldatasize\n      sub\n      dup2\n      add\n      swap1\n      tag_36\n      swap2\n      swap1\n      tag_13\n      jump\t// in\n    tag_36:\n      tag_37\n      jump\t// in\n    tag_35:\n      mload(0x40)\n      tag_38\n      swap2\n      swap1\n      tag_23\n      jump\t// in\n    tag_38:\n      mload(0x40)\n      dup1\n      swap2\n      sub\n      swap1\n      return\n        /* \"contracts/FundMe.sol\":921:1126  function GetVersion() public view returns(uint256){... */\n    tag_8:\n      callvalue\n      dup1\n      iszero\n      tag_39\n      jumpi\n      0x00\n      dup1\n      revert\n    tag_39:\n      pop\n      tag_40\n      tag_41\n      jump\t// in\n    tag_40:\n      mload(0x40)\n      tag_42\n      swap2\n      swap1\n      tag_23\n      jump\t// in\n    tag_42:\n      mload(0x40)\n      dup1\n      swap2\n      sub\n      swap1\n      return\n        /* \"contracts/FundMe.sol\":209:237  address[] public fundersList */\n    tag_14:\n      0x01\n      dup2\n      dup2\n      sload\n      dup2\n      lt\n      tag_43\n      jumpi\n      0x00\n      dup1\n      revert\n    tag_43:\n      swap1\n      0x00\n      mstore\n      keccak256(0x00, 0x20)\n      add\n      0x00\n      swap2\n      pop\n      sload\n      swap1\n      0x0100\n      exp\n      swap1\n      div\n      0xffffffffffffffffffffffffffffffffffffffff\n      and\n      dup2\n      jump\t// out\n        /* \"contracts/FundMe.sol\":244:298  mapping(address => uint256) public addreddToAmountFeed */\n    tag_21:\n      mstore(0x20, 0x02)\n      dup1\n      0x00\n      mstore\n      keccak256(0x00, 0x40)\n      0x00\n      swap2\n      pop\n      swap1\n      pop\n      sload\n      dup2\n      jump\t// out\n        /* \"contracts/FundMe.sol\":164:202  uint256 public minimumFund = 50 * 1e18 */\n    tag_26:\n      sload(0x00)\n      dup2\n      jump\t// out\n        /* \"contracts/FundMe.sol\":307:639  function Fund() public payable{... */\n    tag_29:\n        /* \"contracts/FundMe.sol\":504:515  minimumFund */\n      sload(0x00)\n        /* \"contracts/FundMe.sol\":472:500  GetConversionRate(msg.value) */\n      tag_46\n        /* \"contracts/FundMe.sol\":490:499  msg.value */\n      callvalue\n        /* \"contracts/FundMe.sol\":472:489  GetConversionRate */\n      tag_37\n        /* \"contracts/FundMe.sol\":472:500  GetConversionRate(msg.value) */\n      jump\t// in\n    tag_46:\n        /* \"contracts/FundMe.sol\":472:515  GetConversionRate(msg.value) >= minimumFund */\n      lt\n      iszero\n        /* \"contracts/FundMe.sol\":464:538  require(GetConversionRate(msg.value) >= minimumFund, \"Didn't send enough\") */\n      tag_47\n      jumpi\n      mload(0x40)\n      0x08c379a000000000000000000000000000000000000000000000000000000000\n      dup2\n      mstore\n      0x04\n      add\n      tag_48\n      swap1\n      tag_49\n      jump\t// in\n    tag_48:\n      mload(0x40)\n      dup1\n      swap2\n      sub\n      swap1\n      revert\n    tag_47:\n        /* \"contracts/FundMe.sol\":549:560  fundersList */\n      0x01\n        /* \"contracts/FundMe.sol\":566:576  msg.sender */\n      caller\n        /* \"contracts/FundMe.sol\":549:577  fundersList.push(msg.sender) */\n      swap1\n      dup1\n      0x01\n      dup2\n      sload\n      add\n      dup1\n      dup3\n      sstore\n      dup1\n      swap2\n      pop\n      pop\n      0x01\n      swap1\n      sub\n      swap1\n      0x00\n      mstore\n      keccak256(0x00, 0x20)\n      add\n      0x00\n      swap1\n      swap2\n      swap1\n      swap2\n      swap1\n      swap2\n      0x0100\n      exp\n      dup2\n      sload\n      dup2\n      0xffffffffffffffffffffffffffffffffffffffff\n      mul\n      not\n      and\n      swap1\n      dup4\n      0xffffffffffffffffffffffffffffffffffffffff\n      and\n      mul\n      or\n      swap1\n      sstore\n      pop\n        /* \"contracts/FundMe.sol\":622:631  msg.value */\n      callvalue\n        /* \"contracts/FundMe.sol\":588:607  addreddToAmountFeed */\n      0x02\n        /* \"contracts/FundMe.sol\":588:619  addreddToAmountFeed[msg.sender] */\n      0x00\n        /* \"contracts/FundMe.sol\":608:618  msg.sender */\n      caller\n        /* \"contracts/FundMe.sol\":588:619  addreddToAmountFeed[msg.sender] */\n      0xffffffffffffffffffffffffffffffffffffffff\n      and\n      0xffffffffffffffffffffffffffffffffffffffff\n      and\n      dup2\n      mstore\n      0x20\n      add\n      swap1\n      dup2\n      mstore\n      0x20\n      add\n      0x00\n      keccak256\n        /* \"contracts/FundMe.sol\":588:631  addreddToAmountFeed[msg.sender] = msg.value */\n      dup2\n      swap1\n      sstore\n      pop\n        /* \"contracts/FundMe.sol\":307:639  function Fund() public payable{... */\n      jump\t// out\n        /* \"contracts/FundMe.sol\":647:913  function GetPrice() public view returns(uint256){... */\n    tag_32:\n        /* \"contracts/FundMe.sol\":687:694  uint256 */\n      0x00\n        /* \"contracts/FundMe.sol\":706:737  AggregatorV3Interface priceFeed */\n      dup1\n        /* \"contracts/FundMe.sol\":762:804  0x8A753747A1Fa494EC906cE90E9f37563A8AF630e */\n      0x8a753747a1fa494ec906ce90e9f37563a8af630e\n        /* \"contracts/FundMe.sol\":706:805  AggregatorV3Interface priceFeed = AggregatorV3Interface(0x8A753747A1Fa494EC906cE90E9f37563A8AF630e) */\n      swap1\n      pop\n        /* \"contracts/FundMe.sol\":819:831  int256 price */\n      0x00\n        /* \"contracts/FundMe.sol\":838:847  priceFeed */\n      dup2\n        /* \"contracts/FundMe.sol\":838:863  priceFeed.latestRoundData */\n      0xffffffffffffffffffffffffffffffffffffffff\n      and\n      0xfeaf968c\n        /* \"contracts/FundMe.sol\":838:865  priceFeed.latestRoundData() */\n      mload(0x40)\n      dup2\n      0xffffffff\n      and\n      0xe0\n      shl\n      dup2\n      mstore\n      0x04\n      add\n      0xa0\n      mload(0x40)\n      dup1\n      dup4\n      sub\n      dup2\n      dup7\n      gas\n      staticcall\n      iszero\n      dup1\n      iszero\n      tag_53\n      jumpi\n      returndatasize\n      0x00\n      dup1\n      returndatacopy\n      revert(0x00, returndatasize)\n    tag_53:\n      pop\n      pop\n      pop\n      pop\n      mload(0x40)\n      returndatasize\n      not(0x1f)\n      0x1f\n      dup3\n      add\n      and\n      dup3\n      add\n      dup1\n      0x40\n      mstore\n      pop\n      dup2\n      add\n      swap1\n      tag_54\n      swap2\n      swap1\n      tag_55\n      jump\t// in\n    tag_54:\n        /* \"contracts/FundMe.sol\":817:865  (,int256 price,,,) = priceFeed.latestRoundData() */\n      pop\n      pop\n      pop\n      swap2\n      pop\n      pop\n        /* \"contracts/FundMe.sol\":900:904  1e10 */\n      0x02540be400\n        /* \"contracts/FundMe.sol\":892:897  price */\n      dup2\n        /* \"contracts/FundMe.sol\":892:904  price * 1e10 */\n      tag_56\n      swap2\n      swap1\n      tag_57\n      jump\t// in\n    tag_56:\n        /* \"contracts/FundMe.sol\":877:905  return uint256(price * 1e10) */\n      swap3\n      pop\n      pop\n      pop\n        /* \"contracts/FundMe.sol\":647:913  function GetPrice() public view returns(uint256){... */\n      swap1\n      jump\t// out\n        /* \"contracts/FundMe.sol\":1134:1357  function GetConversionRate(uint256 _etherAmount) public view returns(uint256){... */\n    tag_37:\n        /* \"contracts/FundMe.sol\":1203:1210  uint256 */\n      0x00\n        /* \"contracts/FundMe.sol\":1222:1238  uint256 ethPrice */\n      dup1\n        /* \"contracts/FundMe.sol\":1241:1251  GetPrice() */\n      tag_59\n        /* \"contracts/FundMe.sol\":1241:1249  GetPrice */\n      tag_32\n        /* \"contracts/FundMe.sol\":1241:1251  GetPrice() */\n      jump\t// in\n    tag_59:\n        /* \"contracts/FundMe.sol\":1222:1251  uint256 ethPrice = GetPrice() */\n      swap1\n      pop\n        /* \"contracts/FundMe.sol\":1262:1284  uint256 ethAmountInUsd */\n      0x00\n        /* \"contracts/FundMe.sol\":1313:1317  1e18 */\n      0x0de0b6b3a7640000\n        /* \"contracts/FundMe.sol\":1299:1311  _etherAmount */\n      dup5\n        /* \"contracts/FundMe.sol\":1288:1296  ethPrice */\n      dup4\n        /* \"contracts/FundMe.sol\":1288:1311  ethPrice * _etherAmount */\n      tag_60\n      swap2\n      swap1\n      tag_61\n      jump\t// in\n    tag_60:\n        /* \"contracts/FundMe.sol\":1287:1317  (ethPrice * _etherAmount)/1e18 */\n      tag_62\n      swap2\n      swap1\n      tag_63\n      jump\t// in\n    tag_62:\n        /* \"contracts/FundMe.sol\":1262:1317  uint256 ethAmountInUsd = (ethPrice * _etherAmount)/1e18 */\n      swap1\n      pop\n        /* \"contracts/FundMe.sol\":1335:1349  ethAmountInUsd */\n      dup1\n        /* \"contracts/FundMe.sol\":1328:1349  return ethAmountInUsd */\n      swap3\n      pop\n      pop\n      pop\n        /* \"contracts/FundMe.sol\":1134:1357  function GetConversionRate(uint256 _etherAmount) public view returns(uint256){... */\n      swap2\n      swap1\n      pop\n      jump\t// out\n        /* \"contracts/FundMe.sol\":921:1126  function GetVersion() public view returns(uint256){... */\n    tag_41:\n        /* \"contracts/FundMe.sol\":963:970  uint256 */\n      0x00\n        /* \"contracts/FundMe.sol\":982:1013  AggregatorV3Interface priceFeed */\n      dup1\n        /* \"contracts/FundMe.sol\":1038:1080  0x8A753747A1Fa494EC906cE90E9f37563A8AF630e */\n      0x8a753747a1fa494ec906ce90e9f37563a8af630e\n        /* \"contracts/FundMe.sol\":982:1081  AggregatorV3Interface priceFeed = AggregatorV3Interface(0x8A753747A1Fa494EC906cE90E9f37563A8AF630e) */\n      swap1\n      pop\n        /* \"contracts/FundMe.sol\":1099:1108  priceFeed */\n      dup1\n        /* \"contracts/FundMe.sol\":1099:1116  priceFeed.version */\n      0xffffffffffffffffffffffffffffffffffffffff\n      and\n      0x54fd4d50\n        /* \"contracts/FundMe.sol\":1099:1118  priceFeed.version() */\n      mload(0x40)\n      dup2\n      0xffffffff\n      and\n      0xe0\n      shl\n      dup2\n      mstore\n      0x04\n      add\n      0x20\n      mload(0x40)\n      dup1\n      dup4\n      sub\n      dup2\n      dup7\n      gas\n      staticcall\n      iszero\n      dup1\n      iszero\n      tag_66\n      jumpi\n      returndatasize\n      0x00\n      dup1\n      returndatacopy\n      revert(0x00, returndatasize)\n    tag_66:\n      pop\n      pop\n      pop\n      pop\n      mload(0x40)\n      returndatasize\n      not(0x1f)\n      0x1f\n      dup3\n      add\n      and\n      dup3\n      add\n      dup1\n      0x40\n      mstore\n      pop\n      dup2\n      add\n      swap1\n      tag_67\n      swap2\n      swap1\n      tag_68\n      jump\t// in\n    tag_67:\n        /* \"contracts/FundMe.sol\":1092:1118  return priceFeed.version() */\n      swap2\n      pop\n      pop\n        /* \"contracts/FundMe.sol\":921:1126  function GetVersion() public view returns(uint256){... */\n      swap1\n      jump\t// out\n        /* \"#utility.yul\":88:205   */\n    tag_70:\n        /* \"#utility.yul\":197:198   */\n      0x00\n        /* \"#utility.yul\":194:195   */\n      dup1\n        /* \"#utility.yul\":187:199   */\n      revert\n        /* \"#utility.yul\":334:411   */\n    tag_72:\n        /* \"#utility.yul\":371:378   */\n      0x00\n        /* \"#utility.yul\":400:405   */\n      dup2\n        /* \"#utility.yul\":389:405   */\n      swap1\n      pop\n        /* \"#utility.yul\":334:411   */\n      swap2\n      swap1\n      pop\n      jump\t// out\n        /* \"#utility.yul\":417:539   */\n    tag_73:\n        /* \"#utility.yul\":490:514   */\n      tag_99\n        /* \"#utility.yul\":508:513   */\n      dup2\n        /* \"#utility.yul\":490:514   */\n      tag_72\n      jump\t// in\n    tag_99:\n        /* \"#utility.yul\":483:488   */\n      dup2\n        /* \"#utility.yul\":480:515   */\n      eq\n        /* \"#utility.yul\":470:533   */\n      tag_100\n      jumpi\n        /* \"#utility.yul\":529:530   */\n      0x00\n        /* \"#utility.yul\":526:527   */\n      dup1\n        /* \"#utility.yul\":519:531   */\n      revert\n        /* \"#utility.yul\":470:533   */\n    tag_100:\n        /* \"#utility.yul\":417:539   */\n      pop\n      jump\t// out\n        /* \"#utility.yul\":545:684   */\n    tag_74:\n        /* \"#utility.yul\":591:596   */\n      0x00\n        /* \"#utility.yul\":629:635   */\n      dup2\n        /* \"#utility.yul\":616:636   */\n      calldataload\n        /* \"#utility.yul\":607:636   */\n      swap1\n      pop\n        /* \"#utility.yul\":645:678   */\n      tag_102\n        /* \"#utility.yul\":672:677   */\n      dup2\n        /* \"#utility.yul\":645:678   */\n      tag_73\n      jump\t// in\n    tag_102:\n        /* \"#utility.yul\":545:684   */\n      swap3\n      swap2\n      pop\n      pop\n      jump\t// out\n        /* \"#utility.yul\":690:1019   */\n    tag_13:\n        /* \"#utility.yul\":749:755   */\n      0x00\n        /* \"#utility.yul\":798:800   */\n      0x20\n        /* \"#utility.yul\":786:795   */\n      dup3\n        /* \"#utility.yul\":777:784   */\n      dup5\n        /* \"#utility.yul\":773:796   */\n      sub\n        /* \"#utility.yul\":769:801   */\n      slt\n        /* \"#utility.yul\":766:885   */\n      iszero\n      tag_104\n      jumpi\n        /* \"#utility.yul\":804:883   */\n      tag_105\n      tag_70\n      jump\t// in\n    tag_105:\n        /* \"#utility.yul\":766:885   */\n    tag_104:\n        /* \"#utility.yul\":924:925   */\n      0x00\n        /* \"#utility.yul\":949:1002   */\n      tag_106\n        /* \"#utility.yul\":994:1001   */\n      dup5\n        /* \"#utility.yul\":985:991   */\n      dup3\n        /* \"#utility.yul\":974:983   */\n      dup6\n        /* \"#utility.yul\":970:992   */\n      add\n        /* \"#utility.yul\":949:1002   */\n      tag_74\n      jump\t// in\n    tag_106:\n        /* \"#utility.yul\":939:1002   */\n      swap2\n      pop\n        /* \"#utility.yul\":895:1012   */\n      pop\n        /* \"#utility.yul\":690:1019   */\n      swap3\n      swap2\n      pop\n      pop\n      jump\t// out\n        /* \"#utility.yul\":1025:1151   */\n    tag_75:\n        /* \"#utility.yul\":1062:1069   */\n      0x00\n        /* \"#utility.yul\":1102:1144   */\n      0xffffffffffffffffffffffffffffffffffffffff\n        /* \"#utility.yul\":1095:1100   */\n      dup3\n        /* \"#utility.yul\":1091:1145   */\n      and\n        /* \"#utility.yul\":1080:1145   */\n      swap1\n      pop\n        /* \"#utility.yul\":1025:1151   */\n      swap2\n      swap1\n      pop\n      jump\t// out\n        /* \"#utility.yul\":1157:1253   */\n    tag_76:\n        /* \"#utility.yul\":1194:1201   */\n      0x00\n        /* \"#utility.yul\":1223:1247   */\n      tag_109\n        /* \"#utility.yul\":1241:1246   */\n      dup3\n        /* \"#utility.yul\":1223:1247   */\n      tag_75\n      jump\t// in\n    tag_109:\n        /* \"#utility.yul\":1212:1247   */\n      swap1\n      pop\n        /* \"#utility.yul\":1157:1253   */\n      swap2\n      swap1\n      pop\n      jump\t// out\n        /* \"#utility.yul\":1259:1377   */\n    tag_77:\n        /* \"#utility.yul\":1346:1370   */\n      tag_111\n        /* \"#utility.yul\":1364:1369   */\n      dup2\n        /* \"#utility.yul\":1346:1370   */\n      tag_76\n      jump\t// in\n    tag_111:\n        /* \"#utility.yul\":1341:1344   */\n      dup3\n        /* \"#utility.yul\":1334:1371   */\n      mstore\n        /* \"#utility.yul\":1259:1377   */\n      pop\n      pop\n      jump\t// out\n        /* \"#utility.yul\":1383:1605   */\n    tag_16:\n        /* \"#utility.yul\":1476:1480   */\n      0x00\n        /* \"#utility.yul\":1514:1516   */\n      0x20\n        /* \"#utility.yul\":1503:1512   */\n      dup3\n        /* \"#utility.yul\":1499:1517   */\n      add\n        /* \"#utility.yul\":1491:1517   */\n      swap1\n      pop\n        /* \"#utility.yul\":1527:1598   */\n      tag_113\n        /* \"#utility.yul\":1595:1596   */\n      0x00\n        /* \"#utility.yul\":1584:1593   */\n      dup4\n        /* \"#utility.yul\":1580:1597   */\n      add\n        /* \"#utility.yul\":1571:1577   */\n      dup5\n        /* \"#utility.yul\":1527:1598   */\n      tag_77\n      jump\t// in\n    tag_113:\n        /* \"#utility.yul\":1383:1605   */\n      swap3\n      swap2\n      pop\n      pop\n      jump\t// out\n        /* \"#utility.yul\":1611:1733   */\n    tag_78:\n        /* \"#utility.yul\":1684:1708   */\n      tag_115\n        /* \"#utility.yul\":1702:1707   */\n      dup2\n        /* \"#utility.yul\":1684:1708   */\n      tag_76\n      jump\t// in\n    tag_115:\n        /* \"#utility.yul\":1677:1682   */\n      dup2\n        /* \"#utility.yul\":1674:1709   */\n      eq\n        /* \"#utility.yul\":1664:1727   */\n      tag_116\n      jumpi\n        /* \"#utility.yul\":1723:1724   */\n      0x00\n        /* \"#utility.yul\":1720:1721   */\n      dup1\n        /* \"#utility.yul\":1713:1725   */\n      revert\n        /* \"#utility.yul\":1664:1727   */\n    tag_116:\n        /* \"#utility.yul\":1611:1733   */\n      pop\n      jump\t// out\n        /* \"#utility.yul\":1739:1878   */\n    tag_79:\n        /* \"#utility.yul\":1785:1790   */\n      0x00\n        /* \"#utility.yul\":1823:1829   */\n      dup2\n        /* \"#utility.yul\":1810:1830   */\n      calldataload\n        /* \"#utility.yul\":1801:1830   */\n      swap1\n      pop\n        /* \"#utility.yul\":1839:1872   */\n      tag_118\n        /* \"#utility.yul\":1866:1871   */\n      dup2\n        /* \"#utility.yul\":1839:1872   */\n      tag_78\n      jump\t// in\n    tag_118:\n        /* \"#utility.yul\":1739:1878   */\n      swap3\n      swap2\n      pop\n      pop\n      jump\t// out\n        /* \"#utility.yul\":1884:2213   */\n    tag_20:\n        /* \"#utility.yul\":1943:1949   */\n      0x00\n        /* \"#utility.yul\":1992:1994   */\n      0x20\n        /* \"#utility.yul\":1980:1989   */\n      dup3\n        /* \"#utility.yul\":1971:1978   */\n      dup5\n        /* \"#utility.yul\":1967:1990   */\n      sub\n        /* \"#utility.yul\":1963:1995   */\n      slt\n        /* \"#utility.yul\":1960:2079   */\n      iszero\n      tag_120\n      jumpi\n        /* \"#utility.yul\":1998:2077   */\n      tag_121\n      tag_70\n      jump\t// in\n    tag_121:\n        /* \"#utility.yul\":1960:2079   */\n    tag_120:\n        /* \"#utility.yul\":2118:2119   */\n      0x00\n        /* \"#utility.yul\":2143:2196   */\n      tag_122\n        /* \"#utility.yul\":2188:2195   */\n      dup5\n        /* \"#utility.yul\":2179:2185   */\n      dup3\n        /* \"#utility.yul\":2168:2177   */\n      dup6\n        /* \"#utility.yul\":2164:2186   */\n      add\n        /* \"#utility.yul\":2143:2196   */\n      tag_79\n      jump\t// in\n    tag_122:\n        /* \"#utility.yul\":2133:2196   */\n      swap2\n      pop\n        /* \"#utility.yul\":2089:2206   */\n      pop\n        /* \"#utility.yul\":1884:2213   */\n      swap3\n      swap2\n      pop\n      pop\n      jump\t// out\n        /* \"#utility.yul\":2219:2337   */\n    tag_80:\n        /* \"#utility.yul\":2306:2330   */\n      tag_124\n        /* \"#utility.yul\":2324:2329   */\n      dup2\n        /* \"#utility.yul\":2306:2330   */\n      tag_72\n      jump\t// in\n    tag_124:\n        /* \"#utility.yul\":2301:2304   */\n      dup3\n        /* \"#utility.yul\":2294:2331   */\n      mstore\n        /* \"#utility.yul\":2219:2337   */\n      pop\n      pop\n      jump\t// out\n        /* \"#utility.yul\":2343:2565   */\n    tag_23:\n        /* \"#utility.yul\":2436:2440   */\n      0x00\n        /* \"#utility.yul\":2474:2476   */\n      0x20\n        /* \"#utility.yul\":2463:2472   */\n      dup3\n        /* \"#utility.yul\":2459:2477   */\n      add\n        /* \"#utility.yul\":2451:2477   */\n      swap1\n      pop\n        /* \"#utility.yul\":2487:2558   */\n      tag_126\n        /* \"#utility.yul\":2555:2556   */\n      0x00\n        /* \"#utility.yul\":2544:2553   */\n      dup4\n        /* \"#utility.yul\":2540:2557   */\n      add\n        /* \"#utility.yul\":2531:2537   */\n      dup5\n        /* \"#utility.yul\":2487:2558   */\n      tag_80\n      jump\t// in\n    tag_126:\n        /* \"#utility.yul\":2343:2565   */\n      swap3\n      swap2\n      pop\n      pop\n      jump\t// out\n        /* \"#utility.yul\":2571:2740   */\n    tag_81:\n        /* \"#utility.yul\":2655:2666   */\n      0x00\n        /* \"#utility.yul\":2689:2695   */\n      dup3\n        /* \"#utility.yul\":2684:2687   */\n      dup3\n        /* \"#utility.yul\":2677:2696   */\n      mstore\n        /* \"#utility.yul\":2729:2733   */\n      0x20\n        /* \"#utility.yul\":2724:2727   */\n      dup3\n        /* \"#utility.yul\":2720:2734   */\n      add\n        /* \"#utility.yul\":2705:2734   */\n      swap1\n      pop\n        /* \"#utility.yul\":2571:2740   */\n      swap3\n      swap2\n      pop\n      pop\n      jump\t// out\n        /* \"#utility.yul\":2746:2914   */\n    tag_82:\n        /* \"#utility.yul\":2886:2906   */\n      0x4469646e27742073656e6420656e6f7567680000000000000000000000000000\n        /* \"#utility.yul\":2882:2883   */\n      0x00\n        /* \"#utility.yul\":2874:2880   */\n      dup3\n        /* \"#utility.yul\":2870:2884   */\n      add\n        /* \"#utility.yul\":2863:2907   */\n      mstore\n        /* \"#utility.yul\":2746:2914   */\n      pop\n      jump\t// out\n        /* \"#utility.yul\":2920:3286   */\n    tag_83:\n        /* \"#utility.yul\":3062:3065   */\n      0x00\n        /* \"#utility.yul\":3083:3150   */\n      tag_130\n        /* \"#utility.yul\":3147:3149   */\n      0x12\n        /* \"#utility.yul\":3142:3145   */\n      dup4\n        /* \"#utility.yul\":3083:3150   */\n      tag_81\n      jump\t// in\n    tag_130:\n        /* \"#utility.yul\":3076:3150   */\n      swap2\n      pop\n        /* \"#utility.yul\":3159:3252   */\n      tag_131\n        /* \"#utility.yul\":3248:3251   */\n      dup3\n        /* \"#utility.yul\":3159:3252   */\n      tag_82\n      jump\t// in\n    tag_131:\n        /* \"#utility.yul\":3277:3279   */\n      0x20\n        /* \"#utility.yul\":3272:3275   */\n      dup3\n        /* \"#utility.yul\":3268:3280   */\n      add\n        /* \"#utility.yul\":3261:3280   */\n      swap1\n      pop\n        /* \"#utility.yul\":2920:3286   */\n      swap2\n      swap1\n      pop\n      jump\t// out\n        /* \"#utility.yul\":3292:3711   */\n    tag_49:\n        /* \"#utility.yul\":3458:3462   */\n      0x00\n        /* \"#utility.yul\":3496:3498   */\n      0x20\n        /* \"#utility.yul\":3485:3494   */\n      dup3\n        /* \"#utility.yul\":3481:3499   */\n      add\n        /* \"#utility.yul\":3473:3499   */\n      swap1\n      pop\n        /* \"#utility.yul\":3545:3554   */\n      dup2\n        /* \"#utility.yul\":3539:3543   */\n      dup2\n        /* \"#utility.yul\":3535:3555   */\n      sub\n        /* \"#utility.yul\":3531:3532   */\n      0x00\n        /* \"#utility.yul\":3520:3529   */\n      dup4\n        /* \"#utility.yul\":3516:3533   */\n      add\n        /* \"#utility.yul\":3509:3556   */\n      mstore\n        /* \"#utility.yul\":3573:3704   */\n      tag_133\n        /* \"#utility.yul\":3699:3703   */\n      dup2\n        /* \"#utility.yul\":3573:3704   */\n      tag_83\n      jump\t// in\n    tag_133:\n        /* \"#utility.yul\":3565:3704   */\n      swap1\n      pop\n        /* \"#utility.yul\":3292:3711   */\n      swap2\n      swap1\n      pop\n      jump\t// out\n        /* \"#utility.yul\":3717:3822   */\n    tag_84:\n        /* \"#utility.yul\":3753:3760   */\n      0x00\n        /* \"#utility.yul\":3793:3815   */\n      0xffffffffffffffffffff\n        /* \"#utility.yul\":3786:3791   */\n      dup3\n        /* \"#utility.yul\":3782:3816   */\n      and\n        /* \"#utility.yul\":3771:3816   */\n      swap1\n      pop\n        /* \"#utility.yul\":3717:3822   */\n      swap2\n      swap1\n      pop\n      jump\t// out\n        /* \"#utility.yul\":3828:3948   */\n    tag_85:\n        /* \"#utility.yul\":3900:3923   */\n      tag_136\n        /* \"#utility.yul\":3917:3922   */\n      dup2\n        /* \"#utility.yul\":3900:3923   */\n      tag_84\n      jump\t// in\n    tag_136:\n        /* \"#utility.yul\":3893:3898   */\n      dup2\n        /* \"#utility.yul\":3890:3924   */\n      eq\n        /* \"#utility.yul\":3880:3942   */\n      tag_137\n      jumpi\n        /* \"#utility.yul\":3938:3939   */\n      0x00\n        /* \"#utility.yul\":3935:3936   */\n      dup1\n        /* \"#utility.yul\":3928:3940   */\n      revert\n        /* \"#utility.yul\":3880:3942   */\n    tag_137:\n        /* \"#utility.yul\":3828:3948   */\n      pop\n      jump\t// out\n        /* \"#utility.yul\":3954:4095   */\n    tag_86:\n        /* \"#utility.yul\":4010:4015   */\n      0x00\n        /* \"#utility.yul\":4041:4047   */\n      dup2\n        /* \"#utility.yul\":4035:4048   */\n      mload\n        /* \"#utility.yul\":4026:4048   */\n      swap1\n      pop\n        /* \"#utility.yul\":4057:4089   */\n      tag_139\n        /* \"#utility.yul\":4083:4088   */\n      dup2\n        /* \"#utility.yul\":4057:4089   */\n      tag_85\n      jump\t// in\n    tag_139:\n        /* \"#utility.yul\":3954:4095   */\n      swap3\n      swap2\n      pop\n      pop\n      jump\t// out\n        /* \"#utility.yul\":4101:4177   */\n    tag_87:\n        /* \"#utility.yul\":4137:4144   */\n      0x00\n        /* \"#utility.yul\":4166:4171   */\n      dup2\n        /* \"#utility.yul\":4155:4171   */\n      swap1\n      pop\n        /* \"#utility.yul\":4101:4177   */\n      swap2\n      swap1\n      pop\n      jump\t// out\n        /* \"#utility.yul\":4183:4303   */\n    tag_88:\n        /* \"#utility.yul\":4255:4278   */\n      tag_142\n        /* \"#utility.yul\":4272:4277   */\n      dup2\n        /* \"#utility.yul\":4255:4278   */\n      tag_87\n      jump\t// in\n    tag_142:\n        /* \"#utility.yul\":4248:4253   */\n      dup2\n        /* \"#utility.yul\":4245:4279   */\n      eq\n        /* \"#utility.yul\":4235:4297   */\n      tag_143\n      jumpi\n        /* \"#utility.yul\":4293:4294   */\n      0x00\n        /* \"#utility.yul\":4290:4291   */\n      dup1\n        /* \"#utility.yul\":4283:4295   */\n      revert\n        /* \"#utility.yul\":4235:4297   */\n    tag_143:\n        /* \"#utility.yul\":4183:4303   */\n      pop\n      jump\t// out\n        /* \"#utility.yul\":4309:4450   */\n    tag_89:\n        /* \"#utility.yul\":4365:4370   */\n      0x00\n        /* \"#utility.yul\":4396:4402   */\n      dup2\n        /* \"#utility.yul\":4390:4403   */\n      mload\n        /* \"#utility.yul\":4381:4403   */\n      swap1\n      pop\n        /* \"#utility.yul\":4412:4444   */\n      tag_145\n        /* \"#utility.yul\":4438:4443   */\n      dup2\n        /* \"#utility.yul\":4412:4444   */\n      tag_88\n      jump\t// in\n    tag_145:\n        /* \"#utility.yul\":4309:4450   */\n      swap3\n      swap2\n      pop\n      pop\n      jump\t// out\n        /* \"#utility.yul\":4456:4599   */\n    tag_90:\n        /* \"#utility.yul\":4513:4518   */\n      0x00\n        /* \"#utility.yul\":4544:4550   */\n      dup2\n        /* \"#utility.yul\":4538:4551   */\n      mload\n        /* \"#utility.yul\":4529:4551   */\n      swap1\n      pop\n        /* \"#utility.yul\":4560:4593   */\n      tag_147\n        /* \"#utility.yul\":4587:4592   */\n      dup2\n        /* \"#utility.yul\":4560:4593   */\n      tag_73\n      jump\t// in\n    tag_147:\n        /* \"#utility.yul\":4456:4599   */\n      swap3\n      swap2\n      pop\n      pop\n      jump\t// out\n        /* \"#utility.yul\":4605:5576   */\n    tag_55:\n        /* \"#utility.yul\":4708:4714   */\n      0x00\n        /* \"#utility.yul\":4716:4722   */\n      dup1\n        /* \"#utility.yul\":4724:4730   */\n      0x00\n        /* \"#utility.yul\":4732:4738   */\n      dup1\n        /* \"#utility.yul\":4740:4746   */\n      0x00\n        /* \"#utility.yul\":4789:4792   */\n      0xa0\n        /* \"#utility.yul\":4777:4786   */\n      dup7\n        /* \"#utility.yul\":4768:4775   */\n      dup9\n        /* \"#utility.yul\":4764:4787   */\n      sub\n        /* \"#utility.yul\":4760:4793   */\n      slt\n        /* \"#utility.yul\":4757:4877   */\n      iszero\n      tag_149\n      jumpi\n        /* \"#utility.yul\":4796:4875   */\n      tag_150\n      tag_70\n      jump\t// in\n    tag_150:\n        /* \"#utility.yul\":4757:4877   */\n    tag_149:\n        /* \"#utility.yul\":4916:4917   */\n      0x00\n        /* \"#utility.yul\":4941:5004   */\n      tag_151\n        /* \"#utility.yul\":4996:5003   */\n      dup9\n        /* \"#utility.yul\":4987:4993   */\n      dup3\n        /* \"#utility.yul\":4976:4985   */\n      dup10\n        /* \"#utility.yul\":4972:4994   */\n      add\n        /* \"#utility.yul\":4941:5004   */\n      tag_86\n      jump\t// in\n    tag_151:\n        /* \"#utility.yul\":4931:5004   */\n      swap6\n      pop\n        /* \"#utility.yul\":4887:5014   */\n      pop\n        /* \"#utility.yul\":5053:5055   */\n      0x20\n        /* \"#utility.yul\":5079:5142   */\n      tag_152\n        /* \"#utility.yul\":5134:5141   */\n      dup9\n        /* \"#utility.yul\":5125:5131   */\n      dup3\n        /* \"#utility.yul\":5114:5123   */\n      dup10\n        /* \"#utility.yul\":5110:5132   */\n      add\n        /* \"#utility.yul\":5079:5142   */\n      tag_89\n      jump\t// in\n    tag_152:\n        /* \"#utility.yul\":5069:5142   */\n      swap5\n      pop\n        /* \"#utility.yul\":5024:5152   */\n      pop\n        /* \"#utility.yul\":5191:5193   */\n      0x40\n        /* \"#utility.yul\":5217:5281   */\n      tag_153\n        /* \"#utility.yul\":5273:5280   */\n      dup9\n        /* \"#utility.yul\":5264:5270   */\n      dup3\n        /* \"#utility.yul\":5253:5262   */\n      dup10\n        /* \"#utility.yul\":5249:5271   */\n      add\n        /* \"#utility.yul\":5217:5281   */\n      tag_90\n      jump\t// in\n    tag_153:\n        /* \"#utility.yul\":5207:5281   */\n      swap4\n      pop\n        /* \"#utility.yul\":5162:5291   */\n      pop\n        /* \"#utility.yul\":5330:5332   */\n      0x60\n        /* \"#utility.yul\":5356:5420   */\n      tag_154\n        /* \"#utility.yul\":5412:5419   */\n      dup9\n        /* \"#utility.yul\":5403:5409   */\n      dup3\n        /* \"#utility.yul\":5392:5401   */\n      dup10\n        /* \"#utility.yul\":5388:5410   */\n      add\n        /* \"#utility.yul\":5356:5420   */\n      tag_90\n      jump\t// in\n    tag_154:\n        /* \"#utility.yul\":5346:5420   */\n      swap3\n      pop\n        /* \"#utility.yul\":5301:5430   */\n      pop\n        /* \"#utility.yul\":5469:5472   */\n      0x80\n        /* \"#utility.yul\":5496:5559   */\n      tag_155\n        /* \"#utility.yul\":5551:5558   */\n      dup9\n        /* \"#utility.yul\":5542:5548   */\n      dup3\n        /* \"#utility.yul\":5531:5540   */\n      dup10\n        /* \"#utility.yul\":5527:5549   */\n      add\n        /* \"#utility.yul\":5496:5559   */\n      tag_86\n      jump\t// in\n    tag_155:\n        /* \"#utility.yul\":5486:5559   */\n      swap2\n      pop\n        /* \"#utility.yul\":5440:5569   */\n      pop\n        /* \"#utility.yul\":4605:5576   */\n      swap3\n      swap6\n      pop\n      swap3\n      swap6\n      swap1\n      swap4\n      pop\n      jump\t// out\n        /* \"#utility.yul\":5582:5762   */\n    tag_91:\n        /* \"#utility.yul\":5630:5707   */\n      0x4e487b7100000000000000000000000000000000000000000000000000000000\n        /* \"#utility.yul\":5627:5628   */\n      0x00\n        /* \"#utility.yul\":5620:5708   */\n      mstore\n        /* \"#utility.yul\":5727:5731   */\n      0x11\n        /* \"#utility.yul\":5724:5725   */\n      0x04\n        /* \"#utility.yul\":5717:5732   */\n      mstore\n        /* \"#utility.yul\":5751:5755   */\n      0x24\n        /* \"#utility.yul\":5748:5749   */\n      0x00\n        /* \"#utility.yul\":5741:5756   */\n      revert\n        /* \"#utility.yul\":5768:6759   */\n    tag_57:\n        /* \"#utility.yul\":5807:5814   */\n      0x00\n        /* \"#utility.yul\":5830:5849   */\n      tag_158\n        /* \"#utility.yul\":5847:5848   */\n      dup3\n        /* \"#utility.yul\":5830:5849   */\n      tag_87\n      jump\t// in\n    tag_158:\n        /* \"#utility.yul\":5825:5849   */\n      swap2\n      pop\n        /* \"#utility.yul\":5863:5882   */\n      tag_159\n        /* \"#utility.yul\":5880:5881   */\n      dup4\n        /* \"#utility.yul\":5863:5882   */\n      tag_87\n      jump\t// in\n    tag_159:\n        /* \"#utility.yul\":5858:5882   */\n      swap3\n      pop\n        /* \"#utility.yul\":6064:6065   */\n      dup3\n        /* \"#utility.yul\":5996:6062   */\n      0x7fffffffffffffffffffffffffffffffffffffffffffffffffffffffffffffff\n        /* \"#utility.yul\":5992:6066   */\n      div\n        /* \"#utility.yul\":5989:5990   */\n      dup3\n        /* \"#utility.yul\":5986:6067   */\n      gt\n        /* \"#utility.yul\":5981:5982   */\n      0x00\n        /* \"#utility.yul\":5978:5979   */\n      dup5\n        /* \"#utility.yul\":5974:5983   */\n      sgt\n        /* \"#utility.yul\":5970:5971   */\n      0x00\n        /* \"#utility.yul\":5967:5968   */\n      dup5\n        /* \"#utility.yul\":5963:5972   */\n      sgt\n        /* \"#utility.yul\":5959:5984   */\n      and\n        /* \"#utility.yul\":5955:6068   */\n      and\n        /* \"#utility.yul\":5952:6091   */\n      iszero\n      tag_160\n      jumpi\n        /* \"#utility.yul\":6071:6089   */\n      tag_161\n      tag_91\n      jump\t// in\n    tag_161:\n        /* \"#utility.yul\":5952:6091   */\n    tag_160:\n        /* \"#utility.yul\":6275:6276   */\n      dup2\n        /* \"#utility.yul\":6207:6273   */\n      0x8000000000000000000000000000000000000000000000000000000000000000\n        /* \"#utility.yul\":6202:6277   */\n      sdiv\n        /* \"#utility.yul\":6199:6200   */\n      dup4\n        /* \"#utility.yul\":6195:6278   */\n      slt\n        /* \"#utility.yul\":6190:6191   */\n      0x00\n        /* \"#utility.yul\":6187:6188   */\n      dup5\n        /* \"#utility.yul\":6183:6192   */\n      slt\n        /* \"#utility.yul\":6179:6180   */\n      0x00\n        /* \"#utility.yul\":6176:6177   */\n      dup5\n        /* \"#utility.yul\":6172:6181   */\n      sgt\n        /* \"#utility.yul\":6168:6193   */\n      and\n        /* \"#utility.yul\":6164:6279   */\n      and\n        /* \"#utility.yul\":6161:6302   */\n      iszero\n      tag_162\n      jumpi\n        /* \"#utility.yul\":6282:6300   */\n      tag_163\n      tag_91\n      jump\t// in\n    tag_163:\n        /* \"#utility.yul\":6161:6302   */\n    tag_162:\n        /* \"#utility.yul\":6486:6487   */\n      dup3\n        /* \"#utility.yul\":6418:6484   */\n      0x8000000000000000000000000000000000000000000000000000000000000000\n        /* \"#utility.yul\":6413:6488   */\n      sdiv\n        /* \"#utility.yul\":6410:6411   */\n      dup3\n        /* \"#utility.yul\":6406:6489   */\n      slt\n        /* \"#utility.yul\":6401:6402   */\n      0x00\n        /* \"#utility.yul\":6398:6399   */\n      dup5\n        /* \"#utility.yul\":6394:6403   */\n      sgt\n        /* \"#utility.yul\":6390:6391   */\n      0x00\n        /* \"#utility.yul\":6387:6388   */\n      dup5\n        /* \"#utility.yul\":6383:6392   */\n      slt\n        /* \"#utility.yul\":6379:6404   */\n      and\n        /* \"#utility.yul\":6375:6490   */\n      and\n        /* \"#utility.yul\":6372:6513   */\n      iszero\n      tag_164\n      jumpi\n        /* \"#utility.yul\":6493:6511   */\n      tag_165\n      tag_91\n      jump\t// in\n    tag_165:\n        /* \"#utility.yul\":6372:6513   */\n    tag_164:\n        /* \"#utility.yul\":6696:6697   */\n      dup3\n        /* \"#utility.yul\":6628:6694   */\n      0x7fffffffffffffffffffffffffffffffffffffffffffffffffffffffffffffff\n        /* \"#utility.yul\":6623:6698   */\n      sdiv\n        /* \"#utility.yul\":6620:6621   */\n      dup3\n        /* \"#utility.yul\":6616:6699   */\n      slt\n        /* \"#utility.yul\":6611:6612   */\n      0x00\n        /* \"#utility.yul\":6608:6609   */\n      dup5\n        /* \"#utility.yul\":6604:6613   */\n      slt\n        /* \"#utility.yul\":6600:6601   */\n      0x00\n        /* \"#utility.yul\":6597:6598   */\n      dup5\n        /* \"#utility.yul\":6593:6602   */\n      slt\n        /* \"#utility.yul\":6589:6614   */\n      and\n        /* \"#utility.yul\":6585:6700   */\n      and\n        /* \"#utility.yul\":6582:6723   */\n      iszero\n      tag_166\n      jumpi\n        /* \"#utility.yul\":6703:6721   */\n      tag_167\n      tag_91\n      jump\t// in\n    tag_167:\n        /* \"#utility.yul\":6582:6723   */\n    tag_166:\n        /* \"#utility.yul\":6751:6752   */\n      dup3\n        /* \"#utility.yul\":6748:6749   */\n      dup3\n        /* \"#utility.yul\":6744:6753   */\n      mul\n        /* \"#utility.yul\":6733:6753   */\n      swap1\n      pop\n        /* \"#utility.yul\":5768:6759   */\n      swap3\n      swap2\n      pop\n      pop\n      jump\t// out\n        /* \"#utility.yul\":6765:7113   */\n    tag_61:\n        /* \"#utility.yul\":6805:6812   */\n      0x00\n        /* \"#utility.yul\":6828:6848   */\n      tag_169\n        /* \"#utility.yul\":6846:6847   */\n      dup3\n        /* \"#utility.yul\":6828:6848   */\n      tag_72\n      jump\t// in\n    tag_169:\n        /* \"#utility.yul\":6823:6848   */\n      swap2\n      pop\n        /* \"#utility.yul\":6862:6882   */\n      tag_170\n        /* \"#utility.yul\":6880:6881   */\n      dup4\n        /* \"#utility.yul\":6862:6882   */\n      tag_72\n      jump\t// in\n    tag_170:\n        /* \"#utility.yul\":6857:6882   */\n      swap3\n      pop\n        /* \"#utility.yul\":7050:7051   */\n      dup2\n        /* \"#utility.yul\":6982:7048   */\n      0xffffffffffffffffffffffffffffffffffffffffffffffffffffffffffffffff\n        /* \"#utility.yul\":6978:7052   */\n      div\n        /* \"#utility.yul\":6975:6976   */\n      dup4\n        /* \"#utility.yul\":6972:7053   */\n      gt\n        /* \"#utility.yul\":6967:6968   */\n      dup3\n        /* \"#utility.yul\":6960:6969   */\n      iszero\n        /* \"#utility.yul\":6953:6970   */\n      iszero\n        /* \"#utility.yul\":6949:7054   */\n      and\n        /* \"#utility.yul\":6946:7077   */\n      iszero\n      tag_171\n      jumpi\n        /* \"#utility.yul\":7057:7075   */\n      tag_172\n      tag_91\n      jump\t// in\n    tag_172:\n        /* \"#utility.yul\":6946:7077   */\n    tag_171:\n        /* \"#utility.yul\":7105:7106   */\n      dup3\n        /* \"#utility.yul\":7102:7103   */\n      dup3\n        /* \"#utility.yul\":7098:7107   */\n      mul\n        /* \"#utility.yul\":7087:7107   */\n      swap1\n      pop\n        /* \"#utility.yul\":6765:7113   */\n      swap3\n      swap2\n      pop\n      pop\n      jump\t// out\n        /* \"#utility.yul\":7119:7299   */\n    tag_92:\n        /* \"#utility.yul\":7167:7244   */\n      0x4e487b7100000000000000000000000000000000000000000000000000000000\n        /* \"#utility.yul\":7164:7165   */\n      0x00\n        /* \"#utility.yul\":7157:7245   */\n      mstore\n        /* \"#utility.yul\":7264:7268   */\n      0x12\n        /* \"#utility.yul\":7261:7262   */\n      0x04\n        /* \"#utility.yul\":7254:7269   */\n      mstore\n        /* \"#utility.yul\":7288:7292   */\n      0x24\n        /* \"#utility.yul\":7285:7286   */\n      0x00\n        /* \"#utility.yul\":7278:7293   */\n      revert\n        /* \"#utility.yul\":7305:7490   */\n    tag_63:\n        /* \"#utility.yul\":7345:7346   */\n      0x00\n        /* \"#utility.yul\":7362:7382   */\n      tag_175\n        /* \"#utility.yul\":7380:7381   */\n      dup3\n        /* \"#utility.yul\":7362:7382   */\n      tag_72\n      jump\t// in\n    tag_175:\n        /* \"#utility.yul\":7357:7382   */\n      swap2\n      pop\n        /* \"#utility.yul\":7396:7416   */\n      tag_176\n        /* \"#utility.yul\":7414:7415   */\n      dup4\n        /* \"#utility.yul\":7396:7416   */\n      tag_72\n      jump\t// in\n    tag_176:\n        /* \"#utility.yul\":7391:7416   */\n      swap3\n      pop\n        /* \"#utility.yul\":7435:7436   */\n      dup3\n        /* \"#utility.yul\":7425:7460   */\n      tag_177\n      jumpi\n        /* \"#utility.yul\":7440:7458   */\n      tag_178\n      tag_92\n      jump\t// in\n    tag_178:\n        /* \"#utility.yul\":7425:7460   */\n    tag_177:\n        /* \"#utility.yul\":7482:7483   */\n      dup3\n        /* \"#utility.yul\":7479:7480   */\n      dup3\n        /* \"#utility.yul\":7475:7484   */\n      div\n        /* \"#utility.yul\":7470:7484   */\n      swap1\n      pop\n        /* \"#utility.yul\":7305:7490   */\n      swap3\n      swap2\n      pop\n      pop\n      jump\t// out\n        /* \"#utility.yul\":7496:7847   */\n    tag_68:\n        /* \"#utility.yul\":7566:7572   */\n      0x00\n        /* \"#utility.yul\":7615:7617   */\n      0x20\n        /* \"#utility.yul\":7603:7612   */\n      dup3\n        /* \"#utility.yul\":7594:7601   */\n      dup5\n        /* \"#utility.yul\":7590:7613   */\n      sub\n        /* \"#utility.yul\":7586:7618   */\n      slt\n        /* \"#utility.yul\":7583:7702   */\n      iszero\n      tag_180\n      jumpi\n        /* \"#utility.yul\":7621:7700   */\n      tag_181\n      tag_70\n      jump\t// in\n    tag_181:\n        /* \"#utility.yul\":7583:7702   */\n    tag_180:\n        /* \"#utility.yul\":7741:7742   */\n      0x00\n        /* \"#utility.yul\":7766:7830   */\n      tag_182\n        /* \"#utility.yul\":7822:7829   */\n      dup5\n        /* \"#utility.yul\":7813:7819   */\n      dup3\n        /* \"#utility.yul\":7802:7811   */\n      dup6\n        /* \"#utility.yul\":7798:7820   */\n      add\n        /* \"#utility.yul\":7766:7830   */\n      tag_90\n      jump\t// in\n    tag_182:\n        /* \"#utility.yul\":7756:7830   */\n      swap2\n      pop\n        /* \"#utility.yul\":7712:7840   */\n      pop\n        /* \"#utility.yul\":7496:7847   */\n      swap3\n      swap2\n      pop\n      pop\n      jump\t// out\n\n    auxdata: 0xa26469706673582212200f0572af9de6813cefd39be77a5d5b00be62fa1dfe1402c24b9de061ead31fbd64736f6c634300080d0033\n}\n",
				"bytecode": {
					"linkReferences": {},
					"object": "60806040526802b5e3af16b188000060005534801561001d57600080fd5b506109ab8061002d6000396000f3fe6080604052600436106100705760003560e01c80636ce1417e1161004e5780636ce1417e1461011a5780636d90164e14610124578063793b233b1461014f578063c6129a5a1461018c57610070565b806347ff62c614610075578063520fcd61146100b257806366b30f06146100ef575b600080fd5b34801561008157600080fd5b5061009c600480360381019061009791906104b7565b6101b7565b6040516100a99190610525565b60405180910390f35b3480156100be57600080fd5b506100d960048036038101906100d4919061056c565b6101f6565b6040516100e691906105a8565b60405180910390f35b3480156100fb57600080fd5b5061010461020e565b60405161011191906105a8565b60405180910390f35b610122610214565b005b34801561013057600080fd5b5061013961030a565b60405161014691906105a8565b60405180910390f35b34801561015b57600080fd5b50610176600480360381019061017191906104b7565b6103b3565b60405161018391906105a8565b60405180910390f35b34801561019857600080fd5b506101a16103ed565b6040516101ae91906105a8565b60405180910390f35b600181815481106101c757600080fd5b906000526020600020016000915054906101000a900473ffffffffffffffffffffffffffffffffffffffff1681565b60026020528060005260406000206000915090505481565b60005481565b600054610220346103b3565b1015610261576040517f08c379a000000000000000000000000000000000000000000000000000000000815260040161025890610620565b60405180910390fd5b6001339080600181540180825580915050600190039060005260206000200160009091909190916101000a81548173ffffffffffffffffffffffffffffffffffffffff021916908373ffffffffffffffffffffffffffffffffffffffff16021790555034600260003373ffffffffffffffffffffffffffffffffffffffff1673ffffffffffffffffffffffffffffffffffffffff16815260200190815260200160002081905550565b600080738a753747a1fa494ec906ce90e9f37563a8af630e905060008173ffffffffffffffffffffffffffffffffffffffff1663feaf968c6040518163ffffffff1660e01b815260040160a060405180830381865afa158015610371573d6000803e3d6000fd5b505050506040513d601f19601f8201168201806040525081019061039591906106cd565b5050509150506402540be400816103ac9190610777565b9250505090565b6000806103be61030a565b90506000670de0b6b3a764000084836103d7919061088e565b6103e19190610917565b90508092505050919050565b600080738a753747a1fa494ec906ce90e9f37563a8af630e90508073ffffffffffffffffffffffffffffffffffffffff166354fd4d506040518163ffffffff1660e01b8152600401602060405180830381865afa158015610452573d6000803e3d6000fd5b505050506040513d601f19601f820116820180604052508101906104769190610948565b91505090565b600080fd5b6000819050919050565b61049481610481565b811461049f57600080fd5b50565b6000813590506104b18161048b565b92915050565b6000602082840312156104cd576104cc61047c565b5b60006104db848285016104a2565b91505092915050565b600073ffffffffffffffffffffffffffffffffffffffff82169050919050565b600061050f826104e4565b9050919050565b61051f81610504565b82525050565b600060208201905061053a6000830184610516565b92915050565b61054981610504565b811461055457600080fd5b50565b60008135905061056681610540565b92915050565b6000602082840312156105825761058161047c565b5b600061059084828501610557565b91505092915050565b6105a281610481565b82525050565b60006020820190506105bd6000830184610599565b92915050565b600082825260208201905092915050565b7f4469646e27742073656e6420656e6f7567680000000000000000000000000000600082015250565b600061060a6012836105c3565b9150610615826105d4565b602082019050919050565b60006020820190508181036000830152610639816105fd565b9050919050565b600069ffffffffffffffffffff82169050919050565b61065f81610640565b811461066a57600080fd5b50565b60008151905061067c81610656565b92915050565b6000819050919050565b61069581610682565b81146106a057600080fd5b50565b6000815190506106b28161068c565b92915050565b6000815190506106c78161048b565b92915050565b600080600080600060a086880312156106e9576106e861047c565b5b60006106f78882890161066d565b9550506020610708888289016106a3565b9450506040610719888289016106b8565b935050606061072a888289016106b8565b925050608061073b8882890161066d565b9150509295509295909350565b7f4e487b7100000000000000000000000000000000000000000000000000000000600052601160045260246000fd5b600061078282610682565b915061078d83610682565b9250827f7fffffffffffffffffffffffffffffffffffffffffffffffffffffffffffffff04821160008413600084131616156107cc576107cb610748565b5b817f8000000000000000000000000000000000000000000000000000000000000000058312600084126000841316161561080957610808610748565b5b827f8000000000000000000000000000000000000000000000000000000000000000058212600084136000841216161561084657610845610748565b5b827f7fffffffffffffffffffffffffffffffffffffffffffffffffffffffffffffff058212600084126000841216161561088357610882610748565b5b828202905092915050565b600061089982610481565b91506108a483610481565b9250817fffffffffffffffffffffffffffffffffffffffffffffffffffffffffffffffff04831182151516156108dd576108dc610748565b5b828202905092915050565b7f4e487b7100000000000000000000000000000000000000000000000000000000600052601260045260246000fd5b600061092282610481565b915061092d83610481565b92508261093d5761093c6108e8565b5b828204905092915050565b60006020828403121561095e5761095d61047c565b5b600061096c848285016106b8565b9150509291505056fea26469706673582212200f0572af9de6813cefd39be77a5d5b00be62fa1dfe1402c24b9de061ead31fbd64736f6c634300080d0033",
					"opcodes": "PUSH1 0x80 PUSH1 0x40 MSTORE PUSH9 0x2B5E3AF16B1880000 PUSH1 0x0 SSTORE CALLVALUE DUP1 ISZERO PUSH2 0x1D JUMPI PUSH1 0x0 DUP1 REVERT JUMPDEST POP PUSH2 0x9AB DUP1 PUSH2 0x2D PUSH1 0x0 CODECOPY PUSH1 0x0 RETURN INVALID PUSH1 0x80 PUSH1 0x40 MSTORE PUSH1 0x4 CALLDATASIZE LT PUSH2 0x70 JUMPI PUSH1 0x0 CALLDATALOAD PUSH1 0xE0 SHR DUP1 PUSH4 0x6CE1417E GT PUSH2 0x4E JUMPI DUP1 PUSH4 0x6CE1417E EQ PUSH2 0x11A JUMPI DUP1 PUSH4 0x6D90164E EQ PUSH2 0x124 JUMPI DUP1 PUSH4 0x793B233B EQ PUSH2 0x14F JUMPI DUP1 PUSH4 0xC6129A5A EQ PUSH2 0x18C JUMPI PUSH2 0x70 JUMP JUMPDEST DUP1 PUSH4 0x47FF62C6 EQ PUSH2 0x75 JUMPI DUP1 PUSH4 0x520FCD61 EQ PUSH2 0xB2 JUMPI DUP1 PUSH4 0x66B30F06 EQ PUSH2 0xEF JUMPI JUMPDEST PUSH1 0x0 DUP1 REVERT JUMPDEST CALLVALUE DUP1 ISZERO PUSH2 0x81 JUMPI PUSH1 0x0 DUP1 REVERT JUMPDEST POP PUSH2 0x9C PUSH1 0x4 DUP1 CALLDATASIZE SUB DUP2 ADD SWAP1 PUSH2 0x97 SWAP2 SWAP1 PUSH2 0x4B7 JUMP JUMPDEST PUSH2 0x1B7 JUMP JUMPDEST PUSH1 0x40 MLOAD PUSH2 0xA9 SWAP2 SWAP1 PUSH2 0x525 JUMP JUMPDEST PUSH1 0x40 MLOAD DUP1 SWAP2 SUB SWAP1 RETURN JUMPDEST CALLVALUE DUP1 ISZERO PUSH2 0xBE JUMPI PUSH1 0x0 DUP1 REVERT JUMPDEST POP PUSH2 0xD9 PUSH1 0x4 DUP1 CALLDATASIZE SUB DUP2 ADD SWAP1 PUSH2 0xD4 SWAP2 SWAP1 PUSH2 0x56C JUMP JUMPDEST PUSH2 0x1F6 JUMP JUMPDEST PUSH1 0x40 MLOAD PUSH2 0xE6 SWAP2 SWAP1 PUSH2 0x5A8 JUMP JUMPDEST PUSH1 0x40 MLOAD DUP1 SWAP2 SUB SWAP1 RETURN JUMPDEST CALLVALUE DUP1 ISZERO PUSH2 0xFB JUMPI PUSH1 0x0 DUP1 REVERT JUMPDEST POP PUSH2 0x104 PUSH2 0x20E JUMP JUMPDEST PUSH1 0x40 MLOAD PUSH2 0x111 SWAP2 SWAP1 PUSH2 0x5A8 JUMP JUMPDEST PUSH1 0x40 MLOAD DUP1 SWAP2 SUB SWAP1 RETURN JUMPDEST PUSH2 0x122 PUSH2 0x214 JUMP JUMPDEST STOP JUMPDEST CALLVALUE DUP1 ISZERO PUSH2 0x130 JUMPI PUSH1 0x0 DUP1 REVERT JUMPDEST POP PUSH2 0x139 PUSH2 0x30A JUMP JUMPDEST PUSH1 0x40 MLOAD PUSH2 0x146 SWAP2 SWAP1 PUSH2 0x5A8 JUMP JUMPDEST PUSH1 0x40 MLOAD DUP1 SWAP2 SUB SWAP1 RETURN JUMPDEST CALLVALUE DUP1 ISZERO PUSH2 0x15B JUMPI PUSH1 0x0 DUP1 REVERT JUMPDEST POP PUSH2 0x176 PUSH1 0x4 DUP1 CALLDATASIZE SUB DUP2 ADD SWAP1 PUSH2 0x171 SWAP2 SWAP1 PUSH2 0x4B7 JUMP JUMPDEST PUSH2 0x3B3 JUMP JUMPDEST PUSH1 0x40 MLOAD PUSH2 0x183 SWAP2 SWAP1 PUSH2 0x5A8 JUMP JUMPDEST PUSH1 0x40 MLOAD DUP1 SWAP2 SUB SWAP1 RETURN JUMPDEST CALLVALUE DUP1 ISZERO PUSH2 0x198 JUMPI PUSH1 0x0 DUP1 REVERT JUMPDEST POP PUSH2 0x1A1 PUSH2 0x3ED JUMP JUMPDEST PUSH1 0x40 MLOAD PUSH2 0x1AE SWAP2 SWAP1 PUSH2 0x5A8 JUMP JUMPDEST PUSH1 0x40 MLOAD DUP1 SWAP2 SUB SWAP1 RETURN JUMPDEST PUSH1 0x1 DUP2 DUP2 SLOAD DUP2 LT PUSH2 0x1C7 JUMPI PUSH1 0x0 DUP1 REVERT JUMPDEST SWAP1 PUSH1 0x0 MSTORE PUSH1 0x20 PUSH1 0x0 KECCAK256 ADD PUSH1 0x0 SWAP2 POP SLOAD SWAP1 PUSH2 0x100 EXP SWAP1 DIV PUSH20 0xFFFFFFFFFFFFFFFFFFFFFFFFFFFFFFFFFFFFFFFF AND DUP2 JUMP JUMPDEST PUSH1 0x2 PUSH1 0x20 MSTORE DUP1 PUSH1 0x0 MSTORE PUSH1 0x40 PUSH1 0x0 KECCAK256 PUSH1 0x0 SWAP2 POP SWAP1 POP SLOAD DUP2 JUMP JUMPDEST PUSH1 0x0 SLOAD DUP2 JUMP JUMPDEST PUSH1 0x0 SLOAD PUSH2 0x220 CALLVALUE PUSH2 0x3B3 JUMP JUMPDEST LT ISZERO PUSH2 0x261 JUMPI PUSH1 0x40 MLOAD PUSH32 0x8C379A000000000000000000000000000000000000000000000000000000000 DUP2 MSTORE PUSH1 0x4 ADD PUSH2 0x258 SWAP1 PUSH2 0x620 JUMP JUMPDEST PUSH1 0x40 MLOAD DUP1 SWAP2 SUB SWAP1 REVERT JUMPDEST PUSH1 0x1 CALLER SWAP1 DUP1 PUSH1 0x1 DUP2 SLOAD ADD DUP1 DUP3 SSTORE DUP1 SWAP2 POP POP PUSH1 0x1 SWAP1 SUB SWAP1 PUSH1 0x0 MSTORE PUSH1 0x20 PUSH1 0x0 KECCAK256 ADD PUSH1 0x0 SWAP1 SWAP2 SWAP1 SWAP2 SWAP1 SWAP2 PUSH2 0x100 EXP DUP2 SLOAD DUP2 PUSH20 0xFFFFFFFFFFFFFFFFFFFFFFFFFFFFFFFFFFFFFFFF MUL NOT AND SWAP1 DUP4 PUSH20 0xFFFFFFFFFFFFFFFFFFFFFFFFFFFFFFFFFFFFFFFF AND MUL OR SWAP1 SSTORE POP CALLVALUE PUSH1 0x2 PUSH1 0x0 CALLER PUSH20 0xFFFFFFFFFFFFFFFFFFFFFFFFFFFFFFFFFFFFFFFF AND PUSH20 0xFFFFFFFFFFFFFFFFFFFFFFFFFFFFFFFFFFFFFFFF AND DUP2 MSTORE PUSH1 0x20 ADD SWAP1 DUP2 MSTORE PUSH1 0x20 ADD PUSH1 0x0 KECCAK256 DUP2 SWAP1 SSTORE POP JUMP JUMPDEST PUSH1 0x0 DUP1 PUSH20 0x8A753747A1FA494EC906CE90E9F37563A8AF630E SWAP1 POP PUSH1 0x0 DUP2 PUSH20 0xFFFFFFFFFFFFFFFFFFFFFFFFFFFFFFFFFFFFFFFF AND PUSH4 0xFEAF968C PUSH1 0x40 MLOAD DUP2 PUSH4 0xFFFFFFFF AND PUSH1 0xE0 SHL DUP2 MSTORE PUSH1 0x4 ADD PUSH1 0xA0 PUSH1 0x40 MLOAD DUP1 DUP4 SUB DUP2 DUP7 GAS STATICCALL ISZERO DUP1 ISZERO PUSH2 0x371 JUMPI RETURNDATASIZE PUSH1 0x0 DUP1 RETURNDATACOPY RETURNDATASIZE PUSH1 0x0 REVERT JUMPDEST POP POP POP POP PUSH1 0x40 MLOAD RETURNDATASIZE PUSH1 0x1F NOT PUSH1 0x1F DUP3 ADD AND DUP3 ADD DUP1 PUSH1 0x40 MSTORE POP DUP2 ADD SWAP1 PUSH2 0x395 SWAP2 SWAP1 PUSH2 0x6CD JUMP JUMPDEST POP POP POP SWAP2 POP POP PUSH5 0x2540BE400 DUP2 PUSH2 0x3AC SWAP2 SWAP1 PUSH2 0x777 JUMP JUMPDEST SWAP3 POP POP POP SWAP1 JUMP JUMPDEST PUSH1 0x0 DUP1 PUSH2 0x3BE PUSH2 0x30A JUMP JUMPDEST SWAP1 POP PUSH1 0x0 PUSH8 0xDE0B6B3A7640000 DUP5 DUP4 PUSH2 0x3D7 SWAP2 SWAP1 PUSH2 0x88E JUMP JUMPDEST PUSH2 0x3E1 SWAP2 SWAP1 PUSH2 0x917 JUMP JUMPDEST SWAP1 POP DUP1 SWAP3 POP POP POP SWAP2 SWAP1 POP JUMP JUMPDEST PUSH1 0x0 DUP1 PUSH20 0x8A753747A1FA494EC906CE90E9F37563A8AF630E SWAP1 POP DUP1 PUSH20 0xFFFFFFFFFFFFFFFFFFFFFFFFFFFFFFFFFFFFFFFF AND PUSH4 0x54FD4D50 PUSH1 0x40 MLOAD DUP2 PUSH4 0xFFFFFFFF AND PUSH1 0xE0 SHL DUP2 MSTORE PUSH1 0x4 ADD PUSH1 0x20 PUSH1 0x40 MLOAD DUP1 DUP4 SUB DUP2 DUP7 GAS STATICCALL ISZERO DUP1 ISZERO PUSH2 0x452 JUMPI RETURNDATASIZE PUSH1 0x0 DUP1 RETURNDATACOPY RETURNDATASIZE PUSH1 0x0 REVERT JUMPDEST POP POP POP POP PUSH1 0x40 MLOAD RETURNDATASIZE PUSH1 0x1F NOT PUSH1 0x1F DUP3 ADD AND DUP3 ADD DUP1 PUSH1 0x40 MSTORE POP DUP2 ADD SWAP1 PUSH2 0x476 SWAP2 SWAP1 PUSH2 0x948 JUMP JUMPDEST SWAP2 POP POP SWAP1 JUMP JUMPDEST PUSH1 0x0 DUP1 REVERT JUMPDEST PUSH1 0x0 DUP2 SWAP1 POP SWAP2 SWAP1 POP JUMP JUMPDEST PUSH2 0x494 DUP2 PUSH2 0x481 JUMP JUMPDEST DUP2 EQ PUSH2 0x49F JUMPI PUSH1 0x0 DUP1 REVERT JUMPDEST POP JUMP JUMPDEST PUSH1 0x0 DUP2 CALLDATALOAD SWAP1 POP PUSH2 0x4B1 DUP2 PUSH2 0x48B JUMP JUMPDEST SWAP3 SWAP2 POP POP JUMP JUMPDEST PUSH1 0x0 PUSH1 0x20 DUP3 DUP5 SUB SLT ISZERO PUSH2 0x4CD JUMPI PUSH2 0x4CC PUSH2 0x47C JUMP JUMPDEST JUMPDEST PUSH1 0x0 PUSH2 0x4DB DUP5 DUP3 DUP6 ADD PUSH2 0x4A2 JUMP JUMPDEST SWAP2 POP POP SWAP3 SWAP2 POP POP JUMP JUMPDEST PUSH1 0x0 PUSH20 0xFFFFFFFFFFFFFFFFFFFFFFFFFFFFFFFFFFFFFFFF DUP3 AND SWAP1 POP SWAP2 SWAP1 POP JUMP JUMPDEST PUSH1 0x0 PUSH2 0x50F DUP3 PUSH2 0x4E4 JUMP JUMPDEST SWAP1 POP SWAP2 SWAP1 POP JUMP JUMPDEST PUSH2 0x51F DUP2 PUSH2 0x504 JUMP JUMPDEST DUP3 MSTORE POP POP JUMP JUMPDEST PUSH1 0x0 PUSH1 0x20 DUP3 ADD SWAP1 POP PUSH2 0x53A PUSH1 0x0 DUP4 ADD DUP5 PUSH2 0x516 JUMP JUMPDEST SWAP3 SWAP2 POP POP JUMP JUMPDEST PUSH2 0x549 DUP2 PUSH2 0x504 JUMP JUMPDEST DUP2 EQ PUSH2 0x554 JUMPI PUSH1 0x0 DUP1 REVERT JUMPDEST POP JUMP JUMPDEST PUSH1 0x0 DUP2 CALLDATALOAD SWAP1 POP PUSH2 0x566 DUP2 PUSH2 0x540 JUMP JUMPDEST SWAP3 SWAP2 POP POP JUMP JUMPDEST PUSH1 0x0 PUSH1 0x20 DUP3 DUP5 SUB SLT ISZERO PUSH2 0x582 JUMPI PUSH2 0x581 PUSH2 0x47C JUMP JUMPDEST JUMPDEST PUSH1 0x0 PUSH2 0x590 DUP5 DUP3 DUP6 ADD PUSH2 0x557 JUMP JUMPDEST SWAP2 POP POP SWAP3 SWAP2 POP POP JUMP JUMPDEST PUSH2 0x5A2 DUP2 PUSH2 0x481 JUMP JUMPDEST DUP3 MSTORE POP POP JUMP JUMPDEST PUSH1 0x0 PUSH1 0x20 DUP3 ADD SWAP1 POP PUSH2 0x5BD PUSH1 0x0 DUP4 ADD DUP5 PUSH2 0x599 JUMP JUMPDEST SWAP3 SWAP2 POP POP JUMP JUMPDEST PUSH1 0x0 DUP3 DUP3 MSTORE PUSH1 0x20 DUP3 ADD SWAP1 POP SWAP3 SWAP2 POP POP JUMP JUMPDEST PUSH32 0x4469646E27742073656E6420656E6F7567680000000000000000000000000000 PUSH1 0x0 DUP3 ADD MSTORE POP JUMP JUMPDEST PUSH1 0x0 PUSH2 0x60A PUSH1 0x12 DUP4 PUSH2 0x5C3 JUMP JUMPDEST SWAP2 POP PUSH2 0x615 DUP3 PUSH2 0x5D4 JUMP JUMPDEST PUSH1 0x20 DUP3 ADD SWAP1 POP SWAP2 SWAP1 POP JUMP JUMPDEST PUSH1 0x0 PUSH1 0x20 DUP3 ADD SWAP1 POP DUP2 DUP2 SUB PUSH1 0x0 DUP4 ADD MSTORE PUSH2 0x639 DUP2 PUSH2 0x5FD JUMP JUMPDEST SWAP1 POP SWAP2 SWAP1 POP JUMP JUMPDEST PUSH1 0x0 PUSH10 0xFFFFFFFFFFFFFFFFFFFF DUP3 AND SWAP1 POP SWAP2 SWAP1 POP JUMP JUMPDEST PUSH2 0x65F DUP2 PUSH2 0x640 JUMP JUMPDEST DUP2 EQ PUSH2 0x66A JUMPI PUSH1 0x0 DUP1 REVERT JUMPDEST POP JUMP JUMPDEST PUSH1 0x0 DUP2 MLOAD SWAP1 POP PUSH2 0x67C DUP2 PUSH2 0x656 JUMP JUMPDEST SWAP3 SWAP2 POP POP JUMP JUMPDEST PUSH1 0x0 DUP2 SWAP1 POP SWAP2 SWAP1 POP JUMP JUMPDEST PUSH2 0x695 DUP2 PUSH2 0x682 JUMP JUMPDEST DUP2 EQ PUSH2 0x6A0 JUMPI PUSH1 0x0 DUP1 REVERT JUMPDEST POP JUMP JUMPDEST PUSH1 0x0 DUP2 MLOAD SWAP1 POP PUSH2 0x6B2 DUP2 PUSH2 0x68C JUMP JUMPDEST SWAP3 SWAP2 POP POP JUMP JUMPDEST PUSH1 0x0 DUP2 MLOAD SWAP1 POP PUSH2 0x6C7 DUP2 PUSH2 0x48B JUMP JUMPDEST SWAP3 SWAP2 POP POP JUMP JUMPDEST PUSH1 0x0 DUP1 PUSH1 0x0 DUP1 PUSH1 0x0 PUSH1 0xA0 DUP7 DUP9 SUB SLT ISZERO PUSH2 0x6E9 JUMPI PUSH2 0x6E8 PUSH2 0x47C JUMP JUMPDEST JUMPDEST PUSH1 0x0 PUSH2 0x6F7 DUP9 DUP3 DUP10 ADD PUSH2 0x66D JUMP JUMPDEST SWAP6 POP POP PUSH1 0x20 PUSH2 0x708 DUP9 DUP3 DUP10 ADD PUSH2 0x6A3 JUMP JUMPDEST SWAP5 POP POP PUSH1 0x40 PUSH2 0x719 DUP9 DUP3 DUP10 ADD PUSH2 0x6B8 JUMP JUMPDEST SWAP4 POP POP PUSH1 0x60 PUSH2 0x72A DUP9 DUP3 DUP10 ADD PUSH2 0x6B8 JUMP JUMPDEST SWAP3 POP POP PUSH1 0x80 PUSH2 0x73B DUP9 DUP3 DUP10 ADD PUSH2 0x66D JUMP JUMPDEST SWAP2 POP POP SWAP3 SWAP6 POP SWAP3 SWAP6 SWAP1 SWAP4 POP JUMP JUMPDEST PUSH32 0x4E487B7100000000000000000000000000000000000000000000000000000000 PUSH1 0x0 MSTORE PUSH1 0x11 PUSH1 0x4 MSTORE PUSH1 0x24 PUSH1 0x0 REVERT JUMPDEST PUSH1 0x0 PUSH2 0x782 DUP3 PUSH2 0x682 JUMP JUMPDEST SWAP2 POP PUSH2 0x78D DUP4 PUSH2 0x682 JUMP JUMPDEST SWAP3 POP DUP3 PUSH32 0x7FFFFFFFFFFFFFFFFFFFFFFFFFFFFFFFFFFFFFFFFFFFFFFFFFFFFFFFFFFFFFFF DIV DUP3 GT PUSH1 0x0 DUP5 SGT PUSH1 0x0 DUP5 SGT AND AND ISZERO PUSH2 0x7CC JUMPI PUSH2 0x7CB PUSH2 0x748 JUMP JUMPDEST JUMPDEST DUP2 PUSH32 0x8000000000000000000000000000000000000000000000000000000000000000 SDIV DUP4 SLT PUSH1 0x0 DUP5 SLT PUSH1 0x0 DUP5 SGT AND AND ISZERO PUSH2 0x809 JUMPI PUSH2 0x808 PUSH2 0x748 JUMP JUMPDEST JUMPDEST DUP3 PUSH32 0x8000000000000000000000000000000000000000000000000000000000000000 SDIV DUP3 SLT PUSH1 0x0 DUP5 SGT PUSH1 0x0 DUP5 SLT AND AND ISZERO PUSH2 0x846 JUMPI PUSH2 0x845 PUSH2 0x748 JUMP JUMPDEST JUMPDEST DUP3 PUSH32 0x7FFFFFFFFFFFFFFFFFFFFFFFFFFFFFFFFFFFFFFFFFFFFFFFFFFFFFFFFFFFFFFF SDIV DUP3 SLT PUSH1 0x0 DUP5 SLT PUSH1 0x0 DUP5 SLT AND AND ISZERO PUSH2 0x883 JUMPI PUSH2 0x882 PUSH2 0x748 JUMP JUMPDEST JUMPDEST DUP3 DUP3 MUL SWAP1 POP SWAP3 SWAP2 POP POP JUMP JUMPDEST PUSH1 0x0 PUSH2 0x899 DUP3 PUSH2 0x481 JUMP JUMPDEST SWAP2 POP PUSH2 0x8A4 DUP4 PUSH2 0x481 JUMP JUMPDEST SWAP3 POP DUP2 PUSH32 0xFFFFFFFFFFFFFFFFFFFFFFFFFFFFFFFFFFFFFFFFFFFFFFFFFFFFFFFFFFFFFFFF DIV DUP4 GT DUP3 ISZERO ISZERO AND ISZERO PUSH2 0x8DD JUMPI PUSH2 0x8DC PUSH2 0x748 JUMP JUMPDEST JUMPDEST DUP3 DUP3 MUL SWAP1 POP SWAP3 SWAP2 POP POP JUMP JUMPDEST PUSH32 0x4E487B7100000000000000000000000000000000000000000000000000000000 PUSH1 0x0 MSTORE PUSH1 0x12 PUSH1 0x4 MSTORE PUSH1 0x24 PUSH1 0x0 REVERT JUMPDEST PUSH1 0x0 PUSH2 0x922 DUP3 PUSH2 0x481 JUMP JUMPDEST SWAP2 POP PUSH2 0x92D DUP4 PUSH2 0x481 JUMP JUMPDEST SWAP3 POP DUP3 PUSH2 0x93D JUMPI PUSH2 0x93C PUSH2 0x8E8 JUMP JUMPDEST JUMPDEST DUP3 DUP3 DIV SWAP1 POP SWAP3 SWAP2 POP POP JUMP JUMPDEST PUSH1 0x0 PUSH1 0x20 DUP3 DUP5 SUB SLT ISZERO PUSH2 0x95E JUMPI PUSH2 0x95D PUSH2 0x47C JUMP JUMPDEST JUMPDEST PUSH1 0x0 PUSH2 0x96C DUP5 DUP3 DUP6 ADD PUSH2 0x6B8 JUMP JUMPDEST SWAP2 POP POP SWAP3 SWAP2 POP POP JUMP INVALID LOG2 PUSH5 0x6970667358 0x22 SLT KECCAK256 0xF SDIV PUSH19 0xAF9DE6813CEFD39BE77A5D5B00BE62FA1DFE14 MUL 0xC2 0x4B SWAP14 0xE0 PUSH2 0xEAD3 0x1F 0xBD PUSH5 0x736F6C6343 STOP ADDMOD 0xD STOP CALLER "
				},
				"gasEstimates": {
					"creation": {
						"codeDepositCost": "495000",
						"executionCost": "22636",
						"totalCost": "517636"
					},
					"external": {
						"Fund()": "infinite",
						"GetConversionRate(uint256)": "infinite",
						"GetPrice()": "infinite",
						"GetVersion()": "infinite",
						"addreddToAmountFeed(address)": "2837",
						"fundersList(uint256)": "4957",
						"minimumFund()": "2474"
					}
				},
				"methodIdentifiers": {
					"Fund()": "6ce1417e",
					"GetConversionRate(uint256)": "793b233b",
					"GetPrice()": "6d90164e",
					"GetVersion()": "c6129a5a",
					"addreddToAmountFeed(address)": "520fcd61",
					"fundersList(uint256)": "47ff62c6",
					"minimumFund()": "66b30f06"
				}
			},
			"storageLayout": {
				"storage": [
					{
						"astId": 53,
						"contract": "contracts/FundMe.sol:FundMe",
						"label": "minimumFund",
						"offset": 0,
						"slot": "0",
						"type": "t_uint256"
					},
					{
						"astId": 56,
						"contract": "contracts/FundMe.sol:FundMe",
						"label": "fundersList",
						"offset": 0,
						"slot": "1",
						"type": "t_array(t_address)dyn_storage"
					},
					{
						"astId": 60,
						"contract": "contracts/FundMe.sol:FundMe",
						"label": "addreddToAmountFeed",
						"offset": 0,
						"slot": "2",
						"type": "t_mapping(t_address,t_uint256)"
					}
				],
				"types": {
					"t_address": {
						"encoding": "inplace",
						"label": "address",
						"numberOfBytes": "20"
					},
					"t_array(t_address)dyn_storage": {
						"base": "t_address",
						"encoding": "dynamic_array",
						"label": "address[]",
						"numberOfBytes": "32"
					},
					"t_mapping(t_address,t_uint256)": {
						"encoding": "mapping",
						"key": "t_address",
						"label": "mapping(address => uint256)",
						"numberOfBytes": "32",
						"value": "t_uint256"
					},
					"t_uint256": {
						"encoding": "inplace",
						"label": "uint256",
						"numberOfBytes": "32"
					}
				}
			},
			"userdoc": {
				"kind": "user",
				"methods": {},
				"version": 1
			}
		}
	}
}