{
	"contracts/FundMe.sol": {
		"FundMe": {
			"abi": [
				{
					"inputs": [],
					"name": "Fund",
					"outputs": [],
					"stateMutability": "payable",
					"type": "function"
				},
				{
					"inputs": [],
					"name": "Withdraw",
					"outputs": [],
					"stateMutability": "nonpayable",
					"type": "function"
				},
				{
					"inputs": [
						{
							"internalType": "address",
							"name": "",
							"type": "address"
						}
					],
					"name": "addreddToAmountFeed",
					"outputs": [
						{
							"internalType": "uint256",
							"name": "",
							"type": "uint256"
						}
					],
					"stateMutability": "view",
					"type": "function"
				},
				{
					"inputs": [
						{
							"internalType": "uint256",
							"name": "",
							"type": "uint256"
						}
					],
					"name": "fundersList",
					"outputs": [
						{
							"internalType": "address",
							"name": "",
							"type": "address"
						}
					],
					"stateMutability": "view",
					"type": "function"
				},
				{
					"inputs": [],
					"name": "minimumFund",
					"outputs": [
						{
							"internalType": "uint256",
							"name": "",
							"type": "uint256"
						}
					],
					"stateMutability": "view",
					"type": "function"
				}
			],
			"devdoc": {
				"kind": "dev",
				"methods": {},
				"version": 1
			},
			"evm": {
				"assembly": "    /* \"contracts/FundMe.sol\":94:841  contract FundMe{... */\n  mstore(0x40, 0x80)\n    /* \"contracts/FundMe.sol\":188:197  50 * 1e18 */\n  0x02b5e3af16b1880000\n    /* \"contracts/FundMe.sol\":159:197  uint256 public minimumFund = 50 * 1e18 */\n  0x00\n  sstore\n    /* \"contracts/FundMe.sol\":94:841  contract FundMe{... */\n  callvalue\n  dup1\n  iszero\n  tag_1\n  jumpi\n  0x00\n  dup1\n  revert\ntag_1:\n  pop\n  dataSize(sub_0)\n  dup1\n  dataOffset(sub_0)\n  0x00\n  codecopy\n  0x00\n  return\nstop\n\nsub_0: assembly {\n        /* \"contracts/FundMe.sol\":94:841  contract FundMe{... */\n      mstore(0x40, 0x80)\n      jumpi(tag_1, lt(calldatasize, 0x04))\n      shr(0xe0, calldataload(0x00))\n      dup1\n      0x47ff62c6\n      eq\n      tag_2\n      jumpi\n      dup1\n      0x520fcd61\n      eq\n      tag_3\n      jumpi\n      dup1\n      0x57ea89b6\n      eq\n      tag_4\n      jumpi\n      dup1\n      0x66b30f06\n      eq\n      tag_5\n      jumpi\n      dup1\n      0x6ce1417e\n      eq\n      tag_6\n      jumpi\n    tag_1:\n      0x00\n      dup1\n      revert\n        /* \"contracts/FundMe.sol\":204:232  address[] public fundersList */\n    tag_2:\n      callvalue\n      dup1\n      iszero\n      tag_7\n      jumpi\n      0x00\n      dup1\n      revert\n    tag_7:\n      pop\n      tag_8\n      0x04\n      dup1\n      calldatasize\n      sub\n      dup2\n      add\n      swap1\n      tag_9\n      swap2\n      swap1\n      tag_10\n      jump\t// in\n    tag_9:\n      tag_11\n      jump\t// in\n    tag_8:\n      mload(0x40)\n      tag_12\n      swap2\n      swap1\n      tag_13\n      jump\t// in\n    tag_12:\n      mload(0x40)\n      dup1\n      swap2\n      sub\n      swap1\n      return\n        /* \"contracts/FundMe.sol\":239:293  mapping(address => uint256) public addreddToAmountFeed */\n    tag_3:\n      callvalue\n      dup1\n      iszero\n      tag_14\n      jumpi\n      0x00\n      dup1\n      revert\n    tag_14:\n      pop\n      tag_15\n      0x04\n      dup1\n      calldatasize\n      sub\n      dup2\n      add\n      swap1\n      tag_16\n      swap2\n      swap1\n      tag_17\n      jump\t// in\n    tag_16:\n      tag_18\n      jump\t// in\n    tag_15:\n      mload(0x40)\n      tag_19\n      swap2\n      swap1\n      tag_20\n      jump\t// in\n    tag_19:\n      mload(0x40)\n      dup1\n      swap2\n      sub\n      swap1\n      return\n        /* \"contracts/FundMe.sol\":527:838  function Withdraw() public{... */\n    tag_4:\n      callvalue\n      dup1\n      iszero\n      tag_21\n      jumpi\n      0x00\n      dup1\n      revert\n    tag_21:\n      pop\n      tag_22\n      tag_23\n      jump\t// in\n    tag_22:\n      stop\n        /* \"contracts/FundMe.sol\":159:197  uint256 public minimumFund = 50 * 1e18 */\n    tag_5:\n      callvalue\n      dup1\n      iszero\n      tag_24\n      jumpi\n      0x00\n      dup1\n      revert\n    tag_24:\n      pop\n      tag_25\n      tag_26\n      jump\t// in\n    tag_25:\n      mload(0x40)\n      tag_27\n      swap2\n      swap1\n      tag_20\n      jump\t// in\n    tag_27:\n      mload(0x40)\n      dup1\n      swap2\n      sub\n      swap1\n      return\n        /* \"contracts/FundMe.sol\":302:519  function Fund() public payable{... */\n    tag_6:\n      tag_28\n      tag_29\n      jump\t// in\n    tag_28:\n      stop\n        /* \"contracts/FundMe.sol\":204:232  address[] public fundersList */\n    tag_11:\n      0x01\n      dup2\n      dup2\n      sload\n      dup2\n      lt\n      tag_30\n      jumpi\n      0x00\n      dup1\n      revert\n    tag_30:\n      swap1\n      0x00\n      mstore\n      keccak256(0x00, 0x20)\n      add\n      0x00\n      swap2\n      pop\n      sload\n      swap1\n      0x0100\n      exp\n      swap1\n      div\n      0xffffffffffffffffffffffffffffffffffffffff\n      and\n      dup2\n      jump\t// out\n        /* \"contracts/FundMe.sol\":239:293  mapping(address => uint256) public addreddToAmountFeed */\n    tag_18:\n      mstore(0x20, 0x02)\n      dup1\n      0x00\n      mstore\n      keccak256(0x00, 0x40)\n      0x00\n      swap2\n      pop\n      swap1\n      pop\n      sload\n      dup2\n      jump\t// out\n        /* \"contracts/FundMe.sol\":527:838  function Withdraw() public{... */\n    tag_23:\n        /* \"contracts/FundMe.sol\":568:577  uint256 i */\n      0x00\n        /* \"contracts/FundMe.sol\":564:674  for(uint256 i =0; i<fundersList.length; i++){... */\n    tag_33:\n        /* \"contracts/FundMe.sol\":584:595  fundersList */\n      0x01\n        /* \"contracts/FundMe.sol\":584:602  fundersList.length */\n      dup1\n      sload\n      swap1\n      pop\n        /* \"contracts/FundMe.sol\":582:583  i */\n      dup2\n        /* \"contracts/FundMe.sol\":582:602  i<fundersList.length */\n      lt\n        /* \"contracts/FundMe.sol\":564:674  for(uint256 i =0; i<fundersList.length; i++){... */\n      iszero\n      tag_34\n      jumpi\n        /* \"contracts/FundMe.sol\":661:662  0 */\n      0x00\n        /* \"contracts/FundMe.sol\":623:642  addreddToAmountFeed */\n      0x02\n        /* \"contracts/FundMe.sol\":623:658  addreddToAmountFeed[fundersList[i]] */\n      0x00\n        /* \"contracts/FundMe.sol\":643:654  fundersList */\n      0x01\n        /* \"contracts/FundMe.sol\":655:656  i */\n      dup5\n        /* \"contracts/FundMe.sol\":643:657  fundersList[i] */\n      dup2\n      sload\n      dup2\n      lt\n      tag_36\n      jumpi\n      tag_37\n      tag_38\n      jump\t// in\n    tag_37:\n    tag_36:\n      swap1\n      0x00\n      mstore\n      keccak256(0x00, 0x20)\n      add\n      0x00\n      swap1\n      sload\n      swap1\n      0x0100\n      exp\n      swap1\n      div\n      0xffffffffffffffffffffffffffffffffffffffff\n      and\n        /* \"contracts/FundMe.sol\":623:658  addreddToAmountFeed[fundersList[i]] */\n      0xffffffffffffffffffffffffffffffffffffffff\n      and\n      0xffffffffffffffffffffffffffffffffffffffff\n      and\n      dup2\n      mstore\n      0x20\n      add\n      swap1\n      dup2\n      mstore\n      0x20\n      add\n      0x00\n      keccak256\n        /* \"contracts/FundMe.sol\":623:662  addreddToAmountFeed[fundersList[i]] = 0 */\n      dup2\n      swap1\n      sstore\n      pop\n        /* \"contracts/FundMe.sol\":604:607  i++ */\n      dup1\n      dup1\n      tag_40\n      swap1\n      tag_41\n      jump\t// in\n    tag_40:\n      swap2\n      pop\n      pop\n        /* \"contracts/FundMe.sol\":564:674  for(uint256 i =0; i<fundersList.length; i++){... */\n      jump(tag_33)\n    tag_34:\n      pop\n        /* \"contracts/FundMe.sol\":712:713  0 */\n      0x00\n        /* \"contracts/FundMe.sol\":698:714  new address[](0) */\n      0xffffffffffffffff\n      dup2\n      gt\n      iszero\n      tag_42\n      jumpi\n      tag_43\n      tag_44\n      jump\t// in\n    tag_43:\n    tag_42:\n      mload(0x40)\n      swap1\n      dup1\n      dup3\n      mstore\n      dup1\n      0x20\n      mul\n      0x20\n      add\n      dup3\n      add\n      0x40\n      mstore\n      dup1\n      iszero\n      tag_45\n      jumpi\n      dup2\n      0x20\n      add\n      0x20\n      dup3\n      mul\n      dup1\n      calldatasize\n      dup4\n      calldatacopy\n      dup1\n      dup3\n      add\n      swap2\n      pop\n      pop\n      swap1\n      pop\n    tag_45:\n      pop\n        /* \"contracts/FundMe.sol\":684:695  fundersList */\n      0x01\n        /* \"contracts/FundMe.sol\":684:714  fundersList = new address[](0) */\n      swap1\n      dup1\n      mload\n      swap1\n      0x20\n      add\n      swap1\n      tag_46\n      swap3\n      swap2\n      swap1\n      tag_47\n      jump\t// in\n    tag_46:\n      pop\n        /* \"contracts/FundMe.sol\":755:765  msg.sender */\n      caller\n        /* \"contracts/FundMe.sol\":747:775  payable(msg.sender).transfer */\n      0xffffffffffffffffffffffffffffffffffffffff\n      and\n        /* \"contracts/FundMe.sol\":747:798  payable(msg.sender).transfer(address(this).balance) */\n      0x08fc\n        /* \"contracts/FundMe.sol\":776:797  address(this).balance */\n      selfbalance\n        /* \"contracts/FundMe.sol\":747:798  payable(msg.sender).transfer(address(this).balance) */\n      swap1\n      dup2\n      iszero\n      mul\n      swap1\n      mload(0x40)\n      0x00\n      mload(0x40)\n      dup1\n      dup4\n      sub\n      dup2\n      dup6\n      dup9\n      dup9\n      call\n      swap4\n      pop\n      pop\n      pop\n      pop\n      iszero\n      dup1\n      iszero\n      tag_49\n      jumpi\n      returndatasize\n      0x00\n      dup1\n      returndatacopy\n      revert(0x00, returndatasize)\n    tag_49:\n      pop\n        /* \"contracts/FundMe.sol\":527:838  function Withdraw() public{... */\n      jump\t// out\n        /* \"contracts/FundMe.sol\":159:197  uint256 public minimumFund = 50 * 1e18 */\n    tag_26:\n      sload(0x00)\n      dup2\n      jump\t// out\n        /* \"contracts/FundMe.sol\":302:519  function Fund() public payable{... */\n    tag_29:\n        /* \"contracts/FundMe.sol\":384:395  minimumFund */\n      sload(0x00)\n        /* \"contracts/FundMe.sol\":351:380  msg.value.GetConversionRate() */\n      tag_51\n        /* \"contracts/FundMe.sol\":351:360  msg.value */\n      callvalue\n        /* \"contracts/FundMe.sol\":351:378  msg.value.GetConversionRate */\n      tag_52\n        /* \"contracts/FundMe.sol\":351:380  msg.value.GetConversionRate() */\n      jump\t// in\n    tag_51:\n        /* \"contracts/FundMe.sol\":351:395  msg.value.GetConversionRate() >= minimumFund */\n      lt\n      iszero\n        /* \"contracts/FundMe.sol\":343:418  require(msg.value.GetConversionRate() >= minimumFund, \"Didn't send enough\") */\n      tag_53\n      jumpi\n      mload(0x40)\n      0x08c379a000000000000000000000000000000000000000000000000000000000\n      dup2\n      mstore\n      0x04\n      add\n      tag_54\n      swap1\n      tag_55\n      jump\t// in\n    tag_54:\n      mload(0x40)\n      dup1\n      swap2\n      sub\n      swap1\n      revert\n    tag_53:\n        /* \"contracts/FundMe.sol\":429:440  fundersList */\n      0x01\n        /* \"contracts/FundMe.sol\":446:456  msg.sender */\n      caller\n        /* \"contracts/FundMe.sol\":429:457  fundersList.push(msg.sender) */\n      swap1\n      dup1\n      0x01\n      dup2\n      sload\n      add\n      dup1\n      dup3\n      sstore\n      dup1\n      swap2\n      pop\n      pop\n      0x01\n      swap1\n      sub\n      swap1\n      0x00\n      mstore\n      keccak256(0x00, 0x20)\n      add\n      0x00\n      swap1\n      swap2\n      swap1\n      swap2\n      swap1\n      swap2\n      0x0100\n      exp\n      dup2\n      sload\n      dup2\n      0xffffffffffffffffffffffffffffffffffffffff\n      mul\n      not\n      and\n      swap1\n      dup4\n      0xffffffffffffffffffffffffffffffffffffffff\n      and\n      mul\n      or\n      swap1\n      sstore\n      pop\n        /* \"contracts/FundMe.sol\":502:511  msg.value */\n      callvalue\n        /* \"contracts/FundMe.sol\":468:487  addreddToAmountFeed */\n      0x02\n        /* \"contracts/FundMe.sol\":468:499  addreddToAmountFeed[msg.sender] */\n      0x00\n        /* \"contracts/FundMe.sol\":488:498  msg.sender */\n      caller\n        /* \"contracts/FundMe.sol\":468:499  addreddToAmountFeed[msg.sender] */\n      0xffffffffffffffffffffffffffffffffffffffff\n      and\n      0xffffffffffffffffffffffffffffffffffffffff\n      and\n      dup2\n      mstore\n      0x20\n      add\n      swap1\n      dup2\n      mstore\n      0x20\n      add\n      0x00\n      keccak256\n        /* \"contracts/FundMe.sol\":468:511  addreddToAmountFeed[msg.sender] = msg.value */\n      dup2\n      swap1\n      sstore\n      pop\n        /* \"contracts/FundMe.sol\":302:519  function Fund() public payable{... */\n      jump\t// out\n        /* \"contracts/PriceConverter.sol\":661:886  function GetConversionRate(uint256 _etherAmount) internal view returns(uint256){... */\n    tag_52:\n        /* \"contracts/PriceConverter.sol\":732:739  uint256 */\n      0x00\n        /* \"contracts/PriceConverter.sol\":751:767  uint256 ethPrice */\n      dup1\n        /* \"contracts/PriceConverter.sol\":770:780  GetPrice() */\n      tag_58\n        /* \"contracts/PriceConverter.sol\":770:778  GetPrice */\n      tag_59\n        /* \"contracts/PriceConverter.sol\":770:780  GetPrice() */\n      jump\t// in\n    tag_58:\n        /* \"contracts/PriceConverter.sol\":751:780  uint256 ethPrice = GetPrice() */\n      swap1\n      pop\n        /* \"contracts/PriceConverter.sol\":791:813  uint256 ethAmountInUsd */\n      0x00\n        /* \"contracts/PriceConverter.sol\":842:846  1e18 */\n      0x0de0b6b3a7640000\n        /* \"contracts/PriceConverter.sol\":828:840  _etherAmount */\n      dup5\n        /* \"contracts/PriceConverter.sol\":817:825  ethPrice */\n      dup4\n        /* \"contracts/PriceConverter.sol\":817:840  ethPrice * _etherAmount */\n      tag_60\n      swap2\n      swap1\n      tag_61\n      jump\t// in\n    tag_60:\n        /* \"contracts/PriceConverter.sol\":816:846  (ethPrice * _etherAmount)/1e18 */\n      tag_62\n      swap2\n      swap1\n      tag_63\n      jump\t// in\n    tag_62:\n        /* \"contracts/PriceConverter.sol\":791:846  uint256 ethAmountInUsd = (ethPrice * _etherAmount)/1e18 */\n      swap1\n      pop\n        /* \"contracts/PriceConverter.sol\":864:878  ethAmountInUsd */\n      dup1\n        /* \"contracts/PriceConverter.sol\":857:878  return ethAmountInUsd */\n      swap3\n      pop\n      pop\n      pop\n        /* \"contracts/PriceConverter.sol\":661:886  function GetConversionRate(uint256 _etherAmount) internal view returns(uint256){... */\n      swap2\n      swap1\n      pop\n      jump\t// out\n        /* \"contracts/PriceConverter.sol\":170:438  function GetPrice() internal view returns(uint256){... */\n    tag_59:\n        /* \"contracts/PriceConverter.sol\":212:219  uint256 */\n      0x00\n        /* \"contracts/PriceConverter.sol\":231:262  AggregatorV3Interface priceFeed */\n      dup1\n        /* \"contracts/PriceConverter.sol\":287:329  0x8A753747A1Fa494EC906cE90E9f37563A8AF630e */\n      0x8a753747a1fa494ec906ce90e9f37563a8af630e\n        /* \"contracts/PriceConverter.sol\":231:330  AggregatorV3Interface priceFeed = AggregatorV3Interface(0x8A753747A1Fa494EC906cE90E9f37563A8AF630e) */\n      swap1\n      pop\n        /* \"contracts/PriceConverter.sol\":344:356  int256 price */\n      0x00\n        /* \"contracts/PriceConverter.sol\":363:372  priceFeed */\n      dup2\n        /* \"contracts/PriceConverter.sol\":363:388  priceFeed.latestRoundData */\n      0xffffffffffffffffffffffffffffffffffffffff\n      and\n      0xfeaf968c\n        /* \"contracts/PriceConverter.sol\":363:390  priceFeed.latestRoundData() */\n      mload(0x40)\n      dup2\n      0xffffffff\n      and\n      0xe0\n      shl\n      dup2\n      mstore\n      0x04\n      add\n      0xa0\n      mload(0x40)\n      dup1\n      dup4\n      sub\n      dup2\n      dup7\n      gas\n      staticcall\n      iszero\n      dup1\n      iszero\n      tag_66\n      jumpi\n      returndatasize\n      0x00\n      dup1\n      returndatacopy\n      revert(0x00, returndatasize)\n    tag_66:\n      pop\n      pop\n      pop\n      pop\n      mload(0x40)\n      returndatasize\n      not(0x1f)\n      0x1f\n      dup3\n      add\n      and\n      dup3\n      add\n      dup1\n      0x40\n      mstore\n      pop\n      dup2\n      add\n      swap1\n      tag_67\n      swap2\n      swap1\n      tag_68\n      jump\t// in\n    tag_67:\n        /* \"contracts/PriceConverter.sol\":342:390  (,int256 price,,,) = priceFeed.latestRoundData() */\n      pop\n      pop\n      pop\n      swap2\n      pop\n      pop\n        /* \"contracts/PriceConverter.sol\":425:429  1e10 */\n      0x02540be400\n        /* \"contracts/PriceConverter.sol\":417:422  price */\n      dup2\n        /* \"contracts/PriceConverter.sol\":417:429  price * 1e10 */\n      tag_69\n      swap2\n      swap1\n      tag_70\n      jump\t// in\n    tag_69:\n        /* \"contracts/PriceConverter.sol\":402:430  return uint256(price * 1e10) */\n      swap3\n      pop\n      pop\n      pop\n        /* \"contracts/PriceConverter.sol\":170:438  function GetPrice() internal view returns(uint256){... */\n      swap1\n      jump\t// out\n    tag_47:\n      dup3\n      dup1\n      sload\n      dup3\n      dup3\n      sstore\n      swap1\n      0x00\n      mstore\n      keccak256(0x00, 0x20)\n      swap1\n      dup2\n      add\n      swap3\n      dup3\n      iszero\n      tag_71\n      jumpi\n      swap2\n      0x20\n      mul\n      dup3\n      add\n    tag_72:\n      dup3\n      dup2\n      gt\n      iszero\n      tag_73\n      jumpi\n      dup3\n      mload\n      dup3\n      exp(0x0100, 0x00)\n      dup2\n      sload\n      dup2\n      0xffffffffffffffffffffffffffffffffffffffff\n      mul\n      not\n      and\n      swap1\n      dup4\n      0xffffffffffffffffffffffffffffffffffffffff\n      and\n      mul\n      or\n      swap1\n      sstore\n      pop\n      swap2\n      0x20\n      add\n      swap2\n      swap1\n      0x01\n      add\n      swap1\n      jump(tag_72)\n    tag_73:\n    tag_71:\n      pop\n      swap1\n      pop\n      tag_74\n      swap2\n      swap1\n      tag_75\n      jump\t// in\n    tag_74:\n      pop\n      swap1\n      jump\t// out\n    tag_75:\n    tag_76:\n      dup1\n      dup3\n      gt\n      iszero\n      tag_77\n      jumpi\n      0x00\n      dup2\n      0x00\n      swap1\n      sstore\n      pop\n      0x01\n      add\n      jump(tag_76)\n    tag_77:\n      pop\n      swap1\n      jump\t// out\n        /* \"#utility.yul\":88:205   */\n    tag_79:\n        /* \"#utility.yul\":197:198   */\n      0x00\n        /* \"#utility.yul\":194:195   */\n      dup1\n        /* \"#utility.yul\":187:199   */\n      revert\n        /* \"#utility.yul\":334:411   */\n    tag_81:\n        /* \"#utility.yul\":371:378   */\n      0x00\n        /* \"#utility.yul\":400:405   */\n      dup2\n        /* \"#utility.yul\":389:405   */\n      swap1\n      pop\n        /* \"#utility.yul\":334:411   */\n      swap2\n      swap1\n      pop\n      jump\t// out\n        /* \"#utility.yul\":417:539   */\n    tag_82:\n        /* \"#utility.yul\":490:514   */\n      tag_108\n        /* \"#utility.yul\":508:513   */\n      dup2\n        /* \"#utility.yul\":490:514   */\n      tag_81\n      jump\t// in\n    tag_108:\n        /* \"#utility.yul\":483:488   */\n      dup2\n        /* \"#utility.yul\":480:515   */\n      eq\n        /* \"#utility.yul\":470:533   */\n      tag_109\n      jumpi\n        /* \"#utility.yul\":529:530   */\n      0x00\n        /* \"#utility.yul\":526:527   */\n      dup1\n        /* \"#utility.yul\":519:531   */\n      revert\n        /* \"#utility.yul\":470:533   */\n    tag_109:\n        /* \"#utility.yul\":417:539   */\n      pop\n      jump\t// out\n        /* \"#utility.yul\":545:684   */\n    tag_83:\n        /* \"#utility.yul\":591:596   */\n      0x00\n        /* \"#utility.yul\":629:635   */\n      dup2\n        /* \"#utility.yul\":616:636   */\n      calldataload\n        /* \"#utility.yul\":607:636   */\n      swap1\n      pop\n        /* \"#utility.yul\":645:678   */\n      tag_111\n        /* \"#utility.yul\":672:677   */\n      dup2\n        /* \"#utility.yul\":645:678   */\n      tag_82\n      jump\t// in\n    tag_111:\n        /* \"#utility.yul\":545:684   */\n      swap3\n      swap2\n      pop\n      pop\n      jump\t// out\n        /* \"#utility.yul\":690:1019   */\n    tag_10:\n        /* \"#utility.yul\":749:755   */\n      0x00\n        /* \"#utility.yul\":798:800   */\n      0x20\n        /* \"#utility.yul\":786:795   */\n      dup3\n        /* \"#utility.yul\":777:784   */\n      dup5\n        /* \"#utility.yul\":773:796   */\n      sub\n        /* \"#utility.yul\":769:801   */\n      slt\n        /* \"#utility.yul\":766:885   */\n      iszero\n      tag_113\n      jumpi\n        /* \"#utility.yul\":804:883   */\n      tag_114\n      tag_79\n      jump\t// in\n    tag_114:\n        /* \"#utility.yul\":766:885   */\n    tag_113:\n        /* \"#utility.yul\":924:925   */\n      0x00\n        /* \"#utility.yul\":949:1002   */\n      tag_115\n        /* \"#utility.yul\":994:1001   */\n      dup5\n        /* \"#utility.yul\":985:991   */\n      dup3\n        /* \"#utility.yul\":974:983   */\n      dup6\n        /* \"#utility.yul\":970:992   */\n      add\n        /* \"#utility.yul\":949:1002   */\n      tag_83\n      jump\t// in\n    tag_115:\n        /* \"#utility.yul\":939:1002   */\n      swap2\n      pop\n        /* \"#utility.yul\":895:1012   */\n      pop\n        /* \"#utility.yul\":690:1019   */\n      swap3\n      swap2\n      pop\n      pop\n      jump\t// out\n        /* \"#utility.yul\":1025:1151   */\n    tag_84:\n        /* \"#utility.yul\":1062:1069   */\n      0x00\n        /* \"#utility.yul\":1102:1144   */\n      0xffffffffffffffffffffffffffffffffffffffff\n        /* \"#utility.yul\":1095:1100   */\n      dup3\n        /* \"#utility.yul\":1091:1145   */\n      and\n        /* \"#utility.yul\":1080:1145   */\n      swap1\n      pop\n        /* \"#utility.yul\":1025:1151   */\n      swap2\n      swap1\n      pop\n      jump\t// out\n        /* \"#utility.yul\":1157:1253   */\n    tag_85:\n        /* \"#utility.yul\":1194:1201   */\n      0x00\n        /* \"#utility.yul\":1223:1247   */\n      tag_118\n        /* \"#utility.yul\":1241:1246   */\n      dup3\n        /* \"#utility.yul\":1223:1247   */\n      tag_84\n      jump\t// in\n    tag_118:\n        /* \"#utility.yul\":1212:1247   */\n      swap1\n      pop\n        /* \"#utility.yul\":1157:1253   */\n      swap2\n      swap1\n      pop\n      jump\t// out\n        /* \"#utility.yul\":1259:1377   */\n    tag_86:\n        /* \"#utility.yul\":1346:1370   */\n      tag_120\n        /* \"#utility.yul\":1364:1369   */\n      dup2\n        /* \"#utility.yul\":1346:1370   */\n      tag_85\n      jump\t// in\n    tag_120:\n        /* \"#utility.yul\":1341:1344   */\n      dup3\n        /* \"#utility.yul\":1334:1371   */\n      mstore\n        /* \"#utility.yul\":1259:1377   */\n      pop\n      pop\n      jump\t// out\n        /* \"#utility.yul\":1383:1605   */\n    tag_13:\n        /* \"#utility.yul\":1476:1480   */\n      0x00\n        /* \"#utility.yul\":1514:1516   */\n      0x20\n        /* \"#utility.yul\":1503:1512   */\n      dup3\n        /* \"#utility.yul\":1499:1517   */\n      add\n        /* \"#utility.yul\":1491:1517   */\n      swap1\n      pop\n        /* \"#utility.yul\":1527:1598   */\n      tag_122\n        /* \"#utility.yul\":1595:1596   */\n      0x00\n        /* \"#utility.yul\":1584:1593   */\n      dup4\n        /* \"#utility.yul\":1580:1597   */\n      add\n        /* \"#utility.yul\":1571:1577   */\n      dup5\n        /* \"#utility.yul\":1527:1598   */\n      tag_86\n      jump\t// in\n    tag_122:\n        /* \"#utility.yul\":1383:1605   */\n      swap3\n      swap2\n      pop\n      pop\n      jump\t// out\n        /* \"#utility.yul\":1611:1733   */\n    tag_87:\n        /* \"#utility.yul\":1684:1708   */\n      tag_124\n        /* \"#utility.yul\":1702:1707   */\n      dup2\n        /* \"#utility.yul\":1684:1708   */\n      tag_85\n      jump\t// in\n    tag_124:\n        /* \"#utility.yul\":1677:1682   */\n      dup2\n        /* \"#utility.yul\":1674:1709   */\n      eq\n        /* \"#utility.yul\":1664:1727   */\n      tag_125\n      jumpi\n        /* \"#utility.yul\":1723:1724   */\n      0x00\n        /* \"#utility.yul\":1720:1721   */\n      dup1\n        /* \"#utility.yul\":1713:1725   */\n      revert\n        /* \"#utility.yul\":1664:1727   */\n    tag_125:\n        /* \"#utility.yul\":1611:1733   */\n      pop\n      jump\t// out\n        /* \"#utility.yul\":1739:1878   */\n    tag_88:\n        /* \"#utility.yul\":1785:1790   */\n      0x00\n        /* \"#utility.yul\":1823:1829   */\n      dup2\n        /* \"#utility.yul\":1810:1830   */\n      calldataload\n        /* \"#utility.yul\":1801:1830   */\n      swap1\n      pop\n        /* \"#utility.yul\":1839:1872   */\n      tag_127\n        /* \"#utility.yul\":1866:1871   */\n      dup2\n        /* \"#utility.yul\":1839:1872   */\n      tag_87\n      jump\t// in\n    tag_127:\n        /* \"#utility.yul\":1739:1878   */\n      swap3\n      swap2\n      pop\n      pop\n      jump\t// out\n        /* \"#utility.yul\":1884:2213   */\n    tag_17:\n        /* \"#utility.yul\":1943:1949   */\n      0x00\n        /* \"#utility.yul\":1992:1994   */\n      0x20\n        /* \"#utility.yul\":1980:1989   */\n      dup3\n        /* \"#utility.yul\":1971:1978   */\n      dup5\n        /* \"#utility.yul\":1967:1990   */\n      sub\n        /* \"#utility.yul\":1963:1995   */\n      slt\n        /* \"#utility.yul\":1960:2079   */\n      iszero\n      tag_129\n      jumpi\n        /* \"#utility.yul\":1998:2077   */\n      tag_130\n      tag_79\n      jump\t// in\n    tag_130:\n        /* \"#utility.yul\":1960:2079   */\n    tag_129:\n        /* \"#utility.yul\":2118:2119   */\n      0x00\n        /* \"#utility.yul\":2143:2196   */\n      tag_131\n        /* \"#utility.yul\":2188:2195   */\n      dup5\n        /* \"#utility.yul\":2179:2185   */\n      dup3\n        /* \"#utility.yul\":2168:2177   */\n      dup6\n        /* \"#utility.yul\":2164:2186   */\n      add\n        /* \"#utility.yul\":2143:2196   */\n      tag_88\n      jump\t// in\n    tag_131:\n        /* \"#utility.yul\":2133:2196   */\n      swap2\n      pop\n        /* \"#utility.yul\":2089:2206   */\n      pop\n        /* \"#utility.yul\":1884:2213   */\n      swap3\n      swap2\n      pop\n      pop\n      jump\t// out\n        /* \"#utility.yul\":2219:2337   */\n    tag_89:\n        /* \"#utility.yul\":2306:2330   */\n      tag_133\n        /* \"#utility.yul\":2324:2329   */\n      dup2\n        /* \"#utility.yul\":2306:2330   */\n      tag_81\n      jump\t// in\n    tag_133:\n        /* \"#utility.yul\":2301:2304   */\n      dup3\n        /* \"#utility.yul\":2294:2331   */\n      mstore\n        /* \"#utility.yul\":2219:2337   */\n      pop\n      pop\n      jump\t// out\n        /* \"#utility.yul\":2343:2565   */\n    tag_20:\n        /* \"#utility.yul\":2436:2440   */\n      0x00\n        /* \"#utility.yul\":2474:2476   */\n      0x20\n        /* \"#utility.yul\":2463:2472   */\n      dup3\n        /* \"#utility.yul\":2459:2477   */\n      add\n        /* \"#utility.yul\":2451:2477   */\n      swap1\n      pop\n        /* \"#utility.yul\":2487:2558   */\n      tag_135\n        /* \"#utility.yul\":2555:2556   */\n      0x00\n        /* \"#utility.yul\":2544:2553   */\n      dup4\n        /* \"#utility.yul\":2540:2557   */\n      add\n        /* \"#utility.yul\":2531:2537   */\n      dup5\n        /* \"#utility.yul\":2487:2558   */\n      tag_89\n      jump\t// in\n    tag_135:\n        /* \"#utility.yul\":2343:2565   */\n      swap3\n      swap2\n      pop\n      pop\n      jump\t// out\n        /* \"#utility.yul\":2571:2751   */\n    tag_38:\n        /* \"#utility.yul\":2619:2696   */\n      0x4e487b7100000000000000000000000000000000000000000000000000000000\n        /* \"#utility.yul\":2616:2617   */\n      0x00\n        /* \"#utility.yul\":2609:2697   */\n      mstore\n        /* \"#utility.yul\":2716:2720   */\n      0x32\n        /* \"#utility.yul\":2713:2714   */\n      0x04\n        /* \"#utility.yul\":2706:2721   */\n      mstore\n        /* \"#utility.yul\":2740:2744   */\n      0x24\n        /* \"#utility.yul\":2737:2738   */\n      0x00\n        /* \"#utility.yul\":2730:2745   */\n      revert\n        /* \"#utility.yul\":2757:2937   */\n    tag_90:\n        /* \"#utility.yul\":2805:2882   */\n      0x4e487b7100000000000000000000000000000000000000000000000000000000\n        /* \"#utility.yul\":2802:2803   */\n      0x00\n        /* \"#utility.yul\":2795:2883   */\n      mstore\n        /* \"#utility.yul\":2902:2906   */\n      0x11\n        /* \"#utility.yul\":2899:2900   */\n      0x04\n        /* \"#utility.yul\":2892:2907   */\n      mstore\n        /* \"#utility.yul\":2926:2930   */\n      0x24\n        /* \"#utility.yul\":2923:2924   */\n      0x00\n        /* \"#utility.yul\":2916:2931   */\n      revert\n        /* \"#utility.yul\":2943:3176   */\n    tag_41:\n        /* \"#utility.yul\":2982:2985   */\n      0x00\n        /* \"#utility.yul\":3005:3029   */\n      tag_139\n        /* \"#utility.yul\":3023:3028   */\n      dup3\n        /* \"#utility.yul\":3005:3029   */\n      tag_81\n      jump\t// in\n    tag_139:\n        /* \"#utility.yul\":2996:3029   */\n      swap2\n      pop\n        /* \"#utility.yul\":3051:3117   */\n      0xffffffffffffffffffffffffffffffffffffffffffffffffffffffffffffffff\n        /* \"#utility.yul\":3044:3049   */\n      dup3\n        /* \"#utility.yul\":3041:3118   */\n      sub\n        /* \"#utility.yul\":3038:3141   */\n      tag_140\n      jumpi\n        /* \"#utility.yul\":3121:3139   */\n      tag_141\n      tag_90\n      jump\t// in\n    tag_141:\n        /* \"#utility.yul\":3038:3141   */\n    tag_140:\n        /* \"#utility.yul\":3168:3169   */\n      0x01\n        /* \"#utility.yul\":3161:3166   */\n      dup3\n        /* \"#utility.yul\":3157:3170   */\n      add\n        /* \"#utility.yul\":3150:3170   */\n      swap1\n      pop\n        /* \"#utility.yul\":2943:3176   */\n      swap2\n      swap1\n      pop\n      jump\t// out\n        /* \"#utility.yul\":3182:3362   */\n    tag_44:\n        /* \"#utility.yul\":3230:3307   */\n      0x4e487b7100000000000000000000000000000000000000000000000000000000\n        /* \"#utility.yul\":3227:3228   */\n      0x00\n        /* \"#utility.yul\":3220:3308   */\n      mstore\n        /* \"#utility.yul\":3327:3331   */\n      0x41\n        /* \"#utility.yul\":3324:3325   */\n      0x04\n        /* \"#utility.yul\":3317:3332   */\n      mstore\n        /* \"#utility.yul\":3351:3355   */\n      0x24\n        /* \"#utility.yul\":3348:3349   */\n      0x00\n        /* \"#utility.yul\":3341:3356   */\n      revert\n        /* \"#utility.yul\":3368:3537   */\n    tag_91:\n        /* \"#utility.yul\":3452:3463   */\n      0x00\n        /* \"#utility.yul\":3486:3492   */\n      dup3\n        /* \"#utility.yul\":3481:3484   */\n      dup3\n        /* \"#utility.yul\":3474:3493   */\n      mstore\n        /* \"#utility.yul\":3526:3530   */\n      0x20\n        /* \"#utility.yul\":3521:3524   */\n      dup3\n        /* \"#utility.yul\":3517:3531   */\n      add\n        /* \"#utility.yul\":3502:3531   */\n      swap1\n      pop\n        /* \"#utility.yul\":3368:3537   */\n      swap3\n      swap2\n      pop\n      pop\n      jump\t// out\n        /* \"#utility.yul\":3543:3711   */\n    tag_92:\n        /* \"#utility.yul\":3683:3703   */\n      0x4469646e27742073656e6420656e6f7567680000000000000000000000000000\n        /* \"#utility.yul\":3679:3680   */\n      0x00\n        /* \"#utility.yul\":3671:3677   */\n      dup3\n        /* \"#utility.yul\":3667:3681   */\n      add\n        /* \"#utility.yul\":3660:3704   */\n      mstore\n        /* \"#utility.yul\":3543:3711   */\n      pop\n      jump\t// out\n        /* \"#utility.yul\":3717:4083   */\n    tag_93:\n        /* \"#utility.yul\":3859:3862   */\n      0x00\n        /* \"#utility.yul\":3880:3947   */\n      tag_146\n        /* \"#utility.yul\":3944:3946   */\n      0x12\n        /* \"#utility.yul\":3939:3942   */\n      dup4\n        /* \"#utility.yul\":3880:3947   */\n      tag_91\n      jump\t// in\n    tag_146:\n        /* \"#utility.yul\":3873:3947   */\n      swap2\n      pop\n        /* \"#utility.yul\":3956:4049   */\n      tag_147\n        /* \"#utility.yul\":4045:4048   */\n      dup3\n        /* \"#utility.yul\":3956:4049   */\n      tag_92\n      jump\t// in\n    tag_147:\n        /* \"#utility.yul\":4074:4076   */\n      0x20\n        /* \"#utility.yul\":4069:4072   */\n      dup3\n        /* \"#utility.yul\":4065:4077   */\n      add\n        /* \"#utility.yul\":4058:4077   */\n      swap1\n      pop\n        /* \"#utility.yul\":3717:4083   */\n      swap2\n      swap1\n      pop\n      jump\t// out\n        /* \"#utility.yul\":4089:4508   */\n    tag_55:\n        /* \"#utility.yul\":4255:4259   */\n      0x00\n        /* \"#utility.yul\":4293:4295   */\n      0x20\n        /* \"#utility.yul\":4282:4291   */\n      dup3\n        /* \"#utility.yul\":4278:4296   */\n      add\n        /* \"#utility.yul\":4270:4296   */\n      swap1\n      pop\n        /* \"#utility.yul\":4342:4351   */\n      dup2\n        /* \"#utility.yul\":4336:4340   */\n      dup2\n        /* \"#utility.yul\":4332:4352   */\n      sub\n        /* \"#utility.yul\":4328:4329   */\n      0x00\n        /* \"#utility.yul\":4317:4326   */\n      dup4\n        /* \"#utility.yul\":4313:4330   */\n      add\n        /* \"#utility.yul\":4306:4353   */\n      mstore\n        /* \"#utility.yul\":4370:4501   */\n      tag_149\n        /* \"#utility.yul\":4496:4500   */\n      dup2\n        /* \"#utility.yul\":4370:4501   */\n      tag_93\n      jump\t// in\n    tag_149:\n        /* \"#utility.yul\":4362:4501   */\n      swap1\n      pop\n        /* \"#utility.yul\":4089:4508   */\n      swap2\n      swap1\n      pop\n      jump\t// out\n        /* \"#utility.yul\":4514:4862   */\n    tag_61:\n        /* \"#utility.yul\":4554:4561   */\n      0x00\n        /* \"#utility.yul\":4577:4597   */\n      tag_151\n        /* \"#utility.yul\":4595:4596   */\n      dup3\n        /* \"#utility.yul\":4577:4597   */\n      tag_81\n      jump\t// in\n    tag_151:\n        /* \"#utility.yul\":4572:4597   */\n      swap2\n      pop\n        /* \"#utility.yul\":4611:4631   */\n      tag_152\n        /* \"#utility.yul\":4629:4630   */\n      dup4\n        /* \"#utility.yul\":4611:4631   */\n      tag_81\n      jump\t// in\n    tag_152:\n        /* \"#utility.yul\":4606:4631   */\n      swap3\n      pop\n        /* \"#utility.yul\":4799:4800   */\n      dup2\n        /* \"#utility.yul\":4731:4797   */\n      0xffffffffffffffffffffffffffffffffffffffffffffffffffffffffffffffff\n        /* \"#utility.yul\":4727:4801   */\n      div\n        /* \"#utility.yul\":4724:4725   */\n      dup4\n        /* \"#utility.yul\":4721:4802   */\n      gt\n        /* \"#utility.yul\":4716:4717   */\n      dup3\n        /* \"#utility.yul\":4709:4718   */\n      iszero\n        /* \"#utility.yul\":4702:4719   */\n      iszero\n        /* \"#utility.yul\":4698:4803   */\n      and\n        /* \"#utility.yul\":4695:4826   */\n      iszero\n      tag_153\n      jumpi\n        /* \"#utility.yul\":4806:4824   */\n      tag_154\n      tag_90\n      jump\t// in\n    tag_154:\n        /* \"#utility.yul\":4695:4826   */\n    tag_153:\n        /* \"#utility.yul\":4854:4855   */\n      dup3\n        /* \"#utility.yul\":4851:4852   */\n      dup3\n        /* \"#utility.yul\":4847:4856   */\n      mul\n        /* \"#utility.yul\":4836:4856   */\n      swap1\n      pop\n        /* \"#utility.yul\":4514:4862   */\n      swap3\n      swap2\n      pop\n      pop\n      jump\t// out\n        /* \"#utility.yul\":4868:5048   */\n    tag_94:\n        /* \"#utility.yul\":4916:4993   */\n      0x4e487b7100000000000000000000000000000000000000000000000000000000\n        /* \"#utility.yul\":4913:4914   */\n      0x00\n        /* \"#utility.yul\":4906:4994   */\n      mstore\n        /* \"#utility.yul\":5013:5017   */\n      0x12\n        /* \"#utility.yul\":5010:5011   */\n      0x04\n        /* \"#utility.yul\":5003:5018   */\n      mstore\n        /* \"#utility.yul\":5037:5041   */\n      0x24\n        /* \"#utility.yul\":5034:5035   */\n      0x00\n        /* \"#utility.yul\":5027:5042   */\n      revert\n        /* \"#utility.yul\":5054:5239   */\n    tag_63:\n        /* \"#utility.yul\":5094:5095   */\n      0x00\n        /* \"#utility.yul\":5111:5131   */\n      tag_157\n        /* \"#utility.yul\":5129:5130   */\n      dup3\n        /* \"#utility.yul\":5111:5131   */\n      tag_81\n      jump\t// in\n    tag_157:\n        /* \"#utility.yul\":5106:5131   */\n      swap2\n      pop\n        /* \"#utility.yul\":5145:5165   */\n      tag_158\n        /* \"#utility.yul\":5163:5164   */\n      dup4\n        /* \"#utility.yul\":5145:5165   */\n      tag_81\n      jump\t// in\n    tag_158:\n        /* \"#utility.yul\":5140:5165   */\n      swap3\n      pop\n        /* \"#utility.yul\":5184:5185   */\n      dup3\n        /* \"#utility.yul\":5174:5209   */\n      tag_159\n      jumpi\n        /* \"#utility.yul\":5189:5207   */\n      tag_160\n      tag_94\n      jump\t// in\n    tag_160:\n        /* \"#utility.yul\":5174:5209   */\n    tag_159:\n        /* \"#utility.yul\":5231:5232   */\n      dup3\n        /* \"#utility.yul\":5228:5229   */\n      dup3\n        /* \"#utility.yul\":5224:5233   */\n      div\n        /* \"#utility.yul\":5219:5233   */\n      swap1\n      pop\n        /* \"#utility.yul\":5054:5239   */\n      swap3\n      swap2\n      pop\n      pop\n      jump\t// out\n        /* \"#utility.yul\":5245:5350   */\n    tag_95:\n        /* \"#utility.yul\":5281:5288   */\n      0x00\n        /* \"#utility.yul\":5321:5343   */\n      0xffffffffffffffffffff\n        /* \"#utility.yul\":5314:5319   */\n      dup3\n        /* \"#utility.yul\":5310:5344   */\n      and\n        /* \"#utility.yul\":5299:5344   */\n      swap1\n      pop\n        /* \"#utility.yul\":5245:5350   */\n      swap2\n      swap1\n      pop\n      jump\t// out\n        /* \"#utility.yul\":5356:5476   */\n    tag_96:\n        /* \"#utility.yul\":5428:5451   */\n      tag_163\n        /* \"#utility.yul\":5445:5450   */\n      dup2\n        /* \"#utility.yul\":5428:5451   */\n      tag_95\n      jump\t// in\n    tag_163:\n        /* \"#utility.yul\":5421:5426   */\n      dup2\n        /* \"#utility.yul\":5418:5452   */\n      eq\n        /* \"#utility.yul\":5408:5470   */\n      tag_164\n      jumpi\n        /* \"#utility.yul\":5466:5467   */\n      0x00\n        /* \"#utility.yul\":5463:5464   */\n      dup1\n        /* \"#utility.yul\":5456:5468   */\n      revert\n        /* \"#utility.yul\":5408:5470   */\n    tag_164:\n        /* \"#utility.yul\":5356:5476   */\n      pop\n      jump\t// out\n        /* \"#utility.yul\":5482:5623   */\n    tag_97:\n        /* \"#utility.yul\":5538:5543   */\n      0x00\n        /* \"#utility.yul\":5569:5575   */\n      dup2\n        /* \"#utility.yul\":5563:5576   */\n      mload\n        /* \"#utility.yul\":5554:5576   */\n      swap1\n      pop\n        /* \"#utility.yul\":5585:5617   */\n      tag_166\n        /* \"#utility.yul\":5611:5616   */\n      dup2\n        /* \"#utility.yul\":5585:5617   */\n      tag_96\n      jump\t// in\n    tag_166:\n        /* \"#utility.yul\":5482:5623   */\n      swap3\n      swap2\n      pop\n      pop\n      jump\t// out\n        /* \"#utility.yul\":5629:5705   */\n    tag_98:\n        /* \"#utility.yul\":5665:5672   */\n      0x00\n        /* \"#utility.yul\":5694:5699   */\n      dup2\n        /* \"#utility.yul\":5683:5699   */\n      swap1\n      pop\n        /* \"#utility.yul\":5629:5705   */\n      swap2\n      swap1\n      pop\n      jump\t// out\n        /* \"#utility.yul\":5711:5831   */\n    tag_99:\n        /* \"#utility.yul\":5783:5806   */\n      tag_169\n        /* \"#utility.yul\":5800:5805   */\n      dup2\n        /* \"#utility.yul\":5783:5806   */\n      tag_98\n      jump\t// in\n    tag_169:\n        /* \"#utility.yul\":5776:5781   */\n      dup2\n        /* \"#utility.yul\":5773:5807   */\n      eq\n        /* \"#utility.yul\":5763:5825   */\n      tag_170\n      jumpi\n        /* \"#utility.yul\":5821:5822   */\n      0x00\n        /* \"#utility.yul\":5818:5819   */\n      dup1\n        /* \"#utility.yul\":5811:5823   */\n      revert\n        /* \"#utility.yul\":5763:5825   */\n    tag_170:\n        /* \"#utility.yul\":5711:5831   */\n      pop\n      jump\t// out\n        /* \"#utility.yul\":5837:5978   */\n    tag_100:\n        /* \"#utility.yul\":5893:5898   */\n      0x00\n        /* \"#utility.yul\":5924:5930   */\n      dup2\n        /* \"#utility.yul\":5918:5931   */\n      mload\n        /* \"#utility.yul\":5909:5931   */\n      swap1\n      pop\n        /* \"#utility.yul\":5940:5972   */\n      tag_172\n        /* \"#utility.yul\":5966:5971   */\n      dup2\n        /* \"#utility.yul\":5940:5972   */\n      tag_99\n      jump\t// in\n    tag_172:\n        /* \"#utility.yul\":5837:5978   */\n      swap3\n      swap2\n      pop\n      pop\n      jump\t// out\n        /* \"#utility.yul\":5984:6127   */\n    tag_101:\n        /* \"#utility.yul\":6041:6046   */\n      0x00\n        /* \"#utility.yul\":6072:6078   */\n      dup2\n        /* \"#utility.yul\":6066:6079   */\n      mload\n        /* \"#utility.yul\":6057:6079   */\n      swap1\n      pop\n        /* \"#utility.yul\":6088:6121   */\n      tag_174\n        /* \"#utility.yul\":6115:6120   */\n      dup2\n        /* \"#utility.yul\":6088:6121   */\n      tag_82\n      jump\t// in\n    tag_174:\n        /* \"#utility.yul\":5984:6127   */\n      swap3\n      swap2\n      pop\n      pop\n      jump\t// out\n        /* \"#utility.yul\":6133:7104   */\n    tag_68:\n        /* \"#utility.yul\":6236:6242   */\n      0x00\n        /* \"#utility.yul\":6244:6250   */\n      dup1\n        /* \"#utility.yul\":6252:6258   */\n      0x00\n        /* \"#utility.yul\":6260:6266   */\n      dup1\n        /* \"#utility.yul\":6268:6274   */\n      0x00\n        /* \"#utility.yul\":6317:6320   */\n      0xa0\n        /* \"#utility.yul\":6305:6314   */\n      dup7\n        /* \"#utility.yul\":6296:6303   */\n      dup9\n        /* \"#utility.yul\":6292:6315   */\n      sub\n        /* \"#utility.yul\":6288:6321   */\n      slt\n        /* \"#utility.yul\":6285:6405   */\n      iszero\n      tag_176\n      jumpi\n        /* \"#utility.yul\":6324:6403   */\n      tag_177\n      tag_79\n      jump\t// in\n    tag_177:\n        /* \"#utility.yul\":6285:6405   */\n    tag_176:\n        /* \"#utility.yul\":6444:6445   */\n      0x00\n        /* \"#utility.yul\":6469:6532   */\n      tag_178\n        /* \"#utility.yul\":6524:6531   */\n      dup9\n        /* \"#utility.yul\":6515:6521   */\n      dup3\n        /* \"#utility.yul\":6504:6513   */\n      dup10\n        /* \"#utility.yul\":6500:6522   */\n      add\n        /* \"#utility.yul\":6469:6532   */\n      tag_97\n      jump\t// in\n    tag_178:\n        /* \"#utility.yul\":6459:6532   */\n      swap6\n      pop\n        /* \"#utility.yul\":6415:6542   */\n      pop\n        /* \"#utility.yul\":6581:6583   */\n      0x20\n        /* \"#utility.yul\":6607:6670   */\n      tag_179\n        /* \"#utility.yul\":6662:6669   */\n      dup9\n        /* \"#utility.yul\":6653:6659   */\n      dup3\n        /* \"#utility.yul\":6642:6651   */\n      dup10\n        /* \"#utility.yul\":6638:6660   */\n      add\n        /* \"#utility.yul\":6607:6670   */\n      tag_100\n      jump\t// in\n    tag_179:\n        /* \"#utility.yul\":6597:6670   */\n      swap5\n      pop\n        /* \"#utility.yul\":6552:6680   */\n      pop\n        /* \"#utility.yul\":6719:6721   */\n      0x40\n        /* \"#utility.yul\":6745:6809   */\n      tag_180\n        /* \"#utility.yul\":6801:6808   */\n      dup9\n        /* \"#utility.yul\":6792:6798   */\n      dup3\n        /* \"#utility.yul\":6781:6790   */\n      dup10\n        /* \"#utility.yul\":6777:6799   */\n      add\n        /* \"#utility.yul\":6745:6809   */\n      tag_101\n      jump\t// in\n    tag_180:\n        /* \"#utility.yul\":6735:6809   */\n      swap4\n      pop\n        /* \"#utility.yul\":6690:6819   */\n      pop\n        /* \"#utility.yul\":6858:6860   */\n      0x60\n        /* \"#utility.yul\":6884:6948   */\n      tag_181\n        /* \"#utility.yul\":6940:6947   */\n      dup9\n        /* \"#utility.yul\":6931:6937   */\n      dup3\n        /* \"#utility.yul\":6920:6929   */\n      dup10\n        /* \"#utility.yul\":6916:6938   */\n      add\n        /* \"#utility.yul\":6884:6948   */\n      tag_101\n      jump\t// in\n    tag_181:\n        /* \"#utility.yul\":6874:6948   */\n      swap3\n      pop\n        /* \"#utility.yul\":6829:6958   */\n      pop\n        /* \"#utility.yul\":6997:7000   */\n      0x80\n        /* \"#utility.yul\":7024:7087   */\n      tag_182\n        /* \"#utility.yul\":7079:7086   */\n      dup9\n        /* \"#utility.yul\":7070:7076   */\n      dup3\n        /* \"#utility.yul\":7059:7068   */\n      dup10\n        /* \"#utility.yul\":7055:7077   */\n      add\n        /* \"#utility.yul\":7024:7087   */\n      tag_97\n      jump\t// in\n    tag_182:\n        /* \"#utility.yul\":7014:7087   */\n      swap2\n      pop\n        /* \"#utility.yul\":6968:7097   */\n      pop\n        /* \"#utility.yul\":6133:7104   */\n      swap3\n      swap6\n      pop\n      swap3\n      swap6\n      swap1\n      swap4\n      pop\n      jump\t// out\n        /* \"#utility.yul\":7110:8101   */\n    tag_70:\n        /* \"#utility.yul\":7149:7156   */\n      0x00\n        /* \"#utility.yul\":7172:7191   */\n      tag_184\n        /* \"#utility.yul\":7189:7190   */\n      dup3\n        /* \"#utility.yul\":7172:7191   */\n      tag_98\n      jump\t// in\n    tag_184:\n        /* \"#utility.yul\":7167:7191   */\n      swap2\n      pop\n        /* \"#utility.yul\":7205:7224   */\n      tag_185\n        /* \"#utility.yul\":7222:7223   */\n      dup4\n        /* \"#utility.yul\":7205:7224   */\n      tag_98\n      jump\t// in\n    tag_185:\n        /* \"#utility.yul\":7200:7224   */\n      swap3\n      pop\n        /* \"#utility.yul\":7406:7407   */\n      dup3\n        /* \"#utility.yul\":7338:7404   */\n      0x7fffffffffffffffffffffffffffffffffffffffffffffffffffffffffffffff\n        /* \"#utility.yul\":7334:7408   */\n      div\n        /* \"#utility.yul\":7331:7332   */\n      dup3\n        /* \"#utility.yul\":7328:7409   */\n      gt\n        /* \"#utility.yul\":7323:7324   */\n      0x00\n        /* \"#utility.yul\":7320:7321   */\n      dup5\n        /* \"#utility.yul\":7316:7325   */\n      sgt\n        /* \"#utility.yul\":7312:7313   */\n      0x00\n        /* \"#utility.yul\":7309:7310   */\n      dup5\n        /* \"#utility.yul\":7305:7314   */\n      sgt\n        /* \"#utility.yul\":7301:7326   */\n      and\n        /* \"#utility.yul\":7297:7410   */\n      and\n        /* \"#utility.yul\":7294:7433   */\n      iszero\n      tag_186\n      jumpi\n        /* \"#utility.yul\":7413:7431   */\n      tag_187\n      tag_90\n      jump\t// in\n    tag_187:\n        /* \"#utility.yul\":7294:7433   */\n    tag_186:\n        /* \"#utility.yul\":7617:7618   */\n      dup2\n        /* \"#utility.yul\":7549:7615   */\n      0x8000000000000000000000000000000000000000000000000000000000000000\n        /* \"#utility.yul\":7544:7619   */\n      sdiv\n        /* \"#utility.yul\":7541:7542   */\n      dup4\n        /* \"#utility.yul\":7537:7620   */\n      slt\n        /* \"#utility.yul\":7532:7533   */\n      0x00\n        /* \"#utility.yul\":7529:7530   */\n      dup5\n        /* \"#utility.yul\":7525:7534   */\n      slt\n        /* \"#utility.yul\":7521:7522   */\n      0x00\n        /* \"#utility.yul\":7518:7519   */\n      dup5\n        /* \"#utility.yul\":7514:7523   */\n      sgt\n        /* \"#utility.yul\":7510:7535   */\n      and\n        /* \"#utility.yul\":7506:7621   */\n      and\n        /* \"#utility.yul\":7503:7644   */\n      iszero\n      tag_188\n      jumpi\n        /* \"#utility.yul\":7624:7642   */\n      tag_189\n      tag_90\n      jump\t// in\n    tag_189:\n        /* \"#utility.yul\":7503:7644   */\n    tag_188:\n        /* \"#utility.yul\":7828:7829   */\n      dup3\n        /* \"#utility.yul\":7760:7826   */\n      0x8000000000000000000000000000000000000000000000000000000000000000\n        /* \"#utility.yul\":7755:7830   */\n      sdiv\n        /* \"#utility.yul\":7752:7753   */\n      dup3\n        /* \"#utility.yul\":7748:7831   */\n      slt\n        /* \"#utility.yul\":7743:7744   */\n      0x00\n        /* \"#utility.yul\":7740:7741   */\n      dup5\n        /* \"#utility.yul\":7736:7745   */\n      sgt\n        /* \"#utility.yul\":7732:7733   */\n      0x00\n        /* \"#utility.yul\":7729:7730   */\n      dup5\n        /* \"#utility.yul\":7725:7734   */\n      slt\n        /* \"#utility.yul\":7721:7746   */\n      and\n        /* \"#utility.yul\":7717:7832   */\n      and\n        /* \"#utility.yul\":7714:7855   */\n      iszero\n      tag_190\n      jumpi\n        /* \"#utility.yul\":7835:7853   */\n      tag_191\n      tag_90\n      jump\t// in\n    tag_191:\n        /* \"#utility.yul\":7714:7855   */\n    tag_190:\n        /* \"#utility.yul\":8038:8039   */\n      dup3\n        /* \"#utility.yul\":7970:8036   */\n      0x7fffffffffffffffffffffffffffffffffffffffffffffffffffffffffffffff\n        /* \"#utility.yul\":7965:8040   */\n      sdiv\n        /* \"#utility.yul\":7962:7963   */\n      dup3\n        /* \"#utility.yul\":7958:8041   */\n      slt\n        /* \"#utility.yul\":7953:7954   */\n      0x00\n        /* \"#utility.yul\":7950:7951   */\n      dup5\n        /* \"#utility.yul\":7946:7955   */\n      slt\n        /* \"#utility.yul\":7942:7943   */\n      0x00\n        /* \"#utility.yul\":7939:7940   */\n      dup5\n        /* \"#utility.yul\":7935:7944   */\n      slt\n        /* \"#utility.yul\":7931:7956   */\n      and\n        /* \"#utility.yul\":7927:8042   */\n      and\n        /* \"#utility.yul\":7924:8065   */\n      iszero\n      tag_192\n      jumpi\n        /* \"#utility.yul\":8045:8063   */\n      tag_193\n      tag_90\n      jump\t// in\n    tag_193:\n        /* \"#utility.yul\":7924:8065   */\n    tag_192:\n        /* \"#utility.yul\":8093:8094   */\n      dup3\n        /* \"#utility.yul\":8090:8091   */\n      dup3\n        /* \"#utility.yul\":8086:8095   */\n      mul\n        /* \"#utility.yul\":8075:8095   */\n      swap1\n      pop\n        /* \"#utility.yul\":7110:8101   */\n      swap3\n      swap2\n      pop\n      pop\n      jump\t// out\n\n    auxdata: 0xa2646970667358221220b79b2dbb76526564a21fc74179c58bf331414924153f501f0967eaba1e240d0564736f6c634300080e0033\n}\n",
				"bytecode": {
					"linkReferences": {},
					"object": "60806040526802b5e3af16b188000060005534801561001d57600080fd5b50610aea8061002d6000396000f3fe60806040526004361061004a5760003560e01c806347ff62c61461004f578063520fcd611461008c57806357ea89b6146100c957806366b30f06146100e05780636ce1417e1461010b575b600080fd5b34801561005b57600080fd5b506100766004803603810190610071919061057d565b610115565b60405161008391906105eb565b60405180910390f35b34801561009857600080fd5b506100b360048036038101906100ae9190610632565b610154565b6040516100c0919061066e565b60405180910390f35b3480156100d557600080fd5b506100de61016c565b005b3480156100ec57600080fd5b506100f56102bc565b604051610102919061066e565b60405180910390f35b6101136102c2565b005b6001818154811061012557600080fd5b906000526020600020016000915054906101000a900473ffffffffffffffffffffffffffffffffffffffff1681565b60026020528060005260406000206000915090505481565b60005b600180549050811015610212576000600260006001848154811061019657610195610689565b5b9060005260206000200160009054906101000a900473ffffffffffffffffffffffffffffffffffffffff1673ffffffffffffffffffffffffffffffffffffffff1673ffffffffffffffffffffffffffffffffffffffff16815260200190815260200160002081905550808061020a906106e7565b91505061016f565b50600067ffffffffffffffff81111561022e5761022d61072f565b5b60405190808252806020026020018201604052801561025c5781602001602082028036833780820191505090505b506001908051906020019061027292919061049b565b503373ffffffffffffffffffffffffffffffffffffffff166108fc479081150290604051600060405180830381858888f193505050501580156102b9573d6000803e3d6000fd5b50565b60005481565b6000546102ce346103b8565b101561030f576040517f08c379a0000000000000000000000000000000000000000000000000000000008152600401610306906107bb565b60405180910390fd5b6001339080600181540180825580915050600190039060005260206000200160009091909190916101000a81548173ffffffffffffffffffffffffffffffffffffffff021916908373ffffffffffffffffffffffffffffffffffffffff16021790555034600260003373ffffffffffffffffffffffffffffffffffffffff1673ffffffffffffffffffffffffffffffffffffffff16815260200190815260200160002081905550565b6000806103c36103f2565b90506000670de0b6b3a764000084836103dc91906107db565b6103e69190610864565b90508092505050919050565b600080738a753747a1fa494ec906ce90e9f37563a8af630e905060008173ffffffffffffffffffffffffffffffffffffffff1663feaf968c6040518163ffffffff1660e01b815260040160a060405180830381865afa158015610459573d6000803e3d6000fd5b505050506040513d601f19601f8201168201806040525081019061047d9190610922565b5050509150506402540be40081610494919061099d565b9250505090565b828054828255906000526020600020908101928215610514579160200282015b828111156105135782518260006101000a81548173ffffffffffffffffffffffffffffffffffffffff021916908373ffffffffffffffffffffffffffffffffffffffff160217905550916020019190600101906104bb565b5b5090506105219190610525565b5090565b5b8082111561053e576000816000905550600101610526565b5090565b600080fd5b6000819050919050565b61055a81610547565b811461056557600080fd5b50565b60008135905061057781610551565b92915050565b60006020828403121561059357610592610542565b5b60006105a184828501610568565b91505092915050565b600073ffffffffffffffffffffffffffffffffffffffff82169050919050565b60006105d5826105aa565b9050919050565b6105e5816105ca565b82525050565b600060208201905061060060008301846105dc565b92915050565b61060f816105ca565b811461061a57600080fd5b50565b60008135905061062c81610606565b92915050565b60006020828403121561064857610647610542565b5b60006106568482850161061d565b91505092915050565b61066881610547565b82525050565b6000602082019050610683600083018461065f565b92915050565b7f4e487b7100000000000000000000000000000000000000000000000000000000600052603260045260246000fd5b7f4e487b7100000000000000000000000000000000000000000000000000000000600052601160045260246000fd5b60006106f282610547565b91507fffffffffffffffffffffffffffffffffffffffffffffffffffffffffffffffff8203610724576107236106b8565b5b600182019050919050565b7f4e487b7100000000000000000000000000000000000000000000000000000000600052604160045260246000fd5b600082825260208201905092915050565b7f4469646e27742073656e6420656e6f7567680000000000000000000000000000600082015250565b60006107a560128361075e565b91506107b08261076f565b602082019050919050565b600060208201905081810360008301526107d481610798565b9050919050565b60006107e682610547565b91506107f183610547565b9250817fffffffffffffffffffffffffffffffffffffffffffffffffffffffffffffffff048311821515161561082a576108296106b8565b5b828202905092915050565b7f4e487b7100000000000000000000000000000000000000000000000000000000600052601260045260246000fd5b600061086f82610547565b915061087a83610547565b92508261088a57610889610835565b5b828204905092915050565b600069ffffffffffffffffffff82169050919050565b6108b481610895565b81146108bf57600080fd5b50565b6000815190506108d1816108ab565b92915050565b6000819050919050565b6108ea816108d7565b81146108f557600080fd5b50565b600081519050610907816108e1565b92915050565b60008151905061091c81610551565b92915050565b600080600080600060a0868803121561093e5761093d610542565b5b600061094c888289016108c2565b955050602061095d888289016108f8565b945050604061096e8882890161090d565b935050606061097f8882890161090d565b9250506080610990888289016108c2565b9150509295509295909350565b60006109a8826108d7565b91506109b3836108d7565b9250827f7fffffffffffffffffffffffffffffffffffffffffffffffffffffffffffffff04821160008413600084131616156109f2576109f16106b8565b5b817f80000000000000000000000000000000000000000000000000000000000000000583126000841260008413161615610a2f57610a2e6106b8565b5b827f80000000000000000000000000000000000000000000000000000000000000000582126000841360008412161615610a6c57610a6b6106b8565b5b827f7fffffffffffffffffffffffffffffffffffffffffffffffffffffffffffffff0582126000841260008412161615610aa957610aa86106b8565b5b82820290509291505056fea2646970667358221220b79b2dbb76526564a21fc74179c58bf331414924153f501f0967eaba1e240d0564736f6c634300080e0033",
					"opcodes": "PUSH1 0x80 PUSH1 0x40 MSTORE PUSH9 0x2B5E3AF16B1880000 PUSH1 0x0 SSTORE CALLVALUE DUP1 ISZERO PUSH2 0x1D JUMPI PUSH1 0x0 DUP1 REVERT JUMPDEST POP PUSH2 0xAEA DUP1 PUSH2 0x2D PUSH1 0x0 CODECOPY PUSH1 0x0 RETURN INVALID PUSH1 0x80 PUSH1 0x40 MSTORE PUSH1 0x4 CALLDATASIZE LT PUSH2 0x4A JUMPI PUSH1 0x0 CALLDATALOAD PUSH1 0xE0 SHR DUP1 PUSH4 0x47FF62C6 EQ PUSH2 0x4F JUMPI DUP1 PUSH4 0x520FCD61 EQ PUSH2 0x8C JUMPI DUP1 PUSH4 0x57EA89B6 EQ PUSH2 0xC9 JUMPI DUP1 PUSH4 0x66B30F06 EQ PUSH2 0xE0 JUMPI DUP1 PUSH4 0x6CE1417E EQ PUSH2 0x10B JUMPI JUMPDEST PUSH1 0x0 DUP1 REVERT JUMPDEST CALLVALUE DUP1 ISZERO PUSH2 0x5B JUMPI PUSH1 0x0 DUP1 REVERT JUMPDEST POP PUSH2 0x76 PUSH1 0x4 DUP1 CALLDATASIZE SUB DUP2 ADD SWAP1 PUSH2 0x71 SWAP2 SWAP1 PUSH2 0x57D JUMP JUMPDEST PUSH2 0x115 JUMP JUMPDEST PUSH1 0x40 MLOAD PUSH2 0x83 SWAP2 SWAP1 PUSH2 0x5EB JUMP JUMPDEST PUSH1 0x40 MLOAD DUP1 SWAP2 SUB SWAP1 RETURN JUMPDEST CALLVALUE DUP1 ISZERO PUSH2 0x98 JUMPI PUSH1 0x0 DUP1 REVERT JUMPDEST POP PUSH2 0xB3 PUSH1 0x4 DUP1 CALLDATASIZE SUB DUP2 ADD SWAP1 PUSH2 0xAE SWAP2 SWAP1 PUSH2 0x632 JUMP JUMPDEST PUSH2 0x154 JUMP JUMPDEST PUSH1 0x40 MLOAD PUSH2 0xC0 SWAP2 SWAP1 PUSH2 0x66E JUMP JUMPDEST PUSH1 0x40 MLOAD DUP1 SWAP2 SUB SWAP1 RETURN JUMPDEST CALLVALUE DUP1 ISZERO PUSH2 0xD5 JUMPI PUSH1 0x0 DUP1 REVERT JUMPDEST POP PUSH2 0xDE PUSH2 0x16C JUMP JUMPDEST STOP JUMPDEST CALLVALUE DUP1 ISZERO PUSH2 0xEC JUMPI PUSH1 0x0 DUP1 REVERT JUMPDEST POP PUSH2 0xF5 PUSH2 0x2BC JUMP JUMPDEST PUSH1 0x40 MLOAD PUSH2 0x102 SWAP2 SWAP1 PUSH2 0x66E JUMP JUMPDEST PUSH1 0x40 MLOAD DUP1 SWAP2 SUB SWAP1 RETURN JUMPDEST PUSH2 0x113 PUSH2 0x2C2 JUMP JUMPDEST STOP JUMPDEST PUSH1 0x1 DUP2 DUP2 SLOAD DUP2 LT PUSH2 0x125 JUMPI PUSH1 0x0 DUP1 REVERT JUMPDEST SWAP1 PUSH1 0x0 MSTORE PUSH1 0x20 PUSH1 0x0 KECCAK256 ADD PUSH1 0x0 SWAP2 POP SLOAD SWAP1 PUSH2 0x100 EXP SWAP1 DIV PUSH20 0xFFFFFFFFFFFFFFFFFFFFFFFFFFFFFFFFFFFFFFFF AND DUP2 JUMP JUMPDEST PUSH1 0x2 PUSH1 0x20 MSTORE DUP1 PUSH1 0x0 MSTORE PUSH1 0x40 PUSH1 0x0 KECCAK256 PUSH1 0x0 SWAP2 POP SWAP1 POP SLOAD DUP2 JUMP JUMPDEST PUSH1 0x0 JUMPDEST PUSH1 0x1 DUP1 SLOAD SWAP1 POP DUP2 LT ISZERO PUSH2 0x212 JUMPI PUSH1 0x0 PUSH1 0x2 PUSH1 0x0 PUSH1 0x1 DUP5 DUP2 SLOAD DUP2 LT PUSH2 0x196 JUMPI PUSH2 0x195 PUSH2 0x689 JUMP JUMPDEST JUMPDEST SWAP1 PUSH1 0x0 MSTORE PUSH1 0x20 PUSH1 0x0 KECCAK256 ADD PUSH1 0x0 SWAP1 SLOAD SWAP1 PUSH2 0x100 EXP SWAP1 DIV PUSH20 0xFFFFFFFFFFFFFFFFFFFFFFFFFFFFFFFFFFFFFFFF AND PUSH20 0xFFFFFFFFFFFFFFFFFFFFFFFFFFFFFFFFFFFFFFFF AND PUSH20 0xFFFFFFFFFFFFFFFFFFFFFFFFFFFFFFFFFFFFFFFF AND DUP2 MSTORE PUSH1 0x20 ADD SWAP1 DUP2 MSTORE PUSH1 0x20 ADD PUSH1 0x0 KECCAK256 DUP2 SWAP1 SSTORE POP DUP1 DUP1 PUSH2 0x20A SWAP1 PUSH2 0x6E7 JUMP JUMPDEST SWAP2 POP POP PUSH2 0x16F JUMP JUMPDEST POP PUSH1 0x0 PUSH8 0xFFFFFFFFFFFFFFFF DUP2 GT ISZERO PUSH2 0x22E JUMPI PUSH2 0x22D PUSH2 0x72F JUMP JUMPDEST JUMPDEST PUSH1 0x40 MLOAD SWAP1 DUP1 DUP3 MSTORE DUP1 PUSH1 0x20 MUL PUSH1 0x20 ADD DUP3 ADD PUSH1 0x40 MSTORE DUP1 ISZERO PUSH2 0x25C JUMPI DUP2 PUSH1 0x20 ADD PUSH1 0x20 DUP3 MUL DUP1 CALLDATASIZE DUP4 CALLDATACOPY DUP1 DUP3 ADD SWAP2 POP POP SWAP1 POP JUMPDEST POP PUSH1 0x1 SWAP1 DUP1 MLOAD SWAP1 PUSH1 0x20 ADD SWAP1 PUSH2 0x272 SWAP3 SWAP2 SWAP1 PUSH2 0x49B JUMP JUMPDEST POP CALLER PUSH20 0xFFFFFFFFFFFFFFFFFFFFFFFFFFFFFFFFFFFFFFFF AND PUSH2 0x8FC SELFBALANCE SWAP1 DUP2 ISZERO MUL SWAP1 PUSH1 0x40 MLOAD PUSH1 0x0 PUSH1 0x40 MLOAD DUP1 DUP4 SUB DUP2 DUP6 DUP9 DUP9 CALL SWAP4 POP POP POP POP ISZERO DUP1 ISZERO PUSH2 0x2B9 JUMPI RETURNDATASIZE PUSH1 0x0 DUP1 RETURNDATACOPY RETURNDATASIZE PUSH1 0x0 REVERT JUMPDEST POP JUMP JUMPDEST PUSH1 0x0 SLOAD DUP2 JUMP JUMPDEST PUSH1 0x0 SLOAD PUSH2 0x2CE CALLVALUE PUSH2 0x3B8 JUMP JUMPDEST LT ISZERO PUSH2 0x30F JUMPI PUSH1 0x40 MLOAD PUSH32 0x8C379A000000000000000000000000000000000000000000000000000000000 DUP2 MSTORE PUSH1 0x4 ADD PUSH2 0x306 SWAP1 PUSH2 0x7BB JUMP JUMPDEST PUSH1 0x40 MLOAD DUP1 SWAP2 SUB SWAP1 REVERT JUMPDEST PUSH1 0x1 CALLER SWAP1 DUP1 PUSH1 0x1 DUP2 SLOAD ADD DUP1 DUP3 SSTORE DUP1 SWAP2 POP POP PUSH1 0x1 SWAP1 SUB SWAP1 PUSH1 0x0 MSTORE PUSH1 0x20 PUSH1 0x0 KECCAK256 ADD PUSH1 0x0 SWAP1 SWAP2 SWAP1 SWAP2 SWAP1 SWAP2 PUSH2 0x100 EXP DUP2 SLOAD DUP2 PUSH20 0xFFFFFFFFFFFFFFFFFFFFFFFFFFFFFFFFFFFFFFFF MUL NOT AND SWAP1 DUP4 PUSH20 0xFFFFFFFFFFFFFFFFFFFFFFFFFFFFFFFFFFFFFFFF AND MUL OR SWAP1 SSTORE POP CALLVALUE PUSH1 0x2 PUSH1 0x0 CALLER PUSH20 0xFFFFFFFFFFFFFFFFFFFFFFFFFFFFFFFFFFFFFFFF AND PUSH20 0xFFFFFFFFFFFFFFFFFFFFFFFFFFFFFFFFFFFFFFFF AND DUP2 MSTORE PUSH1 0x20 ADD SWAP1 DUP2 MSTORE PUSH1 0x20 ADD PUSH1 0x0 KECCAK256 DUP2 SWAP1 SSTORE POP JUMP JUMPDEST PUSH1 0x0 DUP1 PUSH2 0x3C3 PUSH2 0x3F2 JUMP JUMPDEST SWAP1 POP PUSH1 0x0 PUSH8 0xDE0B6B3A7640000 DUP5 DUP4 PUSH2 0x3DC SWAP2 SWAP1 PUSH2 0x7DB JUMP JUMPDEST PUSH2 0x3E6 SWAP2 SWAP1 PUSH2 0x864 JUMP JUMPDEST SWAP1 POP DUP1 SWAP3 POP POP POP SWAP2 SWAP1 POP JUMP JUMPDEST PUSH1 0x0 DUP1 PUSH20 0x8A753747A1FA494EC906CE90E9F37563A8AF630E SWAP1 POP PUSH1 0x0 DUP2 PUSH20 0xFFFFFFFFFFFFFFFFFFFFFFFFFFFFFFFFFFFFFFFF AND PUSH4 0xFEAF968C PUSH1 0x40 MLOAD DUP2 PUSH4 0xFFFFFFFF AND PUSH1 0xE0 SHL DUP2 MSTORE PUSH1 0x4 ADD PUSH1 0xA0 PUSH1 0x40 MLOAD DUP1 DUP4 SUB DUP2 DUP7 GAS STATICCALL ISZERO DUP1 ISZERO PUSH2 0x459 JUMPI RETURNDATASIZE PUSH1 0x0 DUP1 RETURNDATACOPY RETURNDATASIZE PUSH1 0x0 REVERT JUMPDEST POP POP POP POP PUSH1 0x40 MLOAD RETURNDATASIZE PUSH1 0x1F NOT PUSH1 0x1F DUP3 ADD AND DUP3 ADD DUP1 PUSH1 0x40 MSTORE POP DUP2 ADD SWAP1 PUSH2 0x47D SWAP2 SWAP1 PUSH2 0x922 JUMP JUMPDEST POP POP POP SWAP2 POP POP PUSH5 0x2540BE400 DUP2 PUSH2 0x494 SWAP2 SWAP1 PUSH2 0x99D JUMP JUMPDEST SWAP3 POP POP POP SWAP1 JUMP JUMPDEST DUP3 DUP1 SLOAD DUP3 DUP3 SSTORE SWAP1 PUSH1 0x0 MSTORE PUSH1 0x20 PUSH1 0x0 KECCAK256 SWAP1 DUP2 ADD SWAP3 DUP3 ISZERO PUSH2 0x514 JUMPI SWAP2 PUSH1 0x20 MUL DUP3 ADD JUMPDEST DUP3 DUP2 GT ISZERO PUSH2 0x513 JUMPI DUP3 MLOAD DUP3 PUSH1 0x0 PUSH2 0x100 EXP DUP2 SLOAD DUP2 PUSH20 0xFFFFFFFFFFFFFFFFFFFFFFFFFFFFFFFFFFFFFFFF MUL NOT AND SWAP1 DUP4 PUSH20 0xFFFFFFFFFFFFFFFFFFFFFFFFFFFFFFFFFFFFFFFF AND MUL OR SWAP1 SSTORE POP SWAP2 PUSH1 0x20 ADD SWAP2 SWAP1 PUSH1 0x1 ADD SWAP1 PUSH2 0x4BB JUMP JUMPDEST JUMPDEST POP SWAP1 POP PUSH2 0x521 SWAP2 SWAP1 PUSH2 0x525 JUMP JUMPDEST POP SWAP1 JUMP JUMPDEST JUMPDEST DUP1 DUP3 GT ISZERO PUSH2 0x53E JUMPI PUSH1 0x0 DUP2 PUSH1 0x0 SWAP1 SSTORE POP PUSH1 0x1 ADD PUSH2 0x526 JUMP JUMPDEST POP SWAP1 JUMP JUMPDEST PUSH1 0x0 DUP1 REVERT JUMPDEST PUSH1 0x0 DUP2 SWAP1 POP SWAP2 SWAP1 POP JUMP JUMPDEST PUSH2 0x55A DUP2 PUSH2 0x547 JUMP JUMPDEST DUP2 EQ PUSH2 0x565 JUMPI PUSH1 0x0 DUP1 REVERT JUMPDEST POP JUMP JUMPDEST PUSH1 0x0 DUP2 CALLDATALOAD SWAP1 POP PUSH2 0x577 DUP2 PUSH2 0x551 JUMP JUMPDEST SWAP3 SWAP2 POP POP JUMP JUMPDEST PUSH1 0x0 PUSH1 0x20 DUP3 DUP5 SUB SLT ISZERO PUSH2 0x593 JUMPI PUSH2 0x592 PUSH2 0x542 JUMP JUMPDEST JUMPDEST PUSH1 0x0 PUSH2 0x5A1 DUP5 DUP3 DUP6 ADD PUSH2 0x568 JUMP JUMPDEST SWAP2 POP POP SWAP3 SWAP2 POP POP JUMP JUMPDEST PUSH1 0x0 PUSH20 0xFFFFFFFFFFFFFFFFFFFFFFFFFFFFFFFFFFFFFFFF DUP3 AND SWAP1 POP SWAP2 SWAP1 POP JUMP JUMPDEST PUSH1 0x0 PUSH2 0x5D5 DUP3 PUSH2 0x5AA JUMP JUMPDEST SWAP1 POP SWAP2 SWAP1 POP JUMP JUMPDEST PUSH2 0x5E5 DUP2 PUSH2 0x5CA JUMP JUMPDEST DUP3 MSTORE POP POP JUMP JUMPDEST PUSH1 0x0 PUSH1 0x20 DUP3 ADD SWAP1 POP PUSH2 0x600 PUSH1 0x0 DUP4 ADD DUP5 PUSH2 0x5DC JUMP JUMPDEST SWAP3 SWAP2 POP POP JUMP JUMPDEST PUSH2 0x60F DUP2 PUSH2 0x5CA JUMP JUMPDEST DUP2 EQ PUSH2 0x61A JUMPI PUSH1 0x0 DUP1 REVERT JUMPDEST POP JUMP JUMPDEST PUSH1 0x0 DUP2 CALLDATALOAD SWAP1 POP PUSH2 0x62C DUP2 PUSH2 0x606 JUMP JUMPDEST SWAP3 SWAP2 POP POP JUMP JUMPDEST PUSH1 0x0 PUSH1 0x20 DUP3 DUP5 SUB SLT ISZERO PUSH2 0x648 JUMPI PUSH2 0x647 PUSH2 0x542 JUMP JUMPDEST JUMPDEST PUSH1 0x0 PUSH2 0x656 DUP5 DUP3 DUP6 ADD PUSH2 0x61D JUMP JUMPDEST SWAP2 POP POP SWAP3 SWAP2 POP POP JUMP JUMPDEST PUSH2 0x668 DUP2 PUSH2 0x547 JUMP JUMPDEST DUP3 MSTORE POP POP JUMP JUMPDEST PUSH1 0x0 PUSH1 0x20 DUP3 ADD SWAP1 POP PUSH2 0x683 PUSH1 0x0 DUP4 ADD DUP5 PUSH2 0x65F JUMP JUMPDEST SWAP3 SWAP2 POP POP JUMP JUMPDEST PUSH32 0x4E487B7100000000000000000000000000000000000000000000000000000000 PUSH1 0x0 MSTORE PUSH1 0x32 PUSH1 0x4 MSTORE PUSH1 0x24 PUSH1 0x0 REVERT JUMPDEST PUSH32 0x4E487B7100000000000000000000000000000000000000000000000000000000 PUSH1 0x0 MSTORE PUSH1 0x11 PUSH1 0x4 MSTORE PUSH1 0x24 PUSH1 0x0 REVERT JUMPDEST PUSH1 0x0 PUSH2 0x6F2 DUP3 PUSH2 0x547 JUMP JUMPDEST SWAP2 POP PUSH32 0xFFFFFFFFFFFFFFFFFFFFFFFFFFFFFFFFFFFFFFFFFFFFFFFFFFFFFFFFFFFFFFFF DUP3 SUB PUSH2 0x724 JUMPI PUSH2 0x723 PUSH2 0x6B8 JUMP JUMPDEST JUMPDEST PUSH1 0x1 DUP3 ADD SWAP1 POP SWAP2 SWAP1 POP JUMP JUMPDEST PUSH32 0x4E487B7100000000000000000000000000000000000000000000000000000000 PUSH1 0x0 MSTORE PUSH1 0x41 PUSH1 0x4 MSTORE PUSH1 0x24 PUSH1 0x0 REVERT JUMPDEST PUSH1 0x0 DUP3 DUP3 MSTORE PUSH1 0x20 DUP3 ADD SWAP1 POP SWAP3 SWAP2 POP POP JUMP JUMPDEST PUSH32 0x4469646E27742073656E6420656E6F7567680000000000000000000000000000 PUSH1 0x0 DUP3 ADD MSTORE POP JUMP JUMPDEST PUSH1 0x0 PUSH2 0x7A5 PUSH1 0x12 DUP4 PUSH2 0x75E JUMP JUMPDEST SWAP2 POP PUSH2 0x7B0 DUP3 PUSH2 0x76F JUMP JUMPDEST PUSH1 0x20 DUP3 ADD SWAP1 POP SWAP2 SWAP1 POP JUMP JUMPDEST PUSH1 0x0 PUSH1 0x20 DUP3 ADD SWAP1 POP DUP2 DUP2 SUB PUSH1 0x0 DUP4 ADD MSTORE PUSH2 0x7D4 DUP2 PUSH2 0x798 JUMP JUMPDEST SWAP1 POP SWAP2 SWAP1 POP JUMP JUMPDEST PUSH1 0x0 PUSH2 0x7E6 DUP3 PUSH2 0x547 JUMP JUMPDEST SWAP2 POP PUSH2 0x7F1 DUP4 PUSH2 0x547 JUMP JUMPDEST SWAP3 POP DUP2 PUSH32 0xFFFFFFFFFFFFFFFFFFFFFFFFFFFFFFFFFFFFFFFFFFFFFFFFFFFFFFFFFFFFFFFF DIV DUP4 GT DUP3 ISZERO ISZERO AND ISZERO PUSH2 0x82A JUMPI PUSH2 0x829 PUSH2 0x6B8 JUMP JUMPDEST JUMPDEST DUP3 DUP3 MUL SWAP1 POP SWAP3 SWAP2 POP POP JUMP JUMPDEST PUSH32 0x4E487B7100000000000000000000000000000000000000000000000000000000 PUSH1 0x0 MSTORE PUSH1 0x12 PUSH1 0x4 MSTORE PUSH1 0x24 PUSH1 0x0 REVERT JUMPDEST PUSH1 0x0 PUSH2 0x86F DUP3 PUSH2 0x547 JUMP JUMPDEST SWAP2 POP PUSH2 0x87A DUP4 PUSH2 0x547 JUMP JUMPDEST SWAP3 POP DUP3 PUSH2 0x88A JUMPI PUSH2 0x889 PUSH2 0x835 JUMP JUMPDEST JUMPDEST DUP3 DUP3 DIV SWAP1 POP SWAP3 SWAP2 POP POP JUMP JUMPDEST PUSH1 0x0 PUSH10 0xFFFFFFFFFFFFFFFFFFFF DUP3 AND SWAP1 POP SWAP2 SWAP1 POP JUMP JUMPDEST PUSH2 0x8B4 DUP2 PUSH2 0x895 JUMP JUMPDEST DUP2 EQ PUSH2 0x8BF JUMPI PUSH1 0x0 DUP1 REVERT JUMPDEST POP JUMP JUMPDEST PUSH1 0x0 DUP2 MLOAD SWAP1 POP PUSH2 0x8D1 DUP2 PUSH2 0x8AB JUMP JUMPDEST SWAP3 SWAP2 POP POP JUMP JUMPDEST PUSH1 0x0 DUP2 SWAP1 POP SWAP2 SWAP1 POP JUMP JUMPDEST PUSH2 0x8EA DUP2 PUSH2 0x8D7 JUMP JUMPDEST DUP2 EQ PUSH2 0x8F5 JUMPI PUSH1 0x0 DUP1 REVERT JUMPDEST POP JUMP JUMPDEST PUSH1 0x0 DUP2 MLOAD SWAP1 POP PUSH2 0x907 DUP2 PUSH2 0x8E1 JUMP JUMPDEST SWAP3 SWAP2 POP POP JUMP JUMPDEST PUSH1 0x0 DUP2 MLOAD SWAP1 POP PUSH2 0x91C DUP2 PUSH2 0x551 JUMP JUMPDEST SWAP3 SWAP2 POP POP JUMP JUMPDEST PUSH1 0x0 DUP1 PUSH1 0x0 DUP1 PUSH1 0x0 PUSH1 0xA0 DUP7 DUP9 SUB SLT ISZERO PUSH2 0x93E JUMPI PUSH2 0x93D PUSH2 0x542 JUMP JUMPDEST JUMPDEST PUSH1 0x0 PUSH2 0x94C DUP9 DUP3 DUP10 ADD PUSH2 0x8C2 JUMP JUMPDEST SWAP6 POP POP PUSH1 0x20 PUSH2 0x95D DUP9 DUP3 DUP10 ADD PUSH2 0x8F8 JUMP JUMPDEST SWAP5 POP POP PUSH1 0x40 PUSH2 0x96E DUP9 DUP3 DUP10 ADD PUSH2 0x90D JUMP JUMPDEST SWAP4 POP POP PUSH1 0x60 PUSH2 0x97F DUP9 DUP3 DUP10 ADD PUSH2 0x90D JUMP JUMPDEST SWAP3 POP POP PUSH1 0x80 PUSH2 0x990 DUP9 DUP3 DUP10 ADD PUSH2 0x8C2 JUMP JUMPDEST SWAP2 POP POP SWAP3 SWAP6 POP SWAP3 SWAP6 SWAP1 SWAP4 POP JUMP JUMPDEST PUSH1 0x0 PUSH2 0x9A8 DUP3 PUSH2 0x8D7 JUMP JUMPDEST SWAP2 POP PUSH2 0x9B3 DUP4 PUSH2 0x8D7 JUMP JUMPDEST SWAP3 POP DUP3 PUSH32 0x7FFFFFFFFFFFFFFFFFFFFFFFFFFFFFFFFFFFFFFFFFFFFFFFFFFFFFFFFFFFFFFF DIV DUP3 GT PUSH1 0x0 DUP5 SGT PUSH1 0x0 DUP5 SGT AND AND ISZERO PUSH2 0x9F2 JUMPI PUSH2 0x9F1 PUSH2 0x6B8 JUMP JUMPDEST JUMPDEST DUP2 PUSH32 0x8000000000000000000000000000000000000000000000000000000000000000 SDIV DUP4 SLT PUSH1 0x0 DUP5 SLT PUSH1 0x0 DUP5 SGT AND AND ISZERO PUSH2 0xA2F JUMPI PUSH2 0xA2E PUSH2 0x6B8 JUMP JUMPDEST JUMPDEST DUP3 PUSH32 0x8000000000000000000000000000000000000000000000000000000000000000 SDIV DUP3 SLT PUSH1 0x0 DUP5 SGT PUSH1 0x0 DUP5 SLT AND AND ISZERO PUSH2 0xA6C JUMPI PUSH2 0xA6B PUSH2 0x6B8 JUMP JUMPDEST JUMPDEST DUP3 PUSH32 0x7FFFFFFFFFFFFFFFFFFFFFFFFFFFFFFFFFFFFFFFFFFFFFFFFFFFFFFFFFFFFFFF SDIV DUP3 SLT PUSH1 0x0 DUP5 SLT PUSH1 0x0 DUP5 SLT AND AND ISZERO PUSH2 0xAA9 JUMPI PUSH2 0xAA8 PUSH2 0x6B8 JUMP JUMPDEST JUMPDEST DUP3 DUP3 MUL SWAP1 POP SWAP3 SWAP2 POP POP JUMP INVALID LOG2 PUSH5 0x6970667358 0x22 SLT KECCAK256 0xB7 SWAP12 0x2D 0xBB PUSH23 0x526564A21FC74179C58BF331414924153F501F0967EABA 0x1E 0x24 0xD SDIV PUSH5 0x736F6C6343 STOP ADDMOD 0xE STOP CALLER "
				},
				"gasEstimates": {
					"creation": {
						"codeDepositCost": "558800",
						"executionCost": "22700",
						"totalCost": "581500"
					},
					"external": {
						"Fund()": "infinite",
						"Withdraw()": "infinite",
						"addreddToAmountFeed(address)": "2814",
						"fundersList(uint256)": "4934",
						"minimumFund()": "2473"
					}
				},
				"methodIdentifiers": {
					"Fund()": "6ce1417e",
					"Withdraw()": "57ea89b6",
					"addreddToAmountFeed(address)": "520fcd61",
					"fundersList(uint256)": "47ff62c6",
					"minimumFund()": "66b30f06"
				}
			},
			"storageLayout": {
				"storage": [
					{
						"astId": 56,
						"contract": "contracts/FundMe.sol:FundMe",
						"label": "minimumFund",
						"offset": 0,
						"slot": "0",
						"type": "t_uint256"
					},
					{
						"astId": 59,
						"contract": "contracts/FundMe.sol:FundMe",
						"label": "fundersList",
						"offset": 0,
						"slot": "1",
						"type": "t_array(t_address)dyn_storage"
					},
					{
						"astId": 63,
						"contract": "contracts/FundMe.sol:FundMe",
						"label": "addreddToAmountFeed",
						"offset": 0,
						"slot": "2",
						"type": "t_mapping(t_address,t_uint256)"
					}
				],
				"types": {
					"t_address": {
						"encoding": "inplace",
						"label": "address",
						"numberOfBytes": "20"
					},
					"t_array(t_address)dyn_storage": {
						"base": "t_address",
						"encoding": "dynamic_array",
						"label": "address[]",
						"numberOfBytes": "32"
					},
					"t_mapping(t_address,t_uint256)": {
						"encoding": "mapping",
						"key": "t_address",
						"label": "mapping(address => uint256)",
						"numberOfBytes": "32",
						"value": "t_uint256"
					},
					"t_uint256": {
						"encoding": "inplace",
						"label": "uint256",
						"numberOfBytes": "32"
					}
				}
			},
			"userdoc": {
				"kind": "user",
				"methods": {},
				"version": 1
			}
		}
	}
}