{
	"contracts/FundMe.sol": {
		"FundMe": {
			"abi": [
				{
					"inputs": [],
					"name": "Fund",
					"outputs": [],
					"stateMutability": "payable",
					"type": "function"
				},
				{
					"inputs": [],
					"name": "GetPrice",
					"outputs": [],
					"stateMutability": "nonpayable",
					"type": "function"
				},
				{
					"inputs": [],
					"name": "GetVersion",
					"outputs": [
						{
							"internalType": "uint256",
							"name": "",
							"type": "uint256"
						}
					],
					"stateMutability": "view",
					"type": "function"
				},
				{
					"inputs": [],
					"name": "minimumFund",
					"outputs": [
						{
							"internalType": "uint256",
							"name": "",
							"type": "uint256"
						}
					],
					"stateMutability": "view",
					"type": "function"
				}
			],
			"devdoc": {
				"kind": "dev",
				"methods": {},
				"version": 1
			},
			"evm": {
				"assembly": "    /* \"contracts/FundMe.sol\":144:994  contract FundMe{... */\n  mstore(0x40, 0x80)\n    /* \"contracts/FundMe.sol\":197:199  50 */\n  0x32\n    /* \"contracts/FundMe.sol\":168:199  uint256 public minimumFund = 50 */\n  0x00\n  sstore\n    /* \"contracts/FundMe.sol\":144:994  contract FundMe{... */\n  callvalue\n  dup1\n  iszero\n  tag_1\n  jumpi\n  0x00\n  dup1\n  revert\ntag_1:\n  pop\n  dataSize(sub_0)\n  dup1\n  dataOffset(sub_0)\n  0x00\n  codecopy\n  0x00\n  return\nstop\n\nsub_0: assembly {\n        /* \"contracts/FundMe.sol\":144:994  contract FundMe{... */\n      mstore(0x40, 0x80)\n      jumpi(tag_1, lt(calldatasize, 0x04))\n      shr(0xe0, calldataload(0x00))\n      dup1\n      0x66b30f06\n      eq\n      tag_2\n      jumpi\n      dup1\n      0x6ce1417e\n      eq\n      tag_3\n      jumpi\n      dup1\n      0x6d90164e\n      eq\n      tag_4\n      jumpi\n      dup1\n      0xc6129a5a\n      eq\n      tag_5\n      jumpi\n    tag_1:\n      0x00\n      dup1\n      revert\n        /* \"contracts/FundMe.sol\":168:199  uint256 public minimumFund = 50 */\n    tag_2:\n      callvalue\n      dup1\n      iszero\n      tag_6\n      jumpi\n      0x00\n      dup1\n      revert\n    tag_6:\n      pop\n      tag_7\n      tag_8\n      jump\t// in\n    tag_7:\n      mload(0x40)\n      tag_9\n      swap2\n      swap1\n      tag_10\n      jump\t// in\n    tag_9:\n      mload(0x40)\n      dup1\n      swap2\n      sub\n      swap1\n      return\n        /* \"contracts/FundMe.sol\":280:384  function Fund() public payable{... */\n    tag_3:\n      tag_11\n      tag_12\n      jump\t// in\n    tag_11:\n      stop\n        /* \"contracts/FundMe.sol\":392:737  function GetPrice() public{... */\n    tag_4:\n      callvalue\n      dup1\n      iszero\n      tag_13\n      jumpi\n      0x00\n      dup1\n      revert\n    tag_13:\n      pop\n      tag_14\n      tag_15\n      jump\t// in\n    tag_14:\n      stop\n        /* \"contracts/FundMe.sol\":745:950  function GetVersion() public view returns(uint256){... */\n    tag_5:\n      callvalue\n      dup1\n      iszero\n      tag_16\n      jumpi\n      0x00\n      dup1\n      revert\n    tag_16:\n      pop\n      tag_17\n      tag_18\n      jump\t// in\n    tag_17:\n      mload(0x40)\n      tag_19\n      swap2\n      swap1\n      tag_10\n      jump\t// in\n    tag_19:\n      mload(0x40)\n      dup1\n      swap2\n      sub\n      swap1\n      return\n        /* \"contracts/FundMe.sol\":168:199  uint256 public minimumFund = 50 */\n    tag_8:\n      sload(0x00)\n      dup2\n      jump\t// out\n        /* \"contracts/FundMe.sol\":280:384  function Fund() public payable{... */\n    tag_12:\n        /* \"contracts/FundMe.sol\":342:353  minimumFund */\n      sload(0x00)\n        /* \"contracts/FundMe.sol\":329:338  msg.value */\n      callvalue\n        /* \"contracts/FundMe.sol\":329:353  msg.value >= minimumFund */\n      lt\n      iszero\n        /* \"contracts/FundMe.sol\":321:376  require(msg.value >= minimumFund, \"Didn't send enough\") */\n      tag_21\n      jumpi\n      mload(0x40)\n      0x08c379a000000000000000000000000000000000000000000000000000000000\n      dup2\n      mstore\n      0x04\n      add\n      tag_22\n      swap1\n      tag_23\n      jump\t// in\n    tag_22:\n      mload(0x40)\n      dup1\n      swap2\n      sub\n      swap1\n      revert\n    tag_21:\n        /* \"contracts/FundMe.sol\":280:384  function Fund() public payable{... */\n      jump\t// out\n        /* \"contracts/FundMe.sol\":392:737  function GetPrice() public{... */\n    tag_15:\n        /* \"contracts/FundMe.sol\":429:460  AggregatorV3Interface priceFeed */\n      0x00\n        /* \"contracts/FundMe.sol\":485:527  0x8A753747A1Fa494EC906cE90E9f37563A8AF630e */\n      0x8a753747a1fa494ec906ce90e9f37563a8af630e\n        /* \"contracts/FundMe.sol\":429:528  AggregatorV3Interface priceFeed = AggregatorV3Interface(0x8A753747A1Fa494EC906cE90E9f37563A8AF630e) */\n      swap1\n      pop\n        /* \"contracts/FundMe.sol\":555:569  uint80 roundID */\n      0x00\n        /* \"contracts/FundMe.sol\":584:593  int price */\n      dup1\n        /* \"contracts/FundMe.sol\":608:622  uint startedAt */\n      0x00\n        /* \"contracts/FundMe.sol\":637:651  uint timeStamp */\n      dup1\n        /* \"contracts/FundMe.sol\":666:688  uint80 answeredInRound */\n      0x00\n        /* \"contracts/FundMe.sol\":702:711  priceFeed */\n      dup6\n        /* \"contracts/FundMe.sol\":702:727  priceFeed.latestRoundData */\n      0xffffffffffffffffffffffffffffffffffffffff\n      and\n      0xfeaf968c\n        /* \"contracts/FundMe.sol\":702:729  priceFeed.latestRoundData() */\n      mload(0x40)\n      dup2\n      0xffffffff\n      and\n      0xe0\n      shl\n      dup2\n      mstore\n      0x04\n      add\n      0xa0\n      mload(0x40)\n      dup1\n      dup4\n      sub\n      dup2\n      dup7\n      gas\n      staticcall\n      iszero\n      dup1\n      iszero\n      tag_26\n      jumpi\n      returndatasize\n      0x00\n      dup1\n      returndatacopy\n      revert(0x00, returndatasize)\n    tag_26:\n      pop\n      pop\n      pop\n      pop\n      mload(0x40)\n      returndatasize\n      not(0x1f)\n      0x1f\n      dup3\n      add\n      and\n      dup3\n      add\n      dup1\n      0x40\n      mstore\n      pop\n      dup2\n      add\n      swap1\n      tag_27\n      swap2\n      swap1\n      tag_28\n      jump\t// in\n    tag_27:\n        /* \"contracts/FundMe.sol\":540:729  (... */\n      swap5\n      pop\n      swap5\n      pop\n      swap5\n      pop\n      swap5\n      pop\n      swap5\n      pop\n        /* \"contracts/FundMe.sol\":418:737  {... */\n      pop\n      pop\n      pop\n      pop\n      pop\n      pop\n        /* \"contracts/FundMe.sol\":392:737  function GetPrice() public{... */\n      jump\t// out\n        /* \"contracts/FundMe.sol\":745:950  function GetVersion() public view returns(uint256){... */\n    tag_18:\n        /* \"contracts/FundMe.sol\":787:794  uint256 */\n      0x00\n        /* \"contracts/FundMe.sol\":806:837  AggregatorV3Interface priceFeed */\n      dup1\n        /* \"contracts/FundMe.sol\":862:904  0x8A753747A1Fa494EC906cE90E9f37563A8AF630e */\n      0x8a753747a1fa494ec906ce90e9f37563a8af630e\n        /* \"contracts/FundMe.sol\":806:905  AggregatorV3Interface priceFeed = AggregatorV3Interface(0x8A753747A1Fa494EC906cE90E9f37563A8AF630e) */\n      swap1\n      pop\n        /* \"contracts/FundMe.sol\":923:932  priceFeed */\n      dup1\n        /* \"contracts/FundMe.sol\":923:940  priceFeed.version */\n      0xffffffffffffffffffffffffffffffffffffffff\n      and\n      0x54fd4d50\n        /* \"contracts/FundMe.sol\":923:942  priceFeed.version() */\n      mload(0x40)\n      dup2\n      0xffffffff\n      and\n      0xe0\n      shl\n      dup2\n      mstore\n      0x04\n      add\n      0x20\n      mload(0x40)\n      dup1\n      dup4\n      sub\n      dup2\n      dup7\n      gas\n      staticcall\n      iszero\n      dup1\n      iszero\n      tag_31\n      jumpi\n      returndatasize\n      0x00\n      dup1\n      returndatacopy\n      revert(0x00, returndatasize)\n    tag_31:\n      pop\n      pop\n      pop\n      pop\n      mload(0x40)\n      returndatasize\n      not(0x1f)\n      0x1f\n      dup3\n      add\n      and\n      dup3\n      add\n      dup1\n      0x40\n      mstore\n      pop\n      dup2\n      add\n      swap1\n      tag_32\n      swap2\n      swap1\n      tag_33\n      jump\t// in\n    tag_32:\n        /* \"contracts/FundMe.sol\":916:942  return priceFeed.version() */\n      swap2\n      pop\n      pop\n        /* \"contracts/FundMe.sol\":745:950  function GetVersion() public view returns(uint256){... */\n      swap1\n      jump\t// out\n        /* \"#utility.yul\":7:84   */\n    tag_34:\n        /* \"#utility.yul\":44:51   */\n      0x00\n        /* \"#utility.yul\":73:78   */\n      dup2\n        /* \"#utility.yul\":62:78   */\n      swap1\n      pop\n        /* \"#utility.yul\":7:84   */\n      swap2\n      swap1\n      pop\n      jump\t// out\n        /* \"#utility.yul\":90:208   */\n    tag_35:\n        /* \"#utility.yul\":177:201   */\n      tag_53\n        /* \"#utility.yul\":195:200   */\n      dup2\n        /* \"#utility.yul\":177:201   */\n      tag_34\n      jump\t// in\n    tag_53:\n        /* \"#utility.yul\":172:175   */\n      dup3\n        /* \"#utility.yul\":165:202   */\n      mstore\n        /* \"#utility.yul\":90:208   */\n      pop\n      pop\n      jump\t// out\n        /* \"#utility.yul\":214:436   */\n    tag_10:\n        /* \"#utility.yul\":307:311   */\n      0x00\n        /* \"#utility.yul\":345:347   */\n      0x20\n        /* \"#utility.yul\":334:343   */\n      dup3\n        /* \"#utility.yul\":330:348   */\n      add\n        /* \"#utility.yul\":322:348   */\n      swap1\n      pop\n        /* \"#utility.yul\":358:429   */\n      tag_55\n        /* \"#utility.yul\":426:427   */\n      0x00\n        /* \"#utility.yul\":415:424   */\n      dup4\n        /* \"#utility.yul\":411:428   */\n      add\n        /* \"#utility.yul\":402:408   */\n      dup5\n        /* \"#utility.yul\":358:429   */\n      tag_35\n      jump\t// in\n    tag_55:\n        /* \"#utility.yul\":214:436   */\n      swap3\n      swap2\n      pop\n      pop\n      jump\t// out\n        /* \"#utility.yul\":442:611   */\n    tag_36:\n        /* \"#utility.yul\":526:537   */\n      0x00\n        /* \"#utility.yul\":560:566   */\n      dup3\n        /* \"#utility.yul\":555:558   */\n      dup3\n        /* \"#utility.yul\":548:567   */\n      mstore\n        /* \"#utility.yul\":600:604   */\n      0x20\n        /* \"#utility.yul\":595:598   */\n      dup3\n        /* \"#utility.yul\":591:605   */\n      add\n        /* \"#utility.yul\":576:605   */\n      swap1\n      pop\n        /* \"#utility.yul\":442:611   */\n      swap3\n      swap2\n      pop\n      pop\n      jump\t// out\n        /* \"#utility.yul\":617:785   */\n    tag_37:\n        /* \"#utility.yul\":757:777   */\n      0x4469646e27742073656e6420656e6f7567680000000000000000000000000000\n        /* \"#utility.yul\":753:754   */\n      0x00\n        /* \"#utility.yul\":745:751   */\n      dup3\n        /* \"#utility.yul\":741:755   */\n      add\n        /* \"#utility.yul\":734:778   */\n      mstore\n        /* \"#utility.yul\":617:785   */\n      pop\n      jump\t// out\n        /* \"#utility.yul\":791:1157   */\n    tag_38:\n        /* \"#utility.yul\":933:936   */\n      0x00\n        /* \"#utility.yul\":954:1021   */\n      tag_59\n        /* \"#utility.yul\":1018:1020   */\n      0x12\n        /* \"#utility.yul\":1013:1016   */\n      dup4\n        /* \"#utility.yul\":954:1021   */\n      tag_36\n      jump\t// in\n    tag_59:\n        /* \"#utility.yul\":947:1021   */\n      swap2\n      pop\n        /* \"#utility.yul\":1030:1123   */\n      tag_60\n        /* \"#utility.yul\":1119:1122   */\n      dup3\n        /* \"#utility.yul\":1030:1123   */\n      tag_37\n      jump\t// in\n    tag_60:\n        /* \"#utility.yul\":1148:1150   */\n      0x20\n        /* \"#utility.yul\":1143:1146   */\n      dup3\n        /* \"#utility.yul\":1139:1151   */\n      add\n        /* \"#utility.yul\":1132:1151   */\n      swap1\n      pop\n        /* \"#utility.yul\":791:1157   */\n      swap2\n      swap1\n      pop\n      jump\t// out\n        /* \"#utility.yul\":1163:1582   */\n    tag_23:\n        /* \"#utility.yul\":1329:1333   */\n      0x00\n        /* \"#utility.yul\":1367:1369   */\n      0x20\n        /* \"#utility.yul\":1356:1365   */\n      dup3\n        /* \"#utility.yul\":1352:1370   */\n      add\n        /* \"#utility.yul\":1344:1370   */\n      swap1\n      pop\n        /* \"#utility.yul\":1416:1425   */\n      dup2\n        /* \"#utility.yul\":1410:1414   */\n      dup2\n        /* \"#utility.yul\":1406:1426   */\n      sub\n        /* \"#utility.yul\":1402:1403   */\n      0x00\n        /* \"#utility.yul\":1391:1400   */\n      dup4\n        /* \"#utility.yul\":1387:1404   */\n      add\n        /* \"#utility.yul\":1380:1427   */\n      mstore\n        /* \"#utility.yul\":1444:1575   */\n      tag_62\n        /* \"#utility.yul\":1570:1574   */\n      dup2\n        /* \"#utility.yul\":1444:1575   */\n      tag_38\n      jump\t// in\n    tag_62:\n        /* \"#utility.yul\":1436:1575   */\n      swap1\n      pop\n        /* \"#utility.yul\":1163:1582   */\n      swap2\n      swap1\n      pop\n      jump\t// out\n        /* \"#utility.yul\":1669:1786   */\n    tag_40:\n        /* \"#utility.yul\":1778:1779   */\n      0x00\n        /* \"#utility.yul\":1775:1776   */\n      dup1\n        /* \"#utility.yul\":1768:1780   */\n      revert\n        /* \"#utility.yul\":1915:2020   */\n    tag_42:\n        /* \"#utility.yul\":1951:1958   */\n      0x00\n        /* \"#utility.yul\":1991:2013   */\n      0xffffffffffffffffffff\n        /* \"#utility.yul\":1984:1989   */\n      dup3\n        /* \"#utility.yul\":1980:2014   */\n      and\n        /* \"#utility.yul\":1969:2014   */\n      swap1\n      pop\n        /* \"#utility.yul\":1915:2020   */\n      swap2\n      swap1\n      pop\n      jump\t// out\n        /* \"#utility.yul\":2026:2146   */\n    tag_43:\n        /* \"#utility.yul\":2098:2121   */\n      tag_68\n        /* \"#utility.yul\":2115:2120   */\n      dup2\n        /* \"#utility.yul\":2098:2121   */\n      tag_42\n      jump\t// in\n    tag_68:\n        /* \"#utility.yul\":2091:2096   */\n      dup2\n        /* \"#utility.yul\":2088:2122   */\n      eq\n        /* \"#utility.yul\":2078:2140   */\n      tag_69\n      jumpi\n        /* \"#utility.yul\":2136:2137   */\n      0x00\n        /* \"#utility.yul\":2133:2134   */\n      dup1\n        /* \"#utility.yul\":2126:2138   */\n      revert\n        /* \"#utility.yul\":2078:2140   */\n    tag_69:\n        /* \"#utility.yul\":2026:2146   */\n      pop\n      jump\t// out\n        /* \"#utility.yul\":2152:2293   */\n    tag_44:\n        /* \"#utility.yul\":2208:2213   */\n      0x00\n        /* \"#utility.yul\":2239:2245   */\n      dup2\n        /* \"#utility.yul\":2233:2246   */\n      mload\n        /* \"#utility.yul\":2224:2246   */\n      swap1\n      pop\n        /* \"#utility.yul\":2255:2287   */\n      tag_71\n        /* \"#utility.yul\":2281:2286   */\n      dup2\n        /* \"#utility.yul\":2255:2287   */\n      tag_43\n      jump\t// in\n    tag_71:\n        /* \"#utility.yul\":2152:2293   */\n      swap3\n      swap2\n      pop\n      pop\n      jump\t// out\n        /* \"#utility.yul\":2299:2375   */\n    tag_45:\n        /* \"#utility.yul\":2335:2342   */\n      0x00\n        /* \"#utility.yul\":2364:2369   */\n      dup2\n        /* \"#utility.yul\":2353:2369   */\n      swap1\n      pop\n        /* \"#utility.yul\":2299:2375   */\n      swap2\n      swap1\n      pop\n      jump\t// out\n        /* \"#utility.yul\":2381:2501   */\n    tag_46:\n        /* \"#utility.yul\":2453:2476   */\n      tag_74\n        /* \"#utility.yul\":2470:2475   */\n      dup2\n        /* \"#utility.yul\":2453:2476   */\n      tag_45\n      jump\t// in\n    tag_74:\n        /* \"#utility.yul\":2446:2451   */\n      dup2\n        /* \"#utility.yul\":2443:2477   */\n      eq\n        /* \"#utility.yul\":2433:2495   */\n      tag_75\n      jumpi\n        /* \"#utility.yul\":2491:2492   */\n      0x00\n        /* \"#utility.yul\":2488:2489   */\n      dup1\n        /* \"#utility.yul\":2481:2493   */\n      revert\n        /* \"#utility.yul\":2433:2495   */\n    tag_75:\n        /* \"#utility.yul\":2381:2501   */\n      pop\n      jump\t// out\n        /* \"#utility.yul\":2507:2648   */\n    tag_47:\n        /* \"#utility.yul\":2563:2568   */\n      0x00\n        /* \"#utility.yul\":2594:2600   */\n      dup2\n        /* \"#utility.yul\":2588:2601   */\n      mload\n        /* \"#utility.yul\":2579:2601   */\n      swap1\n      pop\n        /* \"#utility.yul\":2610:2642   */\n      tag_77\n        /* \"#utility.yul\":2636:2641   */\n      dup2\n        /* \"#utility.yul\":2610:2642   */\n      tag_46\n      jump\t// in\n    tag_77:\n        /* \"#utility.yul\":2507:2648   */\n      swap3\n      swap2\n      pop\n      pop\n      jump\t// out\n        /* \"#utility.yul\":2654:2776   */\n    tag_48:\n        /* \"#utility.yul\":2727:2751   */\n      tag_79\n        /* \"#utility.yul\":2745:2750   */\n      dup2\n        /* \"#utility.yul\":2727:2751   */\n      tag_34\n      jump\t// in\n    tag_79:\n        /* \"#utility.yul\":2720:2725   */\n      dup2\n        /* \"#utility.yul\":2717:2752   */\n      eq\n        /* \"#utility.yul\":2707:2770   */\n      tag_80\n      jumpi\n        /* \"#utility.yul\":2766:2767   */\n      0x00\n        /* \"#utility.yul\":2763:2764   */\n      dup1\n        /* \"#utility.yul\":2756:2768   */\n      revert\n        /* \"#utility.yul\":2707:2770   */\n    tag_80:\n        /* \"#utility.yul\":2654:2776   */\n      pop\n      jump\t// out\n        /* \"#utility.yul\":2782:2925   */\n    tag_49:\n        /* \"#utility.yul\":2839:2844   */\n      0x00\n        /* \"#utility.yul\":2870:2876   */\n      dup2\n        /* \"#utility.yul\":2864:2877   */\n      mload\n        /* \"#utility.yul\":2855:2877   */\n      swap1\n      pop\n        /* \"#utility.yul\":2886:2919   */\n      tag_82\n        /* \"#utility.yul\":2913:2918   */\n      dup2\n        /* \"#utility.yul\":2886:2919   */\n      tag_48\n      jump\t// in\n    tag_82:\n        /* \"#utility.yul\":2782:2925   */\n      swap3\n      swap2\n      pop\n      pop\n      jump\t// out\n        /* \"#utility.yul\":2931:3902   */\n    tag_28:\n        /* \"#utility.yul\":3034:3040   */\n      0x00\n        /* \"#utility.yul\":3042:3048   */\n      dup1\n        /* \"#utility.yul\":3050:3056   */\n      0x00\n        /* \"#utility.yul\":3058:3064   */\n      dup1\n        /* \"#utility.yul\":3066:3072   */\n      0x00\n        /* \"#utility.yul\":3115:3118   */\n      0xa0\n        /* \"#utility.yul\":3103:3112   */\n      dup7\n        /* \"#utility.yul\":3094:3101   */\n      dup9\n        /* \"#utility.yul\":3090:3113   */\n      sub\n        /* \"#utility.yul\":3086:3119   */\n      slt\n        /* \"#utility.yul\":3083:3203   */\n      iszero\n      tag_84\n      jumpi\n        /* \"#utility.yul\":3122:3201   */\n      tag_85\n      tag_40\n      jump\t// in\n    tag_85:\n        /* \"#utility.yul\":3083:3203   */\n    tag_84:\n        /* \"#utility.yul\":3242:3243   */\n      0x00\n        /* \"#utility.yul\":3267:3330   */\n      tag_86\n        /* \"#utility.yul\":3322:3329   */\n      dup9\n        /* \"#utility.yul\":3313:3319   */\n      dup3\n        /* \"#utility.yul\":3302:3311   */\n      dup10\n        /* \"#utility.yul\":3298:3320   */\n      add\n        /* \"#utility.yul\":3267:3330   */\n      tag_44\n      jump\t// in\n    tag_86:\n        /* \"#utility.yul\":3257:3330   */\n      swap6\n      pop\n        /* \"#utility.yul\":3213:3340   */\n      pop\n        /* \"#utility.yul\":3379:3381   */\n      0x20\n        /* \"#utility.yul\":3405:3468   */\n      tag_87\n        /* \"#utility.yul\":3460:3467   */\n      dup9\n        /* \"#utility.yul\":3451:3457   */\n      dup3\n        /* \"#utility.yul\":3440:3449   */\n      dup10\n        /* \"#utility.yul\":3436:3458   */\n      add\n        /* \"#utility.yul\":3405:3468   */\n      tag_47\n      jump\t// in\n    tag_87:\n        /* \"#utility.yul\":3395:3468   */\n      swap5\n      pop\n        /* \"#utility.yul\":3350:3478   */\n      pop\n        /* \"#utility.yul\":3517:3519   */\n      0x40\n        /* \"#utility.yul\":3543:3607   */\n      tag_88\n        /* \"#utility.yul\":3599:3606   */\n      dup9\n        /* \"#utility.yul\":3590:3596   */\n      dup3\n        /* \"#utility.yul\":3579:3588   */\n      dup10\n        /* \"#utility.yul\":3575:3597   */\n      add\n        /* \"#utility.yul\":3543:3607   */\n      tag_49\n      jump\t// in\n    tag_88:\n        /* \"#utility.yul\":3533:3607   */\n      swap4\n      pop\n        /* \"#utility.yul\":3488:3617   */\n      pop\n        /* \"#utility.yul\":3656:3658   */\n      0x60\n        /* \"#utility.yul\":3682:3746   */\n      tag_89\n        /* \"#utility.yul\":3738:3745   */\n      dup9\n        /* \"#utility.yul\":3729:3735   */\n      dup3\n        /* \"#utility.yul\":3718:3727   */\n      dup10\n        /* \"#utility.yul\":3714:3736   */\n      add\n        /* \"#utility.yul\":3682:3746   */\n      tag_49\n      jump\t// in\n    tag_89:\n        /* \"#utility.yul\":3672:3746   */\n      swap3\n      pop\n        /* \"#utility.yul\":3627:3756   */\n      pop\n        /* \"#utility.yul\":3795:3798   */\n      0x80\n        /* \"#utility.yul\":3822:3885   */\n      tag_90\n        /* \"#utility.yul\":3877:3884   */\n      dup9\n        /* \"#utility.yul\":3868:3874   */\n      dup3\n        /* \"#utility.yul\":3857:3866   */\n      dup10\n        /* \"#utility.yul\":3853:3875   */\n      add\n        /* \"#utility.yul\":3822:3885   */\n      tag_44\n      jump\t// in\n    tag_90:\n        /* \"#utility.yul\":3812:3885   */\n      swap2\n      pop\n        /* \"#utility.yul\":3766:3895   */\n      pop\n        /* \"#utility.yul\":2931:3902   */\n      swap3\n      swap6\n      pop\n      swap3\n      swap6\n      swap1\n      swap4\n      pop\n      jump\t// out\n        /* \"#utility.yul\":3908:4259   */\n    tag_33:\n        /* \"#utility.yul\":3978:3984   */\n      0x00\n        /* \"#utility.yul\":4027:4029   */\n      0x20\n        /* \"#utility.yul\":4015:4024   */\n      dup3\n        /* \"#utility.yul\":4006:4013   */\n      dup5\n        /* \"#utility.yul\":4002:4025   */\n      sub\n        /* \"#utility.yul\":3998:4030   */\n      slt\n        /* \"#utility.yul\":3995:4114   */\n      iszero\n      tag_92\n      jumpi\n        /* \"#utility.yul\":4033:4112   */\n      tag_93\n      tag_40\n      jump\t// in\n    tag_93:\n        /* \"#utility.yul\":3995:4114   */\n    tag_92:\n        /* \"#utility.yul\":4153:4154   */\n      0x00\n        /* \"#utility.yul\":4178:4242   */\n      tag_94\n        /* \"#utility.yul\":4234:4241   */\n      dup5\n        /* \"#utility.yul\":4225:4231   */\n      dup3\n        /* \"#utility.yul\":4214:4223   */\n      dup6\n        /* \"#utility.yul\":4210:4232   */\n      add\n        /* \"#utility.yul\":4178:4242   */\n      tag_49\n      jump\t// in\n    tag_94:\n        /* \"#utility.yul\":4168:4242   */\n      swap2\n      pop\n        /* \"#utility.yul\":4124:4252   */\n      pop\n        /* \"#utility.yul\":3908:4259   */\n      swap3\n      swap2\n      pop\n      pop\n      jump\t// out\n\n    auxdata: 0xa2646970667358221220a164e0d68b312010a942512bdb39b312bc62e1a34e74fb1ce107248e54be2f0064736f6c634300080d0033\n}\n",
				"bytecode": {
					"linkReferences": {},
					"object": "6080604052603260005534801561001557600080fd5b50610471806100256000396000f3fe60806040526004361061003f5760003560e01c806366b30f06146100445780636ce1417e1461006f5780636d90164e14610079578063c6129a5a14610090575b600080fd5b34801561005057600080fd5b506100596100bb565b6040516100669190610252565b60405180910390f35b6100776100c1565b005b34801561008557600080fd5b5061008e610108565b005b34801561009c57600080fd5b506100a56101aa565b6040516100b29190610252565b60405180910390f35b60005481565b600054341015610106576040517f08c379a00000000000000000000000000000000000000000000000000000000081526004016100fd906102ca565b60405180910390fd5b565b6000738a753747a1fa494ec906ce90e9f37563a8af630e905060008060008060008573ffffffffffffffffffffffffffffffffffffffff1663feaf968c6040518163ffffffff1660e01b815260040160a060405180830381865afa158015610174573d6000803e3d6000fd5b505050506040513d601f19601f820116820180604052508101906101989190610393565b94509450945094509450505050505050565b600080738a753747a1fa494ec906ce90e9f37563a8af630e90508073ffffffffffffffffffffffffffffffffffffffff166354fd4d506040518163ffffffff1660e01b8152600401602060405180830381865afa15801561020f573d6000803e3d6000fd5b505050506040513d601f19601f82011682018060405250810190610233919061040e565b91505090565b6000819050919050565b61024c81610239565b82525050565b60006020820190506102676000830184610243565b92915050565b600082825260208201905092915050565b7f4469646e27742073656e6420656e6f7567680000000000000000000000000000600082015250565b60006102b460128361026d565b91506102bf8261027e565b602082019050919050565b600060208201905081810360008301526102e3816102a7565b9050919050565b600080fd5b600069ffffffffffffffffffff82169050919050565b61030e816102ef565b811461031957600080fd5b50565b60008151905061032b81610305565b92915050565b6000819050919050565b61034481610331565b811461034f57600080fd5b50565b6000815190506103618161033b565b92915050565b61037081610239565b811461037b57600080fd5b50565b60008151905061038d81610367565b92915050565b600080600080600060a086880312156103af576103ae6102ea565b5b60006103bd8882890161031c565b95505060206103ce88828901610352565b94505060406103df8882890161037e565b93505060606103f08882890161037e565b92505060806104018882890161031c565b9150509295509295909350565b600060208284031215610424576104236102ea565b5b60006104328482850161037e565b9150509291505056fea2646970667358221220a164e0d68b312010a942512bdb39b312bc62e1a34e74fb1ce107248e54be2f0064736f6c634300080d0033",
					"opcodes": "PUSH1 0x80 PUSH1 0x40 MSTORE PUSH1 0x32 PUSH1 0x0 SSTORE CALLVALUE DUP1 ISZERO PUSH2 0x15 JUMPI PUSH1 0x0 DUP1 REVERT JUMPDEST POP PUSH2 0x471 DUP1 PUSH2 0x25 PUSH1 0x0 CODECOPY PUSH1 0x0 RETURN INVALID PUSH1 0x80 PUSH1 0x40 MSTORE PUSH1 0x4 CALLDATASIZE LT PUSH2 0x3F JUMPI PUSH1 0x0 CALLDATALOAD PUSH1 0xE0 SHR DUP1 PUSH4 0x66B30F06 EQ PUSH2 0x44 JUMPI DUP1 PUSH4 0x6CE1417E EQ PUSH2 0x6F JUMPI DUP1 PUSH4 0x6D90164E EQ PUSH2 0x79 JUMPI DUP1 PUSH4 0xC6129A5A EQ PUSH2 0x90 JUMPI JUMPDEST PUSH1 0x0 DUP1 REVERT JUMPDEST CALLVALUE DUP1 ISZERO PUSH2 0x50 JUMPI PUSH1 0x0 DUP1 REVERT JUMPDEST POP PUSH2 0x59 PUSH2 0xBB JUMP JUMPDEST PUSH1 0x40 MLOAD PUSH2 0x66 SWAP2 SWAP1 PUSH2 0x252 JUMP JUMPDEST PUSH1 0x40 MLOAD DUP1 SWAP2 SUB SWAP1 RETURN JUMPDEST PUSH2 0x77 PUSH2 0xC1 JUMP JUMPDEST STOP JUMPDEST CALLVALUE DUP1 ISZERO PUSH2 0x85 JUMPI PUSH1 0x0 DUP1 REVERT JUMPDEST POP PUSH2 0x8E PUSH2 0x108 JUMP JUMPDEST STOP JUMPDEST CALLVALUE DUP1 ISZERO PUSH2 0x9C JUMPI PUSH1 0x0 DUP1 REVERT JUMPDEST POP PUSH2 0xA5 PUSH2 0x1AA JUMP JUMPDEST PUSH1 0x40 MLOAD PUSH2 0xB2 SWAP2 SWAP1 PUSH2 0x252 JUMP JUMPDEST PUSH1 0x40 MLOAD DUP1 SWAP2 SUB SWAP1 RETURN JUMPDEST PUSH1 0x0 SLOAD DUP2 JUMP JUMPDEST PUSH1 0x0 SLOAD CALLVALUE LT ISZERO PUSH2 0x106 JUMPI PUSH1 0x40 MLOAD PUSH32 0x8C379A000000000000000000000000000000000000000000000000000000000 DUP2 MSTORE PUSH1 0x4 ADD PUSH2 0xFD SWAP1 PUSH2 0x2CA JUMP JUMPDEST PUSH1 0x40 MLOAD DUP1 SWAP2 SUB SWAP1 REVERT JUMPDEST JUMP JUMPDEST PUSH1 0x0 PUSH20 0x8A753747A1FA494EC906CE90E9F37563A8AF630E SWAP1 POP PUSH1 0x0 DUP1 PUSH1 0x0 DUP1 PUSH1 0x0 DUP6 PUSH20 0xFFFFFFFFFFFFFFFFFFFFFFFFFFFFFFFFFFFFFFFF AND PUSH4 0xFEAF968C PUSH1 0x40 MLOAD DUP2 PUSH4 0xFFFFFFFF AND PUSH1 0xE0 SHL DUP2 MSTORE PUSH1 0x4 ADD PUSH1 0xA0 PUSH1 0x40 MLOAD DUP1 DUP4 SUB DUP2 DUP7 GAS STATICCALL ISZERO DUP1 ISZERO PUSH2 0x174 JUMPI RETURNDATASIZE PUSH1 0x0 DUP1 RETURNDATACOPY RETURNDATASIZE PUSH1 0x0 REVERT JUMPDEST POP POP POP POP PUSH1 0x40 MLOAD RETURNDATASIZE PUSH1 0x1F NOT PUSH1 0x1F DUP3 ADD AND DUP3 ADD DUP1 PUSH1 0x40 MSTORE POP DUP2 ADD SWAP1 PUSH2 0x198 SWAP2 SWAP1 PUSH2 0x393 JUMP JUMPDEST SWAP5 POP SWAP5 POP SWAP5 POP SWAP5 POP SWAP5 POP POP POP POP POP POP POP JUMP JUMPDEST PUSH1 0x0 DUP1 PUSH20 0x8A753747A1FA494EC906CE90E9F37563A8AF630E SWAP1 POP DUP1 PUSH20 0xFFFFFFFFFFFFFFFFFFFFFFFFFFFFFFFFFFFFFFFF AND PUSH4 0x54FD4D50 PUSH1 0x40 MLOAD DUP2 PUSH4 0xFFFFFFFF AND PUSH1 0xE0 SHL DUP2 MSTORE PUSH1 0x4 ADD PUSH1 0x20 PUSH1 0x40 MLOAD DUP1 DUP4 SUB DUP2 DUP7 GAS STATICCALL ISZERO DUP1 ISZERO PUSH2 0x20F JUMPI RETURNDATASIZE PUSH1 0x0 DUP1 RETURNDATACOPY RETURNDATASIZE PUSH1 0x0 REVERT JUMPDEST POP POP POP POP PUSH1 0x40 MLOAD RETURNDATASIZE PUSH1 0x1F NOT PUSH1 0x1F DUP3 ADD AND DUP3 ADD DUP1 PUSH1 0x40 MSTORE POP DUP2 ADD SWAP1 PUSH2 0x233 SWAP2 SWAP1 PUSH2 0x40E JUMP JUMPDEST SWAP2 POP POP SWAP1 JUMP JUMPDEST PUSH1 0x0 DUP2 SWAP1 POP SWAP2 SWAP1 POP JUMP JUMPDEST PUSH2 0x24C DUP2 PUSH2 0x239 JUMP JUMPDEST DUP3 MSTORE POP POP JUMP JUMPDEST PUSH1 0x0 PUSH1 0x20 DUP3 ADD SWAP1 POP PUSH2 0x267 PUSH1 0x0 DUP4 ADD DUP5 PUSH2 0x243 JUMP JUMPDEST SWAP3 SWAP2 POP POP JUMP JUMPDEST PUSH1 0x0 DUP3 DUP3 MSTORE PUSH1 0x20 DUP3 ADD SWAP1 POP SWAP3 SWAP2 POP POP JUMP JUMPDEST PUSH32 0x4469646E27742073656E6420656E6F7567680000000000000000000000000000 PUSH1 0x0 DUP3 ADD MSTORE POP JUMP JUMPDEST PUSH1 0x0 PUSH2 0x2B4 PUSH1 0x12 DUP4 PUSH2 0x26D JUMP JUMPDEST SWAP2 POP PUSH2 0x2BF DUP3 PUSH2 0x27E JUMP JUMPDEST PUSH1 0x20 DUP3 ADD SWAP1 POP SWAP2 SWAP1 POP JUMP JUMPDEST PUSH1 0x0 PUSH1 0x20 DUP3 ADD SWAP1 POP DUP2 DUP2 SUB PUSH1 0x0 DUP4 ADD MSTORE PUSH2 0x2E3 DUP2 PUSH2 0x2A7 JUMP JUMPDEST SWAP1 POP SWAP2 SWAP1 POP JUMP JUMPDEST PUSH1 0x0 DUP1 REVERT JUMPDEST PUSH1 0x0 PUSH10 0xFFFFFFFFFFFFFFFFFFFF DUP3 AND SWAP1 POP SWAP2 SWAP1 POP JUMP JUMPDEST PUSH2 0x30E DUP2 PUSH2 0x2EF JUMP JUMPDEST DUP2 EQ PUSH2 0x319 JUMPI PUSH1 0x0 DUP1 REVERT JUMPDEST POP JUMP JUMPDEST PUSH1 0x0 DUP2 MLOAD SWAP1 POP PUSH2 0x32B DUP2 PUSH2 0x305 JUMP JUMPDEST SWAP3 SWAP2 POP POP JUMP JUMPDEST PUSH1 0x0 DUP2 SWAP1 POP SWAP2 SWAP1 POP JUMP JUMPDEST PUSH2 0x344 DUP2 PUSH2 0x331 JUMP JUMPDEST DUP2 EQ PUSH2 0x34F JUMPI PUSH1 0x0 DUP1 REVERT JUMPDEST POP JUMP JUMPDEST PUSH1 0x0 DUP2 MLOAD SWAP1 POP PUSH2 0x361 DUP2 PUSH2 0x33B JUMP JUMPDEST SWAP3 SWAP2 POP POP JUMP JUMPDEST PUSH2 0x370 DUP2 PUSH2 0x239 JUMP JUMPDEST DUP2 EQ PUSH2 0x37B JUMPI PUSH1 0x0 DUP1 REVERT JUMPDEST POP JUMP JUMPDEST PUSH1 0x0 DUP2 MLOAD SWAP1 POP PUSH2 0x38D DUP2 PUSH2 0x367 JUMP JUMPDEST SWAP3 SWAP2 POP POP JUMP JUMPDEST PUSH1 0x0 DUP1 PUSH1 0x0 DUP1 PUSH1 0x0 PUSH1 0xA0 DUP7 DUP9 SUB SLT ISZERO PUSH2 0x3AF JUMPI PUSH2 0x3AE PUSH2 0x2EA JUMP JUMPDEST JUMPDEST PUSH1 0x0 PUSH2 0x3BD DUP9 DUP3 DUP10 ADD PUSH2 0x31C JUMP JUMPDEST SWAP6 POP POP PUSH1 0x20 PUSH2 0x3CE DUP9 DUP3 DUP10 ADD PUSH2 0x352 JUMP JUMPDEST SWAP5 POP POP PUSH1 0x40 PUSH2 0x3DF DUP9 DUP3 DUP10 ADD PUSH2 0x37E JUMP JUMPDEST SWAP4 POP POP PUSH1 0x60 PUSH2 0x3F0 DUP9 DUP3 DUP10 ADD PUSH2 0x37E JUMP JUMPDEST SWAP3 POP POP PUSH1 0x80 PUSH2 0x401 DUP9 DUP3 DUP10 ADD PUSH2 0x31C JUMP JUMPDEST SWAP2 POP POP SWAP3 SWAP6 POP SWAP3 SWAP6 SWAP1 SWAP4 POP JUMP JUMPDEST PUSH1 0x0 PUSH1 0x20 DUP3 DUP5 SUB SLT ISZERO PUSH2 0x424 JUMPI PUSH2 0x423 PUSH2 0x2EA JUMP JUMPDEST JUMPDEST PUSH1 0x0 PUSH2 0x432 DUP5 DUP3 DUP6 ADD PUSH2 0x37E JUMP JUMPDEST SWAP2 POP POP SWAP3 SWAP2 POP POP JUMP INVALID LOG2 PUSH5 0x6970667358 0x22 SLT KECCAK256 LOG1 PUSH5 0xE0D68B3120 LT 0xA9 TIMESTAMP MLOAD 0x2B 0xDB CODECOPY 0xB3 SLT 0xBC PUSH3 0xE1A34E PUSH21 0xFB1CE107248E54BE2F0064736F6C634300080D0033 "
				},
				"gasEstimates": {
					"creation": {
						"codeDepositCost": "227400",
						"executionCost": "22375",
						"totalCost": "249775"
					},
					"external": {
						"Fund()": "2534",
						"GetPrice()": "infinite",
						"GetVersion()": "infinite",
						"minimumFund()": "2407"
					}
				},
				"methodIdentifiers": {
					"Fund()": "6ce1417e",
					"GetPrice()": "6d90164e",
					"GetVersion()": "c6129a5a",
					"minimumFund()": "66b30f06"
				}
			},
			"storageLayout": {
				"storage": [
					{
						"astId": 51,
						"contract": "contracts/FundMe.sol:FundMe",
						"label": "minimumFund",
						"offset": 0,
						"slot": "0",
						"type": "t_uint256"
					}
				],
				"types": {
					"t_uint256": {
						"encoding": "inplace",
						"label": "uint256",
						"numberOfBytes": "32"
					}
				}
			},
			"userdoc": {
				"kind": "user",
				"methods": {},
				"version": 1
			}
		}
	}
}