{
	"contracts/FundMe.sol": {
		"FundMe": {
			"abi": [
				{
					"inputs": [],
					"name": "Fund",
					"outputs": [],
					"stateMutability": "payable",
					"type": "function"
				},
				{
					"inputs": [
						{
							"internalType": "uint256",
							"name": "_etherAmount",
							"type": "uint256"
						}
					],
					"name": "GetConversionRate",
					"outputs": [
						{
							"internalType": "uint256",
							"name": "",
							"type": "uint256"
						}
					],
					"stateMutability": "view",
					"type": "function"
				},
				{
					"inputs": [],
					"name": "GetPrice",
					"outputs": [
						{
							"internalType": "uint256",
							"name": "",
							"type": "uint256"
						}
					],
					"stateMutability": "view",
					"type": "function"
				},
				{
					"inputs": [],
					"name": "GetVersion",
					"outputs": [
						{
							"internalType": "uint256",
							"name": "",
							"type": "uint256"
						}
					],
					"stateMutability": "view",
					"type": "function"
				},
				{
					"inputs": [
						{
							"internalType": "uint256",
							"name": "",
							"type": "uint256"
						}
					],
					"name": "fundersList",
					"outputs": [
						{
							"internalType": "address",
							"name": "",
							"type": "address"
						}
					],
					"stateMutability": "view",
					"type": "function"
				},
				{
					"inputs": [],
					"name": "minimumFund",
					"outputs": [
						{
							"internalType": "uint256",
							"name": "",
							"type": "uint256"
						}
					],
					"stateMutability": "view",
					"type": "function"
				}
			],
			"devdoc": {
				"kind": "dev",
				"methods": {},
				"version": 1
			},
			"evm": {
				"assembly": "    /* \"contracts/FundMe.sol\":140:1288  contract FundMe{... */\n  mstore(0x40, 0x80)\n    /* \"contracts/FundMe.sol\":193:202  50 * 1e18 */\n  0x02b5e3af16b1880000\n    /* \"contracts/FundMe.sol\":164:202  uint256 public minimumFund = 50 * 1e18 */\n  0x00\n  sstore\n    /* \"contracts/FundMe.sol\":140:1288  contract FundMe{... */\n  callvalue\n  dup1\n  iszero\n  tag_1\n  jumpi\n  0x00\n  dup1\n  revert\ntag_1:\n  pop\n  dataSize(sub_0)\n  dup1\n  dataOffset(sub_0)\n  0x00\n  codecopy\n  0x00\n  return\nstop\n\nsub_0: assembly {\n        /* \"contracts/FundMe.sol\":140:1288  contract FundMe{... */\n      mstore(0x40, 0x80)\n      jumpi(tag_1, lt(calldatasize, 0x04))\n      shr(0xe0, calldataload(0x00))\n      dup1\n      0x47ff62c6\n      eq\n      tag_2\n      jumpi\n      dup1\n      0x66b30f06\n      eq\n      tag_3\n      jumpi\n      dup1\n      0x6ce1417e\n      eq\n      tag_4\n      jumpi\n      dup1\n      0x6d90164e\n      eq\n      tag_5\n      jumpi\n      dup1\n      0x793b233b\n      eq\n      tag_6\n      jumpi\n      dup1\n      0xc6129a5a\n      eq\n      tag_7\n      jumpi\n    tag_1:\n      0x00\n      dup1\n      revert\n        /* \"contracts/FundMe.sol\":209:237  address[] public fundersList */\n    tag_2:\n      callvalue\n      dup1\n      iszero\n      tag_8\n      jumpi\n      0x00\n      dup1\n      revert\n    tag_8:\n      pop\n      tag_9\n      0x04\n      dup1\n      calldatasize\n      sub\n      dup2\n      add\n      swap1\n      tag_10\n      swap2\n      swap1\n      tag_11\n      jump\t// in\n    tag_10:\n      tag_12\n      jump\t// in\n    tag_9:\n      mload(0x40)\n      tag_13\n      swap2\n      swap1\n      tag_14\n      jump\t// in\n    tag_13:\n      mload(0x40)\n      dup1\n      swap2\n      sub\n      swap1\n      return\n        /* \"contracts/FundMe.sol\":164:202  uint256 public minimumFund = 50 * 1e18 */\n    tag_3:\n      callvalue\n      dup1\n      iszero\n      tag_15\n      jumpi\n      0x00\n      dup1\n      revert\n    tag_15:\n      pop\n      tag_16\n      tag_17\n      jump\t// in\n    tag_16:\n      mload(0x40)\n      tag_18\n      swap2\n      swap1\n      tag_19\n      jump\t// in\n    tag_18:\n      mload(0x40)\n      dup1\n      swap2\n      sub\n      swap1\n      return\n        /* \"contracts/FundMe.sol\":246:524  function Fund() public payable{... */\n    tag_4:\n      tag_20\n      tag_21\n      jump\t// in\n    tag_20:\n      stop\n        /* \"contracts/FundMe.sol\":532:798  function GetPrice() public view returns(uint256){... */\n    tag_5:\n      callvalue\n      dup1\n      iszero\n      tag_22\n      jumpi\n      0x00\n      dup1\n      revert\n    tag_22:\n      pop\n      tag_23\n      tag_24\n      jump\t// in\n    tag_23:\n      mload(0x40)\n      tag_25\n      swap2\n      swap1\n      tag_19\n      jump\t// in\n    tag_25:\n      mload(0x40)\n      dup1\n      swap2\n      sub\n      swap1\n      return\n        /* \"contracts/FundMe.sol\":1019:1242  function GetConversionRate(uint256 _etherAmount) public view returns(uint256){... */\n    tag_6:\n      callvalue\n      dup1\n      iszero\n      tag_26\n      jumpi\n      0x00\n      dup1\n      revert\n    tag_26:\n      pop\n      tag_27\n      0x04\n      dup1\n      calldatasize\n      sub\n      dup2\n      add\n      swap1\n      tag_28\n      swap2\n      swap1\n      tag_11\n      jump\t// in\n    tag_28:\n      tag_29\n      jump\t// in\n    tag_27:\n      mload(0x40)\n      tag_30\n      swap2\n      swap1\n      tag_19\n      jump\t// in\n    tag_30:\n      mload(0x40)\n      dup1\n      swap2\n      sub\n      swap1\n      return\n        /* \"contracts/FundMe.sol\":806:1011  function GetVersion() public view returns(uint256){... */\n    tag_7:\n      callvalue\n      dup1\n      iszero\n      tag_31\n      jumpi\n      0x00\n      dup1\n      revert\n    tag_31:\n      pop\n      tag_32\n      tag_33\n      jump\t// in\n    tag_32:\n      mload(0x40)\n      tag_34\n      swap2\n      swap1\n      tag_19\n      jump\t// in\n    tag_34:\n      mload(0x40)\n      dup1\n      swap2\n      sub\n      swap1\n      return\n        /* \"contracts/FundMe.sol\":209:237  address[] public fundersList */\n    tag_12:\n      0x01\n      dup2\n      dup2\n      sload\n      dup2\n      lt\n      tag_35\n      jumpi\n      0x00\n      dup1\n      revert\n    tag_35:\n      swap1\n      0x00\n      mstore\n      keccak256(0x00, 0x20)\n      add\n      0x00\n      swap2\n      pop\n      sload\n      swap1\n      0x0100\n      exp\n      swap1\n      div\n      0xffffffffffffffffffffffffffffffffffffffff\n      and\n      dup2\n      jump\t// out\n        /* \"contracts/FundMe.sol\":164:202  uint256 public minimumFund = 50 * 1e18 */\n    tag_17:\n      sload(0x00)\n      dup2\n      jump\t// out\n        /* \"contracts/FundMe.sol\":246:524  function Fund() public payable{... */\n    tag_21:\n        /* \"contracts/FundMe.sol\":443:454  minimumFund */\n      sload(0x00)\n        /* \"contracts/FundMe.sol\":411:439  GetConversionRate(msg.value) */\n      tag_38\n        /* \"contracts/FundMe.sol\":429:438  msg.value */\n      callvalue\n        /* \"contracts/FundMe.sol\":411:428  GetConversionRate */\n      tag_29\n        /* \"contracts/FundMe.sol\":411:439  GetConversionRate(msg.value) */\n      jump\t// in\n    tag_38:\n        /* \"contracts/FundMe.sol\":411:454  GetConversionRate(msg.value) >= minimumFund */\n      lt\n      iszero\n        /* \"contracts/FundMe.sol\":403:477  require(GetConversionRate(msg.value) >= minimumFund, \"Didn't send enough\") */\n      tag_39\n      jumpi\n      mload(0x40)\n      0x08c379a000000000000000000000000000000000000000000000000000000000\n      dup2\n      mstore\n      0x04\n      add\n      tag_40\n      swap1\n      tag_41\n      jump\t// in\n    tag_40:\n      mload(0x40)\n      dup1\n      swap2\n      sub\n      swap1\n      revert\n    tag_39:\n        /* \"contracts/FundMe.sol\":488:499  fundersList */\n      0x01\n        /* \"contracts/FundMe.sol\":505:515  msg.sender */\n      caller\n        /* \"contracts/FundMe.sol\":488:516  fundersList.push(msg.sender) */\n      swap1\n      dup1\n      0x01\n      dup2\n      sload\n      add\n      dup1\n      dup3\n      sstore\n      dup1\n      swap2\n      pop\n      pop\n      0x01\n      swap1\n      sub\n      swap1\n      0x00\n      mstore\n      keccak256(0x00, 0x20)\n      add\n      0x00\n      swap1\n      swap2\n      swap1\n      swap2\n      swap1\n      swap2\n      0x0100\n      exp\n      dup2\n      sload\n      dup2\n      0xffffffffffffffffffffffffffffffffffffffff\n      mul\n      not\n      and\n      swap1\n      dup4\n      0xffffffffffffffffffffffffffffffffffffffff\n      and\n      mul\n      or\n      swap1\n      sstore\n      pop\n        /* \"contracts/FundMe.sol\":246:524  function Fund() public payable{... */\n      jump\t// out\n        /* \"contracts/FundMe.sol\":532:798  function GetPrice() public view returns(uint256){... */\n    tag_24:\n        /* \"contracts/FundMe.sol\":572:579  uint256 */\n      0x00\n        /* \"contracts/FundMe.sol\":591:622  AggregatorV3Interface priceFeed */\n      dup1\n        /* \"contracts/FundMe.sol\":647:689  0x8A753747A1Fa494EC906cE90E9f37563A8AF630e */\n      0x8a753747a1fa494ec906ce90e9f37563a8af630e\n        /* \"contracts/FundMe.sol\":591:690  AggregatorV3Interface priceFeed = AggregatorV3Interface(0x8A753747A1Fa494EC906cE90E9f37563A8AF630e) */\n      swap1\n      pop\n        /* \"contracts/FundMe.sol\":704:716  int256 price */\n      0x00\n        /* \"contracts/FundMe.sol\":723:732  priceFeed */\n      dup2\n        /* \"contracts/FundMe.sol\":723:748  priceFeed.latestRoundData */\n      0xffffffffffffffffffffffffffffffffffffffff\n      and\n      0xfeaf968c\n        /* \"contracts/FundMe.sol\":723:750  priceFeed.latestRoundData() */\n      mload(0x40)\n      dup2\n      0xffffffff\n      and\n      0xe0\n      shl\n      dup2\n      mstore\n      0x04\n      add\n      0xa0\n      mload(0x40)\n      dup1\n      dup4\n      sub\n      dup2\n      dup7\n      gas\n      staticcall\n      iszero\n      dup1\n      iszero\n      tag_45\n      jumpi\n      returndatasize\n      0x00\n      dup1\n      returndatacopy\n      revert(0x00, returndatasize)\n    tag_45:\n      pop\n      pop\n      pop\n      pop\n      mload(0x40)\n      returndatasize\n      not(0x1f)\n      0x1f\n      dup3\n      add\n      and\n      dup3\n      add\n      dup1\n      0x40\n      mstore\n      pop\n      dup2\n      add\n      swap1\n      tag_46\n      swap2\n      swap1\n      tag_47\n      jump\t// in\n    tag_46:\n        /* \"contracts/FundMe.sol\":702:750  (,int256 price,,,) = priceFeed.latestRoundData() */\n      pop\n      pop\n      pop\n      swap2\n      pop\n      pop\n        /* \"contracts/FundMe.sol\":785:789  1e10 */\n      0x02540be400\n        /* \"contracts/FundMe.sol\":777:782  price */\n      dup2\n        /* \"contracts/FundMe.sol\":777:789  price * 1e10 */\n      tag_48\n      swap2\n      swap1\n      tag_49\n      jump\t// in\n    tag_48:\n        /* \"contracts/FundMe.sol\":762:790  return uint256(price * 1e10) */\n      swap3\n      pop\n      pop\n      pop\n        /* \"contracts/FundMe.sol\":532:798  function GetPrice() public view returns(uint256){... */\n      swap1\n      jump\t// out\n        /* \"contracts/FundMe.sol\":1019:1242  function GetConversionRate(uint256 _etherAmount) public view returns(uint256){... */\n    tag_29:\n        /* \"contracts/FundMe.sol\":1088:1095  uint256 */\n      0x00\n        /* \"contracts/FundMe.sol\":1107:1123  uint256 ethPrice */\n      dup1\n        /* \"contracts/FundMe.sol\":1126:1136  GetPrice() */\n      tag_51\n        /* \"contracts/FundMe.sol\":1126:1134  GetPrice */\n      tag_24\n        /* \"contracts/FundMe.sol\":1126:1136  GetPrice() */\n      jump\t// in\n    tag_51:\n        /* \"contracts/FundMe.sol\":1107:1136  uint256 ethPrice = GetPrice() */\n      swap1\n      pop\n        /* \"contracts/FundMe.sol\":1147:1169  uint256 ethAmountInUsd */\n      0x00\n        /* \"contracts/FundMe.sol\":1198:1202  1e18 */\n      0x0de0b6b3a7640000\n        /* \"contracts/FundMe.sol\":1184:1196  _etherAmount */\n      dup5\n        /* \"contracts/FundMe.sol\":1173:1181  ethPrice */\n      dup4\n        /* \"contracts/FundMe.sol\":1173:1196  ethPrice * _etherAmount */\n      tag_52\n      swap2\n      swap1\n      tag_53\n      jump\t// in\n    tag_52:\n        /* \"contracts/FundMe.sol\":1172:1202  (ethPrice * _etherAmount)/1e18 */\n      tag_54\n      swap2\n      swap1\n      tag_55\n      jump\t// in\n    tag_54:\n        /* \"contracts/FundMe.sol\":1147:1202  uint256 ethAmountInUsd = (ethPrice * _etherAmount)/1e18 */\n      swap1\n      pop\n        /* \"contracts/FundMe.sol\":1220:1234  ethAmountInUsd */\n      dup1\n        /* \"contracts/FundMe.sol\":1213:1234  return ethAmountInUsd */\n      swap3\n      pop\n      pop\n      pop\n        /* \"contracts/FundMe.sol\":1019:1242  function GetConversionRate(uint256 _etherAmount) public view returns(uint256){... */\n      swap2\n      swap1\n      pop\n      jump\t// out\n        /* \"contracts/FundMe.sol\":806:1011  function GetVersion() public view returns(uint256){... */\n    tag_33:\n        /* \"contracts/FundMe.sol\":848:855  uint256 */\n      0x00\n        /* \"contracts/FundMe.sol\":867:898  AggregatorV3Interface priceFeed */\n      dup1\n        /* \"contracts/FundMe.sol\":923:965  0x8A753747A1Fa494EC906cE90E9f37563A8AF630e */\n      0x8a753747a1fa494ec906ce90e9f37563a8af630e\n        /* \"contracts/FundMe.sol\":867:966  AggregatorV3Interface priceFeed = AggregatorV3Interface(0x8A753747A1Fa494EC906cE90E9f37563A8AF630e) */\n      swap1\n      pop\n        /* \"contracts/FundMe.sol\":984:993  priceFeed */\n      dup1\n        /* \"contracts/FundMe.sol\":984:1001  priceFeed.version */\n      0xffffffffffffffffffffffffffffffffffffffff\n      and\n      0x54fd4d50\n        /* \"contracts/FundMe.sol\":984:1003  priceFeed.version() */\n      mload(0x40)\n      dup2\n      0xffffffff\n      and\n      0xe0\n      shl\n      dup2\n      mstore\n      0x04\n      add\n      0x20\n      mload(0x40)\n      dup1\n      dup4\n      sub\n      dup2\n      dup7\n      gas\n      staticcall\n      iszero\n      dup1\n      iszero\n      tag_58\n      jumpi\n      returndatasize\n      0x00\n      dup1\n      returndatacopy\n      revert(0x00, returndatasize)\n    tag_58:\n      pop\n      pop\n      pop\n      pop\n      mload(0x40)\n      returndatasize\n      not(0x1f)\n      0x1f\n      dup3\n      add\n      and\n      dup3\n      add\n      dup1\n      0x40\n      mstore\n      pop\n      dup2\n      add\n      swap1\n      tag_59\n      swap2\n      swap1\n      tag_60\n      jump\t// in\n    tag_59:\n        /* \"contracts/FundMe.sol\":977:1003  return priceFeed.version() */\n      swap2\n      pop\n      pop\n        /* \"contracts/FundMe.sol\":806:1011  function GetVersion() public view returns(uint256){... */\n      swap1\n      jump\t// out\n        /* \"#utility.yul\":88:205   */\n    tag_62:\n        /* \"#utility.yul\":197:198   */\n      0x00\n        /* \"#utility.yul\":194:195   */\n      dup1\n        /* \"#utility.yul\":187:199   */\n      revert\n        /* \"#utility.yul\":334:411   */\n    tag_64:\n        /* \"#utility.yul\":371:378   */\n      0x00\n        /* \"#utility.yul\":400:405   */\n      dup2\n        /* \"#utility.yul\":389:405   */\n      swap1\n      pop\n        /* \"#utility.yul\":334:411   */\n      swap2\n      swap1\n      pop\n      jump\t// out\n        /* \"#utility.yul\":417:539   */\n    tag_65:\n        /* \"#utility.yul\":490:514   */\n      tag_89\n        /* \"#utility.yul\":508:513   */\n      dup2\n        /* \"#utility.yul\":490:514   */\n      tag_64\n      jump\t// in\n    tag_89:\n        /* \"#utility.yul\":483:488   */\n      dup2\n        /* \"#utility.yul\":480:515   */\n      eq\n        /* \"#utility.yul\":470:533   */\n      tag_90\n      jumpi\n        /* \"#utility.yul\":529:530   */\n      0x00\n        /* \"#utility.yul\":526:527   */\n      dup1\n        /* \"#utility.yul\":519:531   */\n      revert\n        /* \"#utility.yul\":470:533   */\n    tag_90:\n        /* \"#utility.yul\":417:539   */\n      pop\n      jump\t// out\n        /* \"#utility.yul\":545:684   */\n    tag_66:\n        /* \"#utility.yul\":591:596   */\n      0x00\n        /* \"#utility.yul\":629:635   */\n      dup2\n        /* \"#utility.yul\":616:636   */\n      calldataload\n        /* \"#utility.yul\":607:636   */\n      swap1\n      pop\n        /* \"#utility.yul\":645:678   */\n      tag_92\n        /* \"#utility.yul\":672:677   */\n      dup2\n        /* \"#utility.yul\":645:678   */\n      tag_65\n      jump\t// in\n    tag_92:\n        /* \"#utility.yul\":545:684   */\n      swap3\n      swap2\n      pop\n      pop\n      jump\t// out\n        /* \"#utility.yul\":690:1019   */\n    tag_11:\n        /* \"#utility.yul\":749:755   */\n      0x00\n        /* \"#utility.yul\":798:800   */\n      0x20\n        /* \"#utility.yul\":786:795   */\n      dup3\n        /* \"#utility.yul\":777:784   */\n      dup5\n        /* \"#utility.yul\":773:796   */\n      sub\n        /* \"#utility.yul\":769:801   */\n      slt\n        /* \"#utility.yul\":766:885   */\n      iszero\n      tag_94\n      jumpi\n        /* \"#utility.yul\":804:883   */\n      tag_95\n      tag_62\n      jump\t// in\n    tag_95:\n        /* \"#utility.yul\":766:885   */\n    tag_94:\n        /* \"#utility.yul\":924:925   */\n      0x00\n        /* \"#utility.yul\":949:1002   */\n      tag_96\n        /* \"#utility.yul\":994:1001   */\n      dup5\n        /* \"#utility.yul\":985:991   */\n      dup3\n        /* \"#utility.yul\":974:983   */\n      dup6\n        /* \"#utility.yul\":970:992   */\n      add\n        /* \"#utility.yul\":949:1002   */\n      tag_66\n      jump\t// in\n    tag_96:\n        /* \"#utility.yul\":939:1002   */\n      swap2\n      pop\n        /* \"#utility.yul\":895:1012   */\n      pop\n        /* \"#utility.yul\":690:1019   */\n      swap3\n      swap2\n      pop\n      pop\n      jump\t// out\n        /* \"#utility.yul\":1025:1151   */\n    tag_67:\n        /* \"#utility.yul\":1062:1069   */\n      0x00\n        /* \"#utility.yul\":1102:1144   */\n      0xffffffffffffffffffffffffffffffffffffffff\n        /* \"#utility.yul\":1095:1100   */\n      dup3\n        /* \"#utility.yul\":1091:1145   */\n      and\n        /* \"#utility.yul\":1080:1145   */\n      swap1\n      pop\n        /* \"#utility.yul\":1025:1151   */\n      swap2\n      swap1\n      pop\n      jump\t// out\n        /* \"#utility.yul\":1157:1253   */\n    tag_68:\n        /* \"#utility.yul\":1194:1201   */\n      0x00\n        /* \"#utility.yul\":1223:1247   */\n      tag_99\n        /* \"#utility.yul\":1241:1246   */\n      dup3\n        /* \"#utility.yul\":1223:1247   */\n      tag_67\n      jump\t// in\n    tag_99:\n        /* \"#utility.yul\":1212:1247   */\n      swap1\n      pop\n        /* \"#utility.yul\":1157:1253   */\n      swap2\n      swap1\n      pop\n      jump\t// out\n        /* \"#utility.yul\":1259:1377   */\n    tag_69:\n        /* \"#utility.yul\":1346:1370   */\n      tag_101\n        /* \"#utility.yul\":1364:1369   */\n      dup2\n        /* \"#utility.yul\":1346:1370   */\n      tag_68\n      jump\t// in\n    tag_101:\n        /* \"#utility.yul\":1341:1344   */\n      dup3\n        /* \"#utility.yul\":1334:1371   */\n      mstore\n        /* \"#utility.yul\":1259:1377   */\n      pop\n      pop\n      jump\t// out\n        /* \"#utility.yul\":1383:1605   */\n    tag_14:\n        /* \"#utility.yul\":1476:1480   */\n      0x00\n        /* \"#utility.yul\":1514:1516   */\n      0x20\n        /* \"#utility.yul\":1503:1512   */\n      dup3\n        /* \"#utility.yul\":1499:1517   */\n      add\n        /* \"#utility.yul\":1491:1517   */\n      swap1\n      pop\n        /* \"#utility.yul\":1527:1598   */\n      tag_103\n        /* \"#utility.yul\":1595:1596   */\n      0x00\n        /* \"#utility.yul\":1584:1593   */\n      dup4\n        /* \"#utility.yul\":1580:1597   */\n      add\n        /* \"#utility.yul\":1571:1577   */\n      dup5\n        /* \"#utility.yul\":1527:1598   */\n      tag_69\n      jump\t// in\n    tag_103:\n        /* \"#utility.yul\":1383:1605   */\n      swap3\n      swap2\n      pop\n      pop\n      jump\t// out\n        /* \"#utility.yul\":1611:1729   */\n    tag_70:\n        /* \"#utility.yul\":1698:1722   */\n      tag_105\n        /* \"#utility.yul\":1716:1721   */\n      dup2\n        /* \"#utility.yul\":1698:1722   */\n      tag_64\n      jump\t// in\n    tag_105:\n        /* \"#utility.yul\":1693:1696   */\n      dup3\n        /* \"#utility.yul\":1686:1723   */\n      mstore\n        /* \"#utility.yul\":1611:1729   */\n      pop\n      pop\n      jump\t// out\n        /* \"#utility.yul\":1735:1957   */\n    tag_19:\n        /* \"#utility.yul\":1828:1832   */\n      0x00\n        /* \"#utility.yul\":1866:1868   */\n      0x20\n        /* \"#utility.yul\":1855:1864   */\n      dup3\n        /* \"#utility.yul\":1851:1869   */\n      add\n        /* \"#utility.yul\":1843:1869   */\n      swap1\n      pop\n        /* \"#utility.yul\":1879:1950   */\n      tag_107\n        /* \"#utility.yul\":1947:1948   */\n      0x00\n        /* \"#utility.yul\":1936:1945   */\n      dup4\n        /* \"#utility.yul\":1932:1949   */\n      add\n        /* \"#utility.yul\":1923:1929   */\n      dup5\n        /* \"#utility.yul\":1879:1950   */\n      tag_70\n      jump\t// in\n    tag_107:\n        /* \"#utility.yul\":1735:1957   */\n      swap3\n      swap2\n      pop\n      pop\n      jump\t// out\n        /* \"#utility.yul\":1963:2132   */\n    tag_71:\n        /* \"#utility.yul\":2047:2058   */\n      0x00\n        /* \"#utility.yul\":2081:2087   */\n      dup3\n        /* \"#utility.yul\":2076:2079   */\n      dup3\n        /* \"#utility.yul\":2069:2088   */\n      mstore\n        /* \"#utility.yul\":2121:2125   */\n      0x20\n        /* \"#utility.yul\":2116:2119   */\n      dup3\n        /* \"#utility.yul\":2112:2126   */\n      add\n        /* \"#utility.yul\":2097:2126   */\n      swap1\n      pop\n        /* \"#utility.yul\":1963:2132   */\n      swap3\n      swap2\n      pop\n      pop\n      jump\t// out\n        /* \"#utility.yul\":2138:2306   */\n    tag_72:\n        /* \"#utility.yul\":2278:2298   */\n      0x4469646e27742073656e6420656e6f7567680000000000000000000000000000\n        /* \"#utility.yul\":2274:2275   */\n      0x00\n        /* \"#utility.yul\":2266:2272   */\n      dup3\n        /* \"#utility.yul\":2262:2276   */\n      add\n        /* \"#utility.yul\":2255:2299   */\n      mstore\n        /* \"#utility.yul\":2138:2306   */\n      pop\n      jump\t// out\n        /* \"#utility.yul\":2312:2678   */\n    tag_73:\n        /* \"#utility.yul\":2454:2457   */\n      0x00\n        /* \"#utility.yul\":2475:2542   */\n      tag_111\n        /* \"#utility.yul\":2539:2541   */\n      0x12\n        /* \"#utility.yul\":2534:2537   */\n      dup4\n        /* \"#utility.yul\":2475:2542   */\n      tag_71\n      jump\t// in\n    tag_111:\n        /* \"#utility.yul\":2468:2542   */\n      swap2\n      pop\n        /* \"#utility.yul\":2551:2644   */\n      tag_112\n        /* \"#utility.yul\":2640:2643   */\n      dup3\n        /* \"#utility.yul\":2551:2644   */\n      tag_72\n      jump\t// in\n    tag_112:\n        /* \"#utility.yul\":2669:2671   */\n      0x20\n        /* \"#utility.yul\":2664:2667   */\n      dup3\n        /* \"#utility.yul\":2660:2672   */\n      add\n        /* \"#utility.yul\":2653:2672   */\n      swap1\n      pop\n        /* \"#utility.yul\":2312:2678   */\n      swap2\n      swap1\n      pop\n      jump\t// out\n        /* \"#utility.yul\":2684:3103   */\n    tag_41:\n        /* \"#utility.yul\":2850:2854   */\n      0x00\n        /* \"#utility.yul\":2888:2890   */\n      0x20\n        /* \"#utility.yul\":2877:2886   */\n      dup3\n        /* \"#utility.yul\":2873:2891   */\n      add\n        /* \"#utility.yul\":2865:2891   */\n      swap1\n      pop\n        /* \"#utility.yul\":2937:2946   */\n      dup2\n        /* \"#utility.yul\":2931:2935   */\n      dup2\n        /* \"#utility.yul\":2927:2947   */\n      sub\n        /* \"#utility.yul\":2923:2924   */\n      0x00\n        /* \"#utility.yul\":2912:2921   */\n      dup4\n        /* \"#utility.yul\":2908:2925   */\n      add\n        /* \"#utility.yul\":2901:2948   */\n      mstore\n        /* \"#utility.yul\":2965:3096   */\n      tag_114\n        /* \"#utility.yul\":3091:3095   */\n      dup2\n        /* \"#utility.yul\":2965:3096   */\n      tag_73\n      jump\t// in\n    tag_114:\n        /* \"#utility.yul\":2957:3096   */\n      swap1\n      pop\n        /* \"#utility.yul\":2684:3103   */\n      swap2\n      swap1\n      pop\n      jump\t// out\n        /* \"#utility.yul\":3109:3214   */\n    tag_74:\n        /* \"#utility.yul\":3145:3152   */\n      0x00\n        /* \"#utility.yul\":3185:3207   */\n      0xffffffffffffffffffff\n        /* \"#utility.yul\":3178:3183   */\n      dup3\n        /* \"#utility.yul\":3174:3208   */\n      and\n        /* \"#utility.yul\":3163:3208   */\n      swap1\n      pop\n        /* \"#utility.yul\":3109:3214   */\n      swap2\n      swap1\n      pop\n      jump\t// out\n        /* \"#utility.yul\":3220:3340   */\n    tag_75:\n        /* \"#utility.yul\":3292:3315   */\n      tag_117\n        /* \"#utility.yul\":3309:3314   */\n      dup2\n        /* \"#utility.yul\":3292:3315   */\n      tag_74\n      jump\t// in\n    tag_117:\n        /* \"#utility.yul\":3285:3290   */\n      dup2\n        /* \"#utility.yul\":3282:3316   */\n      eq\n        /* \"#utility.yul\":3272:3334   */\n      tag_118\n      jumpi\n        /* \"#utility.yul\":3330:3331   */\n      0x00\n        /* \"#utility.yul\":3327:3328   */\n      dup1\n        /* \"#utility.yul\":3320:3332   */\n      revert\n        /* \"#utility.yul\":3272:3334   */\n    tag_118:\n        /* \"#utility.yul\":3220:3340   */\n      pop\n      jump\t// out\n        /* \"#utility.yul\":3346:3487   */\n    tag_76:\n        /* \"#utility.yul\":3402:3407   */\n      0x00\n        /* \"#utility.yul\":3433:3439   */\n      dup2\n        /* \"#utility.yul\":3427:3440   */\n      mload\n        /* \"#utility.yul\":3418:3440   */\n      swap1\n      pop\n        /* \"#utility.yul\":3449:3481   */\n      tag_120\n        /* \"#utility.yul\":3475:3480   */\n      dup2\n        /* \"#utility.yul\":3449:3481   */\n      tag_75\n      jump\t// in\n    tag_120:\n        /* \"#utility.yul\":3346:3487   */\n      swap3\n      swap2\n      pop\n      pop\n      jump\t// out\n        /* \"#utility.yul\":3493:3569   */\n    tag_77:\n        /* \"#utility.yul\":3529:3536   */\n      0x00\n        /* \"#utility.yul\":3558:3563   */\n      dup2\n        /* \"#utility.yul\":3547:3563   */\n      swap1\n      pop\n        /* \"#utility.yul\":3493:3569   */\n      swap2\n      swap1\n      pop\n      jump\t// out\n        /* \"#utility.yul\":3575:3695   */\n    tag_78:\n        /* \"#utility.yul\":3647:3670   */\n      tag_123\n        /* \"#utility.yul\":3664:3669   */\n      dup2\n        /* \"#utility.yul\":3647:3670   */\n      tag_77\n      jump\t// in\n    tag_123:\n        /* \"#utility.yul\":3640:3645   */\n      dup2\n        /* \"#utility.yul\":3637:3671   */\n      eq\n        /* \"#utility.yul\":3627:3689   */\n      tag_124\n      jumpi\n        /* \"#utility.yul\":3685:3686   */\n      0x00\n        /* \"#utility.yul\":3682:3683   */\n      dup1\n        /* \"#utility.yul\":3675:3687   */\n      revert\n        /* \"#utility.yul\":3627:3689   */\n    tag_124:\n        /* \"#utility.yul\":3575:3695   */\n      pop\n      jump\t// out\n        /* \"#utility.yul\":3701:3842   */\n    tag_79:\n        /* \"#utility.yul\":3757:3762   */\n      0x00\n        /* \"#utility.yul\":3788:3794   */\n      dup2\n        /* \"#utility.yul\":3782:3795   */\n      mload\n        /* \"#utility.yul\":3773:3795   */\n      swap1\n      pop\n        /* \"#utility.yul\":3804:3836   */\n      tag_126\n        /* \"#utility.yul\":3830:3835   */\n      dup2\n        /* \"#utility.yul\":3804:3836   */\n      tag_78\n      jump\t// in\n    tag_126:\n        /* \"#utility.yul\":3701:3842   */\n      swap3\n      swap2\n      pop\n      pop\n      jump\t// out\n        /* \"#utility.yul\":3848:3991   */\n    tag_80:\n        /* \"#utility.yul\":3905:3910   */\n      0x00\n        /* \"#utility.yul\":3936:3942   */\n      dup2\n        /* \"#utility.yul\":3930:3943   */\n      mload\n        /* \"#utility.yul\":3921:3943   */\n      swap1\n      pop\n        /* \"#utility.yul\":3952:3985   */\n      tag_128\n        /* \"#utility.yul\":3979:3984   */\n      dup2\n        /* \"#utility.yul\":3952:3985   */\n      tag_65\n      jump\t// in\n    tag_128:\n        /* \"#utility.yul\":3848:3991   */\n      swap3\n      swap2\n      pop\n      pop\n      jump\t// out\n        /* \"#utility.yul\":3997:4968   */\n    tag_47:\n        /* \"#utility.yul\":4100:4106   */\n      0x00\n        /* \"#utility.yul\":4108:4114   */\n      dup1\n        /* \"#utility.yul\":4116:4122   */\n      0x00\n        /* \"#utility.yul\":4124:4130   */\n      dup1\n        /* \"#utility.yul\":4132:4138   */\n      0x00\n        /* \"#utility.yul\":4181:4184   */\n      0xa0\n        /* \"#utility.yul\":4169:4178   */\n      dup7\n        /* \"#utility.yul\":4160:4167   */\n      dup9\n        /* \"#utility.yul\":4156:4179   */\n      sub\n        /* \"#utility.yul\":4152:4185   */\n      slt\n        /* \"#utility.yul\":4149:4269   */\n      iszero\n      tag_130\n      jumpi\n        /* \"#utility.yul\":4188:4267   */\n      tag_131\n      tag_62\n      jump\t// in\n    tag_131:\n        /* \"#utility.yul\":4149:4269   */\n    tag_130:\n        /* \"#utility.yul\":4308:4309   */\n      0x00\n        /* \"#utility.yul\":4333:4396   */\n      tag_132\n        /* \"#utility.yul\":4388:4395   */\n      dup9\n        /* \"#utility.yul\":4379:4385   */\n      dup3\n        /* \"#utility.yul\":4368:4377   */\n      dup10\n        /* \"#utility.yul\":4364:4386   */\n      add\n        /* \"#utility.yul\":4333:4396   */\n      tag_76\n      jump\t// in\n    tag_132:\n        /* \"#utility.yul\":4323:4396   */\n      swap6\n      pop\n        /* \"#utility.yul\":4279:4406   */\n      pop\n        /* \"#utility.yul\":4445:4447   */\n      0x20\n        /* \"#utility.yul\":4471:4534   */\n      tag_133\n        /* \"#utility.yul\":4526:4533   */\n      dup9\n        /* \"#utility.yul\":4517:4523   */\n      dup3\n        /* \"#utility.yul\":4506:4515   */\n      dup10\n        /* \"#utility.yul\":4502:4524   */\n      add\n        /* \"#utility.yul\":4471:4534   */\n      tag_79\n      jump\t// in\n    tag_133:\n        /* \"#utility.yul\":4461:4534   */\n      swap5\n      pop\n        /* \"#utility.yul\":4416:4544   */\n      pop\n        /* \"#utility.yul\":4583:4585   */\n      0x40\n        /* \"#utility.yul\":4609:4673   */\n      tag_134\n        /* \"#utility.yul\":4665:4672   */\n      dup9\n        /* \"#utility.yul\":4656:4662   */\n      dup3\n        /* \"#utility.yul\":4645:4654   */\n      dup10\n        /* \"#utility.yul\":4641:4663   */\n      add\n        /* \"#utility.yul\":4609:4673   */\n      tag_80\n      jump\t// in\n    tag_134:\n        /* \"#utility.yul\":4599:4673   */\n      swap4\n      pop\n        /* \"#utility.yul\":4554:4683   */\n      pop\n        /* \"#utility.yul\":4722:4724   */\n      0x60\n        /* \"#utility.yul\":4748:4812   */\n      tag_135\n        /* \"#utility.yul\":4804:4811   */\n      dup9\n        /* \"#utility.yul\":4795:4801   */\n      dup3\n        /* \"#utility.yul\":4784:4793   */\n      dup10\n        /* \"#utility.yul\":4780:4802   */\n      add\n        /* \"#utility.yul\":4748:4812   */\n      tag_80\n      jump\t// in\n    tag_135:\n        /* \"#utility.yul\":4738:4812   */\n      swap3\n      pop\n        /* \"#utility.yul\":4693:4822   */\n      pop\n        /* \"#utility.yul\":4861:4864   */\n      0x80\n        /* \"#utility.yul\":4888:4951   */\n      tag_136\n        /* \"#utility.yul\":4943:4950   */\n      dup9\n        /* \"#utility.yul\":4934:4940   */\n      dup3\n        /* \"#utility.yul\":4923:4932   */\n      dup10\n        /* \"#utility.yul\":4919:4941   */\n      add\n        /* \"#utility.yul\":4888:4951   */\n      tag_76\n      jump\t// in\n    tag_136:\n        /* \"#utility.yul\":4878:4951   */\n      swap2\n      pop\n        /* \"#utility.yul\":4832:4961   */\n      pop\n        /* \"#utility.yul\":3997:4968   */\n      swap3\n      swap6\n      pop\n      swap3\n      swap6\n      swap1\n      swap4\n      pop\n      jump\t// out\n        /* \"#utility.yul\":4974:5154   */\n    tag_81:\n        /* \"#utility.yul\":5022:5099   */\n      0x4e487b7100000000000000000000000000000000000000000000000000000000\n        /* \"#utility.yul\":5019:5020   */\n      0x00\n        /* \"#utility.yul\":5012:5100   */\n      mstore\n        /* \"#utility.yul\":5119:5123   */\n      0x11\n        /* \"#utility.yul\":5116:5117   */\n      0x04\n        /* \"#utility.yul\":5109:5124   */\n      mstore\n        /* \"#utility.yul\":5143:5147   */\n      0x24\n        /* \"#utility.yul\":5140:5141   */\n      0x00\n        /* \"#utility.yul\":5133:5148   */\n      revert\n        /* \"#utility.yul\":5160:6151   */\n    tag_49:\n        /* \"#utility.yul\":5199:5206   */\n      0x00\n        /* \"#utility.yul\":5222:5241   */\n      tag_139\n        /* \"#utility.yul\":5239:5240   */\n      dup3\n        /* \"#utility.yul\":5222:5241   */\n      tag_77\n      jump\t// in\n    tag_139:\n        /* \"#utility.yul\":5217:5241   */\n      swap2\n      pop\n        /* \"#utility.yul\":5255:5274   */\n      tag_140\n        /* \"#utility.yul\":5272:5273   */\n      dup4\n        /* \"#utility.yul\":5255:5274   */\n      tag_77\n      jump\t// in\n    tag_140:\n        /* \"#utility.yul\":5250:5274   */\n      swap3\n      pop\n        /* \"#utility.yul\":5456:5457   */\n      dup3\n        /* \"#utility.yul\":5388:5454   */\n      0x7fffffffffffffffffffffffffffffffffffffffffffffffffffffffffffffff\n        /* \"#utility.yul\":5384:5458   */\n      div\n        /* \"#utility.yul\":5381:5382   */\n      dup3\n        /* \"#utility.yul\":5378:5459   */\n      gt\n        /* \"#utility.yul\":5373:5374   */\n      0x00\n        /* \"#utility.yul\":5370:5371   */\n      dup5\n        /* \"#utility.yul\":5366:5375   */\n      sgt\n        /* \"#utility.yul\":5362:5363   */\n      0x00\n        /* \"#utility.yul\":5359:5360   */\n      dup5\n        /* \"#utility.yul\":5355:5364   */\n      sgt\n        /* \"#utility.yul\":5351:5376   */\n      and\n        /* \"#utility.yul\":5347:5460   */\n      and\n        /* \"#utility.yul\":5344:5483   */\n      iszero\n      tag_141\n      jumpi\n        /* \"#utility.yul\":5463:5481   */\n      tag_142\n      tag_81\n      jump\t// in\n    tag_142:\n        /* \"#utility.yul\":5344:5483   */\n    tag_141:\n        /* \"#utility.yul\":5667:5668   */\n      dup2\n        /* \"#utility.yul\":5599:5665   */\n      0x8000000000000000000000000000000000000000000000000000000000000000\n        /* \"#utility.yul\":5594:5669   */\n      sdiv\n        /* \"#utility.yul\":5591:5592   */\n      dup4\n        /* \"#utility.yul\":5587:5670   */\n      slt\n        /* \"#utility.yul\":5582:5583   */\n      0x00\n        /* \"#utility.yul\":5579:5580   */\n      dup5\n        /* \"#utility.yul\":5575:5584   */\n      slt\n        /* \"#utility.yul\":5571:5572   */\n      0x00\n        /* \"#utility.yul\":5568:5569   */\n      dup5\n        /* \"#utility.yul\":5564:5573   */\n      sgt\n        /* \"#utility.yul\":5560:5585   */\n      and\n        /* \"#utility.yul\":5556:5671   */\n      and\n        /* \"#utility.yul\":5553:5694   */\n      iszero\n      tag_143\n      jumpi\n        /* \"#utility.yul\":5674:5692   */\n      tag_144\n      tag_81\n      jump\t// in\n    tag_144:\n        /* \"#utility.yul\":5553:5694   */\n    tag_143:\n        /* \"#utility.yul\":5878:5879   */\n      dup3\n        /* \"#utility.yul\":5810:5876   */\n      0x8000000000000000000000000000000000000000000000000000000000000000\n        /* \"#utility.yul\":5805:5880   */\n      sdiv\n        /* \"#utility.yul\":5802:5803   */\n      dup3\n        /* \"#utility.yul\":5798:5881   */\n      slt\n        /* \"#utility.yul\":5793:5794   */\n      0x00\n        /* \"#utility.yul\":5790:5791   */\n      dup5\n        /* \"#utility.yul\":5786:5795   */\n      sgt\n        /* \"#utility.yul\":5782:5783   */\n      0x00\n        /* \"#utility.yul\":5779:5780   */\n      dup5\n        /* \"#utility.yul\":5775:5784   */\n      slt\n        /* \"#utility.yul\":5771:5796   */\n      and\n        /* \"#utility.yul\":5767:5882   */\n      and\n        /* \"#utility.yul\":5764:5905   */\n      iszero\n      tag_145\n      jumpi\n        /* \"#utility.yul\":5885:5903   */\n      tag_146\n      tag_81\n      jump\t// in\n    tag_146:\n        /* \"#utility.yul\":5764:5905   */\n    tag_145:\n        /* \"#utility.yul\":6088:6089   */\n      dup3\n        /* \"#utility.yul\":6020:6086   */\n      0x7fffffffffffffffffffffffffffffffffffffffffffffffffffffffffffffff\n        /* \"#utility.yul\":6015:6090   */\n      sdiv\n        /* \"#utility.yul\":6012:6013   */\n      dup3\n        /* \"#utility.yul\":6008:6091   */\n      slt\n        /* \"#utility.yul\":6003:6004   */\n      0x00\n        /* \"#utility.yul\":6000:6001   */\n      dup5\n        /* \"#utility.yul\":5996:6005   */\n      slt\n        /* \"#utility.yul\":5992:5993   */\n      0x00\n        /* \"#utility.yul\":5989:5990   */\n      dup5\n        /* \"#utility.yul\":5985:5994   */\n      slt\n        /* \"#utility.yul\":5981:6006   */\n      and\n        /* \"#utility.yul\":5977:6092   */\n      and\n        /* \"#utility.yul\":5974:6115   */\n      iszero\n      tag_147\n      jumpi\n        /* \"#utility.yul\":6095:6113   */\n      tag_148\n      tag_81\n      jump\t// in\n    tag_148:\n        /* \"#utility.yul\":5974:6115   */\n    tag_147:\n        /* \"#utility.yul\":6143:6144   */\n      dup3\n        /* \"#utility.yul\":6140:6141   */\n      dup3\n        /* \"#utility.yul\":6136:6145   */\n      mul\n        /* \"#utility.yul\":6125:6145   */\n      swap1\n      pop\n        /* \"#utility.yul\":5160:6151   */\n      swap3\n      swap2\n      pop\n      pop\n      jump\t// out\n        /* \"#utility.yul\":6157:6505   */\n    tag_53:\n        /* \"#utility.yul\":6197:6204   */\n      0x00\n        /* \"#utility.yul\":6220:6240   */\n      tag_150\n        /* \"#utility.yul\":6238:6239   */\n      dup3\n        /* \"#utility.yul\":6220:6240   */\n      tag_64\n      jump\t// in\n    tag_150:\n        /* \"#utility.yul\":6215:6240   */\n      swap2\n      pop\n        /* \"#utility.yul\":6254:6274   */\n      tag_151\n        /* \"#utility.yul\":6272:6273   */\n      dup4\n        /* \"#utility.yul\":6254:6274   */\n      tag_64\n      jump\t// in\n    tag_151:\n        /* \"#utility.yul\":6249:6274   */\n      swap3\n      pop\n        /* \"#utility.yul\":6442:6443   */\n      dup2\n        /* \"#utility.yul\":6374:6440   */\n      0xffffffffffffffffffffffffffffffffffffffffffffffffffffffffffffffff\n        /* \"#utility.yul\":6370:6444   */\n      div\n        /* \"#utility.yul\":6367:6368   */\n      dup4\n        /* \"#utility.yul\":6364:6445   */\n      gt\n        /* \"#utility.yul\":6359:6360   */\n      dup3\n        /* \"#utility.yul\":6352:6361   */\n      iszero\n        /* \"#utility.yul\":6345:6362   */\n      iszero\n        /* \"#utility.yul\":6341:6446   */\n      and\n        /* \"#utility.yul\":6338:6469   */\n      iszero\n      tag_152\n      jumpi\n        /* \"#utility.yul\":6449:6467   */\n      tag_153\n      tag_81\n      jump\t// in\n    tag_153:\n        /* \"#utility.yul\":6338:6469   */\n    tag_152:\n        /* \"#utility.yul\":6497:6498   */\n      dup3\n        /* \"#utility.yul\":6494:6495   */\n      dup3\n        /* \"#utility.yul\":6490:6499   */\n      mul\n        /* \"#utility.yul\":6479:6499   */\n      swap1\n      pop\n        /* \"#utility.yul\":6157:6505   */\n      swap3\n      swap2\n      pop\n      pop\n      jump\t// out\n        /* \"#utility.yul\":6511:6691   */\n    tag_82:\n        /* \"#utility.yul\":6559:6636   */\n      0x4e487b7100000000000000000000000000000000000000000000000000000000\n        /* \"#utility.yul\":6556:6557   */\n      0x00\n        /* \"#utility.yul\":6549:6637   */\n      mstore\n        /* \"#utility.yul\":6656:6660   */\n      0x12\n        /* \"#utility.yul\":6653:6654   */\n      0x04\n        /* \"#utility.yul\":6646:6661   */\n      mstore\n        /* \"#utility.yul\":6680:6684   */\n      0x24\n        /* \"#utility.yul\":6677:6678   */\n      0x00\n        /* \"#utility.yul\":6670:6685   */\n      revert\n        /* \"#utility.yul\":6697:6882   */\n    tag_55:\n        /* \"#utility.yul\":6737:6738   */\n      0x00\n        /* \"#utility.yul\":6754:6774   */\n      tag_156\n        /* \"#utility.yul\":6772:6773   */\n      dup3\n        /* \"#utility.yul\":6754:6774   */\n      tag_64\n      jump\t// in\n    tag_156:\n        /* \"#utility.yul\":6749:6774   */\n      swap2\n      pop\n        /* \"#utility.yul\":6788:6808   */\n      tag_157\n        /* \"#utility.yul\":6806:6807   */\n      dup4\n        /* \"#utility.yul\":6788:6808   */\n      tag_64\n      jump\t// in\n    tag_157:\n        /* \"#utility.yul\":6783:6808   */\n      swap3\n      pop\n        /* \"#utility.yul\":6827:6828   */\n      dup3\n        /* \"#utility.yul\":6817:6852   */\n      tag_158\n      jumpi\n        /* \"#utility.yul\":6832:6850   */\n      tag_159\n      tag_82\n      jump\t// in\n    tag_159:\n        /* \"#utility.yul\":6817:6852   */\n    tag_158:\n        /* \"#utility.yul\":6874:6875   */\n      dup3\n        /* \"#utility.yul\":6871:6872   */\n      dup3\n        /* \"#utility.yul\":6867:6876   */\n      div\n        /* \"#utility.yul\":6862:6876   */\n      swap1\n      pop\n        /* \"#utility.yul\":6697:6882   */\n      swap3\n      swap2\n      pop\n      pop\n      jump\t// out\n        /* \"#utility.yul\":6888:7239   */\n    tag_60:\n        /* \"#utility.yul\":6958:6964   */\n      0x00\n        /* \"#utility.yul\":7007:7009   */\n      0x20\n        /* \"#utility.yul\":6995:7004   */\n      dup3\n        /* \"#utility.yul\":6986:6993   */\n      dup5\n        /* \"#utility.yul\":6982:7005   */\n      sub\n        /* \"#utility.yul\":6978:7010   */\n      slt\n        /* \"#utility.yul\":6975:7094   */\n      iszero\n      tag_161\n      jumpi\n        /* \"#utility.yul\":7013:7092   */\n      tag_162\n      tag_62\n      jump\t// in\n    tag_162:\n        /* \"#utility.yul\":6975:7094   */\n    tag_161:\n        /* \"#utility.yul\":7133:7134   */\n      0x00\n        /* \"#utility.yul\":7158:7222   */\n      tag_163\n        /* \"#utility.yul\":7214:7221   */\n      dup5\n        /* \"#utility.yul\":7205:7211   */\n      dup3\n        /* \"#utility.yul\":7194:7203   */\n      dup6\n        /* \"#utility.yul\":7190:7212   */\n      add\n        /* \"#utility.yul\":7158:7222   */\n      tag_80\n      jump\t// in\n    tag_163:\n        /* \"#utility.yul\":7148:7222   */\n      swap2\n      pop\n        /* \"#utility.yul\":7104:7232   */\n      pop\n        /* \"#utility.yul\":6888:7239   */\n      swap3\n      swap2\n      pop\n      pop\n      jump\t// out\n\n    auxdata: 0xa26469706673582212202e45420aac6112cb974b57198f5f4c8332c7c329da12d0baae4a05e26c5ba99764736f6c634300080d0033\n}\n",
				"bytecode": {
					"linkReferences": {},
					"object": "60806040526802b5e3af16b188000060005534801561001d57600080fd5b5061089e8061002d6000396000f3fe6080604052600436106100555760003560e01c806347ff62c61461005a57806366b30f06146100975780636ce1417e146100c25780636d90164e146100cc578063793b233b146100f7578063c6129a5a14610134575b600080fd5b34801561006657600080fd5b50610081600480360381019061007c9190610403565b61015f565b60405161008e9190610471565b60405180910390f35b3480156100a357600080fd5b506100ac61019e565b6040516100b9919061049b565b60405180910390f35b6100ca6101a4565b005b3480156100d857600080fd5b506100e1610256565b6040516100ee919061049b565b60405180910390f35b34801561010357600080fd5b5061011e60048036038101906101199190610403565b6102ff565b60405161012b919061049b565b60405180910390f35b34801561014057600080fd5b50610149610339565b604051610156919061049b565b60405180910390f35b6001818154811061016f57600080fd5b906000526020600020016000915054906101000a900473ffffffffffffffffffffffffffffffffffffffff1681565b60005481565b6000546101b0346102ff565b10156101f1576040517f08c379a00000000000000000000000000000000000000000000000000000000081526004016101e890610513565b60405180910390fd5b6001339080600181540180825580915050600190039060005260206000200160009091909190916101000a81548173ffffffffffffffffffffffffffffffffffffffff021916908373ffffffffffffffffffffffffffffffffffffffff160217905550565b600080738a753747a1fa494ec906ce90e9f37563a8af630e905060008173ffffffffffffffffffffffffffffffffffffffff1663feaf968c6040518163ffffffff1660e01b815260040160a060405180830381865afa1580156102bd573d6000803e3d6000fd5b505050506040513d601f19601f820116820180604052508101906102e191906105c0565b5050509150506402540be400816102f8919061066a565b9250505090565b60008061030a610256565b90506000670de0b6b3a764000084836103239190610781565b61032d919061080a565b90508092505050919050565b600080738a753747a1fa494ec906ce90e9f37563a8af630e90508073ffffffffffffffffffffffffffffffffffffffff166354fd4d506040518163ffffffff1660e01b8152600401602060405180830381865afa15801561039e573d6000803e3d6000fd5b505050506040513d601f19601f820116820180604052508101906103c2919061083b565b91505090565b600080fd5b6000819050919050565b6103e0816103cd565b81146103eb57600080fd5b50565b6000813590506103fd816103d7565b92915050565b600060208284031215610419576104186103c8565b5b6000610427848285016103ee565b91505092915050565b600073ffffffffffffffffffffffffffffffffffffffff82169050919050565b600061045b82610430565b9050919050565b61046b81610450565b82525050565b60006020820190506104866000830184610462565b92915050565b610495816103cd565b82525050565b60006020820190506104b0600083018461048c565b92915050565b600082825260208201905092915050565b7f4469646e27742073656e6420656e6f7567680000000000000000000000000000600082015250565b60006104fd6012836104b6565b9150610508826104c7565b602082019050919050565b6000602082019050818103600083015261052c816104f0565b9050919050565b600069ffffffffffffffffffff82169050919050565b61055281610533565b811461055d57600080fd5b50565b60008151905061056f81610549565b92915050565b6000819050919050565b61058881610575565b811461059357600080fd5b50565b6000815190506105a58161057f565b92915050565b6000815190506105ba816103d7565b92915050565b600080600080600060a086880312156105dc576105db6103c8565b5b60006105ea88828901610560565b95505060206105fb88828901610596565b945050604061060c888289016105ab565b935050606061061d888289016105ab565b925050608061062e88828901610560565b9150509295509295909350565b7f4e487b7100000000000000000000000000000000000000000000000000000000600052601160045260246000fd5b600061067582610575565b915061068083610575565b9250827f7fffffffffffffffffffffffffffffffffffffffffffffffffffffffffffffff04821160008413600084131616156106bf576106be61063b565b5b817f800000000000000000000000000000000000000000000000000000000000000005831260008412600084131616156106fc576106fb61063b565b5b827f800000000000000000000000000000000000000000000000000000000000000005821260008413600084121616156107395761073861063b565b5b827f7fffffffffffffffffffffffffffffffffffffffffffffffffffffffffffffff05821260008412600084121616156107765761077561063b565b5b828202905092915050565b600061078c826103cd565b9150610797836103cd565b9250817fffffffffffffffffffffffffffffffffffffffffffffffffffffffffffffffff04831182151516156107d0576107cf61063b565b5b828202905092915050565b7f4e487b7100000000000000000000000000000000000000000000000000000000600052601260045260246000fd5b6000610815826103cd565b9150610820836103cd565b9250826108305761082f6107db565b5b828204905092915050565b600060208284031215610851576108506103c8565b5b600061085f848285016105ab565b9150509291505056fea26469706673582212202e45420aac6112cb974b57198f5f4c8332c7c329da12d0baae4a05e26c5ba99764736f6c634300080d0033",
					"opcodes": "PUSH1 0x80 PUSH1 0x40 MSTORE PUSH9 0x2B5E3AF16B1880000 PUSH1 0x0 SSTORE CALLVALUE DUP1 ISZERO PUSH2 0x1D JUMPI PUSH1 0x0 DUP1 REVERT JUMPDEST POP PUSH2 0x89E DUP1 PUSH2 0x2D PUSH1 0x0 CODECOPY PUSH1 0x0 RETURN INVALID PUSH1 0x80 PUSH1 0x40 MSTORE PUSH1 0x4 CALLDATASIZE LT PUSH2 0x55 JUMPI PUSH1 0x0 CALLDATALOAD PUSH1 0xE0 SHR DUP1 PUSH4 0x47FF62C6 EQ PUSH2 0x5A JUMPI DUP1 PUSH4 0x66B30F06 EQ PUSH2 0x97 JUMPI DUP1 PUSH4 0x6CE1417E EQ PUSH2 0xC2 JUMPI DUP1 PUSH4 0x6D90164E EQ PUSH2 0xCC JUMPI DUP1 PUSH4 0x793B233B EQ PUSH2 0xF7 JUMPI DUP1 PUSH4 0xC6129A5A EQ PUSH2 0x134 JUMPI JUMPDEST PUSH1 0x0 DUP1 REVERT JUMPDEST CALLVALUE DUP1 ISZERO PUSH2 0x66 JUMPI PUSH1 0x0 DUP1 REVERT JUMPDEST POP PUSH2 0x81 PUSH1 0x4 DUP1 CALLDATASIZE SUB DUP2 ADD SWAP1 PUSH2 0x7C SWAP2 SWAP1 PUSH2 0x403 JUMP JUMPDEST PUSH2 0x15F JUMP JUMPDEST PUSH1 0x40 MLOAD PUSH2 0x8E SWAP2 SWAP1 PUSH2 0x471 JUMP JUMPDEST PUSH1 0x40 MLOAD DUP1 SWAP2 SUB SWAP1 RETURN JUMPDEST CALLVALUE DUP1 ISZERO PUSH2 0xA3 JUMPI PUSH1 0x0 DUP1 REVERT JUMPDEST POP PUSH2 0xAC PUSH2 0x19E JUMP JUMPDEST PUSH1 0x40 MLOAD PUSH2 0xB9 SWAP2 SWAP1 PUSH2 0x49B JUMP JUMPDEST PUSH1 0x40 MLOAD DUP1 SWAP2 SUB SWAP1 RETURN JUMPDEST PUSH2 0xCA PUSH2 0x1A4 JUMP JUMPDEST STOP JUMPDEST CALLVALUE DUP1 ISZERO PUSH2 0xD8 JUMPI PUSH1 0x0 DUP1 REVERT JUMPDEST POP PUSH2 0xE1 PUSH2 0x256 JUMP JUMPDEST PUSH1 0x40 MLOAD PUSH2 0xEE SWAP2 SWAP1 PUSH2 0x49B JUMP JUMPDEST PUSH1 0x40 MLOAD DUP1 SWAP2 SUB SWAP1 RETURN JUMPDEST CALLVALUE DUP1 ISZERO PUSH2 0x103 JUMPI PUSH1 0x0 DUP1 REVERT JUMPDEST POP PUSH2 0x11E PUSH1 0x4 DUP1 CALLDATASIZE SUB DUP2 ADD SWAP1 PUSH2 0x119 SWAP2 SWAP1 PUSH2 0x403 JUMP JUMPDEST PUSH2 0x2FF JUMP JUMPDEST PUSH1 0x40 MLOAD PUSH2 0x12B SWAP2 SWAP1 PUSH2 0x49B JUMP JUMPDEST PUSH1 0x40 MLOAD DUP1 SWAP2 SUB SWAP1 RETURN JUMPDEST CALLVALUE DUP1 ISZERO PUSH2 0x140 JUMPI PUSH1 0x0 DUP1 REVERT JUMPDEST POP PUSH2 0x149 PUSH2 0x339 JUMP JUMPDEST PUSH1 0x40 MLOAD PUSH2 0x156 SWAP2 SWAP1 PUSH2 0x49B JUMP JUMPDEST PUSH1 0x40 MLOAD DUP1 SWAP2 SUB SWAP1 RETURN JUMPDEST PUSH1 0x1 DUP2 DUP2 SLOAD DUP2 LT PUSH2 0x16F JUMPI PUSH1 0x0 DUP1 REVERT JUMPDEST SWAP1 PUSH1 0x0 MSTORE PUSH1 0x20 PUSH1 0x0 KECCAK256 ADD PUSH1 0x0 SWAP2 POP SLOAD SWAP1 PUSH2 0x100 EXP SWAP1 DIV PUSH20 0xFFFFFFFFFFFFFFFFFFFFFFFFFFFFFFFFFFFFFFFF AND DUP2 JUMP JUMPDEST PUSH1 0x0 SLOAD DUP2 JUMP JUMPDEST PUSH1 0x0 SLOAD PUSH2 0x1B0 CALLVALUE PUSH2 0x2FF JUMP JUMPDEST LT ISZERO PUSH2 0x1F1 JUMPI PUSH1 0x40 MLOAD PUSH32 0x8C379A000000000000000000000000000000000000000000000000000000000 DUP2 MSTORE PUSH1 0x4 ADD PUSH2 0x1E8 SWAP1 PUSH2 0x513 JUMP JUMPDEST PUSH1 0x40 MLOAD DUP1 SWAP2 SUB SWAP1 REVERT JUMPDEST PUSH1 0x1 CALLER SWAP1 DUP1 PUSH1 0x1 DUP2 SLOAD ADD DUP1 DUP3 SSTORE DUP1 SWAP2 POP POP PUSH1 0x1 SWAP1 SUB SWAP1 PUSH1 0x0 MSTORE PUSH1 0x20 PUSH1 0x0 KECCAK256 ADD PUSH1 0x0 SWAP1 SWAP2 SWAP1 SWAP2 SWAP1 SWAP2 PUSH2 0x100 EXP DUP2 SLOAD DUP2 PUSH20 0xFFFFFFFFFFFFFFFFFFFFFFFFFFFFFFFFFFFFFFFF MUL NOT AND SWAP1 DUP4 PUSH20 0xFFFFFFFFFFFFFFFFFFFFFFFFFFFFFFFFFFFFFFFF AND MUL OR SWAP1 SSTORE POP JUMP JUMPDEST PUSH1 0x0 DUP1 PUSH20 0x8A753747A1FA494EC906CE90E9F37563A8AF630E SWAP1 POP PUSH1 0x0 DUP2 PUSH20 0xFFFFFFFFFFFFFFFFFFFFFFFFFFFFFFFFFFFFFFFF AND PUSH4 0xFEAF968C PUSH1 0x40 MLOAD DUP2 PUSH4 0xFFFFFFFF AND PUSH1 0xE0 SHL DUP2 MSTORE PUSH1 0x4 ADD PUSH1 0xA0 PUSH1 0x40 MLOAD DUP1 DUP4 SUB DUP2 DUP7 GAS STATICCALL ISZERO DUP1 ISZERO PUSH2 0x2BD JUMPI RETURNDATASIZE PUSH1 0x0 DUP1 RETURNDATACOPY RETURNDATASIZE PUSH1 0x0 REVERT JUMPDEST POP POP POP POP PUSH1 0x40 MLOAD RETURNDATASIZE PUSH1 0x1F NOT PUSH1 0x1F DUP3 ADD AND DUP3 ADD DUP1 PUSH1 0x40 MSTORE POP DUP2 ADD SWAP1 PUSH2 0x2E1 SWAP2 SWAP1 PUSH2 0x5C0 JUMP JUMPDEST POP POP POP SWAP2 POP POP PUSH5 0x2540BE400 DUP2 PUSH2 0x2F8 SWAP2 SWAP1 PUSH2 0x66A JUMP JUMPDEST SWAP3 POP POP POP SWAP1 JUMP JUMPDEST PUSH1 0x0 DUP1 PUSH2 0x30A PUSH2 0x256 JUMP JUMPDEST SWAP1 POP PUSH1 0x0 PUSH8 0xDE0B6B3A7640000 DUP5 DUP4 PUSH2 0x323 SWAP2 SWAP1 PUSH2 0x781 JUMP JUMPDEST PUSH2 0x32D SWAP2 SWAP1 PUSH2 0x80A JUMP JUMPDEST SWAP1 POP DUP1 SWAP3 POP POP POP SWAP2 SWAP1 POP JUMP JUMPDEST PUSH1 0x0 DUP1 PUSH20 0x8A753747A1FA494EC906CE90E9F37563A8AF630E SWAP1 POP DUP1 PUSH20 0xFFFFFFFFFFFFFFFFFFFFFFFFFFFFFFFFFFFFFFFF AND PUSH4 0x54FD4D50 PUSH1 0x40 MLOAD DUP2 PUSH4 0xFFFFFFFF AND PUSH1 0xE0 SHL DUP2 MSTORE PUSH1 0x4 ADD PUSH1 0x20 PUSH1 0x40 MLOAD DUP1 DUP4 SUB DUP2 DUP7 GAS STATICCALL ISZERO DUP1 ISZERO PUSH2 0x39E JUMPI RETURNDATASIZE PUSH1 0x0 DUP1 RETURNDATACOPY RETURNDATASIZE PUSH1 0x0 REVERT JUMPDEST POP POP POP POP PUSH1 0x40 MLOAD RETURNDATASIZE PUSH1 0x1F NOT PUSH1 0x1F DUP3 ADD AND DUP3 ADD DUP1 PUSH1 0x40 MSTORE POP DUP2 ADD SWAP1 PUSH2 0x3C2 SWAP2 SWAP1 PUSH2 0x83B JUMP JUMPDEST SWAP2 POP POP SWAP1 JUMP JUMPDEST PUSH1 0x0 DUP1 REVERT JUMPDEST PUSH1 0x0 DUP2 SWAP1 POP SWAP2 SWAP1 POP JUMP JUMPDEST PUSH2 0x3E0 DUP2 PUSH2 0x3CD JUMP JUMPDEST DUP2 EQ PUSH2 0x3EB JUMPI PUSH1 0x0 DUP1 REVERT JUMPDEST POP JUMP JUMPDEST PUSH1 0x0 DUP2 CALLDATALOAD SWAP1 POP PUSH2 0x3FD DUP2 PUSH2 0x3D7 JUMP JUMPDEST SWAP3 SWAP2 POP POP JUMP JUMPDEST PUSH1 0x0 PUSH1 0x20 DUP3 DUP5 SUB SLT ISZERO PUSH2 0x419 JUMPI PUSH2 0x418 PUSH2 0x3C8 JUMP JUMPDEST JUMPDEST PUSH1 0x0 PUSH2 0x427 DUP5 DUP3 DUP6 ADD PUSH2 0x3EE JUMP JUMPDEST SWAP2 POP POP SWAP3 SWAP2 POP POP JUMP JUMPDEST PUSH1 0x0 PUSH20 0xFFFFFFFFFFFFFFFFFFFFFFFFFFFFFFFFFFFFFFFF DUP3 AND SWAP1 POP SWAP2 SWAP1 POP JUMP JUMPDEST PUSH1 0x0 PUSH2 0x45B DUP3 PUSH2 0x430 JUMP JUMPDEST SWAP1 POP SWAP2 SWAP1 POP JUMP JUMPDEST PUSH2 0x46B DUP2 PUSH2 0x450 JUMP JUMPDEST DUP3 MSTORE POP POP JUMP JUMPDEST PUSH1 0x0 PUSH1 0x20 DUP3 ADD SWAP1 POP PUSH2 0x486 PUSH1 0x0 DUP4 ADD DUP5 PUSH2 0x462 JUMP JUMPDEST SWAP3 SWAP2 POP POP JUMP JUMPDEST PUSH2 0x495 DUP2 PUSH2 0x3CD JUMP JUMPDEST DUP3 MSTORE POP POP JUMP JUMPDEST PUSH1 0x0 PUSH1 0x20 DUP3 ADD SWAP1 POP PUSH2 0x4B0 PUSH1 0x0 DUP4 ADD DUP5 PUSH2 0x48C JUMP JUMPDEST SWAP3 SWAP2 POP POP JUMP JUMPDEST PUSH1 0x0 DUP3 DUP3 MSTORE PUSH1 0x20 DUP3 ADD SWAP1 POP SWAP3 SWAP2 POP POP JUMP JUMPDEST PUSH32 0x4469646E27742073656E6420656E6F7567680000000000000000000000000000 PUSH1 0x0 DUP3 ADD MSTORE POP JUMP JUMPDEST PUSH1 0x0 PUSH2 0x4FD PUSH1 0x12 DUP4 PUSH2 0x4B6 JUMP JUMPDEST SWAP2 POP PUSH2 0x508 DUP3 PUSH2 0x4C7 JUMP JUMPDEST PUSH1 0x20 DUP3 ADD SWAP1 POP SWAP2 SWAP1 POP JUMP JUMPDEST PUSH1 0x0 PUSH1 0x20 DUP3 ADD SWAP1 POP DUP2 DUP2 SUB PUSH1 0x0 DUP4 ADD MSTORE PUSH2 0x52C DUP2 PUSH2 0x4F0 JUMP JUMPDEST SWAP1 POP SWAP2 SWAP1 POP JUMP JUMPDEST PUSH1 0x0 PUSH10 0xFFFFFFFFFFFFFFFFFFFF DUP3 AND SWAP1 POP SWAP2 SWAP1 POP JUMP JUMPDEST PUSH2 0x552 DUP2 PUSH2 0x533 JUMP JUMPDEST DUP2 EQ PUSH2 0x55D JUMPI PUSH1 0x0 DUP1 REVERT JUMPDEST POP JUMP JUMPDEST PUSH1 0x0 DUP2 MLOAD SWAP1 POP PUSH2 0x56F DUP2 PUSH2 0x549 JUMP JUMPDEST SWAP3 SWAP2 POP POP JUMP JUMPDEST PUSH1 0x0 DUP2 SWAP1 POP SWAP2 SWAP1 POP JUMP JUMPDEST PUSH2 0x588 DUP2 PUSH2 0x575 JUMP JUMPDEST DUP2 EQ PUSH2 0x593 JUMPI PUSH1 0x0 DUP1 REVERT JUMPDEST POP JUMP JUMPDEST PUSH1 0x0 DUP2 MLOAD SWAP1 POP PUSH2 0x5A5 DUP2 PUSH2 0x57F JUMP JUMPDEST SWAP3 SWAP2 POP POP JUMP JUMPDEST PUSH1 0x0 DUP2 MLOAD SWAP1 POP PUSH2 0x5BA DUP2 PUSH2 0x3D7 JUMP JUMPDEST SWAP3 SWAP2 POP POP JUMP JUMPDEST PUSH1 0x0 DUP1 PUSH1 0x0 DUP1 PUSH1 0x0 PUSH1 0xA0 DUP7 DUP9 SUB SLT ISZERO PUSH2 0x5DC JUMPI PUSH2 0x5DB PUSH2 0x3C8 JUMP JUMPDEST JUMPDEST PUSH1 0x0 PUSH2 0x5EA DUP9 DUP3 DUP10 ADD PUSH2 0x560 JUMP JUMPDEST SWAP6 POP POP PUSH1 0x20 PUSH2 0x5FB DUP9 DUP3 DUP10 ADD PUSH2 0x596 JUMP JUMPDEST SWAP5 POP POP PUSH1 0x40 PUSH2 0x60C DUP9 DUP3 DUP10 ADD PUSH2 0x5AB JUMP JUMPDEST SWAP4 POP POP PUSH1 0x60 PUSH2 0x61D DUP9 DUP3 DUP10 ADD PUSH2 0x5AB JUMP JUMPDEST SWAP3 POP POP PUSH1 0x80 PUSH2 0x62E DUP9 DUP3 DUP10 ADD PUSH2 0x560 JUMP JUMPDEST SWAP2 POP POP SWAP3 SWAP6 POP SWAP3 SWAP6 SWAP1 SWAP4 POP JUMP JUMPDEST PUSH32 0x4E487B7100000000000000000000000000000000000000000000000000000000 PUSH1 0x0 MSTORE PUSH1 0x11 PUSH1 0x4 MSTORE PUSH1 0x24 PUSH1 0x0 REVERT JUMPDEST PUSH1 0x0 PUSH2 0x675 DUP3 PUSH2 0x575 JUMP JUMPDEST SWAP2 POP PUSH2 0x680 DUP4 PUSH2 0x575 JUMP JUMPDEST SWAP3 POP DUP3 PUSH32 0x7FFFFFFFFFFFFFFFFFFFFFFFFFFFFFFFFFFFFFFFFFFFFFFFFFFFFFFFFFFFFFFF DIV DUP3 GT PUSH1 0x0 DUP5 SGT PUSH1 0x0 DUP5 SGT AND AND ISZERO PUSH2 0x6BF JUMPI PUSH2 0x6BE PUSH2 0x63B JUMP JUMPDEST JUMPDEST DUP2 PUSH32 0x8000000000000000000000000000000000000000000000000000000000000000 SDIV DUP4 SLT PUSH1 0x0 DUP5 SLT PUSH1 0x0 DUP5 SGT AND AND ISZERO PUSH2 0x6FC JUMPI PUSH2 0x6FB PUSH2 0x63B JUMP JUMPDEST JUMPDEST DUP3 PUSH32 0x8000000000000000000000000000000000000000000000000000000000000000 SDIV DUP3 SLT PUSH1 0x0 DUP5 SGT PUSH1 0x0 DUP5 SLT AND AND ISZERO PUSH2 0x739 JUMPI PUSH2 0x738 PUSH2 0x63B JUMP JUMPDEST JUMPDEST DUP3 PUSH32 0x7FFFFFFFFFFFFFFFFFFFFFFFFFFFFFFFFFFFFFFFFFFFFFFFFFFFFFFFFFFFFFFF SDIV DUP3 SLT PUSH1 0x0 DUP5 SLT PUSH1 0x0 DUP5 SLT AND AND ISZERO PUSH2 0x776 JUMPI PUSH2 0x775 PUSH2 0x63B JUMP JUMPDEST JUMPDEST DUP3 DUP3 MUL SWAP1 POP SWAP3 SWAP2 POP POP JUMP JUMPDEST PUSH1 0x0 PUSH2 0x78C DUP3 PUSH2 0x3CD JUMP JUMPDEST SWAP2 POP PUSH2 0x797 DUP4 PUSH2 0x3CD JUMP JUMPDEST SWAP3 POP DUP2 PUSH32 0xFFFFFFFFFFFFFFFFFFFFFFFFFFFFFFFFFFFFFFFFFFFFFFFFFFFFFFFFFFFFFFFF DIV DUP4 GT DUP3 ISZERO ISZERO AND ISZERO PUSH2 0x7D0 JUMPI PUSH2 0x7CF PUSH2 0x63B JUMP JUMPDEST JUMPDEST DUP3 DUP3 MUL SWAP1 POP SWAP3 SWAP2 POP POP JUMP JUMPDEST PUSH32 0x4E487B7100000000000000000000000000000000000000000000000000000000 PUSH1 0x0 MSTORE PUSH1 0x12 PUSH1 0x4 MSTORE PUSH1 0x24 PUSH1 0x0 REVERT JUMPDEST PUSH1 0x0 PUSH2 0x815 DUP3 PUSH2 0x3CD JUMP JUMPDEST SWAP2 POP PUSH2 0x820 DUP4 PUSH2 0x3CD JUMP JUMPDEST SWAP3 POP DUP3 PUSH2 0x830 JUMPI PUSH2 0x82F PUSH2 0x7DB JUMP JUMPDEST JUMPDEST DUP3 DUP3 DIV SWAP1 POP SWAP3 SWAP2 POP POP JUMP JUMPDEST PUSH1 0x0 PUSH1 0x20 DUP3 DUP5 SUB SLT ISZERO PUSH2 0x851 JUMPI PUSH2 0x850 PUSH2 0x3C8 JUMP JUMPDEST JUMPDEST PUSH1 0x0 PUSH2 0x85F DUP5 DUP3 DUP6 ADD PUSH2 0x5AB JUMP JUMPDEST SWAP2 POP POP SWAP3 SWAP2 POP POP JUMP INVALID LOG2 PUSH5 0x6970667358 0x22 SLT KECCAK256 0x2E GASLIMIT TIMESTAMP EXP 0xAC PUSH2 0x12CB SWAP8 0x4B JUMPI NOT DUP16 0x5F 0x4C DUP4 ORIGIN 0xC7 0xC3 0x29 0xDA SLT 0xD0 0xBA 0xAE 0x4A SDIV 0xE2 PUSH13 0x5BA99764736F6C634300080D00 CALLER "
				},
				"gasEstimates": {
					"creation": {
						"codeDepositCost": "441200",
						"executionCost": "22580",
						"totalCost": "463780"
					},
					"external": {
						"Fund()": "infinite",
						"GetConversionRate(uint256)": "infinite",
						"GetPrice()": "infinite",
						"GetVersion()": "infinite",
						"fundersList(uint256)": "4934",
						"minimumFund()": "2429"
					}
				},
				"methodIdentifiers": {
					"Fund()": "6ce1417e",
					"GetConversionRate(uint256)": "793b233b",
					"GetPrice()": "6d90164e",
					"GetVersion()": "c6129a5a",
					"fundersList(uint256)": "47ff62c6",
					"minimumFund()": "66b30f06"
				}
			},
			"storageLayout": {
				"storage": [
					{
						"astId": 53,
						"contract": "contracts/FundMe.sol:FundMe",
						"label": "minimumFund",
						"offset": 0,
						"slot": "0",
						"type": "t_uint256"
					},
					{
						"astId": 56,
						"contract": "contracts/FundMe.sol:FundMe",
						"label": "fundersList",
						"offset": 0,
						"slot": "1",
						"type": "t_array(t_address)dyn_storage"
					}
				],
				"types": {
					"t_address": {
						"encoding": "inplace",
						"label": "address",
						"numberOfBytes": "20"
					},
					"t_array(t_address)dyn_storage": {
						"base": "t_address",
						"encoding": "dynamic_array",
						"label": "address[]",
						"numberOfBytes": "32"
					},
					"t_uint256": {
						"encoding": "inplace",
						"label": "uint256",
						"numberOfBytes": "32"
					}
				}
			},
			"userdoc": {
				"kind": "user",
				"methods": {},
				"version": 1
			}
		}
	}
}