{
	"contracts/FundMe.sol": {
		"FundMe": {
			"abi": [
				{
					"inputs": [],
					"name": "Fund",
					"outputs": [],
					"stateMutability": "payable",
					"type": "function"
				},
				{
					"inputs": [],
					"name": "minimumFund",
					"outputs": [
						{
							"internalType": "uint256",
							"name": "",
							"type": "uint256"
						}
					],
					"stateMutability": "view",
					"type": "function"
				}
			],
			"devdoc": {
				"kind": "dev",
				"methods": {},
				"version": 1
			},
			"evm": {
				"assembly": "    /* \"contracts/FundMe.sol\":144:430  contract FundMe{... */\n  mstore(0x40, 0x80)\n    /* \"contracts/FundMe.sol\":197:199  50 */\n  0x32\n    /* \"contracts/FundMe.sol\":168:199  uint256 public minimumFund = 50 */\n  0x00\n  sstore\n    /* \"contracts/FundMe.sol\":144:430  contract FundMe{... */\n  callvalue\n  dup1\n  iszero\n  tag_1\n  jumpi\n  0x00\n  dup1\n  revert\ntag_1:\n  pop\n  dataSize(sub_0)\n  dup1\n  dataOffset(sub_0)\n  0x00\n  codecopy\n  0x00\n  return\nstop\n\nsub_0: assembly {\n        /* \"contracts/FundMe.sol\":144:430  contract FundMe{... */\n      mstore(0x40, 0x80)\n      jumpi(tag_1, lt(calldatasize, 0x04))\n      shr(0xe0, calldataload(0x00))\n      dup1\n      0x66b30f06\n      eq\n      tag_2\n      jumpi\n      dup1\n      0x6ce1417e\n      eq\n      tag_3\n      jumpi\n    tag_1:\n      0x00\n      dup1\n      revert\n        /* \"contracts/FundMe.sol\":168:199  uint256 public minimumFund = 50 */\n    tag_2:\n      callvalue\n      dup1\n      iszero\n      tag_4\n      jumpi\n      0x00\n      dup1\n      revert\n    tag_4:\n      pop\n      tag_5\n      tag_6\n      jump\t// in\n    tag_5:\n      mload(0x40)\n      tag_7\n      swap2\n      swap1\n      tag_8\n      jump\t// in\n    tag_7:\n      mload(0x40)\n      dup1\n      swap2\n      sub\n      swap1\n      return\n        /* \"contracts/FundMe.sol\":280:384  function Fund() public payable{... */\n    tag_3:\n      tag_9\n      tag_10\n      jump\t// in\n    tag_9:\n      stop\n        /* \"contracts/FundMe.sol\":168:199  uint256 public minimumFund = 50 */\n    tag_6:\n      sload(0x00)\n      dup2\n      jump\t// out\n        /* \"contracts/FundMe.sol\":280:384  function Fund() public payable{... */\n    tag_10:\n        /* \"contracts/FundMe.sol\":342:353  minimumFund */\n      sload(0x00)\n        /* \"contracts/FundMe.sol\":329:338  msg.value */\n      callvalue\n        /* \"contracts/FundMe.sol\":329:353  msg.value >= minimumFund */\n      lt\n      iszero\n        /* \"contracts/FundMe.sol\":321:376  require(msg.value >= minimumFund, \"Didn't send enough\") */\n      tag_12\n      jumpi\n      mload(0x40)\n      0x08c379a000000000000000000000000000000000000000000000000000000000\n      dup2\n      mstore\n      0x04\n      add\n      tag_13\n      swap1\n      tag_14\n      jump\t// in\n    tag_13:\n      mload(0x40)\n      dup1\n      swap2\n      sub\n      swap1\n      revert\n    tag_12:\n        /* \"contracts/FundMe.sol\":280:384  function Fund() public payable{... */\n      jump\t// out\n        /* \"#utility.yul\":7:84   */\n    tag_15:\n        /* \"#utility.yul\":44:51   */\n      0x00\n        /* \"#utility.yul\":73:78   */\n      dup2\n        /* \"#utility.yul\":62:78   */\n      swap1\n      pop\n        /* \"#utility.yul\":7:84   */\n      swap2\n      swap1\n      pop\n      jump\t// out\n        /* \"#utility.yul\":90:208   */\n    tag_16:\n        /* \"#utility.yul\":177:201   */\n      tag_23\n        /* \"#utility.yul\":195:200   */\n      dup2\n        /* \"#utility.yul\":177:201   */\n      tag_15\n      jump\t// in\n    tag_23:\n        /* \"#utility.yul\":172:175   */\n      dup3\n        /* \"#utility.yul\":165:202   */\n      mstore\n        /* \"#utility.yul\":90:208   */\n      pop\n      pop\n      jump\t// out\n        /* \"#utility.yul\":214:436   */\n    tag_8:\n        /* \"#utility.yul\":307:311   */\n      0x00\n        /* \"#utility.yul\":345:347   */\n      0x20\n        /* \"#utility.yul\":334:343   */\n      dup3\n        /* \"#utility.yul\":330:348   */\n      add\n        /* \"#utility.yul\":322:348   */\n      swap1\n      pop\n        /* \"#utility.yul\":358:429   */\n      tag_25\n        /* \"#utility.yul\":426:427   */\n      0x00\n        /* \"#utility.yul\":415:424   */\n      dup4\n        /* \"#utility.yul\":411:428   */\n      add\n        /* \"#utility.yul\":402:408   */\n      dup5\n        /* \"#utility.yul\":358:429   */\n      tag_16\n      jump\t// in\n    tag_25:\n        /* \"#utility.yul\":214:436   */\n      swap3\n      swap2\n      pop\n      pop\n      jump\t// out\n        /* \"#utility.yul\":442:611   */\n    tag_17:\n        /* \"#utility.yul\":526:537   */\n      0x00\n        /* \"#utility.yul\":560:566   */\n      dup3\n        /* \"#utility.yul\":555:558   */\n      dup3\n        /* \"#utility.yul\":548:567   */\n      mstore\n        /* \"#utility.yul\":600:604   */\n      0x20\n        /* \"#utility.yul\":595:598   */\n      dup3\n        /* \"#utility.yul\":591:605   */\n      add\n        /* \"#utility.yul\":576:605   */\n      swap1\n      pop\n        /* \"#utility.yul\":442:611   */\n      swap3\n      swap2\n      pop\n      pop\n      jump\t// out\n        /* \"#utility.yul\":617:785   */\n    tag_18:\n        /* \"#utility.yul\":757:777   */\n      0x4469646e27742073656e6420656e6f7567680000000000000000000000000000\n        /* \"#utility.yul\":753:754   */\n      0x00\n        /* \"#utility.yul\":745:751   */\n      dup3\n        /* \"#utility.yul\":741:755   */\n      add\n        /* \"#utility.yul\":734:778   */\n      mstore\n        /* \"#utility.yul\":617:785   */\n      pop\n      jump\t// out\n        /* \"#utility.yul\":791:1157   */\n    tag_19:\n        /* \"#utility.yul\":933:936   */\n      0x00\n        /* \"#utility.yul\":954:1021   */\n      tag_29\n        /* \"#utility.yul\":1018:1020   */\n      0x12\n        /* \"#utility.yul\":1013:1016   */\n      dup4\n        /* \"#utility.yul\":954:1021   */\n      tag_17\n      jump\t// in\n    tag_29:\n        /* \"#utility.yul\":947:1021   */\n      swap2\n      pop\n        /* \"#utility.yul\":1030:1123   */\n      tag_30\n        /* \"#utility.yul\":1119:1122   */\n      dup3\n        /* \"#utility.yul\":1030:1123   */\n      tag_18\n      jump\t// in\n    tag_30:\n        /* \"#utility.yul\":1148:1150   */\n      0x20\n        /* \"#utility.yul\":1143:1146   */\n      dup3\n        /* \"#utility.yul\":1139:1151   */\n      add\n        /* \"#utility.yul\":1132:1151   */\n      swap1\n      pop\n        /* \"#utility.yul\":791:1157   */\n      swap2\n      swap1\n      pop\n      jump\t// out\n        /* \"#utility.yul\":1163:1582   */\n    tag_14:\n        /* \"#utility.yul\":1329:1333   */\n      0x00\n        /* \"#utility.yul\":1367:1369   */\n      0x20\n        /* \"#utility.yul\":1356:1365   */\n      dup3\n        /* \"#utility.yul\":1352:1370   */\n      add\n        /* \"#utility.yul\":1344:1370   */\n      swap1\n      pop\n        /* \"#utility.yul\":1416:1425   */\n      dup2\n        /* \"#utility.yul\":1410:1414   */\n      dup2\n        /* \"#utility.yul\":1406:1426   */\n      sub\n        /* \"#utility.yul\":1402:1403   */\n      0x00\n        /* \"#utility.yul\":1391:1400   */\n      dup4\n        /* \"#utility.yul\":1387:1404   */\n      add\n        /* \"#utility.yul\":1380:1427   */\n      mstore\n        /* \"#utility.yul\":1444:1575   */\n      tag_32\n        /* \"#utility.yul\":1570:1574   */\n      dup2\n        /* \"#utility.yul\":1444:1575   */\n      tag_19\n      jump\t// in\n    tag_32:\n        /* \"#utility.yul\":1436:1575   */\n      swap1\n      pop\n        /* \"#utility.yul\":1163:1582   */\n      swap2\n      swap1\n      pop\n      jump\t// out\n\n    auxdata: 0xa2646970667358221220583e328baec262c8a5d9199c6db8a130000c5f7b5679e23c801ad86cef66a83964736f6c634300080d0033\n}\n",
				"bytecode": {
					"linkReferences": {},
					"object": "6080604052603260005534801561001557600080fd5b50610197806100256000396000f3fe6080604052600436106100295760003560e01c806366b30f061461002e5780636ce1417e14610059575b600080fd5b34801561003a57600080fd5b50610043610063565b60405161005091906100c9565b60405180910390f35b610061610069565b005b60005481565b6000543410156100ae576040517f08c379a00000000000000000000000000000000000000000000000000000000081526004016100a590610141565b60405180910390fd5b565b6000819050919050565b6100c3816100b0565b82525050565b60006020820190506100de60008301846100ba565b92915050565b600082825260208201905092915050565b7f4469646e27742073656e6420656e6f7567680000000000000000000000000000600082015250565b600061012b6012836100e4565b9150610136826100f5565b602082019050919050565b6000602082019050818103600083015261015a8161011e565b905091905056fea2646970667358221220583e328baec262c8a5d9199c6db8a130000c5f7b5679e23c801ad86cef66a83964736f6c634300080d0033",
					"opcodes": "PUSH1 0x80 PUSH1 0x40 MSTORE PUSH1 0x32 PUSH1 0x0 SSTORE CALLVALUE DUP1 ISZERO PUSH2 0x15 JUMPI PUSH1 0x0 DUP1 REVERT JUMPDEST POP PUSH2 0x197 DUP1 PUSH2 0x25 PUSH1 0x0 CODECOPY PUSH1 0x0 RETURN INVALID PUSH1 0x80 PUSH1 0x40 MSTORE PUSH1 0x4 CALLDATASIZE LT PUSH2 0x29 JUMPI PUSH1 0x0 CALLDATALOAD PUSH1 0xE0 SHR DUP1 PUSH4 0x66B30F06 EQ PUSH2 0x2E JUMPI DUP1 PUSH4 0x6CE1417E EQ PUSH2 0x59 JUMPI JUMPDEST PUSH1 0x0 DUP1 REVERT JUMPDEST CALLVALUE DUP1 ISZERO PUSH2 0x3A JUMPI PUSH1 0x0 DUP1 REVERT JUMPDEST POP PUSH2 0x43 PUSH2 0x63 JUMP JUMPDEST PUSH1 0x40 MLOAD PUSH2 0x50 SWAP2 SWAP1 PUSH2 0xC9 JUMP JUMPDEST PUSH1 0x40 MLOAD DUP1 SWAP2 SUB SWAP1 RETURN JUMPDEST PUSH2 0x61 PUSH2 0x69 JUMP JUMPDEST STOP JUMPDEST PUSH1 0x0 SLOAD DUP2 JUMP JUMPDEST PUSH1 0x0 SLOAD CALLVALUE LT ISZERO PUSH2 0xAE JUMPI PUSH1 0x40 MLOAD PUSH32 0x8C379A000000000000000000000000000000000000000000000000000000000 DUP2 MSTORE PUSH1 0x4 ADD PUSH2 0xA5 SWAP1 PUSH2 0x141 JUMP JUMPDEST PUSH1 0x40 MLOAD DUP1 SWAP2 SUB SWAP1 REVERT JUMPDEST JUMP JUMPDEST PUSH1 0x0 DUP2 SWAP1 POP SWAP2 SWAP1 POP JUMP JUMPDEST PUSH2 0xC3 DUP2 PUSH2 0xB0 JUMP JUMPDEST DUP3 MSTORE POP POP JUMP JUMPDEST PUSH1 0x0 PUSH1 0x20 DUP3 ADD SWAP1 POP PUSH2 0xDE PUSH1 0x0 DUP4 ADD DUP5 PUSH2 0xBA JUMP JUMPDEST SWAP3 SWAP2 POP POP JUMP JUMPDEST PUSH1 0x0 DUP3 DUP3 MSTORE PUSH1 0x20 DUP3 ADD SWAP1 POP SWAP3 SWAP2 POP POP JUMP JUMPDEST PUSH32 0x4469646E27742073656E6420656E6F7567680000000000000000000000000000 PUSH1 0x0 DUP3 ADD MSTORE POP JUMP JUMPDEST PUSH1 0x0 PUSH2 0x12B PUSH1 0x12 DUP4 PUSH2 0xE4 JUMP JUMPDEST SWAP2 POP PUSH2 0x136 DUP3 PUSH2 0xF5 JUMP JUMPDEST PUSH1 0x20 DUP3 ADD SWAP1 POP SWAP2 SWAP1 POP JUMP JUMPDEST PUSH1 0x0 PUSH1 0x20 DUP3 ADD SWAP1 POP DUP2 DUP2 SUB PUSH1 0x0 DUP4 ADD MSTORE PUSH2 0x15A DUP2 PUSH2 0x11E JUMP JUMPDEST SWAP1 POP SWAP2 SWAP1 POP JUMP INVALID LOG2 PUSH5 0x6970667358 0x22 SLT KECCAK256 PC RETURNDATACOPY ORIGIN DUP12 0xAE 0xC2 PUSH3 0xC8A5D9 NOT SWAP13 PUSH14 0xB8A130000C5F7B5679E23C801AD8 PUSH13 0xEF66A83964736F6C634300080D STOP CALLER "
				},
				"gasEstimates": {
					"creation": {
						"codeDepositCost": "81400",
						"executionCost": "22235",
						"totalCost": "103635"
					},
					"external": {
						"Fund()": "2534",
						"minimumFund()": "2407"
					}
				},
				"methodIdentifiers": {
					"Fund()": "6ce1417e",
					"minimumFund()": "66b30f06"
				}
			},
			"storageLayout": {
				"storage": [
					{
						"astId": 51,
						"contract": "contracts/FundMe.sol:FundMe",
						"label": "minimumFund",
						"offset": 0,
						"slot": "0",
						"type": "t_uint256"
					}
				],
				"types": {
					"t_uint256": {
						"encoding": "inplace",
						"label": "uint256",
						"numberOfBytes": "32"
					}
				}
			},
			"userdoc": {
				"kind": "user",
				"methods": {},
				"version": 1
			}
		}
	}
}